:100000000C94BD010C944D150C9422150C94F7140E
:100010000C94CC140C94A1140C9476140C944B14E2
:100020000C9420140C94EE010C94EE010C94EE014F
:100030000C94EE010C94EE010C94EE010C94EE0184
:100040000C94EE010C94EE010C94EE010C94EE0174
:100050000C94EE010C94EE010C94EE010C94D6136A
:100060000C94EE010C94A2150C9478150C94EE01EE
:100070000C94EE010C94EE010C94EE010C94EE0144
:100080000C94EE010C94EE010C94EE010C94EE0134
:100090000C94EE010C94EE010C94EE010C94B6124B
:1000A0000C94EE010C94EE010C94EE010C94EE0114
:1000B0000C94EE010C94EE010C94EE010C94EE0104
:1000C0000C94EE010C94EE010C94EE010C94EE01F4
:1000D0000C94EE010C94EE010C94EE010C94EE01E4
:1000E0000C94EE01084AD73B3BCE016E84BCBFFDA9
:1000F000C12F3D6C74319ABD56833DDA3D00C77FF8
:1001000011BED9E4BB4C3E916BAAAABE0000008090
:100110003F05A84CCDB2D44EB93836A9020C50B91F
:10012000918688083CA6AAAA2ABE000000803F004B
:100130000C94C1020C94E4020C946E020C9418020C
:100140000C94E1060C94C1080C9400030C94FC027E
:100150000C9448040C94B1090C94470B0C94CD02F8
:100160000C94B1170C94200E0C94D0020C94FD0644
:100170000C9435080C94F2020C94E8020C9451078C
:100180000C9475040C9493040C9427020C941A0498
:100190000C9452040C94EE020C940B040C94C502C3
:1001A0000C943A020C94E0020C9497070C94B20958
:1001B0000C9424040C94FE060C9441020C94030449
:1001C0000C94430B0C94F6020C943F0B0C943F08D8
:1001D0000C946B040C9489040C943E040C94DA0285
:1001E0000C94730A0C942E040C9410040C944B0B76
:1001F0000C94650B0C947F090C942B070C94CB0882
:100200000C949D040C94BF0A0C945C040C9415117E
:100210000C94650C0C94B7080C94D6020C947F04D3
:100220000C9417020C943D070C94FB020C94E40709
:100230000C9405090C945F070C94BB020C94880B7A
:100240000C9436040C942E070C94C902000102038E
:1002500004050A0B0C0D0E0F0000210024002700DE
:100260002A002D00300033000101000004010701C5
:100270000A0100002200250028002B002E0031007A
:10028000340002010000050108010B0100002000FC
:100290002300260029002C002F003200000100005E
:1002A00003010601090105050505070508080808F9
:1002B000020202020A0A08080404040401010101FE
:1002C00001010101030303030303030304070707F9
:1002D0000C0C0C0C0C0C0C0C02020202060606069E
:1002E000060606060B0B0B0B0B0B0B0B010210206B
:1002F000200808102040102040800201020108045C
:1003000002010102040810204080804020100804EF
:100310000201800402018040201008040201080448
:10032000020101020408102040800102040810208C
:10033000408000000A0B02090C0D0E08070304019F
:1003400000000000000000000000000000000000AD
:10035000000000000000000000000000000012117A
:10036000100000000000000000000000000000007D
:100370000000000000000000B11711241FBECFEFE5
:10038000D1E2DEBFCDBF00E00CBF29E0A6ECB2E0B9
:1003900001C01D92A235B207E1F712E0A0E0B2E081
:1003A000E4E4F1E500E00BBF02C007900D92A63C2B
:1003B000B107D9F711E0CDEBD1E000E006C02197FD
:1003C0000109802FFE010E940C26CC3BD10780E062
:1003D0000807A9F70E94AD1B0C94A0280C940000FC
:1003E00020910D03260F3327331F21323105ECF402
:1003F00020917803FC0190E080E0243069F082E0F5
:100400000895A0910D032191AC0143515D4FA40FBC
:10041000B52FB11D2C930196861798F380910D038B
:10042000680F60930D0380E0089581E008950895BA
:10043000E091310380913003E81730F4F0E0EE5C96
:10044000FC4F808190E008958FEF9FEF0895909189
:100450003103809130032FEF3FEF981748F4E92FD5
:10046000F0E0EE5CFC4F208130E09F5F9093310321
:10047000C90108958091300390913103891B990B34
:100480000895CF92DF92EF92FF920F931F93CF9335
:10049000DF937C01CB018A0120917E03222389F026
:1004A000EB016B01C40ED51ECC15DD0569F0699119
:1004B000D701ED91FC910190F081E02DC7011995D4
:1004C000F3CF642F0E94F001C801DF91CF911F91FB
:1004D0000F91FF90EF90DF90CF900895CF93DF932F
:1004E0001F92CDB7DEB7698320917E032223F9F0F6
:1004F0002091A103203258F021E030E0FC01338349
:10050000228390E080E00F90DF91CF910895809159
:100510007F03E82FF0E0E058FC4F998190838F5FD4
:1005200080937F038093A10381E090E0ECCF61E0B2
:10053000CE0101960E94F001F7CF8150823108F080
:100540005AC0E82FF0E08827E755FD4F8F4F0C94F5
:100550000C26C902CD02BB02C102C502FB02D002B9
:10056000D602DA02E002E402E802EE02F202FB0244
:10057000F602FC020003809180008F778093800058
:100580000895809180008F7DF9CF80918000877FD2
:10059000F5CF84B58F7784BD089584B58F7DFBCF6B
:1005A0008091B0008F778093B00008958091B00063
:1005B0008F7DF9CF809190008F7780939000089580
:1005C000809190008F7DF9CF80919000877FF5CF4B
:1005D0008091A0008F778093A00008958091A00063
:1005E0008F7DF9CF8091A000877FF5CF809120018A
:1005F0008F77809320010895809120018F7DF9CF1E
:1006000080912001877FF5CFCF93DF93282F30E0B3
:10061000F901EE5CFC4F8491F901E451FD4FD49156
:10062000F901EA55FD4FC491CC23A1F081110E943C
:100630009D02EC2FF0E0EE0FFF1FE457FD4FA59158
:10064000B491EC91ED2381E090E009F480E0DF913A
:10065000CF91089580E090E0FACF1F93CF93DF937E
:10066000282F30E0F901EE5CFC4F8491F901E45150
:10067000FD4FD491F901EA55FD4FC491CC23A9F067
:10068000162F81110E949D02EC2FF0E0EE0FFF1F4C
:10069000EE58FD4FA591B4918FB7F894EC911111DC
:1006A00008C0D095DE23DC938FBFDF91CF911F91DF
:1006B0000895DE2BF8CF1F93CF93DF93C1E0C09353
:1006C000EC02882399F1D091B8001091BA00809182
:1006D000BC008A7B8093BC0060E084E10E942D0313
:1006E00060E085E10E942D0310927803C0937703A8
:1006F0001092520361E084E10E942D0361E085E1E4
:100700000E942D038091B9008E7F8093B900809163
:10071000B9008D7F8093B90088E48093B80085E4A8
:100720008093BC001093BA00D093B800DF91CF91B2
:100730001F910895CF93DF9390E0FC01E451FD4FAA
:1007400024918A559D4FFC0184918823D1F090E03B
:10075000880F991FFC01E85AFD4FA591B491FC0147
:10076000EE58FD4FC591D49161110EC09FB7F8941A
:100770008C91E22FE0958E238C932881E223E883ED
:100780009FBFDF91CF9108958FB7F894EC91E22B42
:10079000EC938FBFF6CF1F93CF93DF93182FEB010E
:1007A00061E00E949A03209739F460E0812FDF9185
:1007B000CF911F910C942D03CF3FD10511F461E02F
:1007C000F5CFE12FF0E0EE5CFC4FE491E150E23137
:1007D00008F0B3C0F0E08827EF50FC4F8F4F0C9427
:1007E0000C2603040B0410041A0424049D042E0494
:1007F00036043E04480452045C046B0475049D04F2
:100800007F048904930484B5806884BDC7BDDF91EB
:10081000CF911F91089584B5806284BDC8BDF7CF84
:1008200080918000806880938000D0938900C0937D
:100830008800EDCF80918000806280938000D0930B
:100840008B00C0938A00E3CF809180008860809302
:100850008000D0938D00C0938C00D9CF8091B000E0
:1008600080688093B000C093B300D1CF8091B00076
:1008700080628093B000C093B400C9CF8091900093
:10088000806880939000D0939900C0939800BFCF68
:1008900080919000806280939000D0939B00C093E1
:1008A0009A00B5CF80919000886080939000D0939B
:1008B0009D00C0939C00ABCF8091A0008068809386
:1008C000A0008091A0008F7B8093A000D093A9000E
:1008D000C093A8009CCF8091A00080628093A0006C
:1008E000D093AB00C093AA0092CF8091A000886003
:1008F0008093A000D093AD00C093AC0088CF8091CE
:100900002001806880932001D0932901C0932801A1
:100910007ECF80912001806280932001D0932B01B3
:10092000C0932A0174CF80912001886080932001B8
:10093000D0932D01C0932C016ACFC038D1050CF0A3
:100940003ECF33CF863308F0865320917B00982F1B
:100950009870277F922B90937B00877080648093A0
:100960007C0080917A00806480937A0080917A0084
:1009700086FDFCCF809178009091790008953FB773
:10098000F8948091E8029091E902A091EA02B09176
:10099000EB0226B5A89B05C02F3F19F00196A11DBB
:1009A000B11D3FBFBA2FA92F982F8827BC01CD01B9
:1009B000620F711D811D911D42E0660F771F881F18
:1009C000991F4A95D1F708958F929F92AF92BF9247
:1009D000CF92DF92EF92FF920F931F93CF93DF930B
:1009E000D091A103D13208F0D7C0182FC091A00335
:1009F0000E94BF046B017C018091780381116BC060
:100A000082E080937803109377038FEF80937603CF
:100A100010927503D0937403A0E8B3E0E4E5F3E02B
:100A200080E0D81391C01092530380915303CC0FF0
:100A3000C82BC093530380915203813009F088C0C2
:100A4000109252030E94BF046B017C0180915303FA
:100A50008093BB0080917A0390917B03A0917C03EB
:100A6000B0917D03892B8A2B8B2BA1F00E94BF04B0
:100A700000917A0310917B0320917C0330917D03D8
:100A80006C197D098E099F09061717072807390772
:100A900008F442C08091BC0083FDD8CF85EC8093E0
:100AA000BC000E94BF046B017C01809178038230FE
:100AB00009F450C0809176038F3F09F46FC0809194
:100AC0007603803209F46CC080917603803309F498
:100AD00069C084E026C080917A0390917B03A09145
:100AE0007C03B0917D03892B8A2B8B2B09F484CF57
:100AF0000E94BF0480907A0390907B03A0907C03B7
:100B0000B0907D036C197D098E099F0986169706A2
:100B1000A806B90608F070CF809179030E945B03A4
:100B200085E010927F031092A10310927E03DF9163
:100B3000CF911F910F91FF90EF90DF90CF90BF90DA
:100B4000AF909F908F9008959D9191938F5F69CF03
:100B500085EEA5CF80917A0390917B03A0917C03D1
:100B6000B0917D03892B8A2B8B2B09F49ECF0E9499
:100B7000BF0400917A0310917B0320917C03309194
:100B80007D036C197D098E099F0906171707280731
:100B9000390708F08ACFC0CF81E0C3CF80E0C1CF52
:100BA00082E0BFCF83E0BDCFCF92DF92EF92FF9282
:100BB0000F931F93CF93DF93D82FC62F613208F086
:100BC00098C00E94BF046B017C0180917803811161
:100BD0006BC081E080937803809377039FEF9093BD
:100BE0007603109275039C0F9093740380935303C4
:100BF00080915303DD0FD82BD09353038091520380
:100C0000813009F078C0109252030E94BF046B013A
:100C10007C01809153038093BB0080917A03909173
:100C20007B03A0917C03B0917D03892B8A2B8B2BB6
:100C3000A1F00E94BF0400917A0310917B032091E0
:100C40007C0330917D036C197D098E099F0906177D
:100C500017072807390708F448C08091BC0083FDB6
:100C6000D8CF85EC8093BC000E94BF046B017C014F
:100C700080917803813009F440C0809175038C170E
:100C800010F4C0917503E4E5F3E0A2E3B3E080E083
:100C90008C1355C08C2FDF91CF911F910F91FF9036
:100CA000EF90DF90CF90089580917A0390917B032D
:100CB000A0917C03B0917D03892B8A2B8B2B09F4A7
:100CC00084CF0E94BF0400917A0310917B0320918E
:100CD0007C0330917D036C197D098E099F090617ED
:100CE00017072807390708F070CF809179030E9411
:100CF0005B03C0E0CFCF85EEB5CF80917A039091B2
:100D00007B03A0917C03B0917D03892B8A2B8B2BD5
:100D100009F4AECF0E94BF0400917A0310917B03C7
:100D200020917C0330917D036C197D098E099F0908
:100D3000061717072807390708F09ACFD6CF9191E1
:100D40009D938F5FA5CF8F929F92AF92BF92CF92CC
:100D5000DF92EF92FF924B015C010E94BF046B0196
:100D60007C010E94BF046C197D098E099F09683EB1
:100D7000734081059105A8F321E0821A9108A1082A
:100D8000B10888EEC80E83E0D81EE11CF11C811466
:100D90009104A104B10429F7FF90EF90DF90CF9068
:100DA000BF90AF909F908F9008952FB7F894609167
:100DB000E4027091E5028091E6029091E7022FBF74
:100DC0000895CF93DF93EC01CB01BA012A813B81D7
:100DD0004C815D810E9416252A853B854C855D8569
:100DE0000E9427266A877B878C879D876E837F83F7
:100DF00088879987DF91CF9108950895AF92BF9228
:100E0000CF92DF92EF92FF920F931F93CF93DF93D6
:100E10006C017B018B01040F151FEB015E01AE1805
:100E2000BF08C017D10759F06991D601ED91FC9127
:100E30000190F081E02DC6011995892B79F7C50144
:100E4000DF91CF911F910F91FF90EF90DF90CF90A6
:100E5000BF90AF90089590E080E00895FC01538D1D
:100E6000448D252F30E0842F90E0821B930B541784
:100E700010F0CF96089501970895FC01918D828D11
:100E8000981761F0A28DAE0FBF2FB11D5D968C91AA
:100E9000928D9F5F9F73928F90E008958FEF9FEFE9
:100EA0000895FC01918D828D981731F0828DE80FA5
:100EB000F11D858D90E008958FEF9FEF0895FC015F
:100EC000918D228D892F90E0805C9F4F821B91092C
:100ED0008F739927089582EA93E00E945F0721E0CB
:100EE000892B09F420E0822F0895FC01A48DA80F1E
:100EF000B92FB11DA35ABF4F2C91848D90E001965C
:100F00008F739927848FA689B7892C93A089B1897B
:100F10008C91837080648C93938D848D981306C01C
:100F20000288F389E02D80818F7D80830895EF9280
:100F3000FF920F931F93CF93DF93EC0181E0888F93
:100F40009B8D8C8D98131AC0E889F989808185FF63
:100F500015C09FB7F894EE89FF896083E889F98905
:100F600080818370806480839FBF81E090E0DF9107
:100F7000CF911F910F91FF90EF900895F62E0B8D5A
:100F800010E00F5F1F4F0F731127E02E8C8D8E1115
:100F90000CC00FB607FCFACFE889F989808185FF7C
:100FA000F5CFCE010E947507F1CFEB8DEC0FFD2F31
:100FB000F11DE35AFF4FF0829FB7F8940B8FEA8937
:100FC000FB8980818062CFCFCF93DF93EC01888D46
:100FD0008823B9F0AA89BB89E889F9898C9185FDB4
:100FE00003C0808186FD0DC00FB607FCF7CF8C9142
:100FF00085FFF2CF808185FFEDCFCE010E9475077E
:10100000E9CFDF91CF91089580E090E0892B29F01E
:101010000E946B0781110E94000080E090E0892B04
:1010200049F080E090E0892B29F00E9400008111B6
:101030000E94000080E090E0892B49F080E090E081
:10104000892B29F00E94000081110E94000080E09D
:1010500090E0892B49F080E090E0892B29F00E94F4
:10106000000081110C9400000895FC01148A158A77
:10107000168A178A108A118A128A138A08958F9203
:101080009F92AF92BF92CF92DF92EF92FF92CF9357
:10109000DF93EC01CB01BA0188889988AA88BB88C4
:1010A000A50194010E9426266B017C018C8D88236A
:1010B00001F12AED3FE049E450E4C701B6010E9486
:1010C000D4271816BCF52BED3FE049EC50E4C701DE
:1010D000B6010E9426266B017C012BED3FE049EC16
:1010E00050E4C501B4010E9427266C8B7D8B8E8B4A
:1010F0009F8B288D398D4A8D5B8DC701B6010E946B
:101100000527AB01BC014E835F8368877987CE01D9
:101110000A960E94E1066E817F8188859985DF911C
:10112000CF91FF90EF90DF90CF90BF90AF909F90C6
:101130008F9008952BED3FE049EC50ECC701B601CC
:101140000E94B02487FFD5CF2BED3FE049EC50E45F
:10115000C701B6010E9427266B017C012BED3FE001
:1011600049EC50E4C501B4010E942626BECFFC0123
:10117000148A158A168A178A108A118A128A138A83
:101180000895FC011286138614861586168217822E
:10119000108611860895AF92BF92CF92DF92EF92A0
:1011A000FF920F931F93CF93DF93EC015A016B01D2
:1011B000EA84FB840C851D859A01AB01B701C80147
:1011C0000E94D427181674F0EE84FF8408891989C8
:1011D0009501A601B701C8010E94B02487FD02C095
:1011E00075018601C701D8018E839F83A887B987BF
:1011F000B701C801DF91CF911F910F91FF90EF9040
:10120000DF90CF90BF90AF9008954F925F926F9212
:101210007F928F929F92AF92BF92CF92DF92EF9286
:10122000FF920F931F93CF93DF93EC016A017B0131
:101230002A853B854C855D85CB01B6010E9416252C
:101240004B015C014E845F84688879882C893D89D4
:101250004E895F89C701B6010E9416252C8D3D8DF0
:101260004E8D5F8D0E9427269B01AC012C8F3D8FF8
:101270004E8F5F8F288F398F4A8F5B8FC301B201EA
:101280000E941625A50194010E9427264B015C01AE
:101290008E829F82A886B9868E01005E1F4FBC0198
:1012A000A401C8010E94CB089B01AC01C501B40197
:1012B0000E94B024882339F0B701A6017058CE01EE
:1012C00042960E94E1064E815F8168857985C8015A
:1012D0000E94CB086E837F8388879987DF91CF91A7
:1012E0001F910F91FF90EF90DF90CF90BF90AF9044
:1012F0009F908F907F906F905F904F900895CF93C5
:10130000DF93EC01CB01BA012E813F8148855985DD
:101310000E9426262AA53BA54CA55DA50E94162560
:10132000AB01BC01CE0148960E94CB082C853D85BF
:101330004E855F850E9416252C893D894E895F89DF
:101340000E9427266C8B7D8B8E8B9F8B688B798B75
:101350008A8B9B8B6E837F8388879987DF91CF9160
:1013600008950895DC01ED91FC910280F381E02D58
:101370001994CF93DF93EC018B810E942D038A8D0A
:101380009B8D8230910538F0880F991F880F991F27
:1013900005970197F1F7DF91CF910895089561E0E6
:1013A0000C94B9098EBD00000DB407FEFDCF8EB5BB
:1013B00008958CBD9DBD0895CF93DF93D82FC62F80
:1013C0008091F408811128C08091EB089091EC087D
:1013D0002091F10831E030937E032093A003109216
:1013E0007F031092A103DC01ED91FC910190F0814B
:1013F000E02D6D2F19958091EB089091EC08DC01A0
:10140000ED91FC910190F081E02D6C2F199581E018
:10141000DF91CF910C94E4048091EF089091F00853
:101420000E94D90960E08091F2080E942D038D2F5F
:101430000E94D2098C2F0E94D20961E08091F208AB
:10144000DF91CF910C942D03CF93DF93D82FC62F2C
:101450006CE885E20E94DC096D2F86E20E94DC09BF
:101460006C2F606887E20E94DC096AE070E080E02F
:1014700090E0DF91CF910C94A306CF93CFB7F8946F
:101480008091C602811127C0EBEDF2E08491E1E288
:10149000F3E09491E82FF0E0EE0FFF1FE85AFD4FC4
:1014A000A591B491EC91E92321F461E085E30E94D8
:1014B0002D0361E085E30E949A038CB580618CBDA9
:1014C0008CB580648CBD61E084E30E949A0361E086
:1014D00083E30E949A038091C6028F5F8093C602C5
:1014E000CFBFCF9108950F931F93CF93DF93EC015C
:1014F0008C81882341F10E94D506AB01BC018D810E
:101500009E81AF81B88509851A852B853C85800F22
:10151000911FA21FB31F481759076A077B0740F4A2
:101520001C8284E090E0DF91CF911F910F9108958C
:1015300061E08A810E942D030E94D5066D837E831F
:101540008F8398871C820E94D506AB01BC018D81D8
:101550009E81AF81B8850D851E852F853889800FC6
:10156000911FA21FB31F84179507A607B70720F482
:1015700060E08A810E942D0390E080E0D4CFCF9379
:10158000DF93EC018A810E94A204BC01990F880BB1
:10159000990B0E94B7249B01AC016C857D858E85DB
:1015A0009F850E941625688779878A879B8790E0A8
:1015B00080E0DF91CF9108954F925F926F927F927A
:1015C0008F929F92AF92BF92CF92DF92EF92FF9253
:1015D0000F931F93CF93DF93EC014A018B015C01C2
:1015E0008AE6A80EB11C4C885D886E887F887301DE
:1015F0006201F7FAF094F7F8F0949A01AB01C70191
:10160000B6010E94D427181664F09401A801C30102
:10161000B2010E94B0247301620187FD02C064011F
:101620007801B701A601C5010E947F096CAB7DABB3
:101630008EAB9FABDF91CF911F910F91FF90EF90F9
:10164000DF90CF90BF90AF909F908F907F906F90E2
:101650005F904F900895CF93DF93EC018A850E94AD
:1016600004032C853D85892B39F02F5F3F4F3D8743
:101670002C87DF91CF91089521503109F8CF88E26E
:1016800096E00C942B0B83E197E00C942B0B8EEFE0
:1016900097E00C942B0B0F931F93CF93DF93EC01E8
:1016A00022968C01005E1F4FC017D10739F0FE0152
:1016B0006889229680810E942D03F6CF90E080E019
:1016C000DF91CF911F910F910895CF93DF93EC019C
:1016D0008A810E940403AC0191E04115510509F48F
:1016E00090E09E832F81222321F081E04115510556
:1016F00009F080E08C83211103C021E0452B09F41F
:1017000020E02D839F8390E080E0DF91CF910895CA
:10171000CF93DF93EC018A810E94A2049D838C8386
:1017200090E080E0DF91CF910895EF92FF920F93C8
:101730001F93CF93DF93EC01162F7A0189858111D6
:1017400043C0888199812E8131E030937E032093BC
:10175000A00310927F031092A103DC01ED91FC9194
:101760000190F081E02D199580E00E94E40466E08C
:101770008E810E94D40510923103809330038881BA
:101780009981DC01ED91FC910084F185E02D1995A2
:10179000892B99F08701B6E0EB0EF11C88819981C5
:1017A000DC01ED91FC910284F385E02D1995F8019F
:1017B00081938F01EE15FF0589F7DF91CF911F917E
:1017C0000F91FF90EF9008958C819D810E94D9091F
:1017D00060E08F810E942D03812F80680E94D209D2
:1017E0008701F6E0EF0EF11C80E00E94D209D801DB
:1017F0008D938D01AE15BF05B9F761E08F81DF9143
:10180000CF911F910F91FF90EF900C942D038F9229
:101810009F92AF92BF92CF92DF92EF92FF920F937F
:101820001F93CF93DF9300D000D0CDB7DEB78C01EC
:10183000CB01AE014F5F5F4F63E40E94950B69815E
:101840007A81762767277627072E000C880B990B5D
:101850000E94B7244B015C016B817C81762767274E
:101860007627072E000C880B990B0E94B7246B017A
:101870007C016D817E81762767277627072E000CF5
:10188000880B990B0E94B724F80180829182A28272
:10189000B382C482D582E682F782608771878287AD
:1018A0009387C80126960FB6F894DEBF0FBECDBF52
:1018B000DF91CF911F910F91FF90EF90DF90CF902C
:1018C000BF90AF909F908F9008954F925F926F92CC
:1018D0007F928F929F92AF92BF92CF92DF92EF92C0
:1018E000FF920F931F93CF93DF93CDB7DEB760972F
:1018F0000FB6F894DEBF0FBECDBF8C01BC016E5F8A
:101900007F4FCE0101960E94070CF801F5A06F2DC4
:1019100070E090E080E00E94B7244B015C016F2DE5
:1019200070E090E080E00E94B52420E030E04AE7DB
:1019300053E40E94162520E030E040E058E30E9486
:1019400016256B017C01A5019401F801608D718D54
:10195000828D938D0E9405279B01AC0169817A815C
:101960008B819C810E942626A70196010E94162544
:101970002B013C01A5019401F801648D758D868DC4
:10198000978D0E9405279B01AC016D817E818F811F
:1019900098850E942626A70196010E9416256D872C
:1019A0007E878F87988BA5019401F80160A171A1B2
:1019B00082A193A10E9405279B01AC0169857A85CC
:1019C0008B859C850E942626A70196010E941625DC
:1019D0006B017C012BED3FE049E450E4C301B2010F
:1019E0000E94162520E030E044E353E40E940527DE
:1019F000F80164AB75AB86AB97AB2BED3FE049E4E8
:101A000050E46D857E858F8598890E94162520E09B
:101A100030E044E353E40E940527F80160AF71AF62
:101A200082AF93AF2BED3FE049E450E4C701B6012C
:101A30000E94162520E030E044E353E40E9405278D
:101A4000F80164AF75AF86AF97AF90E080E0609625
:101A50000FB6F894DEBF0FBECDBFDF91CF911F91BF
:101A60000F91FF90EF90DF90CF90BF90AF909F903D
:101A70008F907F906F905F904F900895CF93C82F75
:101A80008091F408811140C08091EB089091EC089E
:101A90002091F10831E030937E032093A00310924F
:101AA0007F031092A103DC01ED91FC910190F08184
:101AB000E02D6C2F199580E00E94E40461E0809194
:101AC000F1080E94D4051092310380933003809175
:101AD000EB089091EC08DC01ED91FC910084F1851C
:101AE000E02D1995C0E0892B61F08091EB08909171
:101AF000EC08DC01ED91FC910284F385E02D199551
:101B0000C82F8C2FCF9108958091EF089091F00805
:101B10000E94D90960E08091F2080E942D038C2F69
:101B200080680E94D20980E00E94D209C82F61E03B
:101B30008091F2080E942D03E4CF8DE10E943E0DBA
:101B4000887F682F66608DE10C94DC098CE10E942F
:101B50003E0D682F677E8CE10E94DC0981E0809356
:101B60000D0908958BE10E943E0D682F677E8BE181
:101B70000E94DC0981E080930E0908958AE10E94A9
:101B80003E0D887F682F66608AE10C94DC098BE14A
:101B90000E943E0D682F6C7F8BE10C94DC09FC01E8
:101BA00001900020E9F73197AF01481B590BBC01A8
:101BB00082EA93E00C94FE068F929F92AF92BF92BE
:101BC0000F931F93CF93DF93CDB7DEB7A1970FB6D7
:101BD000F894DEBF0FBECDBF19A2423008F44AE030
:101BE0008E010F5D1F4F842E912CB12CA12CA501CD
:101BF00094010E94EA25E62FB901CA01EA30F4F403
:101C0000E05DD801EE938D01232B242B252B79F752
:101C100090E080E0109719F0CD010E94CF0DA196C1
:101C20000FB6F894DEBF0FBECDBFDF91CF911F91ED
:101C30000F91BF90AF909F908F900895E95CE1CF96
:101C40004F925F926F927F928F929F92AF92BF92CC
:101C5000CF92DF92EF92FF92CF93DF93EC016C85EE
:101C60007D85072E000C880B990B0E94B7246B0111
:101C70007C011D861C866E857F85072E000C880BD7
:101C8000990B0E94B7249B01AC01C701B6010E94C9
:101C900005272BED3FE049E450E40E9416259B0107
:101CA000AC010E94272628A539A54AA55BA50E945C
:101CB0002726AB01BC0148A759A76AA77BA7CE017D
:101CC00082539F4F0E943F084B015C0188AA99AA4A
:101CD000AAAABBAACCA8DDA8EEA8FFA8288D398D9A
:101CE0004A8D5B8DC701B6010E9416252B013C0170
:101CF000A5019401C701B6010E942626AB01BC01D3
:101D0000CE01C8960E9405099B01AC01C301B20136
:101D10000E9427266B017C01AC019B010E943328A5
:101D2000882321F189E992E00E94CF0D85EA92E0B3
:101D30000E94CF0D20E030E0A901C701B6010E944A
:101D4000D42718160CF0A4C020E030E040EC5FE38C
:101D5000C701B6010E94D42787FFA5C06FEF70E0CE
:101D60008A810E94CB036FEF70E01BC146015701CF
:101D7000E894B7F82FEF3FEF4FE75FE7C501B401F5
:101D80000E94332881110DC02FEF3FEF4FE75FE72F
:101D9000C501B4010E94B02418161CF48DE992E02C
:101DA000C3CF2FEF3FEF4FE75FE4C701B6010E94BB
:101DB000D42718161CF481EA92E0B6CF2FEF3FEF3C
:101DC0004FE75FECC701B6010E94B02487FDF3CF57
:101DD00020E030E0A901C701B6010E94B02487FFCE
:101DE00054C06DE282EA93E00E949707C701B601F2
:101DF00090582AE037ED43EA5BE30E9427262B0147
:101E00003C010E947E274B015C010E94B5249B018E
:101E1000AC01C301B2010E9426262B013C014AE01D
:101E2000C501B4010E94DC0D6EE282EA93E00E94DB
:101E3000970720E030E040E251E4C301B2010E9484
:101E400016252B013C010E947E274B01B12CA12CB1
:101E50004AE0C501B4010E94DC0DC501B4010E9435
:101E6000B5249B01AC01C301B2010E94262620E0EB
:101E700030E040E251E40E9416250E947E2790E067
:101E800080E04AE00E94DC0D51CFC701B601B1CF1E
:101E900020E030E040EC5FEBC701B6010E94B024C7
:101EA00018160CF45BCF5E018CE9A80EB11CB701CB
:101EB000A601C5010E947F0920E030E04FE753E40E
:101EC0000E941625288939894A895B890E9405273D
:101ED00020E030E04FE753EC0E94B02487FD7DC046
:101EE000B701A601C5010E947F0920E030E04FE75D
:101EF00053E40E941625288939894A895B890E9402
:101F0000052720E030E04FE753E40E94D42718165D
:101F10005CF1B701A601C5010E947F0920E030E015
:101F20004FE753E40E941625288939894A895B893D
:101F30000E9405276B017C0120E030E0A9010E948E
:101F4000D4271816BCF020E030E04FE753E4C70177
:101F5000B6010E9427260E9477277F836E838FEF2A
:101F600090E09987888716C0C12CD12C9FE7E92E75
:101F700093E4F92E8FEF90E09F838E83A701960163
:101F800060E070E08FE793E40E9426260E947727A6
:101F9000798768876E817F818A810E94CB036885FB
:101FA00079858C810E94CB0388A599A5AAA5BBA59C
:101FB0008CA79DA7AEA7BFA790E080E0DF91CF914F
:101FC000FF90EF90DF90CF90BF90AF909F908F9059
:101FD0007F906F905F904F900895C12CD12C8FE728
:101FE000E82E83ECF82EAFCF85ED8093BC00809176
:101FF0007A0390917B03A0917C03B0917D030796B7
:10200000A11DB11D23E0B695A795979587952A95B3
:10201000D1F72091BC0024FD03C0109278030895ED
:1020200040917A0350917B0360917C0370917D0312
:10203000452B462B472B69F30097A105B10541F0CD
:102040002AE22A95F1F700C00197A109B109E1CF71
:10205000809179030C945B030F931F93CF93DF93CD
:10206000EC010C811D812E813F8140E052E16AE745
:1020700070E090E0041715072607370740F47695BF
:102080006795579547959F5F9630A1F797E0892F01
:10209000806A9095869591700E94D90960E0CE0182
:1020A000DF91CF911F910F910C94B9090F931F935A
:1020B000CF93DF93EC01062F142F0E942C10802F5A
:1020C00080620E94D2098887812F0E94D209CE01A6
:1020D000DF91CF911F910F910C94CF094091EB04A8
:1020E00041FD0CC042604093EB0460E08CED94E055
:1020F0000E9456108BE19EE40197F1F70895FF923C
:102100000F931F93CF93DF93C82FF62E072F142F13
:102110008CED94E00E942C108C2F80620E94D209DA
:102120008093E404CF2DD02F115020F089910E948C
:10213000D209FACF8CED94E0DF91CF911F910F91EE
:10214000FF900C94CF098CED94E00E942C1080E558
:102150000E94D2098093E40483E70E94D2098CEDA7
:1021600094E00C94CF091F93CF93DF93EC01162FCB
:102170000E942C10812F80620E94D2098887CE0194
:10218000DF91CF911F910C94CF091F93CF93DF93D1
:10219000EC01162F0E942C10812F0E94D2098887F3
:1021A0008FEF0E94D209182FCE010E94CF09812FF4
:1021B000DF91CF911F910895CF93DF93EC0166E0FB
:1021C0008CED94E00E94C510877D219701F145E5D3
:1021D00050E060E070E04093F2045093F3046093A9
:1021E000F4047093F504C0E0C82B4C2F66E08CED2E
:1021F00094E00E94561066E08CED94E00E94C510B9
:1022000091E0C81390E0892FDF91CF91089541E4C8
:1022100050E060E070E04093F2045093F304609368
:10222000F4047093F504C8E0DFCF8F929F92BF92C1
:10223000CF92DF92EF92FF920F931F93CF93DF9392
:1022400000D000D0CDB7DEB78C016C0182E0C80EA3
:10225000D11CBB24B39467E1C6010E94C51080FD68
:1022600050C0F801868981111EC08385E82E873011
:1022700010F096E0E92EF82EFE18C6010E942C10F0
:1022800081E60E94D209F8018287CE0101964C01B5
:10229000EA949FEFE91659F08FEF0E94D209F401FA
:1022A00081934F01F5CFF12C86E0E82EE6CFFA942A
:1022B000FFEFFF1621F08FEF0E94D209F8CFC60181
:1022C0000E94CF0940E467E0C6010E9456102981B0
:1022D000F80187A190A540962817190651F420A36C
:1022E0008A8181A38B8182A38C8183A38E8184A325
:1022F000B6A2F80183A1811102C015A2ACCFB5A28C
:10230000AACF90E080E026960FB6F894DEBF0FBE0D
:10231000CDBFDF91CF911F910F91FF90EF90DF9094
:10232000CF90BF909F908F9008954F925F926F9241
:102330007F928F929F92AF92BF92CF92DF92EF9255
:10234000FF920F931F93CF93DF93CDB7DEB72E97F6
:102350000FB6F894DEBF0FBECDBF9E878D874A01B2
:102360005B012801390120E030E84BEB54ECCB0154
:10237000B4010E94B02487FDBFC020E030E84BEBE1
:1023800054E4C501B4010E94D42718160CF4BCC053
:1023900020E030E84BEB54ECC301B2010E94B024C2
:1023A00087FDBAC020E030E84BEB54E4C301B20132
:1023B0000E94D42718160CF4B7C020E030E040E0AB
:1023C00051ECC701B6010E94B02487FDB5C020E0E2
:1023D00030E040E051E4C701B6010E94D42718164E
:1023E0000CF4B0C0A5019401C501B4010E941625EA
:1023F00069837A838B839C83A3019201C301B20119
:102400000E9416259B01AC0169817A818B819C8198
:102410000E9427260E94EF2769837A838B839C83FF
:1024200020E030E044EB52E4C701B6010E941625DB
:102430006B017C01A30192015058C501B4010E94B7
:10244000A6264B015C012DE633EB44E85FE30E94D6
:1024500026260E94E1276D837E838F8398872BED4C
:102460003FE049E450E4C501B4010E9426260E94E1
:10247000E12769877A878B879C872DE633EB44E8D1
:102480005FE3C501B4010E9427260E94E1272D8544
:102490003E852230310509F45BC02330310509F453
:1024A00060C029813A814B815C816D817E818F8101
:1024B00098850E941625A70196010E94272620E0F4
:1024C00030E04CEB51E40E9405272E960FB6F894AD
:1024D000DEBF0FBECDBFDF91CF911F910F91FF9057
:1024E000EF90DF90CF90BF90AF909F908F907F90B4
:1024F0006F905F904F900895812C50E8952E5BEB84
:10250000A52E54ECB52E44CF812C40E8942E4BEBF5
:10251000A42E44E4B42E3CCF412C30E8532E3BEBA8
:10252000632E34EC732E49CF412C20E8522E2BEB36
:10253000622E24E4722E41CFC12CD12CE12C91ECDF
:10254000F92E50CFC12CD12CE12C81E4F82E4ACFAA
:1025500029813A814B815C8169857A858B859C854F
:10256000A8CF29813A814B815C81A3CF1F920F9222
:102570000FB60F9211240BB60F922F933F934F93E8
:102580005F936F937F938F939F93AF93BF93EF93DB
:10259000FF938091B900887F803609F44DC008F020
:1025A00040C0883209F4A7C028F5803109F49BC0E7
:1025B000C8F4882309F4F7C0883009F494C0FF9167
:1025C000EF91BF91AF919F918F917F916F915F91AB
:1025D0004F913F912F910F900BBE0F900FBE0F9018
:1025E0001F901895883109F486C0803241F7809396
:1025F000760314C0803409F49BC040F48033B9F3EF
:102600008833E9F68093760385ECAEC0803509F413
:1026100083C0883509F494C0883489F60E94F40F89
:10262000CECF883909F48AC038F5883729F050F4BC
:10263000883611F0803719F683E080937803109282
:102640002F0355C0883809F479C0803919F08038D3
:1026500009F0B5CF80912F03803208F06FC0E09170
:102660002F0381E08E0F80932F038091BB00F0E059
:10267000E15FFC4F80833BC0803B39F0D0F4803A6F
:1026800009F477C0883A09F09ACF84E08093780300
:1026900010920E0310920D03F0E0E0E01995809186
:1026A0000D0381110FC081E080930D031092ED02A4
:1026B00009C0803C09F4A8CF883C09F4A5CF883B29
:1026C00009F07DCFE0910E0381E08E0F80930E0321
:1026D000F0E0E351FD4F80818093BB0090910E03A9
:1026E00080910D0329C0809153038093BB0085EC3A
:1026F0008093BC0064CF9091750380917403981708
:1027000058F5E091750381E08E0F80937503F0E03A
:10271000EC5AFC4F8081E9CFE091750381E08E0F88
:10272000809375038091BB00F0E0EC5AFC4F8083EE
:1027300090917503809174039817C8F285E8D8CFFB
:10274000E091750381E08E0F809375038091BB004B
:10275000F0E0EC5AFC4F80838091770381115ECFCB
:1027600081E08093520384EA8093BC001092780346
:1027700026CF85EC8093BC001092780380912F03C4
:10278000803230F4E0912F03F0E0E15FFC4F1082E3
:1027900060912F0370E08FE093E0F0E0E0E01995A6
:1027A00010922F030CCF1092760338CF1F920F9206
:1027B0000FB60F9211242F933F938F939F93AF9354
:1027C000BF938091E4029091E502A091E602B0915E
:1027D000E7023091E30223E0230F2D3758F50196ED
:1027E000A11DB11D2093E3028093E4029093E502C2
:1027F000A093E602B093E7028091E8029091E9028B
:10280000A091EA02B091EB020196A11DB11D809347
:10281000E8029093E902A093EA02B093EB02BF9121
:10282000AF919F918F913F912F910F900FBE0F907D
:102830001F90189526E8230F0296A11DB11DD2CF37
:102840001F920F920FB60F9211240BB60F922F9377
:102850003F934F935F936F937F938F939F93AF9328
:10286000BF93EF93FF93E0910E02F0910F02199541
:10287000FF91EF91BF91AF919F918F917F916F9158
:102880005F914F913F912F910F900BBE0F900FBE14
:102890000F901F9018951F920F920FB60F92112450
:1028A0000BB60F922F933F934F935F936F937F934A
:1028B0008F939F93AF93BF93EF93FF93E0910C029D
:1028C000F0910D021995FF91EF91BF91AF919F91FA
:1028D0008F917F916F915F914F913F912F910F90C9
:1028E0000BBE0F900FBE0F901F9018951F920F9266
:1028F0000FB60F9211240BB60F922F933F934F9365
:102900005F936F937F938F939F93AF93BF93EF9357
:10291000FF93E0910202F09103021995FF91EF916C
:10292000BF91AF919F918F917F916F915F914F91E7
:102930003F912F910F900BBE0F900FBE0F901F90E5
:1029400018951F920F920FB60F9211240BB60F928B
:102950002F933F934F935F936F937F938F939F93A7
:10296000AF93BF93EF93FF93E0910002F0910102C8
:102970001995FF91EF91BF91AF919F918F917F91A9
:102980006F915F914F913F912F910F900BBE0F90E0
:102990000FBE0F901F9018951F920F920FB60F92B7
:1029A00011240BB60F922F933F934F935F936F9326
:1029B0007F938F939F93AF93BF93EF93FF93E09198
:1029C0000A02F0910B021995FF91EF91BF91AF911F
:1029D0009F918F917F916F915F914F913F912F9137
:1029E0000F900BBE0F900FBE0F901F9018951F9267
:1029F0000F920FB60F9211240BB60F922F933F93A5
:102A00004F935F936F937F938F939F93AF93BF93F6
:102A1000EF93FF93E0910802F09109021995FF915D
:102A2000EF91BF91AF919F918F917F916F915F9146
:102A30004F913F912F910F900BBE0F900FBE0F90B3
:102A40001F9018951F920F920FB60F9211240BB67C
:102A50000F922F933F934F935F936F937F938F9337
:102A60009F93AF93BF93EF93FF93E0910602F09192
:102A700007021995FF91EF91BF91AF919F918F91AF
:102A80007F916F915F914F913F912F910F900BBE6E
:102A90000F900FBE0F901F9018951F920F920FB6B8
:102AA0000F9211240BB60F922F933F934F935F9386
:102AB0006F937F938F939F93AF93BF93EF93FF9306
:102AC000E0910402F09105021995FF91EF91BF91F9
:102AD000AF919F918F917F916F915F914F913F91B6
:102AE0002F910F900BBE0F900FBE0F901F90189557
:102AF0001F920F920FB60F9211240BB60F922F93C5
:102B00003F934F935F936F937F938F939F93AF9375
:102B1000BF93EF93FF9382EA93E00E947507FF91C2
:102B2000EF91BF91AF919F918F917F916F915F9145
:102B30004F913F912F910F900BBE0F900FBE0F90B2
:102B40001F9018951F920F920FB60F9211240BB67B
:102B50000F922F938F939F93EF93FF93E091B20384
:102B6000F091B3038081E091B803F091B90382FD45
:102B70001DC090818091BB038F5F8F732091BC0338
:102B8000821741F0E091BB03F0E0EE55FC4F958FCA
:102B90008093BB03FF91EF919F918F912F910F90A5
:102BA0000BBE0F900FBE0F901F9018958081F2CF33
:102BB0002F923F924F925F926F927F928F929F924D
:102BC000AF92BF92CF92DF92EF92FF920F931F933B
:102BD000CF93DF93CDB7DEB76C970FB6F894DEBF17
:102BE0000FBECDBF4C0169877A8F4A875B8F2B87D9
:102BF0003C8FE982FA820B831C83AC86BD86CE862D
:102C0000DF862AA93BA94CA95DA9288B398B4A8B61
:102C10005B8B4EA95FA95D8B4C8BC8ACD9ACEAAC81
:102C2000FBAC8CAD9DADAEADBFAD8D839E83AF8350
:102C3000B88724962CAD3DAD4EAD5FAD24972E8B5D
:102C40003F8B488F598F8BE292E0D40111969C9371
:102C50008E93F401C2AED3AEE4AEF5AEFE96108212
:102C600011821282138287E192E0D9969C938E930F
:102C7000D8973C96C282D382E482F582168217826C
:102C80001086118689E6A82E82E0B82EB182A08235
:102C900012861386148615863E961282138214823B
:102CA0001582168217821086118605E512E01183BF
:102CB000008389819A81AB81BC81B05882879387D8
:102CC000A487B58729813A814B815C812687378724
:102CD000408B518B76978D819E81AF81B8858083A3
:102CE0009183A283B38314019AE6290E311CD1018A
:102CF0001296CD92DD92ED92FC921597F10116821B
:102D00001782108611862FE532E0318320833A96B0
:102D1000C282D382E482F5821682178210861186DF
:102D2000B182A08212861386148615863E96128280
:102D300013821482158216821782108611861183DF
:102D4000008380E09CE3ACE1B6EC82879387A487A4
:102D5000B587412C9CE3592E9CE1692E96E4792E8F
:102D600046865786608A718AD1019E964D925D9201
:102D70006D927C92D197A701960160E070E080E8A7
:102D80009FE30E940527F10162A773A784A795A777
:102D9000F296C282D382E482F5821682178210866E
:102DA00011862FE532E031832083D401AA55BF4F2D
:102DB0001296CD92DD92ED92FC92159716961D9289
:102DC0001D921D921C9219971196BC92AE921A9662
:102DD0001D921D921D921C921D971E9612961D9279
:102DE0001D921D921C92159716961D921D921D9272
:102DF0001C92199711961C930E9320E03CE34CE132
:102E000056EC1A962D933D934D935C931D971E9609
:102E10004D925D926D927C92519746A657A660AAFC
:102E200071AA62A773A784A795A7840102531F4FB5
:102E3000D8011296CD92DD92ED92FC921597F80191
:102E4000168217821086118681E292E09183808338
:102E50003A96C282D382E482F58216821782108665
:102E60001186B182A0821286138614861586A70168
:102E70009601C701B6010E942726D80158966D9386
:102E80007D938D939C935B9781E05C968C932985D1
:102E9000F40122833A8D33834A8544835B8D5583C5
:102EA0008B8582879C8D938729813A814B815C81B8
:102EB000D401208B318B428B538B2C853D854E85E5
:102EC0005F85248B358B468B578B288939894A89B6
:102ED0005B89208F318F428F538FEC89FD891F963C
:102EE000FC93EE931E975C96CD92DD92ED92FC9250
:102EF0005F972D813E814F81588590962D933D930C
:102F00004D935C9393972E893F89488D598D949664
:102F10002D933D934D935C93979761E089850E9433
:102F20009A0361E08A850E949A0360E08B856C9623
:102F30000FB6F894DEBF0FBECDBFDF91CF911F91CA
:102F40000F91FF90EF90DF90CF90BF90AF909F9048
:102F50008F907F906F905F904F903F902F900C9448
:102F60009A032F923F924F925F926F927F928F922D
:102F70009F92AF92BF92CF92DF92EF92FF920F9308
:102F80001F93CF93DF93109242041092410488EE76
:102F900093E0A0E0B0E08093430490934404A093B6
:102FA0004504B093460421E332E03093400420937B
:102FB0003F041092A5031092A4038093A60390935C
:102FC000A703A093A803B093A90383E492E090938E
:102FD000A3038093A20385EC90E09093AF038093CA
:102FE000AE0384EC90E09093B1038093B00380EC47
:102FF00090E09093B3038093B20381EC90E09093C0
:10300000B5038093B40382EC90E09093B703809370
:10301000B60386EC90E09093B9038093B8031092C6
:10302000BB031092BC031092BD031092BE03CBE809
:10303000D2E0D0934B09C0934A098FE090E090937F
:103040004D0980934C0960E00E949A03D093430994
:10305000C093420980E190E0909345098093440930
:1030600060E00E949A03D0933B09C0933A0981E142
:1030700090E090933D0980933C0960E00E949A03A0
:1030800087E992E090932A09809329098EE090E0E5
:1030900090932C0980932B0910922E0910922F09DE
:1030A000109230091092310980ED97E0A0E0B0E075
:1030B0008093320990933309A0933409B093350972
:1030C00082E390E0A0E0B0E0809336099093370966
:1030D000A0933809B093390961E08EE00E949A0309
:1030E00085E892E09093EA088093E9088FE394E002
:1030F0009093EC088093EB088BE494E09093EE08B7
:103100008093ED0880E58093EF081092F00888E640
:103110008093F1088CE090E09093F3088093F2089C
:10312000882483948092F4081092F5081092F6088F
:103130001092F7081092F8081092F9081092FA0805
:103140001092FB081092FC081092FD081092FE08E5
:103150001092FF08109200091092010910920209C2
:1031600010920309109204091092050910920609A1
:1031700010920709109208091092090910920A0981
:1031800010920B0910920C09109211091092120959
:103190001092130910921409109215091092160931
:1031A00010921709109218091092190910921A0911
:1031B00010921B0910921C0910921D0910921E09F1
:1031C00010921F09109220091092210910922209D1
:1031D00010922309109224091092250910922609B1
:1031E000109227091092280904E4202E2F928AE7D2
:1031F000382E3F921F921F929FE3992E9F92C3E316
:10320000CF93CF93CF932BE3422E4F9233EA532E9B
:103210005F9247ED642E6F92DAE0DF938F9250E475
:10322000752E7F929F9287E58F93DF939DE39F9307
:10323000A12CB12C60EFC62E61E4D62E860175015B
:1032400023E030E044E050E065E070E08EEF97E08E
:103250000E94D8152F923F921F921F929F92CF9358
:10326000CF93CF934F925F926F92DF938F927F9223
:103270009F92A7E5AF93DF93BDE3BF9323E130E0D7
:1032800046E050E067E070E083E197E00E94D815E7
:103290008DB79EB784960FB6F8949EBF0FBE8DBFB4
:1032A0002F923F921F921F929F92CF93CF93CF93D3
:1032B0004F925F926F92DF938F927F929F9297E5EA
:1032C0009F93DF93ADE3AF9325E130E048E050E01A
:1032D00069E070E088E296E00E94D8159F9280E84D
:1032E0008F931F921F929F928F931F921F9291E430
:1032F0009F9390E39F931F921F921F928F929F9292
:103300008F931F921F92A12CB12C70E8C72E7FE3E0
:10331000D72E8601750121E030E041E050E061E008
:1033200070E08DE395E00E94D8158FE792E09093CE
:103330001C0580931B05EDE2F5E080E1DF011D92A5
:103340008A95E9F788E190E090931E0580931D052A
:1033500089E190E09093200580931F058AE190E039
:1033600090932205809321058BE190E090932405B2
:10337000809323058CE190E09093260580932505AA
:103380008DE190E090932805809327058EE190E0F1
:1033900090932A05809329058FE190E090932C0566
:1033A00080932B05CBE1D5E00DE315E08DB79EB7FB
:1033B00084960FB6F8949EBF0FBE8DBF22960C1751
:1033C0001D0729F061E088810E949A03F7CF81E907
:1033D00092E090930C0580930B0586E390E0909328
:1033E0000E0580930D0586E696E6A6E4B1E480938B
:1033F0000F0590931005A0931105B093120580E07E
:1034000090E0A8E4BCE38093170590931805A0937F
:103410001905B0931A0560E086E30E949A0389E7D4
:1034200092E0909304058093030587E390E09093E6
:1034300006058093050584E190E090930A0580934A
:10344000090560E087E30E949A0383E792E0909386
:10345000DB048093DA048AE08093DE048BE08093BF
:10346000DF0480E896E9A8E9B0E08093E004909357
:10347000E104A093E204B093E30480E28093E504C6
:103480001092EC041092ED0485E08093EF0481E04B
:103490008093F00485E090E0A0E0B0E08093F60433
:1034A0009093F704A093F804B093F9048BE494E0AC
:1034B0009093DD048093DC041092E60481E090E0B8
:1034C00090930205809301058AE097EDA3EABBE3A0
:1034D0008093CE049093CF04A093D004B093D104F2
:1034E0001092D2041092D3041092D4041092D504F6
:1034F00029E632E03093CD042093CC041092D60418
:103500001092D7041092D8041092D9048093C0046A
:103510009093C104A093C204B093C3041092C40456
:103520001092C5041092C6041092C7043093BF04D1
:103530002093BE041092C8041092C9041092CA04C9
:103540001092CB048093B2049093B304A093B4047C
:10355000B093B5041092B6041092B7041092B80458
:103560001092B9043093B1042093B0041092BA04BD
:103570001092BB041092BC041092BD04809380048E
:1035800090938104A0938204B093830410928404E6
:10359000109285041092860410928704CFE5D2E041
:1035A000D0937F04C0937E0480938A0490938B040D
:1035B000A0938C04B0938D0410928E0410928F040B
:1035C00010929004109291043093890420938804FF
:1035D0001092920410929304109294041092950405
:1035E000109298041092990410929A0410929B04DD
:1035F00010929C0410929D0410929E0410929F04BD
:10360000E5E5F2E0F0939704E0939604812C912C89
:103610004AEFA42E45ECB42E8092A0049092A1040F
:10362000A092A204B092A30440E050E06AEF75E4D7
:103630004093A4045093A5046093A6047093A70438
:103640004093AC045093AD046093AE047093AF0408
:10365000412C512C18E4612E13E4712E4092A804E1
:103660005092A9046092AA047092AB0480934E0415
:1036700090934F04A0935004B093510410925204BD
:10368000109253041092540410925504D0934D0498
:10369000C0934C048093580490935904A0935A0407
:1036A000B0935B0410925C0410925D0410925E046F
:1036B00010925F04309357042093560410926004D4
:1036C00010926104109262041092630410926604D6
:1036D00010926704109268041092690410926A04B0
:1036E00010926B0410926C0410926D04F0936504B8
:1036F000E093640480926E0490926F04A092700430
:10370000B0927104409372045093730460937404F4
:103710007093750440937A0450937B0460937C0407
:1037200070937D04409276045092770460927804FE
:1037300070927904DF91CF911F910F91FF90EF90DC
:10374000DF90CF90BF90AF909F908F907F906F90C1
:103750005F904F903F902F900895CF93DF93CDB718
:10376000DEB7A4970FB6F894DEBF0FBECDBF789436
:1037700084B5826084BD84B5816084BD85B5826076
:1037800085BD85B5816085BD80916E008160809327
:103790006E00109281008091810082608093810090
:1037A00080918100816080938100809180008160A0
:1037B000809380008091B10084608093B1008091FB
:1037C000B00081608093B00080919100826080930E
:1037D0009100809191008160809391008091900090
:1037E0008160809390008091A10082608093A1000D
:1037F0008091A10081608093A1008091A0008160F0
:103800008093A000809121018260809321018091AA
:10381000210181608093210180912001816080934A
:10382000200180917A00846080937A0080917A00F0
:10383000826080937A0080917A00816080937A0020
:1038400080917A00806880937A001092C100809104
:10385000F408882391F061E08091F2080E949A03B5
:1038600061E08091F2080E942D030E943D0A80E5EC
:103870008093EF0881E08093F00860E88BE60E9477
:10388000DC096AE070E080E090E00E94A3066AE054
:1038900070E080E090E00E94A30662E087E30E946F
:1038A000DC096AE070E080E090E00E94A30685E712
:1038B0000E943E0D813709F043C01092F508109226
:1038C000F6081092F7081092F8081092F908109272
:1038D000FA081092FB081092FC081092FD08109252
:1038E000FE081092FF081092000981E080930D09F4
:1038F0001092010910920209109203091092040912
:1039000010920509109206091092070910920809F1
:103910001092090910920A0910920B0910920C09D1
:1039200080930E0988E090E09093100980930F092E
:103930008BE60E943E0D682F6F7B8BE60E94DC09B0
:1039400068EE73E080E090E00E94A3060E94C70D3D
:103950000E94BE0D0E94B20D0E94A60D8DE10E9434
:103960003E0D682F677F8DE10E94DC090E949D0D4E
:1039700064E670E080E090E00E94A30602E310E0BD
:103980001D8A1E8A1F8A188E1D861E861F86188A0B
:10399000198A1A8A1B8A1C8AC12CD12C76014601ED
:1039A000570126013701AE014F5F5F4F6BE38BEE8E
:1039B00098E00E94950B69817A81762767277627A0
:1039C000072E000C880B990B0E94B724698F7A8F01
:1039D0008B8F9C8F6B817C81762767277627072EBC
:1039E000000C880B990B0E94B7246D8F7E8F8F8FF0
:1039F00098A36D817E81762767277627072E000C96
:103A0000880B990B0E94B72469A37AA38BA39CA36C
:103A1000298D3A8D4B8D5C8DC301B2010E94272602
:103A20002B013C012D8D3E8D4F8D58A1C501B40158
:103A30000E9427264B015C0129A13AA14BA15CA160
:103A4000C701B6010E9427266B017C016BEE78E06E
:103A5000CE0101960E94070C29813A814B815C813D
:103A600069897A898B899C890E942726698B7A8B40
:103A70008B8B9C8B2D813E814F8158856D857E85FA
:103A80008F8598890E9427266D877E878F87988BE0
:103A900029853A854B855C856D897E898F89988DCE
:103AA0000E9427266D8B7E8B8F8B988F61E070E054
:103AB00080E090E00E94A3060150110909F073CF45
:103AC00020E030E048E452E4C301B2010E9405273F
:103AD0006093F5087093F6088093F7089093F808C0
:103AE00020E030E048E452E4C501B4010E9405271B
:103AF0006093F9087093FA088093FB089093FC0890
:103B000020E030E048E452E4C701B6010E940527F6
:103B100020E030E040E856E40E9426266093FD084D
:103B20007093FE088093FF089093000920E030E036
:103B300048E452E469897A898B899C890E94052727
:103B4000609301097093020980930309909304091B
:103B500020E030E048E452E46D857E858F859889C9
:103B60000E94052760930509709306098093070951
:103B70009093080920E030E048E452E46D897E89A2
:103B80008F89988D0E9405276093090970930A090F
:103B900080930B0990930C090E94C70D0E94BE0DE3
:103BA00065E089E10E94DC090E94B20D0E94A60D29
:103BB0008DE10E943E0D682F677F8DE10E94DC0938
:103BC0000E949D0D61E08AE00E94240A89E40E941F
:103BD0003E0D182F68E083E00E94240A107F1660D3
:103BE0006CE085E20E94DC096AE086E20E94DC0962
:103BF000612F83E60E94DC096AE070E080E090E0DB
:103C00000E94A30668E083E00E94240A68EC70E04A
:103C100080E090E00E94A3060E943D0A8091DE04AD
:103C20008F3F09F4B3C29091DF049F3F09F4AEC205
:103C3000891741F061E00E949A0361E08091DF04FE
:103C40000E949A038091DE049091DF04891719F095
:103C500060E00E942D0361E08CED94E00E94B909C0
:103C600065E070E080E090E00E94A3064FE564E02C
:103C70008CED94E00E94561090E080E00E94DC10F1
:103C80006DE18CED94E00E94C510182F0E94A310E6
:103C90006DE18CED94E00E94C51091E0181390E066
:103CA0009093EC04882351F0181302C00E94A310D3
:103CB00040E06DE18CED94E00E9456101092EE040D
:103CC00040E06CE18CED94E00E9456101092F004FC
:103CD0004FE361E08CED94E00E94561043E062E017
:103CE0008CED94E00E94561080E28093E50411E18F
:103CF0004091E504612F8CED94E00E9456101F5F07
:103D00001731B1F743E063E08CED94E00E94561068
:103D100085E08093EF044CE465E08CED94E00E9434
:103D2000561040E767E08CED94E00E94561062EE7A
:103D30008CED94E00E94B31061EE8CED94E00E9453
:103D4000B3104CE060E08CED94E00E94561060E00F
:103D50008CED94E00E94C5108093EB040E946E10DD
:103D60008091EB048E3009F011C24CE465E08CEDDB
:103D700094E00E94561081E090E00E94DC1066E022
:103D80008CED94E00E94C510482F476066E08CEDF2
:103D900094E00E9456106DE18CED94E00E94C510F5
:103DA000482F44606DE18CED94E00E9456106CE168
:103DB0008CED94E00E94C510482F4F636CE18CEDB0
:103DC00094E00E94561081E08093F0044091EB044F
:103DD0004C604093EB0460E08CED94E00E94561040
:103DE00061E08CED94E00E94C510482F4D7F61E0AA
:103DF0008CED94E00E94561041E063E08CED94E07D
:103E00000E94561083E08093EF04809110029091FD
:103E10001102A091120289839A83AB83E3E5F2E059
:103E2000849143E0BE016F5F7F4F0E947F1062E08C
:103E30008CED94E00E94C510EDE4F2E0E49141E0E5
:103E400050E001C0440FEA95EAF7482B62E08CEDA0
:103E500094E00E9456100E946E104091EB04416065
:103E60004093EB0460E08CED94E00E94561040E734
:103E700067E08CED94E00E9456108091DE049091F2
:103E8000DF04891395C18091ED04882309F494C15E
:103E90004091EF0466EE74E08AE00E947F100E9479
:103EA0006E1090E080E00E94D42590E09093DA02BA
:103EB0008093D90287E49BE09093010280930002F3
:103EC00080916A00836080936A00EC9A83E49BE0AF
:103ED00090930B0280930A0280916900806C80931A
:103EE0006900EB9A8FE39BE09093070280930602B0
:103EF000809169008C6080936900E99AE091B20337
:103F0000F091B30382E08083E091AE03F091AF03C0
:103F10001082E091B003F091B10380E180831092B0
:103F2000BA03E091B603F091B70386E08083E09195
:103F3000B403F091B503808180618083E091B40384
:103F4000F091B503808188608083E091B403F091A3
:103F5000B503808180688083E091B403F091B5035C
:103F600080818F7D808381E08093C7022224239407
:103F7000312C0E94BF044B015C012091DB02309187
:103F8000DC024091DD025091DE026091DF0270910F
:103F9000E0028091E1029091E20228573C4E4F4F9F
:103FA0005F4F6F4F7F4F8F4F9F4F3901B42FA52F1A
:103FB000F62FE72F8C019401A50160E070E080E00E
:103FC00090E05301CB2EDA2EEF2EFE2E0E941D26FE
:103FD00080F20E94BF048B019C016093DB0210936E
:103FE000DC028093DD023093DE021092DF02109239
:103FF000E0021092E1021092E2028091D9029091C7
:10400000DA0290930205809301058AE399E00E9409
:10401000650B82E499E00E94650B8AE499E00E94B6
:10402000650B89EE98E00E94650C8BE095E00E949C
:10403000BF0A83E095E00E94880B8AED94E00E941D
:1040400015112091C0043091C1044091C2045091D7
:10405000C30460911D0970911E0980911F09909100
:1040600020090E9416252091C8043091C90440916E
:10407000CA045091CB040E9427266093C804709311
:10408000C9048093CA049093CB046093C4047093D2
:10409000C5048093C6049093C7046093D5027093BF
:1040A000D6028093D7029093D8022091B204309127
:1040B000B3044091B4045091B5046091210970910A
:1040C000220980912309909124090E9416252091AC
:1040D000BA043091BB044091BC045091BD040E94CD
:1040E00027266093BA047093BB048093BC0490931A
:1040F000BD046093B6047093B7048093B8049093A2
:10410000B9046093D1027093D2028093D30290934A
:10411000D40280914E09882399F08091D902909120
:10412000DA0201968A3091050CF06BC09093DA02A6
:104130008093D9026091D90290E080E00E94DC2552
:1041400080914609882389F08091D9029091DA0202
:10415000019797FD5BC09093DA028093D90260913A
:10416000D90290E080E00E94DC2561E087E10E94B6
:104170002D030091D9021091DA0201117AC0EBE10E
:10418000F5E08AEF9FEF338A228A4DC0EBE1F5E03C
:1041900090E080E021E030E0338B228B0196329674
:1041A0008F30910511F58BE195E00E944B0BDECE2F
:1041B00061E00E942D0367CE62E08CED94E00E94E6
:1041C000C510ECE4F2E0E49121E030E001C0220F00
:1041D000EA95EAF72095422F482362E08CED94E0BF
:1041E0000E9456101092ED045ACEAC014350510972
:1041F0004330510588F28730910571F2138A128A93
:10420000CDCF1092DA021092D90294CF29E030E09B
:104210003093DA022093D902A2CF8230910508F0C0
:10422000B2CF138A128A3296019689309105A9F786
:10423000C0901305D0901405E0901505F090160578
:104240002AE939E949E151E4C701B6010E94B024E5
:1042500087FF53C188EA92E00E94CF0D85EA92E081
:104260000E94CF0DEBE1F5E08DEF9FEF138A128AEC
:10427000F4C0013091F4EBE1F5E08FEF9FEF138A8A
:10428000128A05C082309105D0F7338A228A32968D
:1042900001968E309105B1F7CBCF0230B9F4EBE146
:1042A000F5E090E080E09C012D7F2530310519F08C
:1042B0008230910541F4138A128A019632968F302A
:1042C000910589F7B5CF338A228AF7CF0330C1F43D
:1042D000EBE1F5E090E080E09C01245031092230D0
:1042E000310518F08730910541F4138A128A01963E
:1042F00032968F30910581F79BCF338A228AF7CF90
:104300000430C1F4EBE1F5E090E080E0138A128A1A
:10431000019632968F30910509F48ACF9C01235083
:1043200031092230310590F38730910579F3338AD2
:10433000228AEECF0530C1F4EBE1F5E090E080E0B9
:10434000338A228A0BC08730910531F08130910584
:1043500019F084309105A1F7138A128A01963296DA
:104360008F30910581F764CF0630A9F4EBE1F5E0D9
:1043700090E080E0338A228A08C08730910519F0E6
:1043800081309105B9F7138A128A019632968F30DF
:10439000910599F74DCF073091F4EBE1F5E090E00E
:1043A00080E08330910544F4338A228A0196329664
:1043B0008F309105B1F73CCF138A128AF7CF0830BE
:1043C000A1F4EBE1F5E090E080E0338A228A07C0B7
:1043D00087309105D1F710923C0510923B0501966C
:1043E00032968F309105A1F723CF0930A9F4EBE184
:1043F000F5E090E080E0338A228A08C0873091059A
:1044000019F084309105B9F7138A128A0196329611
:104410008F30910599F70CCF0A3008F409CFEBE102
:10442000F5E08CEF9FEF9C012D5F3F4F223031056F
:1044300018F08330910540F4338A228A329601962F
:104440008B30910581F7F4CE138A128AF7CF83302F
:10445000910508F00BCF338A228A329601968C3070
:104460009105A9F78091D002882309F474C241E034
:1044700050E050933C0540933B0560E087E10E948B
:104480002D038091C702811111C00E94D50628EE2C
:1044900033E040E050E00E94EA25653F714081052D
:1044A000910520F461E087E10E942D0389E299E003
:1044B0000E94730A8EEF97E00E94200E83E197E03E
:1044C0000E94200E88E296E00E94200E8BE195E08B
:1044D0000E944B0B61E02091070530910805809107
:1044E000090590910A052817390708F060E086E170
:1044F0000E942D030E9404083CCD2AE939E941E3DA
:1045000051E4C701B6010E94B02487FF27C00E9472
:10451000D50628EE33E040E050E00E94EA25653FF2
:10452000714081059105D0F489EB92E00E94CF0D96
:1045300085EA92E00E94CF0DEBE1F5E08DEF9FEF71
:10454000138A128A05C083309105D0F7338A228AF4
:10455000329601968C309105B1F784CF80913E0957
:10456000882319F081E080932D098091FA0480510D
:10457000990B0817190709F0BFC08091FE04EBE101
:10458000F5E030E020E086FDB4C082958170809334
:10459000D0028091FB049EE0980F9D3160F41816C4
:1045A0001CF451E15093FB048091FB0487FF03C08E
:1045B0008FEE8093FB046091FB04062E000C770BBA
:1045C000880B990B0E94B72420E030E040E251E4D0
:1045D0000E9416256D877E878F87988B8091FC04BB
:1045E0009EE0980F9D3160F418161CF491E19093B1
:1045F000FC048091FC0487FF03C0EFEEE093FC0411
:104600006091FC04062E000C770B880B990B0E941E
:10461000B72420E030E040E251E40E9416252B014F
:104620003C016091FD04062E000C770B880B990B62
:104630000E94B7242FE832EC45E75DE30E9416257F
:10464000698B7A8B8B8B9C8B1092000520910705D0
:10465000309108058091090590910A0528173907BE
:1046600008F078C08091D002882309F473C00E94BA
:10467000D5069B01AC0160E070E080E090E0A09086
:10468000C802B090C902C090CA02D090CB02E0909C
:10469000CC02F090CD020091CE021091CF020E9488
:1046A0001426283E334041055105610571058105F9
:1046B000910509F008F44EC081E080932D09EBE1EB
:1046C000F5E090E080E0138A128A2BC02630310595
:1046D00081F441E050E050933A05409339052F5F53
:1046E0003F4F32962F30310589F791E090932D0995
:1046F0004CCF138A128AF3CF198A1A8A1B8A1C8A12
:10470000412C512C32014D865E866F86788A9ECF71
:1047100086309105C1F621E030E030933A052093D0
:104720003905019632968F30910591F70E94D50692
:104730008B019C016093C8021093C9028093CA0246
:104740003093CB021092CC021092CD021092CE0286
:104750001092CF024D855E856F8578898EE794E053
:104760000E947F096D877E878F87988BB301A20196
:104770008CE494E00E947F092B013C0120912509E3
:1047800030912609409127095091280969897A8931
:104790008B899C890E9427262091CE043091CF04DA
:1047A0004091D0045091D1040E9416252091D60446
:1047B0003091D7044091D8045091D9040E94272603
:1047C0006B017C01C092D604D092D704E092D80449
:1047D000F092D904C092D204D092D304E092D404CF
:1047E000F092D5048090D5029090D602A090D70286
:1047F000B090D80220E030E0A901C501B4010E94C8
:10480000D42718160CF081C020E030E040E85FE3C8
:10481000C501B4010E94D42718160CF480C0809002
:10482000D1029090D202A090D302B090D40220E0A6
:1048300030E0A901C501B4010E94D42718160CF07C
:1048400078C020E030E040E85FE3C501B4010E9499
:10485000D42718160CF463C020E030E040E051E4A7
:10486000C701B6010E94162529893A894B895C89BE
:104870000E9427264B015C0120E030E040EE50EC26
:104880000E94B02487FD60C020E030E040EE50E49C
:10489000C501B4010E94D427181634F4812C912C40
:1048A00090EEA92E90E4B92E750164019301820166
:1048B0004D855E856F85788981E090E00E94951135
:1048C000AB01BC018EEF97E00E94DC0A93014D859D
:1048D0005E856F85788982E090E00E949511AB013A
:1048E000BC0183E197E00E94DC0A93014D855E855F
:1048F0006F85788983E090E00E949511AB01BC013F
:1049000088E296E00E94DC0AADCD20E030E040E88D
:104910005FEBC501B4010E94B02487FF80CF412C1A
:10492000512C32014D865E866F86788A5301420192
:10493000BBCF20E030E040E85FEBC501B4010E944E
:10494000B02487FDECCF88CF812C912C80EEA82E4F
:1049500080ECB82EA9CF10923C0510923B058DCD6E
:104960000E94F22408F481E00895E89409C097FBBE
:104970003EF490958095709561957F4F8F4F9F4F36
:104980009923A9F0F92F96E9BB279395F69587957A
:1049900077956795B795F111F8CFFAF4BB0F11F43D
:1049A00060FF1BC06F5F7F4F8F4F9F4F16C08823E4
:1049B00011F096E911C0772321F09EE8872F762F1A
:1049C00005C0662371F096E8862F70E060E02AF05B
:1049D0009A95660F771F881FDAF7880F9695879547
:1049E00097F90895990F0008550FAA0BE0E8FEEF1C
:1049F00016161706E807F907C0F012161306E407A3
:104A0000F50798F0621B730B840B950B39F40A269B
:104A100061F0232B242B252B21F408950A2609F479
:104A2000A140A6958FEF811D811D08950E94292523
:104A30000C949A250E948C2538F00E94932520F032
:104A4000952311F00C9483250C94892511240C9442
:104A5000CE250E94AB2570F3959FC1F3950F50E0D2
:104A6000551F629FF001729FBB27F00DB11D639F20
:104A7000AA27F00DB11DAA1F649F6627B00DA11DC6
:104A8000661F829F2227B00DA11D621F739FB00D6C
:104A9000A11D621F839FA00D611D221F749F3327DC
:104AA000A00D611D231F849F600D211D822F762F75
:104AB0006A2F11249F5750409AF0F1F088234AF052
:104AC000EE0FFF1FBB1F661F771F881F91505040BE
:104AD000A9F79E3F510580F00C9483250C94CE25B8
:104AE0005F3FE4F3983ED4F3869577956795B79545
:104AF000F795E7959F5FC1F7FE2B880F911D96955F
:104B0000879597F9089597F99F6780E870E060E0CE
:104B100008959FEF80EC089500240A941616170656
:104B200018060906089500240A941216130614069E
:104B300005060895092E0394000C11F4882352F001
:104B4000BB0F40F4BF2B11F460FF04C06F5F7F4FB9
:104B50008F4F9F4F089557FD9058440F551F59F0A0
:104B60005F3F71F04795880F97FB991F61F09F3F5A
:104B700079F087950895121613061406551FF2CF83
:104B80004695F1DF08C0161617061806991FF1CFD3
:104B900086957105610508940895E894BB276627FA
:104BA0007727CB0197F90895F999FECF92BD81BD82
:104BB000F89A992780B50895262FF999FECF1FBA44
:104BC00092BD81BD20BD0FB6F894FA9AF99A0FBE36
:104BD00001960895A1E21A2EAA1BBB1BFD010DC070
:104BE000AA1FBB1FEE1FFF1FA217B307E407F5079D
:104BF00020F0A21BB30BE40BF50B661F771F881F79
:104C0000991F1A9469F760957095809590959B010E
:104C1000AC01BD01CF010895EE0FFF1F881F8BBFB0
:104C20000790F691E02D19942A193B094C095D096A
:104C30006E097F09800B910B08952A153B054C05E1
:104C40005D056E057F058007910708955058BB27C5
:104C5000AA270E943E260C949A250E948C2538F0A3
:104C60000E94932520F039F49F3F19F426F40C9408
:104C700089250EF4E095E7FB0C948325E92F0E942B
:104C8000AB2558F3BA17620773078407950720F01E
:104C900079F4A6F50C94CD250EF4E0950B2EBA2FE1
:104CA000A02D0B01B90190010C01CA01A001112432
:104CB000FF27591B99F0593F50F4503E68F11A16DE
:104CC000F040A22F232F342F4427585FF3CF46956F
:104CD00037952795A795F0405395C9F77EF41F1691
:104CE000BA0B620B730B840BBAF09150A1F0FF0F5B
:104CF000BB1F661F771F881FC2F70EC0BA0F621F47
:104D0000731F841F48F4879577956795B795F79536
:104D10009E3F08F0B0CF9395880F08F09927EE0FCB
:104D20009795879508950E948C2560F080E891E022
:104D300009F49EEF0E94932528F040E851E071F4B9
:104D40005EEF0CC00C9489250C94CD25E92FE078FA
:104D50000E94AB2540F3092E052AB1F32617370729
:104D60004807590738F00E2E07F8E02569F0E025CE
:104D7000E0640AC0EF6307F8009407FADB01B901A9
:104D80009D01DC01CA01AD01EF930E941C270E9426
:104D90009A250E94D6265F91552339F02BED3FE0EE
:104DA00049E450FD49EC0C9427260895DF93DD2754
:104DB000B92FBF7740E85FE31616170648075B0771
:104DC00018F4D92F0E94D9279F938F937F936F93C5
:104DD0000E942F28E4EEF0E00E94AD270E949A2561
:104DE0002F913F914F915F910E942925DD2351F032
:104DF0009058A2EA2AED3FE049EC5FE3D0785D27C6
:104E00000E943E26DF910C949A250E9419270C944B
:104E10009A250E94932558F00E948C2540F029F491
:104E20005F3F29F00C94832551110C94CE250C94EE
:104E300089250E94AB2568F39923B1F3552391F39B
:104E4000951B550BBB27AA2762177307840738F0F9
:104E50009F5F5F4F220F331F441FAA1FA9F335D056
:104E60000E2E3AF0E0E832D091505040E695001C0A
:104E7000CAF72BD0FE2F29D0660F771F881FBB1FC4
:104E8000261737074807AB07B0E809F0BB0B802DA2
:104E9000BF01FF2793585F4F3AF09E3F510578F0CE
:104EA0000C9483250C94CE255F3FE4F3983ED4F315
:104EB000869577956795B795F7959F5FC9F7880FA2
:104EC000911D9695879597F90895E1E0660F771FF4
:104ED000881FBB1F621773078407BA0720F0621B85
:104EE000730B840BBA0BEE1F88F7E09508950E94B0
:104EF0007E276894B1110C94CE2508950E94B325A5
:104F000088F09F5798F0B92F9927B751B0F0E1F08A
:104F1000660F771F881F991F1AF0BA95C9F714C03A
:104F2000B13091F00E94CD25B1E008950C94CD25CB
:104F3000672F782F8827B85F39F0B93FCCF3869573
:104F400077956795B395D9F73EF4909580957095D0
:104F500061957F4F8F4F9F4F0895DF93CF931F939E
:104F60000F93FF92EF92DF927B018C01689406C051
:104F7000DA2EEF010E942925FE01E894A5912591E2
:104F8000359145915591A6F3EF010E943E26FE0111
:104F90009701A801DA9469F7DF90EF90FF900F91E5
:104FA0001F91CF91DF9108950E94F22408F48FEFB2
:104FB00008959B01AC0160E070E080E89FE30C94F1
:104FC00005279F930E944F280F9007FCEE5F0C94DB
:104FD000782819F416F40C9489250C9438280E942A
:104FE000B325B8F39923C9F3B6F39F57550B87FF41
:104FF0000E9446280024A0E640EA90018058569579
:10500000979528F4805C660F771F881F20F026177D
:105010003707480730F4621B730B840B20293129B2
:105020004A2BA69517940794202531254A2758F72F
:10503000660F771F881F20F026173707480730F4C0
:10504000620B730B840B200D311D411DA09581F760
:10505000B901842F9158880F9695879508959B01E3
:10506000AC010C9416250E94F224880B990B08952C
:105070009F3F31F0915020F4879577956795B795CC
:10508000880F911D9695879597F9089591505040F6
:10509000660F771F881FD2F708950C9489250E9408
:1050A000B325D8F3E894E0E0BB279F57F0F02AED52
:1050B0003FE049EC06C0EE0FBB0F661F771F881F4D
:1050C00028F0B23A62077307840728F0B25A620BDD
:1050D000730B840BE3959A9572F7803830F49A95A8
:1050E000BB0F661F771F881FD2F790480C943A2891
:1050F000EF93E0FF07C0A2EA2AED3FE049EC5FEB47
:105100000E943E260E949A250F90039401FC90581D
:10511000E1E1F1E00C948C289F938F937F936F9340
:10512000FF93EF939B01AC010E941625EF91FF9135
:105130000E94AD272F913F914F915F910C941625BE
:04514000F894FFCF11
:10514400FD06FD06FD06FD06FD06FD06FD06FD0643
:10515400ABADAF0000000017020509B20900000062
:1051640000B7083F08B20900000000200E0000004C
:10517400006E0241022B0717023A022702180200AE
:105184000000009707FE062E07E4075F073D07515E
:105194000700000000B109CB08B209000000003587
:1051A400087F09B20900000000C108E106B2090045
:1051B400000000151100000000880B000000004BE7
:1051C4000B00000000650C00000000650B000000EF
:1051D40000BF0A00000000730A6E616E00696E660B
:1051E400006F7666000D0A0042415454455259201E
:1051F400435249544943414C004241545445525945
:06520400204C4F57000092
:00000001FF
