:100000000C94BD010C9400140C94D5130C94AA13F9
:100010000C947F130C9454130C9429130C94FE121B
:100020000C94D3120C94EE010C94EE010C94EE019E
:100030000C94EE010C94EE010C94EE010C94EE0184
:100040000C94EE010C94EE010C94EE010C94EE0174
:100050000C94EE010C94EE010C94EE010C948912B8
:100060000C94EE010C9455140C942B140C94EE018A
:100070000C94EE010C94EE010C94EE010C94EE0144
:100080000C94EE010C94EE010C94EE010C94EE0134
:100090000C94EE010C94EE010C94EE010C94691199
:1000A0000C94EE010C94EE010C94EE010C94EE0114
:1000B0000C94EE010C94EE010C94EE010C94EE0104
:1000C0000C94EE010C94EE010C94EE010C94EE01F4
:1000D0000C94EE010C94EE010C94EE010C94EE01E4
:1000E0000C94EE01084AD73B3BCE016E84BCBFFDA9
:1000F000C12F3D6C74319ABD56833DDA3D00C77FF8
:1001000011BED9E4BB4C3E916BAAAABE0000008090
:100110003F05A84CCDB2D44EB93836A9020C50B91F
:10012000918688083CA6AAAA2ABE000000803F004B
:100130000C9475040C94E0020C946B040C94CB08A2
:100140000C94FC020C9493040C94D0020C9448047C
:100150000C94CD020C943E040C949D040C940B045E
:100160000C9497070C94260B0C945C040C945A0A7C
:100170000C942A0B0C9441020C94FE060C94320B46
:100180000C94F6020C94DA020C942E0B0C94C5021B
:100190000C94EF0F0C945F070C941A040C94B7089E
:1001A0000C9418020C94F2020C943A020C9427025C
:1001B0000C94FD060C94910D0C946F0B0C947F091C
:1001C0000C94C9020C94E1060C9403040C945204A0
:1001D0000C94BB020C94E4070C944C0C0C946E022F
:1001E0000C94D6020C9436040C943F080C943508F9
:1001F0000C9405090C94FB020C943D070C947F04AD
:100200000C94E4020C942E040C94B2090C94000398
:100210000C94E8020C9410040C9489040C94EE02E3
:100220000C9451070C94C1020C9417020C946416A0
:100230000C94B1090C944C0B0C94A60A0C94C108B4
:100240000C942B070C9424040C942E070001020339
:1002500004050A0B0C0D0E0F0000210024002700DE
:100260002A002D00300033000101000004010701C5
:100270000A0100002200250028002B002E0031007A
:10028000340002010000050108010B0100002000FC
:100290002300260029002C002F003200000100005E
:1002A00003010601090105050505070508080808F9
:1002B000020202020A0A08080404040401010101FE
:1002C00001010101030303030303030304070707F9
:1002D0000C0C0C0C0C0C0C0C02020202060606069E
:1002E000060606060B0B0B0B0B0B0B0B010210206B
:1002F000200808102040102040800201020108045C
:1003000002010102040810204080804020100804EF
:100310000201800402018040201008040201080448
:10032000020101020408102040800102040810208C
:10033000408000000A0B02090C0D0E08070304019F
:1003400000000000000000000000000000000000AD
:10035000000000000000000000000000000012117A
:10036000100000000000000000000000000000007D
:100370000000000000000000641611241FBECFEF33
:10038000D1E2DEBFCDBF00E00CBF29E0ACECB2E0B3
:1003900001C01D92AB34B207E1F712E0A0E0B2E079
:1003A000E8EDFCE400E00BBF02C007900D92AC3C0E
:1003B000B107D9F711E0CDEBD1E000E006C02197FD
:1003C0000109802FFE010E94ED23CC3BD10780E084
:1003D0000807A9F70E94611A0C946A260C94000081
:1003E00020910703260F3327331F21323105ECF408
:1003F00020917203FC0190E080E0243069F082E0FB
:100400000895A09107032191AC0149515D4FA40FBC
:10041000B52FB11D2C930196861798F38091070391
:10042000680F6093070380E0089581E008950895C0
:10043000E0912B0380912A03E81730F4F0E0E45DAB
:10044000FC4F808190E008958FEF9FEF0895909189
:100450002B0380912A032FEF3FEF981748F4E92FE1
:10046000F0E0E45DFC4F208130E09F5F90932B0330
:10047000C901089580912A0390912B03891B990B40
:100480000895CF92DF92EF92FF920F931F93CF9335
:10049000DF937C01CB018A0120917803222389F02C
:1004A000EB016B01C40ED51ECC15DD0569F0699119
:1004B000D701ED91FC910190F081E02DC7011995D4
:1004C000F3CF642F0E94F001C801DF91CF911F91FB
:1004D0000F91FF90EF90DF90CF900895CF93DF932F
:1004E0001F92CDB7DEB76983209178032223F9F0FC
:1004F00020919B03203258F021E030E0FC0133834F
:10050000228390E080E00F90DF91CF910895809159
:100510007903E82FF0E0E658FC4F998190838F5FD4
:100520008093790380939B0381E090E0ECCF61E0BE
:10053000CE0101960E94F001F7CF8150823108F080
:100540005AC0E82FF0E08827E755FD4F8F4F0C94F5
:10055000ED23C902CD02BB02C102C502FB02D002DB
:10056000D602DA02E002E402E802EE02F202FB0244
:10057000F602FC020003809180008F778093800058
:100580000895809180008F7DF9CF80918000877FD2
:10059000F5CF84B58F7784BD089584B58F7DFBCF6B
:1005A0008091B0008F778093B00008958091B00063
:1005B0008F7DF9CF809190008F7780939000089580
:1005C000809190008F7DF9CF80919000877FF5CF4B
:1005D0008091A0008F778093A00008958091A00063
:1005E0008F7DF9CF8091A000877FF5CF809120018A
:1005F0008F77809320010895809120018F7DF9CF1E
:1006000080912001877FF5CFCF93DF93282F30E0B3
:10061000F901EE5CFC4F8491F901E451FD4FD49156
:10062000F901EA55FD4FC491CC23A1F081110E943C
:100630009D02EC2FF0E0EE0FFF1FE457FD4FA59158
:10064000B491EC91ED2381E090E009F480E0DF913A
:10065000CF91089580E090E0FACF1F93CF93DF937E
:10066000282F30E0F901EE5CFC4F8491F901E45150
:10067000FD4FD491F901EA55FD4FC491CC23A9F067
:10068000162F81110E949D02EC2FF0E0EE0FFF1F4C
:10069000EE58FD4FA591B4918FB7F894EC911111DC
:1006A00008C0D095DE23DC938FBFDF91CF911F91DF
:1006B0000895DE2BF8CF1F93CF93DF93C1E0C09353
:1006C000E602882399F1D091B8001091BA00809188
:1006D000BC008A7B8093BC0060E084E10E942D0313
:1006E00060E085E10E942D0310927203C0937103B4
:1006F00010924C0361E084E10E942D0361E085E1EA
:100700000E942D038091B9008E7F8093B900809163
:10071000B9008D7F8093B90088E48093B80085E4A8
:100720008093BC001093BA00D093B800DF91CF91B2
:100730001F910895CF93DF9390E0FC01E451FD4FAA
:1007400024918A559D4FFC0184918823D1F090E03B
:10075000880F991FFC01E85AFD4FA591B491FC0147
:10076000EE58FD4FC591D49161110EC09FB7F8941A
:100770008C91E22FE0958E238C932881E223E883ED
:100780009FBFDF91CF9108958FB7F894EC91E22B42
:10079000EC938FBFF6CF1F93CF93DF93182FEB010E
:1007A00061E00E949A03209739F460E0812FDF9185
:1007B000CF911F910C942D03CF3FD10511F461E02F
:1007C000F5CFE12FF0E0EE5CFC4FE491E150E23137
:1007D00008F0B3C0F0E08827EF50FC4F8F4F0C9427
:1007E000ED2303040B0410041A0424049D042E04B6
:1007F00036043E04480452045C046B0475049D04F2
:100800007F048904930484B5806884BDC7BDDF91EB
:10081000CF911F91089584B5806284BDC8BDF7CF84
:1008200080918000806880938000D0938900C0937D
:100830008800EDCF80918000806280938000D0930B
:100840008B00C0938A00E3CF809180008860809302
:100850008000D0938D00C0938C00D9CF8091B000E0
:1008600080688093B000C093B300D1CF8091B00076
:1008700080628093B000C093B400C9CF8091900093
:10088000806880939000D0939900C0939800BFCF68
:1008900080919000806280939000D0939B00C093E1
:1008A0009A00B5CF80919000886080939000D0939B
:1008B0009D00C0939C00ABCF8091A0008068809386
:1008C000A0008091A0008F7B8093A000D093A9000E
:1008D000C093A8009CCF8091A00080628093A0006C
:1008E000D093AB00C093AA0092CF8091A000886003
:1008F0008093A000D093AD00C093AC0088CF8091CE
:100900002001806880932001D0932901C0932801A1
:100910007ECF80912001806280932001D0932B01B3
:10092000C0932A0174CF80912001886080932001B8
:10093000D0932D01C0932C016ACFC038D1050CF0A3
:100940003ECF33CF863308F0865320917B00982F1B
:100950009870277F922B90937B00877080648093A0
:100960007C0080917A00806480937A0080917A0084
:1009700086FDFCCF809178009091790008953FB773
:10098000F8948091E2029091E302A091E402B09188
:10099000E50226B5A89B05C02F3F19F00196A11DC1
:1009A000B11D3FBFBA2FA92F982F8827BC01CD01B9
:1009B000620F711D811D911D42E0660F771F881F18
:1009C000991F4A95D1F708958F929F92AF92BF9247
:1009D000CF92DF92EF92FF920F931F93CF93DF930B
:1009E000D0919B03D13208F0D7C0182FC0919A0341
:1009F0000E94BF046B017C018091720381116BC066
:100A000082E080937203109371038FEF80937003E1
:100A100010926F03D0936E03AAE7B3E0EEE4F3E025
:100A200080E0D81391C010924D0380914D03CC0FFC
:100A3000C82BC0934D0380914C03813009F088C0CE
:100A400010924C030E94BF046B017C0180914D0306
:100A50008093BB008091740390917503A0917603FD
:100A6000B0917703892B8A2B8B2BA1F00E94BF04B6
:100A700000917403109175032091760330917703F0
:100A80006C197D098E099F09061717072807390772
:100A900008F442C08091BC0083FDD8CF85EC8093E0
:100AA000BC000E94BF046B017C0180917203823004
:100AB00009F450C0809170038F3F09F46FC080919A
:100AC0007003803209F46CC080917003803309F4A4
:100AD00069C084E026C08091740390917503A09151
:100AE0007603B0917703892B8A2B8B2B09F484CF63
:100AF0000E94BF048090740390907503A0907603C9
:100B0000B09077036C197D098E099F0986169706A8
:100B1000A806B90608F070CF809173030E945B03AA
:100B200085E01092790310929B0310927803DF9175
:100B3000CF911F910F91FF90EF90DF90CF90BF90DA
:100B4000AF909F908F9008959D9191938F5F69CF03
:100B500085EEA5CF8091740390917503A0917603E3
:100B6000B0917703892B8A2B8B2B09F49ECF0E949F
:100B7000BF040091740310917503209176033091A6
:100B800077036C197D098E099F0906171707280737
:100B9000390708F08ACFC0CF81E0C3CF80E0C1CF52
:100BA00082E0BFCF83E0BDCFCF92DF92EF92FF9282
:100BB0000F931F93CF93DF93D82FC62F613208F086
:100BC00098C00E94BF046B017C0180917203811167
:100BD0006BC081E080937203809371039FEF9093C9
:100BE000700310926F039C0F90936E0380934D03DC
:100BF00080914D03DD0FD82BD0934D0380914C0392
:100C0000813009F078C010924C030E94BF046B0140
:100C10007C0180914D038093BB008091740390917F
:100C20007503A0917603B0917703892B8A2B8B2BC8
:100C3000A1F00E94BF0400917403109175032091EC
:100C40007603309177036C197D098E099F09061789
:100C500017072807390708F448C08091BC0083FDB6
:100C6000D8CF85EC8093BC000E94BF046B017C014F
:100C700080917203813009F440C080916F038C171A
:100C800010F4C0916F03EEE4F3E0ACE2B3E080E077
:100C90008C1355C08C2FDF91CF911F910F91FF9036
:100CA000EF90DF90CF900895809174039091750339
:100CB000A0917603B0917703892B8A2B8B2B09F4B3
:100CC00084CF0E94BF04009174031091750320919A
:100CD0007603309177036C197D098E099F090617F9
:100CE00017072807390708F070CF809173030E9417
:100CF0005B03C0E0CFCF85EEB5CF809174039091B8
:100D00007503A0917603B0917703892B8A2B8B2BE7
:100D100009F4AECF0E94BF040091740310917503D3
:100D200020917603309177036C197D098E099F0914
:100D3000061717072807390708F09ACFD6CF9191E1
:100D40009D938F5FA5CF8F929F92AF92BF92CF92CC
:100D5000DF92EF92FF924B015C010E94BF046B0196
:100D60007C010E94BF046C197D098E099F09683EB1
:100D7000734081059105A8F321E0821A9108A1082A
:100D8000B10888EEC80E83E0D81EE11CF11C811466
:100D90009104A104B10429F7FF90EF90DF90CF9068
:100DA000BF90AF909F908F9008952FB7F894609167
:100DB000DE027091DF028091E0029091E1022FBF8C
:100DC0000895CF93DF93EC01CB01BA012A813B81D7
:100DD0004C815D810E94F7222A853B854C855D858B
:100DE0000E94F6236A877B878C879D876E837F832B
:100DF00088879987DF91CF9108950895AF92BF9228
:100E0000CF92DF92EF92FF920F931F93CF93DF93D6
:100E10006C017B018B01040F151FEB015E01AE1805
:100E2000BF08C017D10759F06991D601ED91FC9127
:100E30000190F081E02DC6011995892B79F7C50144
:100E4000DF91CF911F910F91FF90EF90DF90CF90A6
:100E5000BF90AF90089590E080E00895FC01538D1D
:100E6000448D252F30E0842F90E0821B930B541784
:100E700010F0CF96089501970895FC01918D828D11
:100E8000981761F0A28DAE0FBF2FB11D5D968C91AA
:100E9000928D9F5F9F73928F90E008958FEF9FEFE9
:100EA0000895FC01918D828D981731F0828DE80FA5
:100EB000F11D858D90E008958FEF9FEF0895FC015F
:100EC000918D228D892F90E0805C9F4F821B91092C
:100ED0008F73992708958CE993E00E945F0721E0C2
:100EE000892B09F420E0822F0895FC01A48DA80F1E
:100EF000B92FB11DA35ABF4F2C91848D90E001965C
:100F00008F739927848FA689B7892C93A089B1897B
:100F10008C91837080648C93938D848D981306C01C
:100F20000288F389E02D80818F7D80830895EF9280
:100F3000FF920F931F93CF93DF93EC0181E0888F93
:100F40009B8D8C8D98131AC0E889F989808185FF63
:100F500015C09FB7F894EE89FF896083E889F98905
:100F600080818370806480839FBF81E090E0DF9107
:100F7000CF911F910F91FF90EF900895F62E0B8D5A
:100F800010E00F5F1F4F0F731127E02E8C8D8E1115
:100F90000CC00FB607FCFACFE889F989808185FF7C
:100FA000F5CFCE010E947507F1CFEB8DEC0FFD2F31
:100FB000F11DE35AFF4FF0829FB7F8940B8FEA8937
:100FC000FB8980818062CFCFCF93DF93EC01888D46
:100FD0008823B9F0AA89BB89E889F9898C9185FDB4
:100FE00003C0808186FD0DC00FB607FCF7CF8C9142
:100FF00085FFF2CF808185FFEDCFCE010E9475077E
:10100000E9CFDF91CF91089580E090E0892B29F01E
:101010000E946B0781110E94000080E090E0892B04
:1010200049F080E090E0892B29F00E9400008111B6
:101030000E94000080E090E0892B49F080E090E081
:10104000892B29F00E94000081110E94000080E09D
:1010500090E0892B49F080E090E0892B29F00E94F4
:10106000000081110C9400000895FC01148A158A77
:10107000168A178A108A118A128A138A08958F9203
:101080009F92AF92BF92CF92DF92EF92FF92CF9357
:10109000DF93EC01CB01BA0188889988AA88BB88C4
:1010A000A50194010E94F5236B017C018C8D88239E
:1010B00001F12AED3FE049E450E4C701B6010E9486
:1010C000A3251816BCF52BED3FE049EC50E4C70111
:1010D000B6010E94F5236B017C012BED3FE049EC4A
:1010E00050E4C501B4010E94F6236C8B7D8B8E8B7E
:1010F0009F8B288D398D4A8D5B8DC701B6010E946B
:10110000D424AB01BC014E835F8368877987CE010D
:101110000A960E94E1066E817F8188859985DF911C
:10112000CF91FF90EF90DF90CF90BF90AF909F90C6
:101130008F9008952BED3FE049EC50ECC701B601CC
:101140000E94912287FFD5CF2BED3FE049EC50E480
:10115000C701B6010E94F6236B017C012BED3FE035
:1011600049EC50E4C501B4010E94F523BECFFC0157
:10117000148A158A168A178A108A118A128A138A83
:101180000895FC011286138614861586168217822E
:10119000108611860895AF92BF92CF92DF92EF92A0
:1011A000FF920F931F93CF93DF93EC015A016B01D2
:1011B000EA84FB840C851D859A01AB01B701C80147
:1011C0000E94A325181674F0EE84FF8408891989FB
:1011D0009501A601B701C8010E94912287FD02C0B6
:1011E00075018601C701D8018E839F83A887B987BF
:1011F000B701C801DF91CF911F910F91FF90EF9040
:10120000DF90CF90BF90AF9008954F925F926F9212
:101210007F928F929F92AF92BF92CF92DF92EF9286
:10122000FF920F931F93CF93DF93EC016A017B0131
:101230002A853B854C855D85CB01B6010E94F7224E
:101240004B015C014E845F84688879882C893D89D4
:101250004E895F89C701B6010E94F7222C8D3D8D12
:101260004E8D5F8D0E94F6239B01AC012C8F3D8F2C
:101270004E8F5F8F288F398F4A8F5B8FC301B201EA
:101280000E94F722A50194010E94F6234B015C0104
:101290008E829F82A886B9868E01005E1F4FBC0198
:1012A000A401C8010E94CB089B01AC01C501B40197
:1012B0000E949122882339F0B701A6017058CE010F
:1012C00042960E94E1064E815F8168857985C8015A
:1012D0000E94CB086E837F8388879987DF91CF91A7
:1012E0001F910F91FF90EF90DF90CF90BF90AF9044
:1012F0009F908F907F906F905F904F900895CF93C5
:10130000DF93EC01CB01BA012E813F8148855985DD
:101310000E94F5232AA53BA54CA55DA50E94F722B6
:10132000AB01BC01CE0148960E94CB082C853D85BF
:101330004E855F850E94F7222C893D894E895F8901
:101340000E94F6236C8B7D8B8E8B9F8B688B798BA9
:101350008A8B9B8B6E837F8388879987DF91CF9160
:1013600008950895DC01ED91FC910280F381E02D58
:101370001994CF93DF93EC018B810E942D038A8D0A
:101380009B8D8230910538F0880F991F880F991F27
:1013900005970197F1F7DF91CF910895089561E0E6
:1013A0000C94B9098EBD00000DB407FEFDCF8EB5BB
:1013B00008958CBD9DBD0895CF93DF93D82FC62F80
:1013C0008091ED08811128C08091E4089091E50892
:1013D0002091EA0831E03093780320939A03109229
:1013E000790310929B03DC01ED91FC910190F08157
:1013F000E02D6D2F19958091E4089091E508DC01AE
:10140000ED91FC910190F081E02D6C2F199581E018
:10141000DF91CF910C94E4048091E8089091E90861
:101420000E94D90960E08091EB080E942D038D2F66
:101430000E94D2098C2F0E94D20961E08091EB08B2
:10144000DF91CF910C942D03CF93CFB7F894809177
:10145000CC02811127C0EBEDF2E08491E1E2F3E0F0
:101460009491E82FF0E0EE0FFF1FE85AFD4FA59191
:10147000B491EC91E92321F461E085E30E942D030E
:1014800061E085E30E949A038CB580618CBD8CB5C8
:1014900080648CBD61E084E30E949A0361E083E391
:1014A0000E949A038091CC028F5F8093CC02CFBFC1
:1014B000CF9108950F931F93CF93DF93EC018C810D
:1014C000882341F10E94D506AB01BC018D819E812C
:1014D000AF81B88509851A852B853C85800F911FC2
:1014E000A21FB31F481759076A077B0740F41C82E5
:1014F00084E090E0DF91CF911F910F91089561E01A
:101500008A810E942D030E94D5066D837E838F837E
:1015100098871C820E94D506AB01BC018D819E81FB
:10152000AF81B8850D851E852F853889800F911F65
:10153000A21FB31F84179507A607B70720F460E022
:101540008A810E942D0390E080E0D4CFCF93DF9377
:10155000EC018A810E94A204BC01990F880B990BAF
:101560000E9498229B01AC016C857D858E859F85AC
:101570000E94F722688779878A879B8790E080E0BE
:10158000DF91CF9108954F925F926F927F928F92E9
:101590009F92AF92BF92CF92DF92EF92FF920F9302
:1015A0001F93CF93DF93EC014A018B015C018AE624
:1015B000A80EB11C4C885D886E887F88730162011B
:1015C000F7FAF094F7F8F0949A01AB01C701B6016D
:1015D0000E94A325181664F09401A801C301B2016A
:1015E0000E9491227301620187FD02C064017801AB
:1015F000B701A601C5010E947F096CAB7DAB8EAB24
:101600009FABDF91CF911F910F91FF90EF90DF90F3
:10161000CF90BF90AF909F908F907F906F905F9092
:101620004F900895CF93DF93EC018A850E940403C5
:101630002C853D85892B39F02F5F3F4F3D872C87C7
:10164000DF91CF91089521503109F8CF81E296E0E2
:101650000C94120B8CE097E00C94120B87EF97E040
:101660000C94120B0F931F93CF93DF93EC012296F0
:101670008C01005E1F4FC017D10739F0FE01688949
:10168000229680810E942D03F6CF90E080E0DF91CA
:10169000CF911F910F910895CF93DF93EC018A8131
:1016A0000E940403AC0191E04115510509F490E05A
:1016B0009E832F81222321F081E04115510509F0FD
:1016C00080E08C83211103C021E0452B09F420E048
:1016D0002D839F8390E080E0DF91CF910895CF9399
:1016E000DF93EC018A810E94A2049D838C8390E0A9
:1016F00080E0DF91CF910895EF92FF920F931F93B7
:10170000CF93DF93EC01162F7A018985811143C0B5
:10171000888199812E8131E03093780320939A0358
:101720001092790310929B03DC01ED91FC910190E2
:10173000F081E02D199580E00E94E40466E08E813E
:101740000E94D40510922B0380932A0388819981EB
:10175000DC01ED91FC910084F185E02D1995892B38
:1017600099F08701B6E0EB0EF11C88819981DC01CC
:10177000ED91FC910284F385E02D1995F801819398
:101780008F01EE15FF0589F7DF91CF911F910F9122
:10179000FF90EF9008958C819D810E94D90960E0AF
:1017A0008F810E942D03812F80680E94D2098701BA
:1017B000F6E0EF0EF11C80E00E94D209D8018D9373
:1017C0008D01AE15BF05B9F761E08F81DF91CF9133
:1017D0001F910F91FF90EF900C942D038F929F9289
:1017E000AF92BF92CF92DF92EF92FF920F931F932F
:1017F000CF93DF9300D000D0CDB7DEB78C01CB0103
:10180000AE014F5F5F4F63E40E947C0B69817A8178
:10181000762767277627072E000C880B990B0E94E6
:1018200098224B015C016B817C81762767277627A4
:10183000072E000C880B990B0E9498226B017C01EB
:101840006D817E81762767277627072E000C880B0F
:10185000990B0E949822F80180829182A282B38221
:10186000C482D582E682F7826087718782879387F8
:10187000C80126960FB6F894DEBF0FBECDBFDF912C
:10188000CF911F910F91FF90EF90DF90CF90BF907D
:10189000AF909F908F9008954F925F926F927F923A
:1018A0008F929F92AF92BF92CF92DF92EF92FF9270
:1018B0000F931F93CF93DF93CDB7DEB760970FB62B
:1018C000F894DEBF0FBECDBF8C01BC016E5F7F4FB1
:1018D000CE0101960E94EE0BF801F5A06F2D70E08D
:1018E00090E080E00E9498224B015C016F2D70E037
:1018F00090E080E00E94962220E030E04AE753E446
:101900000E94F72220E030E040E058E30E94F722F6
:101910006B017C01A5019401F801608D718D828DB0
:10192000938D0E94D4249B01AC0169817A818B81C3
:101930009C810E94F523A70196010E94F7222B01AA
:101940003C01A5019401F801648D758D868D978DFC
:101950000E94D4249B01AC016D817E818F8198858A
:101960000E94F523A70196010E94F7226D877E87CA
:101970008F87988BA5019401F80160A171A182A1C4
:1019800093A10E94D4249B01AC0169857A858B8543
:101990009C850E94F523A70196010E94F7226B0106
:1019A0007C012BED3FE049E450E4C301B2010E9409
:1019B000F72220E030E044E353E40E94D424F8010D
:1019C00064AB75AB86AB97AB2BED3FE049E450E4DD
:1019D0006D857E858F8598890E94F72220E030E012
:1019E00044E353E40E94D424F80160AF71AF82AFA6
:1019F00093AF2BED3FE049E450E4C701B6010E94EC
:101A0000F72220E030E044E353E40E94D424F801BC
:101A100064AF75AF86AF97AF90E080E060960FB689
:101A2000F894DEBF0FBECDBFDF91CF911F910F9114
:101A3000FF90EF90DF90CF90BF90AF909F908F90EE
:101A40007F906F905F904F900895CF93C82F8091B3
:101A5000ED08811140C08091E4089091E508209143
:101A6000EA0831E03093780320939A0310927903C7
:101A700010929B03DC01ED91FC910190F081E02D2F
:101A80006C2F199580E00E94E40461E08091EA08DF
:101A90000E94D40510922B0380932A038091E408BE
:101AA0009091E508DC01ED91FC910084F185E02D39
:101AB0001995C0E0892B61F08091E4089091E508C8
:101AC000DC01ED91FC910284F385E02D1995C82F7E
:101AD0008C2FCF9108958091E8089091E9080E9499
:101AE000D90960E08091EB080E942D038C2F80685B
:101AF0000E94D20980E00E94D209C82F61E0809143
:101B0000EB080E942D03E4CFFC0101900020E9F7CF
:101B10003197AF01481B590BBC018CE993E00C9441
:101B2000FE064F925F926F927F928F929F92AF923A
:101B3000BF92CF92DF92EF92FF920F931F93CF93BA
:101B4000DF93EC016C857D85072E000C880B990BCB
:101B50000E9498226B017C011D861C866E857F8504
:101B6000072E000C880B990B0E9498229B01AC0158
:101B7000C701B6010E94D4242BED3FE049E450E4B4
:101B80000E94F7229B01AC010E94F62328A539A5EB
:101B90004AA55BA50E94F623AB01BC0148A759A743
:101BA0006AA77BA7CE0182539F4F0E943F084B013B
:101BB0005C0188AA99AAAAAABBAACCA8DDA8EEA80B
:101BC000FFA8288D398D4A8D5B8DC701B6010E9413
:101BD000F7222B013C01A5019401C701B6010E9427
:101BE000F523AB01BC01CE01C8960E9405099B01FB
:101BF000AC01C301B2010E94F6236B017C0189E9AB
:101C000092E00E94840D8CEA92E00E94840D20E014
:101C100030E0A901C701B6010E94A325181694F46B
:101C200020E030E040EC5FE3C701B6010E94A3254D
:101C300087FF12C06FEF70E08A810E94CB036FEFC5
:101C400070E087C020E030E040EC5FEBC701B601F8
:101C50000E949122181674F38E0104561F4FB7018B
:101C6000A601C8010E947F0920E030E04FE753E45D
:101C70000E94F722288939894A895B890E94D424E5
:101C800020E030E04FE753EC0E94912287FD7FC0B7
:101C9000B701A601C8010E947F0920E030E04FE7AC
:101CA00053E40E94F722288939894A895B890E9476
:101CB000D42420E030E04FE753E40E94A325181617
:101CC0005CF1B701A601C8010E947F0920E030E065
:101CD0004FE753E40E94F722288939894A895B89B2
:101CE0000E94D4246B017C0120E030E0A9010E9415
:101CF000A3251816BCF020E030E04FE753E4C701FD
:101D0000B6010E94F6230E9446257F836E838FEFE3
:101D100090E09987888716C0C12CD12C9FE7E92EC7
:101D200093E4F92E8FEF90E09F838E83A7019601B5
:101D300060E070E08FE793E40E94F5230E9446255F
:101D4000798768876E817F818A810E94CB0368854D
:101D500079858C810E94CB0388A599A5AAA5BBA5EE
:101D60008CA79DA7AEA7BFA790E080E0DF91CF91A1
:101D70001F910F91FF90EF90DF90CF90BF90AF90A9
:101D80009F908F907F906F905F904F900895C12C9F
:101D9000D12C8FE7E82E83ECF82EADCF85ED809324
:101DA000BC008091740390917503A0917603B0916B
:101DB00077030796A11DB11D23E0B695A7959795CA
:101DC00087952A95D1F72091BC0024FD03C010927D
:101DD00072030895409174035091750360917603E6
:101DE00070917703452B462B472B69F30097A1058C
:101DF000B10541F02AE22A95F1F700C00197A10947
:101E0000B109E1CF809173030C945B030F931F938F
:101E1000CF93DF93EC010C811D812E813F8140E047
:101E200052E16AE770E090E00417150726073707CC
:101E300040F476956795579547959F5F9630A1F743
:101E400097E0892F806A9095869591700E94D909B4
:101E500060E0CE01DF91CF911F910F910C94B909F1
:101E60000F931F93CF93DF93EC01062F142F0E9443
:101E7000060F802F80620E94D2098887812F0E94DE
:101E8000D209CE01DF91CF911F910F910C94CF0910
:101E90004091E50441FD0CC042604093E50460E0E0
:101EA00086ED94E00E94300F8BE19EE40197F1F7FC
:101EB0000895FF920F931F93CF93DF93C82FF62EB1
:101EC000072F142F86ED94E00E94060F8C2F80625E
:101ED0000E94D2098093DE04CF2DD02F115020F024
:101EE00089910E94D209FACF86ED94E0DF91CF91DB
:101EF0001F910F91FF900C94CF0986ED94E00E9402
:101F0000060F80E50E94D2098093DE0483E70E94D9
:101F1000D20986ED94E00C94CF091F93CF93DF9301
:101F2000EC01162F0E94060F812F80620E94D209B9
:101F30008887CE01DF91CF911F910C94CF091F9319
:101F4000CF93DF93EC01162F0E94060F812F0E9482
:101F5000D20988878FEF0E94D209182FCE010E94E4
:101F6000CF09812FDF91CF911F910895CF93DF93F8
:101F7000EC0166E086ED94E00E949F0F877D21973B
:101F800001F145E550E060E070E04093EC045093CF
:101F9000ED046093EE047093EF04C0E0C82B4C2F67
:101FA00066E086ED94E00E94300F66E086ED94E0F6
:101FB0000E949F0F91E0C81390E0892FDF91CF918D
:101FC000089541E450E060E070E04093EC045093E9
:101FD000ED046093EE047093EF04C8E0DFCF9F92AE
:101FE000AF92BF92CF92DF92EF92FF920F931F9327
:101FF000CF93DF9300D000D0CDB7DEB78C016C015A
:1020000082E0C80ED11C9924939467E1C6010E9416
:102010009F0F80FD4AC0F801868981111EC083850B
:10202000E82E873010F096E0E92EF82EFE18C60153
:102030000E94060F81E60E94D209F8018287CE0134
:1020400001965C01EA949FEFE91659F08FEF0E9428
:10205000D209F50181935F01F5CFF12C86E0E82EDE
:10206000E6CFFA94FFEFFF1621F08FEF0E94D2091E
:10207000F8CFC6010E94CF0940E467E0C6010E9484
:10208000300F2981F80186A197A1409628171906DB
:1020900009F0BBCF20A38A8181A38B8182A38C818D
:1020A00083A38E8184A395A2B0CF90E080E0269692
:1020B0000FB6F894DEBF0FBECDBFDF91CF911F9159
:1020C0000F91FF90EF90DF90CF90BF90AF909F90D7
:1020D00008954F925F926F927F928F929F92AF92EC
:1020E000BF92CF92DF92EF92FF920F931F93CF9305
:1020F000DF93CDB7DEB72E970FB6F894DEBF0FBED5
:10210000CDBF9E878D874A015B012801390120E000
:1021100030E84BEB54ECCB01B4010E94912287FDD7
:10212000AAC020E030E84BEB54E4C501B4010E94A2
:10213000A32518160CF4A7C020E030E84BEB54ECB4
:10214000C301B2010E94912287FDA5C020E030E8C2
:102150004BEB54E4C301B2010E94A32518160CF402
:10216000A2C0A5019401C501B4010E94F7226983B0
:102170007A838B839C83A3019201C301B2010E94E5
:10218000F7229B01AC0169817A818B819C810E943D
:10219000F6230E94BE2569837A838B839C8320E08B
:1021A00030E044EB52E4C701B6010E94F7226B0114
:1021B0007C01A30192015058C501B4010E9475240D
:1021C0004B015C012DE633EB44E85FE30E94F5230D
:1021D0000E94B0256D837E838F8398872BED3FE02F
:1021E00049E450E4C501B4010E94F5230E94B025E2
:1021F00069877A878B879C872DE633EB44E85FE31A
:10220000C501B4010E94F6230E94B0252D853E85AC
:102210002230310509F44FC02330310509F454C090
:1022200029813A814B815C816D817E818F81988586
:102230000E94F722A70196010E94F62320E030E0D9
:1022400048EC51E40E94D4242E960FB6F894DEBFD9
:102250000FBECDBFDF91CF911F910F91FF90EF90F7
:10226000DF90CF90BF90AF909F908F907F906F90B6
:102270005F904F900895812C30E8932E3BEBA32E76
:1022800034ECB32E59CF812C20E8922E2BEBA22ECA
:1022900024E4B22E51CF412C90E8592E9BEB692EAD
:1022A00094EC792E5ECF412C80E8582E8BEB682E73
:1022B00084E4782E56CF29813A814B815C816985EF
:1022C0007A858B859C85B4CF29813A814B815C814D
:1022D000AFCF1F920F920FB60F9211240BB60F9231
:1022E0002F933F934F935F936F937F938F939F931E
:1022F000AF93BF93EF93FF938091B900887F8036AF
:1023000009F44DC008F040C0883209F4A7C028F590
:10231000803109F49BC0C8F4882309F4F7C08830E1
:1023200009F494C0FF91EF91BF91AF919F918F916C
:102330007F916F915F914F913F912F910F900BBEC5
:102340000F900FBE0F901F901895883109F486C02A
:10235000803241F78093700314C0803409F49BC02D
:1023600040F48033B9F38833E9F68093700385EC49
:10237000AEC0803509F483C0883509F494C0883430
:1023800089F60E94CE0ECECF883909F48AC038F57E
:10239000883729F050F4883611F0803719F683E039
:1023A000809372031092290355C0883809F479C0CC
:1023B000803919F0803809F0B5CF80912903803237
:1023C00008F06FC0E091290381E08E0F809329030C
:1023D0008091BB00F0E0E75FFC4F80833BC0803B17
:1023E00039F0D0F4803A09F477C0883A09F09ACFEE
:1023F00084E0809372031092080310920703F0E0C8
:10240000E0E019958091070381110FC081E080936E
:1024100007031092E70209C0803C09F4A8CF883C6A
:1024200009F4A5CF883B09F07DCFE091080381E056
:102430008E0F80930803F0E0E951FD4F8081809377
:10244000BB00909108038091070329C080914D0340
:102450008093BB0085EC8093BC0064CF90916F03A8
:1024600080916E03981758F5E0916F0381E08E0F0D
:1024700080936F03F0E0E25BFC4F8081E9CFE09155
:102480006F0381E08E0F80936F038091BB00F0E0BB
:10249000E25BFC4F808390916F0380916E039817ED
:1024A000C8F285E8D8CFE0916F0381E08E0F80936A
:1024B0006F038091BB00F0E0E25BFC4F8083809172
:1024C000710381115ECF81E080934C0384EA809395
:1024D000BC001092720326CF85EC8093BC00109252
:1024E000720380912903803230F4E0912903F0E0F7
:1024F000E75FFC4F10826091290370E089E093E070
:10250000F0E0E0E01995109229030CCF10927003CF
:1025100038CF1F920F920FB60F9211242F933F9333
:102520008F939F93AF93BF938091DE029091DF02D0
:10253000A091E002B091E1023091DD0223E0230F8F
:102540002D3758F50196A11DB11D2093DD02809312
:10255000DE029093DF02A093E002B093E10280914B
:10256000E2029091E302A091E402B091E5020196AB
:10257000A11DB11D8093E2029093E302A093E402B7
:10258000B093E502BF91AF919F918F913F912F91B1
:102590000F900FBE0F901F90189526E8230F0296FC
:1025A000A11DB11DD2CF1F920F920FB60F92112411
:1025B0000BB60F922F933F934F935F936F937F933D
:1025C0008F939F93AF93BF93EF93FF93E0910E028E
:1025D000F0910F021995FF91EF91BF91AF919F91EB
:1025E0008F917F916F915F914F913F912F910F90BC
:1025F0000BBE0F900FBE0F901F9018951F920F9259
:102600000FB60F9211240BB60F922F933F934F9357
:102610005F936F937F938F939F93AF93BF93EF934A
:10262000FF93E0910C02F0910D021995FF91EF914B
:10263000BF91AF919F918F917F916F915F914F91DA
:102640003F912F910F900BBE0F900FBE0F901F90D8
:1026500018951F920F920FB60F9211240BB60F927E
:102660002F933F934F935F936F937F938F939F939A
:10267000AF93BF93EF93FF93E0910202F0910302B7
:102680001995FF91EF91BF91AF919F918F917F919C
:102690006F915F914F913F912F910F900BBE0F90D3
:1026A0000FBE0F901F9018951F920F920FB60F92AA
:1026B00011240BB60F922F933F934F935F936F9319
:1026C0007F938F939F93AF93BF93EF93FF93E0918B
:1026D0000002F09101021995FF91EF91BF91AF9126
:1026E0009F918F917F916F915F914F913F912F912A
:1026F0000F900BBE0F900FBE0F901F9018951F925A
:102700000F920FB60F9211240BB60F922F933F9397
:102710004F935F936F937F938F939F93AF93BF93E9
:10272000EF93FF93E0910A02F0910B021995FF914C
:10273000EF91BF91AF919F918F917F916F915F9139
:102740004F913F912F910F900BBE0F900FBE0F90A6
:102750001F9018951F920F920FB60F9211240BB66F
:102760000F922F933F934F935F936F937F938F932A
:102770009F93AF93BF93EF93FF93E0910802F09183
:1027800009021995FF91EF91BF91AF919F918F91A0
:102790007F916F915F914F913F912F910F900BBE61
:1027A0000F900FBE0F901F9018951F920F920FB6AB
:1027B0000F9211240BB60F922F933F934F935F9379
:1027C0006F937F938F939F93AF93BF93EF93FF93F9
:1027D000E0910602F09107021995FF91EF91BF91E8
:1027E000AF919F918F917F916F915F914F913F91A9
:1027F0002F910F900BBE0F900FBE0F901F9018954A
:102800001F920F920FB60F9211240BB60F922F93B7
:102810003F934F935F936F937F938F939F93AF9368
:10282000BF93EF93FF93E0910402F0910502199595
:10283000FF91EF91BF91AF919F918F917F916F9198
:102840005F914F913F912F910F900BBE0F900FBE54
:102850000F901F9018951F920F920FB60F92112490
:102860000BB60F922F933F934F935F936F937F938A
:102870008F939F93AF93BF93EF93FF938CE993E074
:102880000E947507FF91EF91BF91AF919F918F913A
:102890007F916F915F914F913F912F910F900BBE60
:1028A0000F900FBE0F901F9018951F920F920FB6AA
:1028B0000F9211240BB60F922F938F939F93EF9348
:1028C000FF93E091AC03F091AD038081E091B203FE
:1028D000F091B30382FD1DC090818091B5038F5F9D
:1028E0008F732091B603821741F0E091B503F0E0B9
:1028F000E456FC4F958F8093B503FF91EF919F9124
:102900008F912F910F900BBE0F900FBE0F901F90C5
:1029100018958081F2CF2F923F924F925F926F92E3
:102920007F928F929F92AF92BF92CF92DF92EF925F
:10293000FF920F931F93CF93DF93CDB7DEB76C97C2
:102940000FB6F894DEBF0FBECDBF4C0169877A8FFA
:102950004A875B8F2B873C8FE982FA820B831C832B
:10296000AC86BD86CE86DF862AA93BA94CA95DA987
:10297000288B398B4A8B5B8B4EA95FA95D8B4C8B67
:10298000C8ACD9ACEAACFBAC8CAD9DADAEADBFADC7
:102990008D839E83AF83B88724962CAD3DAD4EAD1D
:1029A0005FAD24972E8B3F8B488F598F8BE292E03F
:1029B000D40111969C938E93F401C2AED3AEE4AED3
:1029C000F5AEFE96108211821282138287E192E0A8
:1029D000D9969C938E93D8973C96C282D382E482F8
:1029E000F582168217821086118689E6A82E82E06B
:1029F000B82EB182A08212861386148615863E9662
:102A00001282138214821582168217821086118612
:102A100005E512E01183008389819A81AB81BC8135
:102A2000B05882879387A487B58729813A814B81E3
:102A30005C8126873787408B518B76978D819E816D
:102A4000AF81B88580839183A283B38314019AE612
:102A5000290E311CD1011296CD92DD92ED92FC929D
:102A60001597F10116821782108611862FE532E044
:102A7000318320833A96C282D382E482F582168221
:102A8000178210861186B182A08212861386148660
:102A900015863E9612821382148215821682178240
:102AA000108611861183008380E09CE3ACE1B6ECD4
:102AB00082879387A487B587412C9CE3592E9CE19C
:102AC000692E96E4792E46865786608A718AD101EE
:102AD0009E964D925D926D927C92D197A701960140
:102AE00060E070E080E89FE30E94D424F10162A7D7
:102AF00073A784A795A7F296C282D382E482F58257
:102B000016821782108611862FE532E031832083EA
:102B1000D401AA55BF4F1296CD92DD92ED92FC9250
:102B2000159716961D921D921D921C92199711963B
:102B3000BC92AE921A961D921D921D921C921D97E8
:102B40001E9612961D921D921D921C921597169616
:102B50001D921D921D921C92199711961C930E9313
:102B600020E03CE34CE156EC1A962D933D934D93B7
:102B70005C931D971E964D925D926D927C9251973B
:102B800046A657A660AA71AA62A773A784A795A7AD
:102B9000840102531F4FD8011296CD92DD92ED921F
:102BA000FC921597F801168217821086118681E231
:102BB00092E0918380833A96C282D382E482F58246
:102BC0001682178210861186B182A0821286138621
:102BD00014861586A7019601C701B6010E94F62347
:102BE000D80158966D937D938D939C935B9781E06C
:102BF0005C968C932985F40122833A8D33834A8530
:102C000044835B8D55838B8582879C8D9387298137
:102C10003A814B815C81D401208B318B428B538B69
:102C20002C853D854E855F85248B358B468B578B58
:102C3000288939894A895B89208F318F428F538F48
:102C4000EC89FD891F96FC93EE931E975C96CD92BE
:102C5000DD92ED92FC925F972D813E814F815885E8
:102C600090962D933D934D935C9393972E893F8936
:102C7000488D598D94962D933D934D935C939797E2
:102C800061E089850E949A0361E08A850E949A0327
:102C900060E08B856C960FB6F894DEBF0FBECDBF9B
:102CA000DF91CF911F910F91FF90EF90DF90CF9028
:102CB000BF90AF909F908F907F906F905F904F905C
:102CC0003F902F900C949A032F923F924F925F92D5
:102CD0006F927F928F929F92AF92BF92CF92DF922C
:102CE000EF92FF920F931F93CF93DF9310923C04C8
:102CF00010923B0488EE93E0A0E0B0E080933D04A6
:102D000090933E04A0933F04B093400421E332E04B
:102D100030933A042093390410929F0310929E033B
:102D20008093A0039093A103A093A203B093A30365
:102D300083E492E090939D0380939C0385EC90E064
:102D40009093A9038093A80384EC90E09093AB0345
:102D50008093AA0380EC90E09093AD038093AC0342
:102D600081EC90E09093AF038093AE0382EC90E00F
:102D70009093B1038093B00386EC90E09093B303FB
:102D80008093B2031092B5031092B6031092B7036A
:102D90001092B803CBE8D2E0D0934409C093430922
:102DA0008FE090E0909346098093450960E00E948F
:102DB0009A03D0933C09C0933B0980E190E0909343
:102DC0003E0980933D0960E00E949A03D093340944
:102DD000C093330981E190E09093360980933509DF
:102DE00060E00E949A0387E992E090932309809320
:102DF00022098EE090E09093250980932409109297
:102E00002709109228091092290910922A0980EDA9
:102E100097E0A0E0B0E080932B0990932C09A09359
:102E20002D09B0932E0982E390E0A0E0B0E08093FA
:102E30002F0990933009A0933109B093320961E0D2
:102E40008EE00E949A0385E892E09093E3088093D5
:102E5000E20889E394E09093E5088093E40885E430
:102E600094E09093E7088093E60880E58093E80873
:102E70001092E90888E68093EA088CE090E090934D
:102E8000EC088093EB08882483948092ED081092DC
:102E9000EE081092EF081092F0081092F1081092CC
:102EA000F2081092F3081092F4081092F5081092AC
:102EB000F6081092F7081092F8081092F90810928C
:102EC000FA081092FB081092FC081092FD0810926C
:102ED000FE081092FF08109200091092010910924A
:102EE0000209109203091092040910920509109228
:102EF0000A0910920B0910920C0910920D091092F8
:102F00000E0910920F0910921009109211091092D7
:102F100012091092130910921409109215091092B7
:102F20001609109217091092180910921909109297
:102F30001A0910921B0910921C0910921D09109277
:102F40001E0910921F09109220091092210904E411
:102F5000202E2F928AE7382E3F921F921F929FE3D6
:102F6000992E9F92C3E3CF93CF93CF932BE3422E1F
:102F70004F9233EA532E5F9247ED642E6F92DAE060
:102F8000DF938F9250E4752E7F929F9287E58F9307
:102F9000DF939DE39F93A12CB12C60EFC62E61E4DB
:102FA000D62E8601750123E030E044E050E065E074
:102FB00070E087EF97E00E948B142F923F921F9250
:102FC0001F929F92CF93CF93CF934F925F926F9226
:102FD000DF938F927F929F92A7E5AF93DF93BDE33C
:102FE000BF9323E130E046E050E067E070E08CE022
:102FF00097E00E948B148DB79EB784960FB6F89415
:103000009EBF0FBE8DBF2F923F921F921F929F9225
:10301000CF93CF93CF934F925F926F92DF938F9224
:103020007F929F9297E59F93DF93ADE3AF9325E166
:1030300030E048E050E069E070E081E296E00E9414
:103040008B149F9280E88F931F921F929F928F9371
:103050001F921F9291E49F9390E39F931F921F9260
:103060001F928F929F928F931F921F92A12CB12C2F
:1030700070E8C72E7FE3D72E8601750121E030E08E
:1030800041E050E061E070E086E395E00E948B143F
:103090008FE792E09093150580931405E6E2F5E042
:1030A00080E1DF011D928A95E9F788E190E0909335
:1030B00017058093160589E190E090931905809398
:1030C00018058AE190E090931B0580931A058BE127
:1030D00090E090931D0580931C058CE190E0909307
:1030E0001F0580931E058DE190E09093210580934C
:1030F00020058EE190E090932305809322058FE1D7
:1031000090E09093250580932405C4E1D5E006E383
:1031100015E08DB79EB784960FB6F8949EBF0FBE8C
:103120008DBF22960C171D0729F061E088810E944F
:103130009A03F7CF81E992E0909305058093040507
:1031400086E390E0909307058093060586E696E671
:10315000A6E4B1E48093080590930905A0930A05BD
:10316000B0930B0580E090E0A8E4BCE380931005E9
:1031700090931105A0931205B093130560E086E3C8
:103180000E949A0389E792E09093FD048093FC04E7
:1031900087E390E09093FF048093FE0484E190E045
:1031A000909303058093020560E087E30E949A03F1
:1031B00083E792E09093D5048093D4048AE08093CF
:1031C000D8048BE08093D90480E896E9A8E9B0E0C0
:1031D0008093DA049093DB04A093DC04B093DD04C5
:1031E00080E28093DF041092E6041092E70485E009
:1031F0008093E90481E08093EA0485E090E0A0E018
:10320000B0E08093F0049093F104A093F204B093A3
:10321000F30485E494E09093D7048093D60410924D
:10322000E00481E090E09093FB048093FA048AE04C
:1032300097EDA3EABBE38093C8049093C904A093DD
:10324000CA04B093CB041092CC041092CD04109217
:10325000CE041092CF0429E632E03093C7042093C5
:10326000C6041092D0041092D1041092D20410928D
:10327000D3048093BA049093BB04A093BC04B0938E
:10328000BD041092BE041092BF041092C0041092AC
:10329000C1043093B9042093B8041092C204109270
:1032A000C3041092C4041092C5048093AC0490939C
:1032B000AD04A093AE04B093AF041092B00410928A
:1032C000B1041092B2041092B3043093AB04209373
:1032D000AA041092B4041092B5041092B60410928D
:1032E000B70480937A0490937B04A0937C04B093FA
:1032F0007D0410927E0410927F041092800410923C
:103300008104CFE5D2E0D0937904C0937804809310
:10331000840490938504A0938604B093870410924C
:1033200088041092890410928A0410928B043093BE
:1033300083042093820410928C0410928D041092C6
:103340008E0410928F0410929204109293041092A3
:10335000940410929504109296041092970410927F
:10336000980410929904E5E5F2E0F0939104E0935B
:103370009004812C40E5942E43ECA42E48ECB42E0E
:1033800080929A0490929B04A0929C04B0929D0417
:1033900040E050E563EC78E440939E0450939F0432
:1033A0006093A0047093A1044093A6045093A704D3
:1033B0006093A8047093A904412C512C18E4612E49
:1033C00013E4712E4092A2045092A3046092A404CC
:1033D0007092A5048093480490934904A0934A04F2
:1033E000B0934B0410924C0410924D0410924E0472
:1033F00010924F04D0934704C09346048093520424
:1034000090935304A0935404B0935504109256041F
:10341000109257041092580410925904309351049A
:103420002093500410925A0410925B0410925C0492
:1034300010925D0410926004109261041092620474
:103440001092630410926404109265041092660452
:1034500010926704F0935F04E0935E048092680426
:1034600090926904A0926A04B0926B0440936C0439
:1034700050936D0460936E0470936F0440937404D2
:1034800050937504609376047093770440927004AF
:10349000509271046092720470927304DF91CF9124
:1034A0001F910F91FF90EF90DF90CF90BF90AF9062
:1034B0009F908F907F906F905F904F903F902F9054
:1034C0000895CF93DF93CDB7DEB7E9970FB6F894A1
:1034D000DEBF0FBECDBF789484B5826084BD84B555
:1034E000816084BD85B5826085BD85B5816085BDFF
:1034F00080916E00816080936E00109281008091B7
:10350000810082608093810080918100816080933E
:103510008100809180008160809380008091B10063
:1035200084608093B1008091B00081608093B0008E
:1035300080919100826080939100809191008160E0
:1035400080939100809190008160809390008091A1
:10355000A10082608093A1008091A100816080938E
:10356000A1008091A00081608093A0008091210142
:1035700082608093210180912101816080932101EB
:103580008091200181608093200180917A00846085
:1035900080937A0080917A00826080937A00809193
:1035A0007A00816080937A0080917A0080688093AD
:1035B0007A001092C1008091ED08882391F061E0BB
:1035C0008091EB080E949A0361E08091EB080E94D1
:1035D0002D030E94240A80E58093E80881E080930F
:1035E000E90860E88BE60E94DC096AE070E080E0B0
:1035F00090E00E94A3066AE070E080E090E00E9404
:10360000A30662E087E30E94DC096AE070E080E0E4
:1036100090E00E94A30685E70E94250D813709F0FE
:1036200043C01092EE081092EF081092F00810922A
:10363000F1081092F2081092F3081092F408109218
:10364000F5081092F6081092F7081092F8081092F8
:10365000F90881E0809306091092FA081092FB089D
:103660001092FC081092FD081092FE081092FF08BC
:103670001092000910920109109202091092030998
:1036800010920409109205098093070988E090E0E0
:1036900090930909809308098BE60E94250D682FF5
:1036A0006F7B8BE60E94DC0968EE73E080E090E0BF
:1036B0000E94A3068BE10E94250D682F6C7F8BE191
:1036C0000E94DC098AE10E94250D887F682F6660D0
:1036D0008AE10E94DC098BE10E94250D682F677E3C
:1036E0008BE10E94DC0911E0109307098CE10E9434
:1036F000250D682F677E8CE10E94DC091093060976
:103700008DE10E94250D682F677F8DE10E94DC0905
:103710008DE10E94250D887F682F66608DE10E94F3
:10372000DC0964E670E080E090E00E94A30602E31A
:1037300010E01AA61BA61CA61DA61EA21FA218A654
:1037400019A61AA21BA21CA21DA2812C912C540105
:103750002401350175016401AE014F5F5F4F6BE3DA
:1037600084EE98E00E947C0B69817A817627672736
:103770007627072E000C880B990B0E9498226EA7C3
:103780007FA788AB99AB6B817C81762767277627EB
:10379000072E000C880B990B0E9498226AAB7BAB1A
:1037A0008CAB9DAB6D817E81762767277627072EB0
:1037B000000C880B990B0E9498226EAB7FAB88AFF0
:1037C00099AF2EA53FA548A959A9C701B6010E94E6
:1037D000F6236B017C012AA93BA94CA95DA9C30171
:1037E000B2010E94F6232B013C012EA93FA948AD4E
:1037F00059ADC501B4010E94F6234B015C0164EE92
:1038000078E0CE0101960E94EE0B29813A814B812E
:103810005C816AA17BA18CA19DA10E94F6236AA371
:103820007BA38CA39DA32D813E814F8158856EA1E2
:103830007FA188A599A50E94F6236EA37FA388A7E0
:1038400099A729853A854B855C856AA57BA58CA5BA
:103850009DA50E94F6236AA77BA78CA79DA761E080
:1038600070E080E090E00E94A3060150110909F089
:1038700073CF20E030E048E452E4C701B6010E9473
:10388000D4246093EE087093EF088093F00890932F
:10389000F10820E030E048E452E4C301B2010E94A4
:1038A000D4246093F2087093F3088093F408909303
:1038B000F50820E030E048E452E4C501B4010E947C
:1038C000D42420E030E040E856E40E94F5236093E1
:1038D000F6087093F7088093F8089093F90820E0B1
:1038E00030E048E452E46AA17BA18CA19DA10E9432
:1038F000D4246093FA087093FB088093FC0890939B
:10390000FD0820E030E048E452E46EA17FA188A5E4
:1039100099A50E94D4246093FE087093FF088093B9
:1039200000099093010920E030E048E452E46AA5E0
:103930007BA58CA59DA50E94D42460930209709359
:103940000309809304099093050968EC70E080E016
:1039500090E00E94A3060E94240A8091D8048F3F21
:1039600009F4BDC19091D9049F3F09F4B8C18917EA
:1039700041F061E00E949A0361E08091D9040E94C5
:103980009A038091D8049091D904891719F060E0C6
:103990000E942D0361E086ED94E00E94B90965E084
:1039A00070E080E090E00E94A3064FE564E086EDC1
:1039B00094E00E94300F90E080E00E94B60F6DE12D
:1039C00086ED94E00E949F0F182F0E947D0F6DE1FD
:1039D00086ED94E00E949F0F91E0181390E0909381
:1039E000E604882351F0181302C00E947D0F40E0C6
:1039F0006DE186ED94E00E94300F1092E80440E003
:103A00006CE186ED94E00E94300F1092EA044FE3DF
:103A100061E086ED94E00E94300F43E062E086EDC5
:103A200094E00E94300F80E28093DF0411E1409126
:103A3000DF04612F86ED94E00E94300F1F5F173185
:103A4000B1F743E063E086ED94E00E94300F85E03B
:103A50008093E9044CE465E086ED94E00E94300F29
:103A600040E767E086ED94E00E94300F62EE86ED5D
:103A700094E00E948D0F61EE86ED94E00E948D0F20
:103A80004CE060E086ED94E00E94300F60E086ED4F
:103A900094E00E949F0F8093E5040E94480F80915C
:103AA000E5048E3009F01BC181E090E00E94B60F62
:103AB000882309F495C066E086ED94E00E949F0F8C
:103AC000482F476066E086ED94E00E94300F6DE17C
:103AD00086ED94E00E949F0F482F44606DE186EDD3
:103AE00094E00E94300F6CE186ED94E00E949F0FFD
:103AF000482F4F636CE186ED94E00E94300F81E027
:103B00008093EA044091E5044C604093E50460E052
:103B100086ED94E00E94300F61E086ED94E00E9413
:103B20009F0F482F4D7F61E086ED94E00E94300F9B
:103B300041E063E086ED94E00E94300F83E08093E3
:103B4000E9048091100290911102A09112028983E0
:103B50009A83AB83E3E5F2E0849143E0BE016F5FBB
:103B60007F4F0E94590F62E086ED94E00E949F0F04
:103B7000EDE4F2E0E49141E050E001C0440FEA9549
:103B8000EAF7482B62E086ED94E00E94300F0E9435
:103B9000480F4091E50441604093E50460E086ED04
:103BA00094E00E94300F40E767E086ED94E00E94C9
:103BB000300F8091D8049091D904891719F061E0F1
:103BC0000E942D038091E704882309F46FC040917F
:103BD000E90460EE74E08AE00E94590F0E94480FE9
:103BE00090E080E00E94B52390E09093D80280930B
:103BF000D7028EE29BE090930102809300028091B5
:103C00006A00836080936A00EC9A8AE29BE090935A
:103C10000B0280930A0280916900806C8093690096
:103C2000EB9A86E29BE090930702809306028091D4
:103C300069008C6080936900E99AE091AC03F0918F
:103C4000AD0382E08083E091A803F091A903108284
:103C5000E091AA03F091AB0380E180831092B4035A
:103C6000E091B003F091B10386E08083E091AE0370
:103C7000F091AF03808180618083E091AE03F09189
:103C8000AF03808188608083E091AE03F091AF0341
:103C9000808180688083E091AE03F091AF038081E2
:103CA0008F7D808381E08093CD022BC062E086ED22
:103CB00094E00E949F0FECE4F2E0E49121E030E018
:103CC00001C0220FEA95EAF72095422F482362E0CF
:103CD00086ED94E00E94300F1092E7047FCFE4E17C
:103CE000F5E090E080E021E030E0338B228B01961C
:103CF00032968F30910509F0F5C084E195E00E947D
:103D0000320B22242394312C0E94BF04AB01BC014E
:103D10008091D9029091DA02A091DB02B091DC028D
:103D200088579C4EAF4FBF4F481759076A077B070C
:103D300058F30E94BF046093D9027093DA02809313
:103D4000DB029093DC028091D7029091D80290938D
:103D5000FB048093FA0483E399E00E944C0B8BE30D
:103D600099E00E944C0B83E499E00E944C0B82EE98
:103D700098E00E944C0C84E095E00E94A60A8CEF2B
:103D800094E00E946F0B84ED94E00E94EF0F20916D
:103D9000BA043091BB044091BC045091BD046091C1
:103DA00016097091170980911809909119090E94BC
:103DB000F7222091C2043091C3044091C404509171
:103DC000C5040E94F6236093C2047093C3048093D9
:103DD000C4049093C5046093BE047093BF048093A1
:103DE000C0049093C1046093D3027093D402809373
:103DF000D5029093D6022091AC043091AD0440914D
:103E0000AE045091AF0460911A0970911B09809122
:103E10001C0990911D090E94F7222091B404309151
:103E2000B5044091B6045091B7040E94F623609304
:103E3000B4047093B5048093B6049093B704609370
:103E4000B0047093B1048093B2049093B304609370
:103E5000CF027093D0028093D1029093D2028091CE
:103E6000CE0219A2805D88A3CE0180960E94840DA7
:103E70008CEA92E00E94840D80914709882371F0BA
:103E80006091D7027091D8026F5F7F4F7093D80214
:103E90006093D70290E080E00E94BD2380913F09AB
:103EA000882371F06091D7027091D8026150710936
:103EB0007093D8026093D70290E080E00E94BD2307
:103EC00061E087E10E942D03E090D702F090D802D4
:103ED0008E2DE11040C0E4E1F5E08AEF9FEF338AD8
:103EE000228A13C0AC01435051094330510508F4F4
:103EF000FCCE8730910509F4F8CE138A128AF7CEEA
:103F00008230910560F7138A128A329601968930C1
:103F10009105B1F780900C0590900D05A0900E05CD
:103F2000B0900F052AE939E949E151E4C501B4012E
:103F30000E94912287FF53C18FEA92E00E94840D74
:103F40008CEA92E00E94840DE4E1F5E08DEF9FEFB2
:103F5000138A128AF4C0813091F4E4E1F5E08FEF26
:103F60009FEF138A128A05C082309105D0F7338AF9
:103F7000228A329601968E309105B1F7CBCF8230EE
:103F8000B9F4E4E1F5E090E080E09C012D7F25307C
:103F9000310519F08230910541F4138A128A019695
:103FA00032968F30910589F7B5CF338A228AF7CFC1
:103FB0008330C1F4E4E1F5E090E080E09C0124501E
:103FC00031092230310518F08730910541F4138A08
:103FD000128A019632968F30910581F79BCF338AF2
:103FE000228AF7CF8430C1F4E4E1F5E090E080E08C
:103FF000138A128A019632968F30910509F48ACF7E
:104000009C01235031092230310590F3873091050E
:1040100079F3338A228AEECF8530C1F4E4E1F5E00A
:1040200090E080E0338A228A0BC08730910531F01E
:104030008130910519F084309105A1F7138A128A15
:10404000019632968F30910581F764CF8630A9F4BE
:10405000E4E1F5E090E080E0338A228A08C087300E
:10406000910519F081309105B9F7138A128A0196EA
:1040700032968F30910599F74DCF873091F4E4E176
:10408000F5E090E080E08330910544F4338A228AA1
:10409000019632968F309105B1F73CCF138A128A80
:1040A000F7CF8830A1F4E4E1F5E090E080E0338AD6
:1040B000228A07C087309105D1F7109235051092FA
:1040C0003405019632968F309105A1F723CF8930C0
:1040D000A9F4E4E1F5E090E080E0338A228A08C0A8
:1040E0008730910519F084309105B9F7138A128A47
:1040F000019632968F30910599F70CCF8A3008F4EB
:1041000009CFE4E1F5E08CEF9FEF9C012D5F3F4F7D
:104110002230310518F08330910540F4338A228A29
:10412000329601968B30910581F7F4CE138A128A6C
:10413000F7CF8330910508F00BCF338A228A32966D
:1041400001968C309105A9F78091CE02882309F45D
:10415000E3C141E050E0509335054093340560E001
:1041600087E10E942D038091CD02811111C00E9430
:10417000D50628EE33E040E050E00E94CB23653FB7
:1041800071408105910520F461E087E10E942D03D3
:1041900082E299E00E945A0A87EF97E00E94910D0F
:1041A0008CE097E00E94910D81E296E00E94910DD3
:1041B00084E195E00E94320B61E02091000530918E
:1041C000010580910205909103052817390708F031
:1041D00060E086E10E942D030E94040895CD2AE943
:1041E00039E941E351E4C501B4010E94912287FFFE
:1041F00027C00E94D50628EE33E040E050E00E9440
:10420000CB23653F714081059105D0F480EC92E0AD
:104210000E94840D8CEA92E00E94840DE4E1F5E0B6
:104220008DEF9FEF138A128A05C083309105D0F776
:10423000338A228A329601968C309105B1F784CF69
:1042400080913709882319F081E0809326098091B5
:10425000F4048051990BE816F90609F070C08091BA
:10426000F804E4E1F5E030E020E086FD65C08295E9
:1042700081708093CE026091F504062E000C770BBE
:10428000880B990B0E94982220E030E040E251E434
:104290000E94F7222B013C016091F604062E000CCF
:1042A000770B880B990B0E94982220E030E040E2C7
:1042B00051E40E94F7224B015C016091F704062E45
:1042C000000C770B880B990B0E9498222AE037ED9F
:1042D00043EA5DE30E94F7226B017C011092F9042E
:1042E0002091000530910105809102059091030510
:1042F00028173907D0F58091CE028823B1F181E0EB
:1043000080932609E4E1F5E090E080E0138A128AC8
:1043100027C02630310581F441E050E05093330549
:10432000409332052F5F3F4F32962F30310589F78A
:1043300091E0909326099BCF138A128AF3CFC12C68
:10434000D12C76014601570126013701C9CF8630AD
:104350009105E1F621E030E03093330520933205FA
:10436000019632968F30910591F7B301A20188E74B
:1043700094E00E947F096AA37BA38CA39DA3B5014F
:10438000A40186E494E00E947F094B015C01209126
:104390001E0930911F094091200950912109C70140
:1043A000B6010E94F6232091C8043091C9044091BF
:1043B000CA045091CB040E94F7222091D00430917E
:1043C000D1044091D2045091D3040E94F62360930B
:1043D000D0047093D1048093D2049093D30460935B
:1043E000CC047093CD048093CE049093CF0420E04E
:1043F00030E040E051E40E94F722A70196010E94BC
:10440000F6232B013C01C090D302D090D402E0905F
:10441000D502F090D60220E030E0A901C701B60134
:104420000E94A32518160CF058C020E030E040E8A8
:104430005FE3C701B6010E94A32518160CF457C00C
:10444000C090CF02D090D002E090D102F090D20282
:1044500020E030E0A901C701B6010E94A32518168B
:104460000CF04FC020E030E040E85FE3C701B60148
:104470000E94A3251816DCF17301620195018401E5
:104480004AA15BA16CA17DA181E090E00E9469102E
:10449000AB01BC0187EF97E00E94C30A95014AA1D6
:1044A0005BA16CA17DA182E090E00E946910AB014C
:1044B000BC018CE097E00E94C30A95014AA15BA170
:1044C0006CA17DA183E090E00E946910AB01BC016A
:1044D00081E296E00E94C30A37CE20E030E040E857
:1044E0005FEBC701B6010E94912287FFA9CF412C43
:1044F000512C3201530142014AA25BA26CA27DA25F
:10450000BBCF20E030E040E85FEBC701B6010E947E
:10451000912287FFB1CFEBCF109235051092340571
:104520001ECE0E94D32208F481E00895E89409C0C9
:1045300097FB3EF490958095709561957F4F8F4FD6
:104540009F4F9923A9F0F92F96E9BB279395F695EC
:10455000879577956795B795F111F8CFFAF4BB0F6A
:1045600011F460FF1BC06F5F7F4F8F4F9F4F16C0CE
:10457000882311F096E911C0772321F09EE8872F58
:10458000762F05C0662371F096E8862F70E060E014
:104590002AF09A95660F771F881FDAF7880F96958D
:1045A000879597F90895990F0008550FAA0BE0E831
:1045B000FEEF16161706E807F907C0F012161306E5
:1045C000E407F50798F0621B730B840B950B39F425
:1045D0000A2661F0232B242B252B21F408950A268B
:1045E00009F4A140A6958FEF811D811D08950E94B9
:1045F0000A230C947B230E946D2338F00E947423BD
:1046000020F0952311F00C9464230C946A23112458
:104610000C94AF230E948C2370F3959FC1F3950FE8
:1046200050E0551F629FF001729FBB27F00DB11D36
:10463000639FAA27F00DB11DAA1F649F6627B00DC6
:10464000A11D661F829F2227B00DA11D621F739FAF
:10465000B00DA11D621F839FA00D611D221F749FBD
:104660003327A00D611D231F849F600D211D822F04
:10467000762F6A2F11249F5750409AF0F1F088232B
:104680004AF0EE0FFF1FBB1F661F771F881F915058
:104690005040A9F79E3F510580F00C9464230C9480
:1046A000AF235F3FE4F3983ED4F386957795679503
:1046B000B795F795E7959F5FC1F7FE2B880F911D82
:1046C0009695879597F9089597F99F6780E870E028
:1046D00060E008959FEF80EC089500240A94161678
:1046E000170618060906089500240A9412161306E0
:1046F000140605060895092E0394000C11F488236E
:1047000052F0BB0F40F4BF2B11F460FF04C06F5F89
:104710007F4F8F4F9F4F089557FD9058440F551F5F
:1047200059F05F3F71F04795880F97FB991F61F033
:104730009F3F79F087950895121613061406551FAA
:10474000F2CF4695F1DF08C0161617061806991F16
:10475000F1CF86957105610508940895E894BB270B
:1047600066277727CB0197F90895F999FECF92BD77
:1047700081BDF89A992780B50895262FF999FECF23
:104780001FBA92BD81BD20BD0FB6F894FA9AF99A6E
:104790000FBE01960895A1E21A2EAA1BBB1BFD01B4
:1047A0000DC0AA1FBB1FEE1FFF1FA217B307E40710
:1047B000F50720F0A21BB30BE40BF50B661F771F68
:1047C000881F991F1A9469F7609570958095909548
:1047D0009B01AC01BD01CF010895EE0FFF1F881FA3
:1047E0008BBF0790F691E02D19945058BB27AA274C
:1047F0000E940D240C947B230E946D2338F00E94AC
:10480000742320F039F49F3F19F426F40C946A23A2
:104810000EF4E095E7FB0C946423E92F0E948C23AF
:1048200058F3BA17620773078407950720F079F4E5
:10483000A6F50C94AE230EF4E0950B2EBA2FA02D06
:104840000B01B90190010C01CA01A0011124FF273D
:10485000591B99F0593F50F4503E68F11A16F04038
:10486000A22F232F342F4427585FF3CF4695379537
:104870002795A795F0405395C9F77EF41F16BA0BFC
:10488000620B730B840BBAF09150A1F0FF0FBB1FAA
:10489000661F771F881FC2F70EC0BA0F621F731FF3
:1048A000841F48F4879577956795B795F7959E3F50
:1048B00008F0B0CF9395880F08F09927EE0F9795E1
:1048C000879508950E946D2360F080E891E009F4D7
:1048D0009EEF0E94742328F040E851E071F45EEFEF
:1048E0000CC00C946A230C94AE23E92FE0780E944C
:1048F0008C2340F3092E052AB1F326173707480702
:10490000590738F00E2E07F8E02569F0E025E0643D
:104910000AC0EF6307F8009407FADB01B9019D01B3
:10492000DC01CA01AD01EF930E94EB240E947B23BE
:104930000E94A5245F91552339F02BED3FE049E417
:1049400050FD49EC0C94F6230895DF93DD27B92F31
:10495000BF7740E85FE31616170648075B0718F4B1
:10496000D92F0E94A8259F938F937F936F930E94C6
:10497000FE25E4EEF0E00E947C250E947B232F912F
:104980003F914F915F910E940A23DD2351F090588F
:10499000A2EA2AED3FE049EC5FE3D0785D270E9470
:1049A0000D24DF910C947B230E94E8240C947B233C
:1049B0000E94742358F00E946D2340F029F45F3F59
:1049C00029F00C94642351110C94AF230C946A23A6
:1049D0000E948C2368F39923B1F3552391F3951B1F
:1049E000550BBB27AA2762177307840738F09F5F10
:1049F0005F4F220F331F441FAA1FA9F335D00E2E7D
:104A00003AF0E0E832D091505040E695001CCAF7E9
:104A10002BD0FE2F29D0660F771F881FBB1F2617AC
:104A200037074807AB07B0E809F0BB0B802DBF0183
:104A3000FF2793585F4F3AF09E3F510578F00C9452
:104A400064230C94AF235F3FE4F3983ED4F3869540
:104A500077956795B795F7959F5FC9F7880F911D73
:104A60009695879597F90895E1E0660F771F881F5F
:104A7000BB1F621773078407BA0720F0621B730B12
:104A8000840BBA0BEE1F88F7E09508950E944D2520
:104A90006894B1110C94AF2308950E94942388F078
:104AA0009F5798F0B92F9927B751B0F0E1F0660FF2
:104AB000771F881F991F1AF0BA95C9F714C0B13033
:104AC00091F00E94AE23B1E008950C94AE23672FBD
:104AD000782F8827B85F39F0B93FCCF38695779562
:104AE0006795B395D9F73EF490958095709561954B
:104AF0007F4F8F4F9F4F0895DF93CF931F930F9357
:104B0000FF92EF92DF927B018C01689406C0DA2E4F
:104B1000EF010E940A23FE01E894A59125913591A9
:104B200045915591A6F3EF010E940D24FE019701D6
:104B3000A801DA9469F7DF90EF90FF900F911F9131
:104B4000CF91DF9108950E94D32208F48FEF08954A
:104B50009B01AC0160E070E080E89FE30C94D424FA
:104B60009F930E9419260F9007FCEE5F0C9442263B
:104B700019F416F40C946A230C9402260E949423D0
:104B8000B8F39923C9F3B6F39F57550B87FF0E94DB
:104B900010260024A0E640EA90018058569597958B
:104BA00028F4805C660F771F881F20F026173707D0
:104BB000480730F4621B730B840B202931294A2BE0
:104BC000A69517940794202531254A2758F7660F94
:104BD000771F881F20F026173707480730F4620B2D
:104BE000730B840B200D311D411DA09581F7B90178
:104BF000842F9158880F9695879508959B01AC0155
:104C00000C94F7229F3F31F0915020F487957795CF
:104C10006795B795880F911D9695879597F9089593
:104C200091505040660F771F881FD2F708950C945B
:104C30006A230E949423D8F3E894E0E0BB279F57AF
:104C4000F0F02AED3FE049EC06C0EE0FBB0F661F07
:104C5000771F881F28F0B23A62077307840728F08D
:104C6000B25A620B730B840BE3959A9572F78038F6
:104C700030F49A95BB0F661F771F881FD2F79048B4
:104C80000C940426EF93E0FF07C0A2EA2AED3FE070
:104C900049EC5FEB0E940D240E947B230F9003944C
:104CA00001FC9058E1E1F1E00C9456269F938F931C
:104CB0007F936F93FF93EF939B01AC010E94F722C8
:104CC000EF91FF910E947C252F913F914F915F9131
:084CD0000C94F722F894FFCFC9
:104CD800FD06FD06FD06FD06FD06FD06FD06FD06B4
:104CE800ABADAF0000000017020509B209000000D3
:104CF80000B7083F08B20900000000910D0000004D
:104D0800006E0241022B0717023A0227021802001E
:104D18000000009707FE062E07E4075F073D0751CE
:104D28000700000000B109CB08B2090000000035F7
:104D3800087F09B20900000000C108E106B20900B5
:104D4800000000EF0F000000006F0B0000000032B1
:104D58000B000000004C0C000000004C0B00000091
:104D680000A60A000000005A0A6170706C79696E2A
:104D78006720766F6C746167652020000D0A004219
:104D880041545445525920435249544943414C00D7
:0C4D980042415454455259204C4F5700E2
:00000001FF
