:100000000C94BD010C943A140C940F140C94E4134A
:100010000C94B9130C948E130C9463130C94381332
:100020000C940D130C94EE010C94EE010C94EE0163
:100030000C94EE010C94EE010C94EE010C94EE0184
:100040000C94EE010C94EE010C94EE010C94EE0174
:100050000C94EE010C94EE010C94EE010C94C3127E
:100060000C94EE010C948F140C9465140C94EE0116
:100070000C94EE010C94EE010C94EE010C94EE0144
:100080000C94EE010C94EE010C94EE010C94EE0134
:100090000C94EE010C94EE010C94EE010C94A3115F
:1000A0000C94EE010C94EE010C94EE010C94EE0114
:1000B0000C94EE010C94EE010C94EE010C94EE0104
:1000C0000C94EE010C94EE010C94EE010C94EE01F4
:1000D0000C94EE010C94EE010C94EE010C94EE01E4
:1000E0000C94EE01084AD73B3BCE016E84BCBFFDA9
:1000F000C12F3D6C74319ABD56833DDA3D00C77FF8
:1001000011BED9E4BB4C3E916BAAAABE0000008090
:100110003F05A84CCDB2D44EB93836A9020C50B91F
:10012000918688083CA6AAAA2ABE000000803F004B
:100130000C949E160C9452040C9436040C942702D2
:100140000C94FE060C9435080C9441020C94C108E2
:100150000C945D0C0C946E020C94C5020C94A20CD1
:100160000C943D070C94B2090C942E070C941702C2
:100170000C94120B0C94610C0C946B040C94E40220
:100180000C94650C0C943A020C94CD020C94E40788
:100190000C9493040C9475040C945F070C941A044B
:1001A0000C94B7080C94F2020C94E0020C947F0DAE
:1001B0000C9451070C945C040C94A60A0C9418023D
:1001C0000C94E8020C9497070C9424040C940304F8
:1001D0000C94FD060C94DA020C943F080C943E0437
:1001E0000C947F040C94F6020C949D040C94FC0275
:1001F0000C94590C0C942B070C945A0A0C94000381
:100200000C9448040C9489040C94D0020C94CB08F0
:100210000C9405090C94D6020C94EE020C9429104F
:100220000C94BB020C9410040C94C9020C94FB02B5
:100230000C94C1020C94E1060C947F0C0C940B04FA
:100240000C94B1090C947F090C942E040001020354
:1002500004050A0B0C0D0E0F0000210024002700DE
:100260002A002D00300033000101000004010701C5
:100270000A0100002200250028002B002E0031007A
:10028000340002010000050108010B0100002000FC
:100290002300260029002C002F003200000100005E
:1002A00003010601090105050505070508080808F9
:1002B000020202020A0A08080404040401010101FE
:1002C00001010101030303030303030304070707F9
:1002D0000C0C0C0C0C0C0C0C02020202060606069E
:1002E000060606060B0B0B0B0B0B0B0B010210206B
:1002F000200808102040102040800201020108045C
:1003000002010102040810204080804020100804EF
:100310000201800402018040201008040201080448
:10032000020101020408102040800102040810208C
:10033000408000000A0B02090C0D0E08070304019F
:1003400000000000000000000000000000000000AD
:10035000000000000000000000000000000012117A
:10036000100000000000000000000000000000007D
:1003700000000000000000009E1611241FBECFEFF9
:10038000D1E2DEBFCDBF00E00CBF29E0A6ECB2E0B9
:1003900001C01D92A132B207E1F712E0A0E0B2E085
:1003A000E8E0FCE400E00BBF02C007900D92A63C21
:1003B000B107D9F711E0CDEBD1E000E006C02197FD
:1003C0000109802FFE010E948023CC3BD10780E0F1
:1003D0000807A9F70E94631A0C9402260C940000E7
:1003E0002091F902260F3327331F21323105ECF417
:1003F00020916403FC0190E080E0243069F082E009
:100400000895A091F9022191AC0147525D4FA40FCC
:10041000B52FB11D2C930196861798F38091F902A0
:10042000680F6093F90280E0089581E008950895CF
:10043000E0911D0380911C03E81730F4F0E0E25EC8
:10044000FC4F808190E008958FEF9FEF0895909189
:100450001D0380911C032FEF3FEF981748F4E92FFD
:10046000F0E0E25EFC4F208130E09F5F90931D033F
:10047000C901089580911C0390911D03891B990B5C
:100480000895CF92DF92EF92FF920F931F93CF9335
:10049000DF937C01CB018A0120916A03222389F03A
:1004A000EB016B01C40ED51ECC15DD0569F0699119
:1004B000D701ED91FC910190F081E02DC7011995D4
:1004C000F3CF642F0E94F001C801DF91CF911F91FB
:1004D0000F91FF90EF90DF90CF900895CF93DF932F
:1004E0001F92CDB7DEB7698320916A032223F9F00A
:1004F00020918D03203258F021E030E0FC0133835D
:10050000228390E080E00F90DF91CF910895809159
:100510006B03E82FF0E0E459FC4F998190838F5FE3
:1005200080936B0380938D0381E090E0ECCF61E0DA
:10053000CE0101960E94F001F7CF8150823108F080
:100540005AC0E82FF0E08827E755FD4F8F4F0C94F5
:100550008023C902CD02BB02C102C502FB02D00248
:10056000D602DA02E002E402E802EE02F202FB0244
:10057000F602FC020003809180008F778093800058
:100580000895809180008F7DF9CF80918000877FD2
:10059000F5CF84B58F7784BD089584B58F7DFBCF6B
:1005A0008091B0008F778093B00008958091B00063
:1005B0008F7DF9CF809190008F7780939000089580
:1005C000809190008F7DF9CF80919000877FF5CF4B
:1005D0008091A0008F778093A00008958091A00063
:1005E0008F7DF9CF8091A000877FF5CF809120018A
:1005F0008F77809320010895809120018F7DF9CF1E
:1006000080912001877FF5CFCF93DF93282F30E0B3
:10061000F901EE5CFC4F8491F901E451FD4FD49156
:10062000F901EA55FD4FC491CC23A1F081110E943C
:100630009D02EC2FF0E0EE0FFF1FE457FD4FA59158
:10064000B491EC91ED2381E090E009F480E0DF913A
:10065000CF91089580E090E0FACF1F93CF93DF937E
:10066000282F30E0F901EE5CFC4F8491F901E45150
:10067000FD4FD491F901EA55FD4FC491CC23A9F067
:10068000162F81110E949D02EC2FF0E0EE0FFF1F4C
:10069000EE58FD4FA591B4918FB7F894EC911111DC
:1006A00008C0D095DE23DC938FBFDF91CF911F91DF
:1006B0000895DE2BF8CF1F93CF93DF93C1E0C09353
:1006C000D802882399F1D091B8001091BA00809196
:1006D000BC008A7B8093BC0060E084E10E942D0313
:1006E00060E085E10E942D0310926403C0936303D0
:1006F00010923E0361E084E10E942D0361E085E1F8
:100700000E942D038091B9008E7F8093B900809163
:10071000B9008D7F8093B90088E48093B80085E4A8
:100720008093BC001093BA00D093B800DF91CF91B2
:100730001F910895CF93DF9390E0FC01E451FD4FAA
:1007400024918A559D4FFC0184918823D1F090E03B
:10075000880F991FFC01E85AFD4FA591B491FC0147
:10076000EE58FD4FC591D49161110EC09FB7F8941A
:100770008C91E22FE0958E238C932881E223E883ED
:100780009FBFDF91CF9108958FB7F894EC91E22B42
:10079000EC938FBFF6CF1F93CF93DF93182FEB010E
:1007A00061E00E949A03209739F460E0812FDF9185
:1007B000CF911F910C942D03CF3FD10511F461E02F
:1007C000F5CFE12FF0E0EE5CFC4FE491E150E23137
:1007D00008F0B3C0F0E08827EF50FC4F8F4F0C9427
:1007E000802303040B0410041A0424049D042E0423
:1007F00036043E04480452045C046B0475049D04F2
:100800007F048904930484B5806884BDC7BDDF91EB
:10081000CF911F91089584B5806284BDC8BDF7CF84
:1008200080918000806880938000D0938900C0937D
:100830008800EDCF80918000806280938000D0930B
:100840008B00C0938A00E3CF809180008860809302
:100850008000D0938D00C0938C00D9CF8091B000E0
:1008600080688093B000C093B300D1CF8091B00076
:1008700080628093B000C093B400C9CF8091900093
:10088000806880939000D0939900C0939800BFCF68
:1008900080919000806280939000D0939B00C093E1
:1008A0009A00B5CF80919000886080939000D0939B
:1008B0009D00C0939C00ABCF8091A0008068809386
:1008C000A0008091A0008F7B8093A000D093A9000E
:1008D000C093A8009CCF8091A00080628093A0006C
:1008E000D093AB00C093AA0092CF8091A000886003
:1008F0008093A000D093AD00C093AC0088CF8091CE
:100900002001806880932001D0932901C0932801A1
:100910007ECF80912001806280932001D0932B01B3
:10092000C0932A0174CF80912001886080932001B8
:10093000D0932D01C0932C016ACFC038D1050CF0A3
:100940003ECF33CF863308F0865320917B00982F1B
:100950009870277F922B90937B00877080648093A0
:100960007C0080917A00806480937A0080917A0084
:1009700086FDFCCF809178009091790008953FB773
:10098000F8948091D4029091D502A091D602B091B2
:10099000D70226B5A89B05C02F3F19F00196A11DCF
:1009A000B11D3FBFBA2FA92F982F8827BC01CD01B9
:1009B000620F711D811D911D42E0660F771F881F18
:1009C000991F4A95D1F708958F929F92AF92BF9247
:1009D000CF92DF92EF92FF920F931F93CF93DF930B
:1009E000D0918D03D13208F0D7C0182FC0918C035D
:1009F0000E94BF046B017C018091640381116BC074
:100A000082E080936403109363038FEF809362030B
:100A100010926103D0936003ACE6B3E0E0E4F3E04E
:100A200080E0D81391C010923F0380913F03CC0F18
:100A3000C82BC0933F0380913E03813009F088C0EA
:100A400010923E030E94BF046B017C0180913F0322
:100A50008093BB008091660390916703A091680327
:100A6000B0916903892B8A2B8B2BA1F00E94BF04C4
:100A70000091660310916703209168033091690328
:100A80006C197D098E099F09061717072807390772
:100A900008F442C08091BC0083FDD8CF85EC8093E0
:100AA000BC000E94BF046B017C0180916403823012
:100AB00009F450C0809162038F3F09F46FC08091A8
:100AC0006203803209F46CC080916203803309F4C0
:100AD00069C084E026C08091660390916703A0916D
:100AE0006803B0916903892B8A2B8B2B09F484CF7F
:100AF0000E94BF048090660390906703A0906803F3
:100B0000B09069036C197D098E099F0986169706B6
:100B1000A806B90608F070CF809165030E945B03B8
:100B200085E010926B0310928D0310926A03DF919F
:100B3000CF911F910F91FF90EF90DF90CF90BF90DA
:100B4000AF909F908F9008959D9191938F5F69CF03
:100B500085EEA5CF8091660390916703A09168030D
:100B6000B0916903892B8A2B8B2B09F49ECF0E94AD
:100B7000BF040091660310916703209168033091D0
:100B800069036C197D098E099F0906171707280745
:100B9000390708F08ACFC0CF81E0C3CF80E0C1CF52
:100BA00082E0BFCF83E0BDCFCF92DF92EF92FF9282
:100BB0000F931F93CF93DF93D82FC62F613208F086
:100BC00098C00E94BF046B017C0180916403811175
:100BD0006BC081E080936403809363039FEF9093E5
:100BE0006203109261039C0F9093600380933F0314
:100BF00080913F03DD0FD82BD0933F0380913E03BC
:100C0000813009F078C010923E030E94BF046B014E
:100C10007C0180913F038093BB008091660390919B
:100C20006703A0916803B0916903892B8A2B8B2BF2
:100C3000A1F00E94BF040091660310916703209108
:100C40006803309169036C197D098E099F090617A5
:100C500017072807390708F448C08091BC0083FDB6
:100C6000D8CF85EC8093BC000E94BF046B017C014F
:100C700080916403813009F440C0809161038C1736
:100C800010F4C0916103E0E4F3E0AEE1B3E080E092
:100C90008C1355C08C2FDF91CF911F910F91FF9036
:100CA000EF90DF90CF900895809166039091670355
:100CB000A0916803B0916903892B8A2B8B2B09F4CF
:100CC00084CF0E94BF0400916603109167032091B6
:100CD0006803309169036C197D098E099F09061715
:100CE00017072807390708F070CF809165030E9425
:100CF0005B03C0E0CFCF85EEB5CF809166039091C6
:100D00006703A0916803B0916903892B8A2B8B2B11
:100D100009F4AECF0E94BF040091660310916703EF
:100D200020916803309169036C197D098E099F0930
:100D3000061717072807390708F09ACFD6CF9191E1
:100D40009D938F5FA5CF8F929F92AF92BF92CF92CC
:100D5000DF92EF92FF924B015C010E94BF046B0196
:100D60007C010E94BF046C197D098E099F09683EB1
:100D7000734081059105A8F321E0821A9108A1082A
:100D8000B10888EEC80E83E0D81EE11CF11C811466
:100D90009104A104B10429F7FF90EF90DF90CF9068
:100DA000BF90AF909F908F9008952FB7F894609167
:100DB000D0027091D1028091D2029091D3022FBFC4
:100DC0000895CF93DF93EC01CB01BA012A813B81D7
:100DD0004C815D810E948A222A853B854C855D85F8
:100DE0000E9489236A877B878C879D876E837F8398
:100DF00088879987DF91CF9108950895AF92BF9228
:100E0000CF92DF92EF92FF920F931F93CF93DF93D6
:100E10006C017B018B01040F151FEB015E01AE1805
:100E2000BF08C017D10759F06991D601ED91FC9127
:100E30000190F081E02DC6011995892B79F7C50144
:100E4000DF91CF911F910F91FF90EF90DF90CF90A6
:100E5000BF90AF90089590E080E00895FC01538D1D
:100E6000448D252F30E0842F90E0821B930B541784
:100E700010F0CF96089501970895FC01918D828D11
:100E8000981761F0A28DAE0FBF2FB11D5D968C91AA
:100E9000928D9F5F9F73928F90E008958FEF9FEFE9
:100EA0000895FC01918D828D981731F0828DE80FA5
:100EB000F11D858D90E008958FEF9FEF0895FC015F
:100EC000918D228D892F90E0805C9F4F821B91092C
:100ED0008F73992708958EE893E00E945F0721E0C1
:100EE000892B09F420E0822F0895FC01A48DA80F1E
:100EF000B92FB11DA35ABF4F2C91848D90E001965C
:100F00008F739927848FA689B7892C93A089B1897B
:100F10008C91837080648C93938D848D981306C01C
:100F20000288F389E02D80818F7D80830895EF9280
:100F3000FF920F931F93CF93DF93EC0181E0888F93
:100F40009B8D8C8D98131AC0E889F989808185FF63
:100F500015C09FB7F894EE89FF896083E889F98905
:100F600080818370806480839FBF81E090E0DF9107
:100F7000CF911F910F91FF90EF900895F62E0B8D5A
:100F800010E00F5F1F4F0F731127E02E8C8D8E1115
:100F90000CC00FB607FCFACFE889F989808185FF7C
:100FA000F5CFCE010E947507F1CFEB8DEC0FFD2F31
:100FB000F11DE35AFF4FF0829FB7F8940B8FEA8937
:100FC000FB8980818062CFCFCF93DF93EC01888D46
:100FD0008823B9F0AA89BB89E889F9898C9185FDB4
:100FE00003C0808186FD0DC00FB607FCF7CF8C9142
:100FF00085FFF2CF808185FFEDCFCE010E9475077E
:10100000E9CFDF91CF91089580E090E0892B29F01E
:101010000E946B0781110E94000080E090E0892B04
:1010200049F080E090E0892B29F00E9400008111B6
:101030000E94000080E090E0892B49F080E090E081
:10104000892B29F00E94000081110E94000080E09D
:1010500090E0892B49F080E090E0892B29F00E94F4
:10106000000081110C9400000895FC01148A158A77
:10107000168A178A108A118A128A138A08958F9203
:101080009F92AF92BF92CF92DF92EF92FF92CF9357
:10109000DF93EC01CB01BA0188889988AA88BB88C4
:1010A000A50194010E9488236B017C018C8D88230B
:1010B00001F12AED3FE049E450E4C701B6010E9486
:1010C00036251816BCF52BED3FE049EC50E4C7017E
:1010D000B6010E9488236B017C012BED3FE049ECB7
:1010E00050E4C501B4010E9489236C8B7D8B8E8BEB
:1010F0009F8B288D398D4A8D5B8DC701B6010E946B
:101100006724AB01BC014E835F8368877987CE017A
:101110000A960E94E1066E817F8188859985DF911C
:10112000CF91FF90EF90DF90CF90BF90AF909F90C6
:101130008F9008952BED3FE049EC50ECC701B601CC
:101140000E94242287FFD5CF2BED3FE049EC50E4ED
:10115000C701B6010E9489236B017C012BED3FE0A2
:1011600049EC50E4C501B4010E948823BECFFC01C4
:10117000148A158A168A178A108A118A128A138A83
:101180000895FC011286138614861586168217822E
:10119000108611860895AF92BF92CF92DF92EF92A0
:1011A000FF920F931F93CF93DF93EC015A016B01D2
:1011B000EA84FB840C851D859A01AB01B701C80147
:1011C0000E943625181674F0EE84FF840889198968
:1011D0009501A601B701C8010E94242287FD02C023
:1011E00075018601C701D8018E839F83A887B987BF
:1011F000B701C801DF91CF911F910F91FF90EF9040
:10120000DF90CF90BF90AF9008954F925F926F9212
:101210007F928F929F92AF92BF92CF92DF92EF9286
:10122000FF920F931F93CF93DF93EC016A017B0131
:101230002A853B854C855D85CB01B6010E948A22BB
:101240004B015C014E845F84688879882C893D89D4
:101250004E895F89C701B6010E948A222C8D3D8D7F
:101260004E8D5F8D0E9489239B01AC012C8F3D8F99
:101270004E8F5F8F288F398F4A8F5B8FC301B201EA
:101280000E948A22A50194010E9489234B015C01DE
:101290008E829F82A886B9868E01005E1F4FBC0198
:1012A000A401C8010E94CB089B01AC01C501B40197
:1012B0000E942422882339F0B701A6017058CE017C
:1012C00042960E94E1064E815F8168857985C8015A
:1012D0000E94CB086E837F8388879987DF91CF91A7
:1012E0001F910F91FF90EF90DF90CF90BF90AF9044
:1012F0009F908F907F906F905F904F900895CF93C5
:10130000DF93EC01CB01BA012E813F8148855985DD
:101310000E9488232AA53BA54CA55DA50E948A2290
:10132000AB01BC01CE0148960E94CB082C853D85BF
:101330004E855F850E948A222C893D894E895F896E
:101340000E9489236C8B7D8B8E8B9F8B688B798B16
:101350008A8B9B8B6E837F8388879987DF91CF9160
:1013600008950895DC01ED91FC910280F381E02D58
:101370001994CF93DF93EC018B810E942D038A8D0A
:101380009B8D8230910538F0880F991F880F991F27
:1013900005970197F1F7DF91CF910895089561E0E6
:1013A0000C94B9098EBD00000DB407FEFDCF8EB5BB
:1013B00008958CBD9DBD0895CF93DF93D82FC62F80
:1013C0008091C308811128C08091BA089091BB0810
:1013D0002091C00831E030936A0320938C0310926F
:1013E0006B0310928D03DC01ED91FC910190F08173
:1013F000E02D6D2F19958091BA089091BB08DC0102
:10140000ED91FC910190F081E02D6C2F199581E018
:10141000DF91CF910C94E4048091BE089091BF08B5
:101420000E94D90960E08091C1080E942D038D2F90
:101430000E94D2098C2F0E94D20961E08091C108DC
:10144000DF91CF910C942D03CF93CFB7F894809177
:10145000C602811127C0EBEDF2E08491E1E2F3E0F6
:101460009491E82FF0E0EE0FFF1FE85AFD4FA59191
:10147000B491EC91E92321F461E085E30E942D030E
:1014800061E085E30E949A038CB580618CBD8CB5C8
:1014900080648CBD61E084E30E949A0361E083E391
:1014A0000E949A038091C6028F5F8093C602CFBFCD
:1014B000CF9108950F931F93CF93DF93EC018C810D
:1014C000882341F10E94D506AB01BC018D819E812C
:1014D000AF81B88509851A852B853C85800F911FC2
:1014E000A21FB31F481759076A077B0740F41C82E5
:1014F00084E090E0DF91CF911F910F91089561E01A
:101500008A810E942D030E94D5066D837E838F837E
:1015100098871C820E94D506AB01BC018D819E81FB
:10152000AF81B8850D851E852F853889800F911F65
:10153000A21FB31F84179507A607B70720F460E022
:101540008A810E942D0390E080E0D4CFCF93DF9377
:10155000EC018A810E94A204BC01990F880B990BAF
:101560000E942B229B01AC016C857D858E859F8519
:101570000E948A22688779878A879B8790E080E02B
:10158000DF91CF9108954F925F926F927F928F92E9
:101590009F92AF92BF92CF92DF92EF92FF920F9302
:1015A0001F93CF93DF93EC014A018B015C018AE624
:1015B000A80EB11C4C885D886E887F88730162011B
:1015C000F7FAF094F7F8F0949A01AB01C701B6016D
:1015D0000E943625181664F09401A801C301B201D7
:1015E0000E9424227301620187FD02C06401780118
:1015F000B701A601C5010E947F096CAB7DAB8EAB24
:101600009FABDF91CF911F910F91FF90EF90DF90F3
:10161000CF90BF90AF909F908F907F906F905F9092
:101620004F9008954F925F926F927F928F929F9208
:10163000AF92BF92CF92DF92EF92FF920F931F93E0
:10164000CF93DF93EC016C857D85072E000C880B12
:10165000990B0E942B226B017C011D861C866E85D6
:101660007F85072E000C880B990B0E942B229B0173
:10167000AC01C701B6010E9467242BED3FE049E4AD
:1016800050E40E948A229B01AC010E94892328A574
:1016900039A54AA55BA50E948923AB01BC0148A7D7
:1016A00059A76AA77BA7CE0182539F4F0E943F088C
:1016B0004B015C0188AA99AAAAAABBAACCA8DDA85A
:1016C000EEA8FFA8288D398D4A8D5B8DC701B60124
:1016D0000E948A222B013C01A5019401C701B60199
:1016E0000E948823AB01BC01CE01C8960E94050967
:1016F0009B01AC01C301B2010E9489236B017C01F3
:1017000020E030E0A9010E943625181694F420E06C
:1017100030E040EC5FE3C701B6010E94362587FF49
:1017200012C06FEF70E08A810E94CB036FEF70E010
:1017300087C020E030E040EC5FEBC701B6010E94BB
:101740002422181674F38E0104561F4FB701A60108
:10175000C8010E947F0920E030E04FE753E40E9477
:101760008A22288939894A895B890E94672420E076
:1017700030E04FE753EC0E94242287FD7FC0B70181
:10178000A601C8010E947F0920E030E04FE753E442
:101790000E948A22288939894A895B890E946724A4
:1017A00020E030E04FE753E40E94362518165CF144
:1017B000B701A601C8010E947F0920E030E04FE791
:1017C00053E40E948A22288939894A895B890E94C8
:1017D00067246B017C0120E030E0A9010E943625DE
:1017E0001816BCF020E030E04FE753E4C701B60123
:1017F0000E9489230E94D9247F836E838FEF90E01B
:101800009987888716C0C12CD12C9FE7E92E93E4D5
:10181000F92E8FEF90E09F838E83A701960160E001
:1018200070E08FE793E40E9488230E94D92479878F
:1018300068876E817F818A810E94CB036885798564
:101840008C810E94CB0388A599A5AAA5BBA58CA7CE
:101850009DA7AEA7BFA790E080E0DF91CF911F9139
:101860000F91FF90EF90DF90CF90BF90AF909F903F
:101870008F907F906F905F904F900895C12CD12CE6
:101880008FE7E82E83ECF82EADCFCF93DF93EC01FA
:101890008A850E9404032C853D85892B39F02F5FB2
:1018A0003F4F3D872C87DF91CF910895215031091B
:1018B000F8CF87EF95E00C94450C82EE96E00C94FF
:1018C000450C8DEC97E00C94450C0F931F93CF9330
:1018D000DF93EC0122968C01005E1F4FC017D107E9
:1018E00039F0FE016889229680810E942D03F6CF8F
:1018F00090E080E0DF91CF911F910F910895CF93F9
:10190000DF93EC018A810E940403AC0191E0411550
:10191000510509F490E09E832F81222321F081E07C
:101920004115510509F080E08C83211103C021E0AD
:10193000452B09F420E02D839F8390E080E0DF9128
:10194000CF910895CF93DF93EC018A810E94A20486
:101950009D838C8390E080E0DF91CF910895EF929A
:10196000FF920F931F93CF93DF93EC01162F7A0111
:101970008985811143C0888199812E8131E030931E
:101980006A0320938C0310926B0310928D03DC0189
:10199000ED91FC910190F081E02D199580E00E947D
:1019A000E40466E08E810E94D40510921D038093AA
:1019B0001C0388819981DC01ED91FC910084F18503
:1019C000E02D1995892B99F08701B6E0EB0EF11CFB
:1019D00088819981DC01ED91FC910284F385E02DF1
:1019E0001995F80181938F01EE15FF0589F7DF91B5
:1019F000CF911F910F91FF90EF9008958C819D8161
:101A00000E94D90960E08F810E942D03812F806898
:101A10000E94D2098701F6E0EF0EF11C80E00E94DF
:101A2000D209D8018D938D01AE15BF05B9F761E0DC
:101A30008F81DF91CF911F910F91FF90EF900C94C8
:101A40002D038F929F92AF92BF92CF92DF92EF922F
:101A5000FF920F931F93CF93DF9300D000D0CDB7A9
:101A6000DEB78C01CB01AE014F5F5F4F63E40E9494
:101A7000AF0C69817A81762767277627072E000CBD
:101A8000880B990B0E942B224B015C016B817C819E
:101A9000762767277627072E000C880B990B0E9464
:101AA0002B226B017C016D817E817627672776274B
:101AB000072E000C880B990B0E942B22F8018082C4
:101AC0009182A282B382C482D582E682F782608745
:101AD000718782879387C80126960FB6F894DEBF78
:101AE0000FBECDBFDF91CF911F910F91FF90EF906F
:101AF000DF90CF90BF90AF909F908F9008954F92BE
:101B00005F926F927F928F929F92AF92BF92CF928D
:101B1000DF92EF92FF920F931F93CF93DF93CDB796
:101B2000DEB760970FB6F894DEBF0FBECDBF8C0155
:101B3000BC016E5F7F4FCE0101960E94210DF8011E
:101B4000F5A06F2D70E090E080E00E942B224B0109
:101B50005C016F2D70E090E080E00E94292220E07F
:101B600030E04AE753E40E948A2220E030E040E07F
:101B700058E30E948A226B017C01A5019401F801BF
:101B8000608D718D828D938D0E9467249B01AC01C5
:101B900069817A818B819C810E948823A7019601AB
:101BA0000E948A222B013C01A5019401F801648D59
:101BB000758D868D978D0E9467249B01AC016D8188
:101BC0007E818F8198850E948823A70196010E94BB
:101BD0008A226D877E878F87988BA5019401F801F3
:101BE00060A171A182A193A10E9467249B01AC0115
:101BF00069857A858B859C850E948823A70196013B
:101C00000E948A226B017C012BED3FE049E450E405
:101C1000C301B2010E948A2220E030E044E353E491
:101C20000E946724F80164AB75AB86AB97AB2BEDD4
:101C30003FE049E450E46D857E858F8598890E9458
:101C40008A2220E030E044E353E40E946724F80154
:101C500060AF71AF82AF93AF2BED3FE049E450E44A
:101C6000C701B6010E948A2220E030E044E353E439
:101C70000E946724F80164AF75AF86AF97AF90E01C
:101C800080E060960FB6F894DEBF0FBECDBFDF9147
:101C9000CF911F910F91FF90EF90DF90CF90BF9069
:101CA000AF909F908F907F906F905F904F9008952E
:101CB000CF93C82F8091C308811140C08091BA088A
:101CC0009091BB082091C00831E030936A032093C3
:101CD0008C0310926B0310928D03DC01ED91FC914B
:101CE0000190F081E02D6C2F199580E00E94E404B2
:101CF00061E08091C0080E94D40510921D0380937A
:101D00001C038091BA089091BB08DC01ED91FC9115
:101D10000084F185E02D1995C0E0892B61F0809158
:101D2000BA089091BB08DC01ED91FC910284F38527
:101D3000E02D1995C82F8C2FCF9108958091BE0862
:101D40009091BF080E94D90960E08091C1080E946B
:101D50002D038C2F80680E94D20980E00E94D20956
:101D6000C82F61E08091C1080E942D03E4CFFC01DF
:101D700001900020E9F73197AF01481B590BBC01D6
:101D80008EE893E00C94FE068F929F92AF92BF92E2
:101D90000F931F93CF93DF93CDB7DEB7A1970FB605
:101DA000F894DEBF0FBECDBF19A2423008F44AE05E
:101DB0008E010F5D1F4F842E912CB12CA12CA501FB
:101DC00094010E945E23E62FB901CA01EA30F4F4BF
:101DD000E05DD801EE938D01232B242B252B79F781
:101DE00090E080E0109719F0CD010E94B70EA19607
:101DF0000FB6F894DEBF0FBECDBFDF91CF911F911C
:101E00000F91BF90AF909F908F900895E95CE1CFC4
:101E100085ED8093BC008091660390916703A0914B
:101E20006803B09169030796A11DB11D23E0B69523
:101E3000A795979587952A95D1F72091BC0024FD09
:101E400003C01092640308954091660350916703A4
:101E50006091680370916903452B462B472B69F30A
:101E60000097A105B10541F02AE22A95F1F700C0DB
:101E70000197A109B109E1CF809165030C945B033F
:101E80000F931F93CF93DF93EC010C811D812E8163
:101E90003F8140E052E16AE770E090E004171507E7
:101EA0002607370740F476956795579547959F5FC6
:101EB0009630A1F797E0892F806A9095869591706A
:101EC0000E94D90960E0CE01DF91CF911F910F915F
:101ED0000C94B9090F931F93CF93DF93EC01062F56
:101EE000142F0E94400F802F80620E94D2098887A1
:101EF000812F0E94D209CE01DF91CF911F910F91C6
:101F00000C94CF094091BB0441FD0CC0426040934A
:101F1000BB0460E08CEA94E00E946A0F8BE19EE4CF
:101F20000197F1F70895FF920F931F93CF93DF93DB
:101F3000C82FF62E072F142F8CEA94E00E94400F32
:101F40008C2F80620E94D2098093B404CF2DD02FB1
:101F5000115020F089910E94D209FACF8CEA94E0C6
:101F6000DF91CF911F910F91FF900C94CF098CEAD4
:101F700094E00E94400F80E50E94D2098093B4044F
:101F800083E70E94D2098CEA94E00C94CF091F9356
:101F9000CF93DF93EC01162F0E94400F812F8062B8
:101FA0000E94D2098887CE01DF91CF911F910C94B6
:101FB000CF091F93CF93DF93EC01162F0E94400FA0
:101FC000812F0E94D20988878FEF0E94D209182F93
:101FD000CE010E94CF09812FDF91CF911F910895EB
:101FE000CF93DF93EC0166E08CEA94E00E94D90F76
:101FF000877D219701F145E550E060E070E0409376
:10200000C2045093C3046093C4047093C504C0E039
:10201000C82B4C2F66E08CEA94E00E946A0F66E0C1
:102020008CEA94E00E94D90F91E0C81390E0892FC8
:10203000DF91CF91089541E450E060E070E040937B
:10204000C2045093C3046093C4047093C504C8E0F1
:10205000DFCF9F92AF92BF92CF92DF92EF92FF922B
:102060000F931F93CF93DF9300D000D0CDB7DEB78F
:102070008C016C0182E0C80ED11C9924939467E115
:10208000C6010E94D90F80FD4AC0F80186898111DE
:102090001EC08385E82E873010F096E0E92EF82EDA
:1020A000FE18C6010E94400F81E60E94D209F80185
:1020B0008287CE0101965C01EA949FEFE91659F000
:1020C0008FEF0E94D209F50181935F01F5CFF12CCA
:1020D00086E0E82EE6CFFA94FFEFFF1621F08FEFAF
:1020E0000E94D209F8CFC6010E94CF0940E467E000
:1020F000C6010E946A0F2981F80186A197A1409626
:102100002817190609F0BBCF20A38A8181A38B81F0
:1021100082A38C8183A38E8184A395A2B0CF90E00B
:1021200080E026960FB6F894DEBF0FBECDBFDF91DC
:10213000CF911F910F91FF90EF90DF90CF90BF90C4
:10214000AF909F9008954F925F926F927F928F927F
:102150009F92AF92BF92CF92DF92EF92FF920F9336
:102160001F93CF93DF93CDB7DEB72E970FB6F894BA
:10217000DEBF0FBECDBF9E878D874A015B01280160
:10218000390120E030E84BEB54ECCB01B4010E9464
:10219000242287FDAAC020E030E84BEB54E4C501BF
:1021A000B4010E94362518160CF4A7C020E030E8D0
:1021B0004BEB54ECC301B2010E94242287FDA5C061
:1021C00020E030E84BEB54E4C301B2010E94362515
:1021D00018160CF4A2C0A5019401C501B4010E9417
:1021E0008A2269837A838B839C83A3019201C30132
:1021F000B2010E948A229B01AC0169817A818B81A4
:102200009C810E9489230E94512569837A838B8354
:102210009C8320E030E044EB52E4C701B6010E9409
:102220008A226B017C01A30192015058C501B401BF
:102230000E9408244B015C012DE633EB44E85FE388
:102240000E9488230E9443256D837E838F83988715
:102250002BED3FE049E450E4C501B4010E9488231E
:102260000E94432569877A878B879C872DE633EB0D
:1022700044E85FE3C501B4010E9489230E9443251D
:102280002D853E852230310509F44FC023303105BC
:1022900009F454C029813A814B815C816D817E8132
:1022A0008F8198850E948A22A70196010E94892326
:1022B00020E030E048EC51E40E9467242E960FB6EF
:1022C000F894DEBF0FBECDBFDF91CF911F910F916C
:1022D000FF90EF90DF90CF90BF90AF909F908F9046
:1022E0007F906F905F904F900895812C30E8932EEF
:1022F0003BEBA32E34ECB32E59CF812C20E8922E49
:102300002BEBA22E24E4B22E51CF412C90E8592E73
:102310009BEB692E94EC792E5ECF412C80E8582EF1
:102320008BEB682E84E4782E56CF29813A814B813D
:102330005C8169857A858B859C85B4CF29813A81BA
:102340004B815C81AFCF1F920F920FB60F92112479
:102350000BB60F922F933F934F935F936F937F939F
:102360008F939F93AF93BF93EF93FF938091B900A7
:10237000887F803609F44DC008F040C0883209F4E7
:10238000A7C028F5803109F49BC0C8F4882309F45C
:10239000F7C0883009F494C0FF91EF91BF91AF91DD
:1023A0009F918F917F916F915F914F913F912F916D
:1023B0000F900BBE0F900FBE0F901F901895883195
:1023C00009F486C0803241F78093620314C08034E0
:1023D00009F49BC040F48033B9F38833E9F6809365
:1023E000620385ECAEC0803509F483C0883509F4FA
:1023F00094C0883489F60E94080FCECF883909F43A
:102400008AC038F5883729F050F4883611F08037C3
:1024100019F683E08093640310921B0355C088383B
:1024200009F479C0803919F0803809F0B5CF80916E
:102430001B03803208F06FC0E0911B0381E08E0F18
:1024400080931B038091BB00F0E0E550FD4F80833B
:102450003BC0803B39F0D0F4803A09F477C0883A29
:1024600009F09ACF84E0809364031092FA021092EC
:10247000F902F0E0E0E019958091F90281110FC0B6
:1024800081E08093F9021092D90209C0803C09F4DE
:10249000A8CF883C09F4A5CF883B09F07DCFE09117
:1024A000FA0281E08E0F8093FA02F0E0E752FD4FCE
:1024B00080818093BB009091FA028091F90229C03B
:1024C00080913F038093BB0085EC8093BC0064CF78
:1024D0009091610380916003981758F5E091610332
:1024E00081E08E0F80936103F0E0E05CFC4F80811F
:1024F000E9CFE091610381E08E0F809361038091C9
:10250000BB00F0E0E05CFC4F808390916103809120
:1025100060039817C8F285E8D8CFE091610381E0A5
:102520008E0F809361038091BB00F0E0E05CFC4F74
:1025300080838091630381115ECF81E080933E03AD
:1025400084EA8093BC001092640326CF85EC8093CC
:10255000BC001092640380911B03803230F4E09140
:102560001B03F0E0E550FD4F108260911B0370E00B
:102570008BEF92E0F0E0E0E0199510921B030CCF96
:102580001092620338CF1F920F920FB60F92112450
:102590002F933F938F939F93AF93BF938091D002DC
:1025A0009091D102A091D202B091D3023091CF028A
:1025B00023E0230F2D3758F50196A11DB11D20935F
:1025C000CF028093D0029093D102A093D202B09315
:1025D000D3028091D4029091D502A091D602B091FD
:1025E000D7020196A11DB11D8093D4029093D5020C
:1025F000A093D602B093D702BF91AF919F918F91D4
:102600003F912F910F900FBE0F901F90189526E8C5
:10261000230F0296A11DB11DD2CF1F920F920FB6AC
:102620000F9211240BB60F922F933F934F935F930A
:102630006F937F938F939F93AF93BF93EF93FF938A
:10264000E0910E02F0910F021995FF91EF91BF9169
:10265000AF919F918F917F916F915F914F913F913A
:102660002F910F900BBE0F900FBE0F901F901895DB
:102670001F920F920FB60F9211240BB60F922F9349
:102680003F934F935F936F937F938F939F93AF93FA
:10269000BF93EF93FF93E0910C02F0910D02199517
:1026A000FF91EF91BF91AF919F918F917F916F912A
:1026B0005F914F913F912F910F900BBE0F900FBEE6
:1026C0000F901F9018951F920F920FB60F92112422
:1026D0000BB60F922F933F934F935F936F937F931C
:1026E0008F939F93AF93BF93EF93FF93E091020279
:1026F000F09103021995FF91EF91BF91AF919F91D6
:102700008F917F916F915F914F913F912F910F909A
:102710000BBE0F900FBE0F901F9018951F920F9237
:102720000FB60F9211240BB60F922F933F934F9336
:102730005F936F937F938F939F93AF93BF93EF9329
:10274000FF93E0910002F09101021995FF91EF9142
:10275000BF91AF919F918F917F916F915F914F91B9
:102760003F912F910F900BBE0F900FBE0F901F90B7
:1027700018951F920F920FB60F9211240BB60F925D
:102780002F933F934F935F936F937F938F939F9379
:10279000AF93BF93EF93FF93E0910A02F0910B0286
:1027A0001995FF91EF91BF91AF919F918F917F917B
:1027B0006F915F914F913F912F910F900BBE0F90B2
:1027C0000FBE0F901F9018951F920F920FB60F9289
:1027D00011240BB60F922F933F934F935F936F93F8
:1027E0007F938F939F93AF93BF93EF93FF93E0916A
:1027F0000802F09109021995FF91EF91BF91AF91F5
:102800009F918F917F916F915F914F913F912F9108
:102810000F900BBE0F900FBE0F901F9018951F9238
:102820000F920FB60F9211240BB60F922F933F9376
:102830004F935F936F937F938F939F93AF93BF93C8
:10284000EF93FF93E0910602F09107021995FF9133
:10285000EF91BF91AF919F918F917F916F915F9118
:102860004F913F912F910F900BBE0F900FBE0F9085
:102870001F9018951F920F920FB60F9211240BB64E
:102880000F922F933F934F935F936F937F938F9309
:102890009F93AF93BF93EF93FF93E0910402F09166
:1028A00005021995FF91EF91BF91AF919F918F9183
:1028B0007F916F915F914F913F912F910F900BBE40
:1028C0000F900FBE0F901F9018951F920F920FB68A
:1028D0000F9211240BB60F922F933F934F935F9358
:1028E0006F937F938F939F93AF93BF93EF93FF93D8
:1028F0008EE893E00E947507FF91EF91BF91AF9131
:102900009F918F917F916F915F914F913F912F9107
:102910000F900BBE0F900FBE0F901F9018951F9237
:102920000F920FB60F9211240BB60F922F938F9325
:102930009F93EF93FF93E0919E03F0919F0380811B
:10294000E091A403F091A50382FD1DC090818091C8
:10295000A7038F5F8F732091A803821741F0E09146
:10296000A703F0E0E257FC4F958F8093A703FF91F8
:10297000EF919F918F912F910F900BBE0F900FBEF3
:102980000F901F9018958081F2CF2F923F924F9217
:102990005F926F927F928F929F92AF92BF92CF92EF
:1029A000DF92EF92FF920F931F93CF93DF93CDB7F8
:1029B000DEB76C970FB6F894DEBF0FBECDBF4C01EB
:1029C00069877A8F4A875B8F2B873C8FE982FA82EF
:1029D0000B831C83AC86BD86CE86DF862AA93BA9E5
:1029E0004CA95DA9288B398B4A8B5B8B4EA95FA9BB
:1029F0005D8B4C8BC8ACD9ACEAACFBAC8CAD9DAD5F
:102A0000AEADBFAD8D839E83AF83B88724962CADCA
:102A10003DAD4EAD5FAD24972E8B3F8B488F598FC8
:102A20008BE292E0D40111969C938E93F401C2AE96
:102A3000D3AEE4AEF5AEFE961082118212821382FE
:102A400087E192E0D9969C938E93D8973C96C28268
:102A5000D382E482F582168217821086118689E677
:102A6000A82E82E0B82EB182A08212861386148628
:102A700015863E9612821382148215821682178260
:102A80001086118605E512E01183008389819A8101
:102A9000AB81BC81B05882879387A487B587298191
:102AA0003A814B815C8126873787408B518B7697A3
:102AB0008D819E81AF81B88580839183A283B3830A
:102AC00014019AE6290E311CD1011296CD92DD92A5
:102AD000ED92FC921597F1011682178210861186ED
:102AE0002FE532E0318320833A96C282D382E4829A
:102AF000F5821682178210861186B182A082128614
:102B00001386148615863E961282138214821582CD
:102B100016821782108611861183008380E09CE361
:102B2000ACE1B6EC82879387A487B587412C9CE300
:102B3000592E9CE1692E96E4792E46865786608A46
:102B4000718AD1019E964D925D926D927C92D19741
:102B5000A701960160E070E080E89FE30E9467248F
:102B6000F10162A773A784A795A7F296C282D382C8
:102B7000E482F58216821782108611862FE532E0F4
:102B800031832083D401AA55BF4F1296CD92DD9296
:102B9000ED92FC92159716961D921D921D921C9215
:102BA00019971196BC92AE921A961D921D921D9283
:102BB0001C921D971E9612961D921D921D921C929C
:102BC000159716961D921D921D921C92199711969B
:102BD0001C930E9320E03CE34CE156EC1A962D93A7
:102BE0003D934D935C931D971E964D925D926D9211
:102BF0007C92519746A657A660AA71AA62A773A7AE
:102C000084A795A7840102531F4FD8011296CD9235
:102C1000DD92ED92FC921597F801168217821086CC
:102C2000118681E292E0918380833A96C282D382B8
:102C3000E482F5821682178210861186B182A08204
:102C40001286138614861586A7019601C701B60160
:102C50000E948923D80158966D937D938D939C9300
:102C60005B9781E05C968C932985F40122833A8DF1
:102C700033834A8544835B8D55838B8582879C8D06
:102C8000938729813A814B815C81D401208B318BE0
:102C9000428B538B2C853D854E855F85248B358BF0
:102CA000468B578B288939894A895B89208F318FD8
:102CB000428F538FEC89FD891F96FC93EE931E97EC
:102CC0005C96CD92DD92ED92FC925F972D813E81D4
:102CD0004F81588590962D933D934D935C93939798
:102CE0002E893F89488D598D94962D933D934D9310
:102CF0005C93979761E089850E949A0361E08A85D9
:102D00000E949A0360E08B856C960FB6F894DEBF44
:102D10000FBECDBFDF91CF911F910F91FF90EF902C
:102D2000DF90CF90BF90AF909F908F907F906F90EB
:102D30005F904F903F902F900C949A032F923F9268
:102D40004F925F926F927F928F929F92AF92BF92BB
:102D5000CF92DF92EF92FF920F931F93CF93DF9367
:102D600010922E0410922D0488EE93E0A0E0B0E0C3
:102D700080932F0490933004A0933104B0933204D5
:102D800021E332E030932C0420932B041092910322
:102D9000109290038093920390939303A0939403D3
:102DA000B093950383E492E090938F0380938E0316
:102DB00085EC90E090939B0380939A0384EC90E0E1
:102DC00090939D0380939C0380EC90E090939F03ED
:102DD00080939E0381EC90E09093A1038093A003E5
:102DE00082EC90E09093A3038093A20386EC90E0A2
:102DF0009093A5038093A4031092A7031092A803B5
:102E00001092A9031092AA03CBE8D2E0D0931A093A
:102E1000C09319098FE090E090931C0980931B09DF
:102E200060E00E949A03D0931209C093110980E1D7
:102E300090E0909314098093130960E00E949A0334
:102E4000D0930A09C093090981E190E090930C099D
:102E500080930B0960E00E949A0387E992E09093C7
:102E6000F9088093F8088EE090E09093FB08809337
:102E7000FA081092FD081092FE081092FF081092B6
:102E8000000980ED97E0A0E0B0E080930109909305
:102E90000209A0930309B093040982E390E0A0E043
:102EA000B0E08093050990930609A0930709B093B9
:102EB000080961E08EE00E949A0385E892E0909311
:102EC000B9088093B8088BE294E09093BB08809394
:102ED000BA0887E394E09093BD088093BC0880E52E
:102EE0008093BE081092BF0888E68093C0088CE0EB
:102EF00090E09093C2088093C108882483948092C4
:102F0000C3081092C4081092C5081092C608109207
:102F1000C7081092C8081092C9081092CA081092E7
:102F2000CB081092CC081092CD081092CE081092C7
:102F3000CF081092D0081092D1081092D2081092A7
:102F4000D3081092D4081092D5081092D608109287
:102F5000D7081092D8081092D9081092DA08109267
:102F6000DB081092E0081092E1081092E20810923B
:102F7000E3081092E4081092E5081092E608109217
:102F8000E7081092E8081092E9081092EA081092F7
:102F9000EB081092EC081092ED081092EE081092D7
:102FA000EF081092F0081092F1081092F2081092B7
:102FB000F3081092F4081092F5081092F608109297
:102FC000F70804E4202E2F928AE7382E3F921F92B2
:102FD0001F929FE3992E9F92C3E3CF93CF93CF93FA
:102FE0002BE3422E4F9233EA532E5F9247ED642E2D
:102FF0006F92DAE0DF938F9250E4752E7F929F926A
:1030000087E58F93DF939DE39F93A12CB12C60EF15
:10301000C62E61E4D62E8601750123E030E044E03F
:1030200050E065E070E08DEC97E00E94C5142F92AF
:103030003F921F921F929F92CF93CF93CF934F9225
:103040005F926F92DF938F927F929F92A7E5AF93EB
:10305000DF93BDE3BF9323E130E046E050E067E05B
:1030600070E082EE96E00E94C5148DB79EB78496FC
:103070000FB6F8949EBF0FBE8DBF2F923F921F9246
:103080001F929F92CF93CF93CF934F925F926F9265
:10309000DF938F927F929F9297E59F93DF93ADE3AB
:1030A000AF9325E130E048E050E069E070E087EF61
:1030B00095E00E94C5149F9280E88F931F921F9203
:1030C0009F928F931F921F9291E49F9390E39F93FF
:1030D0001F921F921F928F929F928F931F921F9207
:1030E000A12CB12C70E8C72E7FE3D72E8601750185
:1030F00021E030E041E050E061E070E08CE095E0FC
:103100000E94C5148FE792E09093EB048093EA0449
:10311000ECEFF4E080E1DF011D928A95E9F788E1A8
:1031200090E09093ED048093EC0489E190E090931B
:10313000EF048093EE048AE190E09093F104809391
:10314000F0048BE190E09093F3048093F2048CE11F
:1031500090E09093F5048093F4048DE190E09093D7
:10316000F7048093F6048EE190E09093F904809345
:10317000F8048FE190E09093FB048093FA04CAEE88
:10318000D4E00CE015E08DB79EB784960FB6F894A6
:103190009EBF0FBE8DBF22960C171D0729F061E060
:1031A00088810E949A03F7CF81E992E09093DB0433
:1031B0008093DA0486E390E09093DD048093DC044E
:1031C00086E696E6A6E4B1E48093DE049093DF04FD
:1031D000A093E004B093E10480E090E0A8E4BCE3B5
:1031E0008093E6049093E704A093E804B093E90485
:1031F00060E086E30E949A0389E792E09093D3040B
:103200008093D20487E390E09093D5048093D40414
:1032100084E190E09093D9048093D80460E087E340
:103220000E949A0383E792E09093AB048093AA04F0
:103230008AE08093AE048BE08093AF0480E896E947
:10324000A8E9B0E08093B0049093B104A093B204D5
:10325000B093B30480E28093B5041092BC04109242
:10326000BD0485E08093BF0481E08093C00485E0C5
:1032700090E0A0E0B0E08093C6049093C704A093D0
:10328000C804B093C90487E394E09093AD0480939D
:10329000AC041092B60481E090E09093D104809346
:1032A000D0048AE097EDA3EABBE380939E04909359
:1032B0009F04A093A004B093A1041092A2041092C2
:1032C000A3041092A4041092A50429E632E03093DE
:1032D0009D0420939C041092A6041092A7041092BF
:1032E000A8041092A90480936C0490936D04A09399
:1032F0006E04B0936F0410927004109271041092D7
:10330000720410927304CFE5D2E0D0936B04C093A3
:103310006A048093760490937704A0937804B09322
:10332000790410927A0410927B0410927C0410921B
:103330007D04309375042093740410927E041092DF
:103340007F041092800410928104109284041092E1
:1033500085041092860410928704109288041092BB
:10336000890410928A0410928B04E5E5F2E0F09350
:103370008304E0938204812C40E5942E43ECA42E38
:1033800048ECB42E80928C0490928D04A0928E040E
:10339000B0928F0440E050E563EC78E440939004F1
:1033A0005093910460939204709393044093980413
:1033B0005093990460939A0470939B04412C512C70
:1033C00018E4612E13E4712E4092940450929504F7
:1033D000609296047092970480933A0490933B0411
:1033E000A0933C04B0933D0410923E0410923F041D
:1033F0001092400410924104D0933904C0933804D1
:103400008093440490934504A0934604B0934704EA
:10341000109248041092490410924A0410924B04EE
:10342000309343042093420410924C0410924D04B4
:1034300010924E0410924F041092520410925304B2
:10344000109254041092550410925604109257048E
:103450001092580410925904F0935104E0935004D0
:1034600080925A0490925B04A0925C04B0925D0436
:1034700040935E0450935F04609360047093610412
:1034800040936604509367046093680470936904E2
:1034900040926204509263046092640470926504E6
:1034A000DF91CF911F910F91FF90EF90DF90CF9020
:1034B000BF90AF909F908F907F906F905F904F9054
:1034C0003F902F900895CF93DF93CDB7DEB7A497A9
:1034D0000FB6F894DEBF0FBECDBF789484B582607E
:1034E00084BD84B5816084BD85B5826085BD85B5A8
:1034F000816085BD80916E00816080936E00109226
:1035000081008091810082608093810080918100A0
:103510008160809381008091800081608093800031
:103520008091B10084608093B1008091B00081608F
:103530008093B0008091910082608093910080918F
:1035400091008160809391008091900081608093D0
:1035500090008091A10082608093A1008091A100E1
:1035600081608093A1008091A00081608093A00081
:1035700080912101826080932101809121018160ED
:1035800080932101809120018160809320018091AE
:103590007A00846080937A0080917A0082608093C0
:1035A0007A0080917A00816080937A0080917A001D
:1035B000806880937A001092C1008091C3088823AC
:1035C00091F061E08091C1080E949A0361E08091CE
:1035D000C1080E942D030E94240A80E58093BE0842
:1035E00081E08093BF0860E88BE60E94DC096AE016
:1035F00070E080E090E00E94A3066AE070E080E066
:1036000090E00E94A30662E087E30E94DC096AE082
:1036100070E080E090E00E94A30685E70E94580ECB
:10362000813709F043C01092C4081092C508109267
:10363000C6081092C7081092C8081092C9081092C4
:10364000CA081092CB081092CC081092CD081092A4
:10365000CE081092CF0881E08093DC081092D00849
:103660001092D1081092D2081092D3081092D40868
:103670001092D5081092D6081092D7081092D80848
:103680001092D9081092DA081092DB088093DD08B6
:1036900088E090E09093DF088093DE088BE60E943C
:1036A000580E682F6F7B8BE60E94DC0968EE73E092
:1036B00080E090E00E94A3068BE10E94580E682FE4
:1036C0006C7F8BE10E94DC098AE10E94580E887FA2
:1036D000682F66608AE10E94DC098BE10E94580E27
:1036E000682F677E8BE10E94DC0911E01093DD08F2
:1036F0008CE10E94580E682F677E8CE10E94DC09E5
:103700001093DC088DE10E94580E682F677F8DE1D1
:103710000E94DC098DE10E94580E887F682F666048
:103720008DE10E94DC0964E670E080E090E00E9498
:10373000A30602E310E0198A1A8A1B8A1C8A1D8AD2
:103740001E8A1F8A188E1D861E861F86188A812C47
:10375000912C54012401350175016401AE014F5FC4
:103760005F4F6BE38AEB98E00E94AF0C69817A812E
:10377000762767277627072E000C880B990B0E9467
:103780002B22698F7A8F8B8F9C8F6B817C81762720
:1037900067277627072E000C880B990B0E942B2297
:1037A0006D8F7E8F8F8F98A36D817E81762767279F
:1037B0007627072E000C880B990B0E942B2269A3F9
:1037C0007AA38BA39CA3298D3A8D4B8D5C8DC70169
:1037D000B6010E9489236B017C012D8D3E8D4F8D9A
:1037E00058A1C301B2010E9489232B013C0129A1E8
:1037F0003AA14BA15CA1C501B4010E9489234B01F0
:103800005C016AEB78E0CE0101960E94210D2981CE
:103810003A814B815C816D857E858F8598890E9478
:1038200089236D877E878F87988B2D813E814F817D
:1038300058856D897E898F89988D0E9489236D8B2B
:103840007E8B8F8B988F29853A854B855C8569891E
:103850007A898B899C890E948923698B7A8B8B8BCF
:103860009C8B61E070E080E090E00E94A306015034
:10387000110909F073CF20E030E048E452E4C701B9
:10388000B6010E9467246093C4087093C5088093B2
:10389000C6089093C70820E030E048E452E4C30132
:1038A000B2010E9467246093C8087093C90880938E
:1038B000CA089093CB0820E030E048E452E4C50108
:1038C000B4010E94672420E030E040E856E40E9402
:1038D00088236093CC087093CD088093CE08909392
:1038E000CF0820E030E048E452E46D857E858F8586
:1038F00098890E9467246093D0087093D1088093C0
:10390000D2089093D30820E030E048E452E46D8977
:103910007E898F89988D0E9467246093D408709364
:10392000D5088093D6089093D70820E030E048E48B
:1039300052E469897A898B899C890E946724609303
:10394000D8087093D9088093DA089093DB0868EC64
:1039500070E080E090E00E94A3060E94240A80911B
:10396000AE048F3F09F4BDC19091AF049F3F09F4AD
:10397000B8C1891741F061E00E949A0361E080912B
:10398000AF040E949A038091AE049091AF0489170E
:1039900019F060E00E942D0361E08CEA94E00E943F
:1039A000B90965E070E080E090E00E94A3064FE571
:1039B00064E08CEA94E00E946A0F90E080E00E944C
:1039C000F00F6DE18CEA94E00E94D90F182F0E944D
:1039D000B70F6DE18CEA94E00E94D90F91E01813C3
:1039E00090E09093BC04882351F0181302C00E9409
:1039F000B70F40E06DE18CEA94E00E946A0F1092EC
:103A0000BE0440E06CE18CEA94E00E946A0F1092E0
:103A1000C0044FE361E08CEA94E00E946A0F43E047
:103A200062E08CEA94E00E946A0F80E28093B50421
:103A300011E14091B504612F8CEA94E00E946A0F75
:103A40001F5F1731B1F743E063E08CEA94E00E9416
:103A50006A0F85E08093BF044CE465E08CEA94E053
:103A60000E946A0F40E767E08CEA94E00E946A0FC8
:103A700062EE8CEA94E00E94C70F61EE8CEA94E05B
:103A80000E94C70F4CE060E08CEA94E00E946A0F4D
:103A900060E08CEA94E00E94D90F8093BB040E94FE
:103AA000820F8091BB048E3009F01BC181E090E051
:103AB0000E94F00F882309F495C066E08CEA94E038
:103AC0000E94D90F482F476066E08CEA94E00E947C
:103AD0006A0F6DE18CEA94E00E94D90F482F446090
:103AE0006DE18CEA94E00E946A0F6CE18CEA94E04C
:103AF0000E94D90F482F4F636CE18CEA94E00E943A
:103B00006A0F81E08093C0044091BB044C604093F5
:103B1000BB0460E08CEA94E00E946A0F61E08CEAEA
:103B200094E00E94D90F482F4D7F61E08CEA94E029
:103B30000E946A0F41E063E08CEA94E00E946A0F01
:103B400083E08093BF048091100290911102A091B4
:103B5000120289839A83AB83E3E5F2E0849143E028
:103B6000BE016F5F7F4F0E94930F62E08CEA94E08A
:103B70000E94D90FEDE4F2E0E49141E050E001C091
:103B8000440FEA95EAF7482B62E08CEA94E00E9441
:103B90006A0F0E94820F4091BB0441604093BB04B6
:103BA00060E08CEA94E00E946A0F40E767E08CEAEC
:103BB00094E00E946A0F8091AE049091AF0489173F
:103BC00019F061E00E942D038091BD04882309F45F
:103BD0006FC04091BF0466EB74E08AE00E94930FCF
:103BE0000E94820F90E080E00E94482390E0909332
:103BF000CA028093C90281E69CE0909301028093FF
:103C0000000280916A00836080936A00EC9A8DE5DF
:103C10009CE090930B0280930A0280916900806C73
:103C200080936900EB9A89E59CE09093070280936A
:103C30000602809169008C6080936900E99AE091A6
:103C40009E03F0919F0382E08083E0919A03F091BC
:103C50009B031082E0919C03F0919D0380E180839F
:103C60001092A603E091A203F091A30386E0808363
:103C7000E091A003F091A103808180618083E091B5
:103C8000A003F091A103808188608083E091A0036C
:103C9000F091A103808180688083E091A003F0917E
:103CA000A10380818F7D808381E08093C7022BC038
:103CB00062E08CEA94E00E94D90FECE4F2E0E49137
:103CC00021E030E001C0220FEA95EAF72095422F6B
:103CD000482362E08CEA94E00E946A0F1092BD04CF
:103CE0007FCFEAEEF4E090E080E021E030E0338B3B
:103CF000228B019632968F30910509F07BC08AEEB7
:103D000094E00E94650C22242394312C0E94BF046D
:103D1000AB01BC018091CB029091CC02A091CD026D
:103D2000B091CE0288579C4EAF4FBF4F48175907EE
:103D30006A077B0758F30E94BF046093CB0270931D
:103D4000CC028093CD029093CE028091C9029091D3
:103D5000CA029093D1048093D00489E099E00E9434
:103D60007F0C81E199E00E947F0C89E199E00E943B
:103D70007F0C88EB98E00E947F0D8AED94E00E9412
:103D8000A60A82ED94E00E94A20C8AEA94E00E94C6
:103D9000291080911D09882371F06091C9027091EA
:103DA000CA026F5F7F4F7093CA026093C90290E0AE
:103DB00080E00E94502380911509882371F0609162
:103DC000C9027091CA02615071097093CA0260936E
:103DD000C90290E080E00E9450230091C902109136
:103DE000CA02011140C0EAEEF4E08AEF9FEF338A85
:103DF000228A13C0AC01435051094330510508F4E5
:103E000076CF8730910509F472CF138A128A71CF69
:103E10008230910560F7138A128A329601968930B2
:103E20009105B1F7C090E204D090E304E090E4047F
:103E3000F090E5042AE939E949E151E4C701B60106
:103E40000E94242287FF48C189E992E00E94B70EB0
:103E50008AEA92E00E94B70EEAEEF4E08DEF9FEF5F
:103E6000138A128AF4C0013091F4EAEEF4E08FEF85
:103E70009FEF138A128A05C082309105D0F7338AEA
:103E8000228A329601968E309105B1F7CBCF02305F
:103E9000B9F4EAEEF4E090E080E09C012D7F25305B
:103EA000310519F08230910541F4138A128A019686
:103EB00032968F30910589F7B5CF338A228AF7CFB2
:103EC0000330C1F4EAEEF4E090E080E09C0124507D
:103ED00031092230310518F08730910541F4138AF9
:103EE000128A019632968F30910581F79BCF338AE3
:103EF000228AF7CF0430C1F4EAEEF4E090E080E0EB
:103F0000138A128A019632968F30910509F48ACF6E
:103F10009C01235031092230310590F387309105FF
:103F200079F3338A228AEECF0530C1F4EAEEF4E069
:103F300090E080E0338A228A0BC08730910531F00F
:103F40008130910519F084309105A1F7138A128A06
:103F5000019632968F30910581F764CF0630A9F42F
:103F6000EAEEF4E090E080E0338A228A08C08730ED
:103F7000910519F081309105B9F7138A128A0196DB
:103F800032968F30910599F74DCF073091F4EAEED4
:103F9000F4E090E080E08330910544F4338A228A93
:103FA000019632968F309105B1F73CCF138A128A71
:103FB000F7CF0830A1F4EAEEF4E090E080E0338A35
:103FC000228A07C087309105D1F710920B05109215
:103FD0000A05019632968F309105A1F723CF09305B
:103FE000A9F4EAEEF4E090E080E0338A228A08C087
:103FF0008730910519F084309105B9F7138A128A38
:10400000019632968F30910599F70CCF0A3008F45B
:1040100009CFEAEEF4E08CEF9FEF9C012D5F3F4F5C
:104020002230310518F08330910540F4338A228A1A
:10403000329601968B30910581F7F4CE138A128A5D
:10404000F7CF8330910508F00BCF338A228A32965E
:1040500001968C309105A9F760E087E10E942D035D
:104060008091C702811111C00E94D50628EE33E06D
:1040700040E050E00E945E23653F7140810591055C
:1040800020F461E087E10E942D0388EF98E00E9410
:104090005A0A8DEC97E00E94120B82EE96E00E9485
:1040A000120B87EF95E00E94120B8AEE94E00E94BB
:1040B000650C61E02091D6043091D7048091D8043A
:1040C0009091D9042817390708F060E086E10E9432
:1040D0002D030E9404081ACE2AE939E941E351E48C
:1040E000C701B6010E94242287FF27C00E94D5067F
:1040F00028EE33E040E050E00E945E23653F7140CF
:1041000081059105D0F48DEA92E00E94B70E8AEA0B
:1041100092E00E94B70EEAEEF4E08DEF9FEF138A73
:10412000128A05C083309105D0F7338A228A3296ED
:1041300001968C309105B1F78FCF80910D098823BE
:1041400031F08091C80291E089278093C802809164
:10415000CA048051990B0817190709F06DC18091A5
:10416000CE0486FF03C021E02093FC086091CB04BD
:10417000062E000C770B880B990B0E942B2220E057
:1041800030E040E251E40E948A226B017C014B0145
:104190005C01AC019B010E949525882309F4B8C0FD
:1041A00089EB92E00E94B70E8AEA92E00E94B70E75
:1041B0006091CB04062E000C770B880B990B0E94A4
:1041C0002B2220E030E040E251E40E948A222B01C1
:1041D0003C016091CC04062E000C770B880B990BE8
:1041E0000E942B2220E030E040E251E40E948A222B
:1041F0004B015C016091CD04062E000C770B880BFF
:10420000990B0E942B222AE037ED43E25DE30E94E6
:104210008A226B017C01B301A2018AE694E00E942C
:104220007F096D877E878F87988BB501A40188E30E
:1042300094E00E947F094B015C012091F4083091C9
:10424000F5084091F6085091F708C701B6010E94A1
:10425000892320919E0430919F044091A0045091A5
:10426000A1040E948A222091A6043091A7044091C3
:10427000A8045091A9040E9489236093A604709316
:10428000A7048093A8049093A9046093A204709358
:10429000A3048093A4049093A50420E030E040E0C0
:1042A00051E40E948A22A70196010E9489237C0181
:1042B0006B01950184014D855E856F85788981E06C
:1042C00090E00E94A310AB01BC018DEC97E00E942E
:1042D000C30A95014D855E856F85788982E090E0FF
:1042E0000E94A310AB01BC0182EE96E00E94C30ABB
:1042F00095014D855E856F85788983E090E00E9409
:10430000A310AB01BC0187EF95E00E94C30AA4CEC5
:1043100026013701E89477F82FEF3FEF4FE75FE78B
:10432000C301B2010E94952581110DC02FEF3FEF0F
:104330004FE75FE7C301B2010E94242218161CF464
:104340008DEB92E02FCF2FEF3FEF4FE75FE4C701F8
:10435000B6010E94362518161CF481EC92E022CF9B
:104360002FEF3FEF4FE75FECC701B6010E94242219
:1043700087FDF3CF20E030E0A901C701B6010E941C
:10438000242287FF0BC06DE28EE893E00E9497071E
:1043900046015701B7FAB094B7F8B0942AE037ED68
:1043A00043EA5BE3C501B4010E9489234B015C0130
:1043B0000E94E0246B017C010E9429229B01AC0138
:1043C000C501B4010E9488234B015C014AE0C7018A
:1043D000B6010E94C40E6EE28EE893E00E94970739
:1043E00020E030E040E251E4C501B4010E948A229D
:1043F0004B015C010E94E0246B01F12CE12C4AE0AE
:10440000C701B6010E94C40EC701B6010E9429224D
:104410009B01AC01C501B4010E94882320E030E07B
:1044200040E251E40E948A220E94E02490E080E071
:104430004AE00E94C40EB8CEC12CD12C76014601B0
:10444000570126013701E7CE0E94662208F481E079
:104450000895E89409C097FB3EF490958095709577
:1044600061957F4F8F4F9F4F9923A9F0F92F96E9C0
:10447000BB279395F695879577956795B795F11135
:10448000F8CFFAF4BB0F11F460FF1BC06F5F7F4FD2
:104490008F4F9F4F16C0882311F096E911C07723E4
:1044A00021F09EE8872F762F05C0662371F096E8ED
:1044B000862F70E060E02AF09A95660F771F881FBC
:1044C000DAF7880F9695879597F90895990F000860
:1044D000550FAA0BE0E8FEEF16161706E807F907D6
:1044E000C0F012161306E407F50798F0621B730B71
:1044F000840B950B39F40A2661F0232B242B252BF2
:1045000021F408950A2609F4A140A6958FEF811D94
:10451000811D08950E949D220C940E230E94002369
:1045200038F00E94072320F0952311F00C94F72215
:104530000C94FD2211240C9442230E941F2370F33B
:10454000959FC1F3950F50E0551F629FF001729F38
:10455000BB27F00DB11D639FAA27F00DB11DAA1F47
:10456000649F6627B00DA11D661F829F2227B00D94
:10457000A11D621F739FB00DA11D621F839FA00D1F
:10458000611D221F749F3327A00D611D231F849F6F
:10459000600D211D822F762F6A2F11249F575040C6
:1045A0009AF0F1F088234AF0EE0FFF1FBB1F661F41
:1045B000771F881F91505040A9F79E3F510580F00A
:1045C0000C94F7220C9442235F3FE4F3983ED4F31B
:1045D000869577956795B795F795E7959F5FC1F7AE
:1045E000FE2B880F911D9695879597F9089597F959
:1045F0009F6780E870E060E008959FEF80EC089589
:1046000000240A94161617061806090608950024B1
:104610000A9412161306140605060895092E03942B
:10462000000C11F4882352F0BB0F40F4BF2B11F49F
:1046300060FF04C06F5F7F4F8F4F9F4F089557FDFE
:104640009058440F551F59F05F3F71F04795880F00
:1046500097FB991F61F09F3F79F087950895121697
:1046600013061406551FF2CF4695F1DF08C0161643
:1046700017061806991FF1CF8695710561050894F4
:104680000895E894BB2766277727CB0197F908950B
:10469000F999FECF92BD81BDF89A992780B508950A
:1046A000262FF999FECF1FBA92BD81BD20BD0FB64E
:1046B000F894FA9AF99A0FBE01960895A1E21A2E7B
:1046C000AA1BBB1BFD010DC0AA1FBB1FEE1FFF1FB6
:1046D000A217B307E407F50720F0A21BB30BE40B06
:1046E000F50B661F771F881F991F1A9469F760954D
:1046F0007095809590959B01AC01BD01CF01089507
:10470000EE0FFF1F881F8BBF0790F691E02D1994C5
:104710005058BB27AA270E94A0230C940E230E9466
:10472000002338F00E94072320F039F49F3F19F44A
:1047300026F40C94FD220EF4E095E7FB0C94F7228E
:10474000E92F0E941F2358F3BA17620773078407E3
:10475000950720F079F4A6F50C9441230EF4E0952A
:104760000B2EBA2FA02D0B01B90190010C01CA012B
:10477000A0011124FF27591B99F0593F50F4503ED6
:1047800068F11A16F040A22F232F342F4427585FC8
:10479000F3CF469537952795A795F0405395C9F7E0
:1047A0007EF41F16BA0B620B730B840BBAF0915098
:1047B000A1F0FF0FBB1F661F771F881FC2F70EC037
:1047C000BA0F621F731F841F48F48795779567950A
:1047D000B795F7959E3F08F0B0CF9395880F08F0F6
:1047E0009927EE0F9795879508950E94002360F012
:1047F00080E891E009F49EEF0E94072328F040E84A
:1048000051E071F45EEF0CC00C94FD220C94412336
:10481000E92FE0780E941F2340F3092E052AB1F307
:10482000261737074807590738F00E2E07F8E025F6
:1048300069F0E025E0640AC0EF6307F8009407FA26
:10484000DB01B9019D01DC01CA01AD01EF930E94BA
:104850007E240E940E230E9438245F91552339F054
:104860002BED3FE049E450FD49EC0C948923089579
:10487000DF93DD27B92FBF7740E85FE316161706F1
:1048800048075B0718F4D92F0E943B259F938F930D
:104890007F936F930E949125E4EEF0E00E940F2534
:1048A0000E940E232F913F914F915F910E949D2274
:1048B000DD2351F09058A2EA2AED3FE049EC5FE396
:1048C000D0785D270E94A023DF910C940E230E94D4
:1048D0007B240C940E230E94072358F00E9400238F
:1048E00040F029F45F3F29F00C94F72251110C9409
:1048F00042230C94FD220E941F2368F39923B1F3F5
:10490000552391F3951B550BBB27AA2762177307F5
:10491000840738F09F5F5F4F220F331F441FAA1F89
:10492000A9F335D00E2E3AF0E0E832D09150504045
:10493000E695001CCAF72BD0FE2F29D0660F771FF3
:10494000881FBB1F261737074807AB07B0E809F0D9
:10495000BB0B802DBF01FF2793585F4F3AF09E3F5E
:10496000510578F00C94F7220C9442235F3FE4F356
:10497000983ED4F3869577956795B795F7959F5FA1
:10498000C9F7880F911D9695879597F90895E1E0ED
:10499000660F771F881FBB1F621773078407BA074C
:1049A00020F0621B730B840BBA0BEE1F88F7E095A7
:1049B00008950E94E0246894B1110C944223089554
:1049C0000E94272388F09F5798F0B92F9927B75155
:1049D000B0F0E1F0660F771F881F991F1AF0BA95A3
:1049E000C9F714C0B13091F00E944123B1E008959D
:1049F0000C944123672F782F8827B85F39F0B93F8F
:104A0000CCF3869577956795B395D9F73EF4909555
:104A10008095709561957F4F8F4F9F4F0895DF93DD
:104A2000CF931F930F93FF92EF92DF927B018C0144
:104A3000689406C0DA2EEF010E949D22FE01E894E0
:104A4000A5912591359145915591A6F3EF010E94CD
:104A5000A023FE019701A801DA9469F7DF90EF9097
:104A6000FF900F911F91CF91DF9108950E946622D0
:104A700008F48FEF08959B01AC0160E070E080E8DE
:104A80009FE30C9467249F930E94B1250F9007FC2D
:104A9000EE5F0C94DA2519F416F40C94FD220C94B4
:104AA0009A250E942723B8F39923C9F3B6F39F5799
:104AB000550B87FF0E94A8250024A0E640EA90013C
:104AC00080585695979528F4805C660F771F881F4D
:104AD00020F026173707480730F4621B730B840B4E
:104AE000202931294A2BA695179407942025312592
:104AF0004A2758F7660F771F881F20F026173707B9
:104B0000480730F4620B730B840B200D311D411DDF
:104B1000A09581F7B901842F9158880F96958795B4
:104B200008959B01AC010C948A220E946622880B96
:104B3000990B08959F3F31F0915020F48795779518
:104B40006795B795880F911D9695879597F9089564
:104B500091505040660F771F881FD2F708950C942C
:104B6000FD220E942723D8F3E894E0E0BB279F575B
:104B7000F0F02AED3FE049EC06C0EE0FBB0F661FD8
:104B8000771F881F28F0B23A62077307840728F05E
:104B9000B25A620B730B840BE3959A9572F78038C7
:104BA00030F49A95BB0F661F771F881FD2F7904885
:104BB0000C949C25EF93E0FF07C0A2EA2AED3FE0AA
:104BC00049EC5FEB0E94A0230E940E230F900394F8
:104BD00001FC9058E1E1F1E00C94EE259F938F9356
:104BE0007F936F93FF93EF939B01AC010E948A2206
:104BF000EF91FF910E940F252F913F914F915F916F
:084C00000C948A22F894FFCF06
:104C0800FD06FD06FD06FD06FD06FD06FD06FD0684
:104C1800ABADAF0000000017020509B209000000A3
:104C280000B7083F08B20900000000120B0000009E
:104C3800006E0241022B0717023A022702180200EF
:104C48000000009707FE062E07E4075F073D07519F
:104C58000700000000B109CB08B2090000000035C8
:104C6800087F09B20900000000C108E106B2090086
:104C7800000000291000000000A20C0000000065E0
:104C88000C000000007F0D000000007F0C000000F9
:104C980000A60A000000005A0A42415454455259DD
:104CA80020435249544943414C000D0A00424154A3
:104CB80054455259204C4F57006E616E00696E661C
:064CC800006F766600009B
:00000001FF
