:100000000C94BD010C9447150C941C150C94F11420
:100010000C94C6140C949B140C9470140C944514FA
:100020000C941A140C94EE010C94EE010C94EE0155
:100030000C94EE010C94EE010C94EE010C94EE0184
:100040000C94EE010C94EE010C94EE010C94EE0174
:100050000C94EE010C94EE010C94EE010C94D01370
:100060000C94EE010C949C150C9472150C94EE01FA
:100070000C94EE010C94EE010C94EE010C94EE0144
:100080000C94EE010C94EE010C94EE010C94EE0134
:100090000C94EE010C94EE010C94EE010C94B01251
:1000A0000C94EE010C94EE010C94EE010C94EE0114
:1000B0000C94EE010C94EE010C94EE010C94EE0104
:1000C0000C94EE010C94EE010C94EE010C94EE01F4
:1000D0000C94EE010C94EE010C94EE010C94EE01E4
:1000E0000C94EE01084AD73B3BCE016E84BCBFFDA9
:1000F000C12F3D6C74319ABD56833DDA3D00C77FF8
:1001000011BED9E4BB4C3E916BAAAABE0000008090
:100110003F05A84CCDB2D44EB93836A9020C50B91F
:10012000918688083CA6AAAA2ABE000000803F004B
:100130000C94C1020C94E4020C946E020C9418020C
:100140000C94E1060C94C1080C9400030C94FC027E
:100150000C9448040C94B1090C94470B0C94CD02F8
:100160000C94AB170C94200E0C94D0020C94FD064A
:100170000C9435080C94F2020C94E8020C9451078C
:100180000C9475040C9493040C9427020C941A0498
:100190000C9452040C94EE020C940B040C94C502C3
:1001A0000C943A020C94E0020C9497070C94B20958
:1001B0000C9424040C94FE060C9441020C94030449
:1001C0000C94430B0C94F6020C943F0B0C943F08D8
:1001D0000C946B040C9489040C943E040C94DA0285
:1001E0000C94730A0C942E040C9410040C944B0B76
:1001F0000C94650B0C947F090C942B070C94CB0882
:100200000C949D040C94BF0A0C945C040C9415117E
:100210000C94650C0C94B7080C94D6020C947F04D3
:100220000C9417020C943D070C94FB020C94E40709
:100230000C9405090C945F070C94BB020C94880B7A
:100240000C9436040C942E070C94C902000102038E
:1002500004050A0B0C0D0E0F0000210024002700DE
:100260002A002D00300033000101000004010701C5
:100270000A0100002200250028002B002E0031007A
:10028000340002010000050108010B0100002000FC
:100290002300260029002C002F003200000100005E
:1002A00003010601090105050505070508080808F9
:1002B000020202020A0A08080404040401010101FE
:1002C00001010101030303030303030304070707F9
:1002D0000C0C0C0C0C0C0C0C02020202060606069E
:1002E000060606060B0B0B0B0B0B0B0B010210206B
:1002F000200808102040102040800201020108045C
:1003000002010102040810204080804020100804EF
:100310000201800402018040201008040201080448
:10032000020101020408102040800102040810208C
:10033000408000000A0B02090C0D0E08070304019F
:1003400000000000000000000000000000000000AD
:10035000000000000000000000000000000012117A
:10036000100000000000000000000000000000007D
:100370000000000000000000AB1711241FBECFEFEB
:10038000D1E2DEBFCDBF00E00CBF29E0A6ECB2E0B9
:1003900001C01D92A534B207E1F712E0A0E0B2E07F
:1003A000ECE1F0E500E00BBF02C007900D92A63C27
:1003B000B107D9F711E0CDEBD1E000E006C02197FD
:1003C0000109802FFE010E948A25CC3BD10780E0E5
:1003D0000807A9F70E94A71B0C940C280C94000096
:1003E00020910103260F3327331F21323105ECF40E
:1003F00020916C03FC0190E080E0243069F082E001
:100400000895A09101032191AC014F515D4FA40FBC
:10041000B52FB11D2C930196861798F38091010397
:10042000680F6093010380E0089581E008950895C6
:10043000E091250380912403E81730F4F0E0EA5DB1
:10044000FC4F808190E008958FEF9FEF0895909189
:100450002503809124032FEF3FEF981748F4E92FED
:10046000F0E0EA5DFC4F208130E09F5F9093250330
:10047000C90108958091240390912503891B990B4C
:100480000895CF92DF92EF92FF920F931F93CF9335
:10049000DF937C01CB018A0120917203222389F032
:1004A000EB016B01C40ED51ECC15DD0569F0699119
:1004B000D701ED91FC910190F081E02DC7011995D4
:1004C000F3CF642F0E94F001C801DF91CF911F91FB
:1004D0000F91FF90EF90DF90CF900895CF93DF932F
:1004E0001F92CDB7DEB76983209172032223F9F002
:1004F00020919503203258F021E030E0FC01338355
:10050000228390E080E00F90DF91CF910895809159
:100510007303E82FF0E0EC58FC4F998190838F5FD4
:10052000809373038093950381E090E0ECCF61E0CA
:10053000CE0101960E94F001F7CF8150823108F080
:100540005AC0E82FF0E08827E755FD4F8F4F0C94F5
:100550008A25C902CD02BB02C102C502FB02D0023C
:10056000D602DA02E002E402E802EE02F202FB0244
:10057000F602FC020003809180008F778093800058
:100580000895809180008F7DF9CF80918000877FD2
:10059000F5CF84B58F7784BD089584B58F7DFBCF6B
:1005A0008091B0008F778093B00008958091B00063
:1005B0008F7DF9CF809190008F7780939000089580
:1005C000809190008F7DF9CF80919000877FF5CF4B
:1005D0008091A0008F778093A00008958091A00063
:1005E0008F7DF9CF8091A000877FF5CF809120018A
:1005F0008F77809320010895809120018F7DF9CF1E
:1006000080912001877FF5CFCF93DF93282F30E0B3
:10061000F901EE5CFC4F8491F901E451FD4FD49156
:10062000F901EA55FD4FC491CC23A1F081110E943C
:100630009D02EC2FF0E0EE0FFF1FE457FD4FA59158
:10064000B491EC91ED2381E090E009F480E0DF913A
:10065000CF91089580E090E0FACF1F93CF93DF937E
:10066000282F30E0F901EE5CFC4F8491F901E45150
:10067000FD4FD491F901EA55FD4FC491CC23A9F067
:10068000162F81110E949D02EC2FF0E0EE0FFF1F4C
:10069000EE58FD4FA591B4918FB7F894EC911111DC
:1006A00008C0D095DE23DC938FBFDF91CF911F91DF
:1006B0000895DE2BF8CF1F93CF93DF93C1E0C09353
:1006C000E002882399F1D091B8001091BA0080918E
:1006D000BC008A7B8093BC0060E084E10E942D0313
:1006E00060E085E10E942D0310926C03C0936B03C0
:1006F0001092460361E084E10E942D0361E085E1F0
:100700000E942D038091B9008E7F8093B900809163
:10071000B9008D7F8093B90088E48093B80085E4A8
:100720008093BC001093BA00D093B800DF91CF91B2
:100730001F910895CF93DF9390E0FC01E451FD4FAA
:1007400024918A559D4FFC0184918823D1F090E03B
:10075000880F991FFC01E85AFD4FA591B491FC0147
:10076000EE58FD4FC591D49161110EC09FB7F8941A
:100770008C91E22FE0958E238C932881E223E883ED
:100780009FBFDF91CF9108958FB7F894EC91E22B42
:10079000EC938FBFF6CF1F93CF93DF93182FEB010E
:1007A00061E00E949A03209739F460E0812FDF9185
:1007B000CF911F910C942D03CF3FD10511F461E02F
:1007C000F5CFE12FF0E0EE5CFC4FE491E150E23137
:1007D00008F0B3C0F0E08827EF50FC4F8F4F0C9427
:1007E0008A2503040B0410041A0424049D042E0417
:1007F00036043E04480452045C046B0475049D04F2
:100800007F048904930484B5806884BDC7BDDF91EB
:10081000CF911F91089584B5806284BDC8BDF7CF84
:1008200080918000806880938000D0938900C0937D
:100830008800EDCF80918000806280938000D0930B
:100840008B00C0938A00E3CF809180008860809302
:100850008000D0938D00C0938C00D9CF8091B000E0
:1008600080688093B000C093B300D1CF8091B00076
:1008700080628093B000C093B400C9CF8091900093
:10088000806880939000D0939900C0939800BFCF68
:1008900080919000806280939000D0939B00C093E1
:1008A0009A00B5CF80919000886080939000D0939B
:1008B0009D00C0939C00ABCF8091A0008068809386
:1008C000A0008091A0008F7B8093A000D093A9000E
:1008D000C093A8009CCF8091A00080628093A0006C
:1008E000D093AB00C093AA0092CF8091A000886003
:1008F0008093A000D093AD00C093AC0088CF8091CE
:100900002001806880932001D0932901C0932801A1
:100910007ECF80912001806280932001D0932B01B3
:10092000C0932A0174CF80912001886080932001B8
:10093000D0932D01C0932C016ACFC038D1050CF0A3
:100940003ECF33CF863308F0865320917B00982F1B
:100950009870277F922B90937B00877080648093A0
:100960007C0080917A00806480937A0080917A0084
:1009700086FDFCCF809178009091790008953FB773
:10098000F8948091DC029091DD02A091DE02B0919A
:10099000DF0226B5A89B05C02F3F19F00196A11DC7
:1009A000B11D3FBFBA2FA92F982F8827BC01CD01B9
:1009B000620F711D811D911D42E0660F771F881F18
:1009C000991F4A95D1F708958F929F92AF92BF9247
:1009D000CF92DF92EF92FF920F931F93CF93DF930B
:1009E000D0919503D13208F0D7C0182FC09194034D
:1009F0000E94BF046B017C0180916C0381116BC06C
:100A000082E080936C0310936B038FEF80936A03F3
:100A100010926903D0936803A4E7B3E0E8E4F3E03D
:100A200080E0D81391C01092470380914703CC0F08
:100A3000C82BC093470380914603813009F088C0DA
:100A4000109246030E94BF046B017C018091470312
:100A50008093BB0080916E0390916F03A09170030F
:100A6000B0917103892B8A2B8B2BA1F00E94BF04BC
:100A700000916E0310916F03209170033091710308
:100A80006C197D098E099F09061717072807390772
:100A900008F442C08091BC0083FDD8CF85EC8093E0
:100AA000BC000E94BF046B017C0180916C0382300A
:100AB00009F450C080916A038F3F09F46FC08091A0
:100AC0006A03803209F46CC080916A03803309F4B0
:100AD00069C084E026C080916E0390916F03A0915D
:100AE0007003B0917103892B8A2B8B2B09F484CF6F
:100AF0000E94BF0480906E0390906F03A0907003DB
:100B0000B09071036C197D098E099F0986169706AE
:100B1000A806B90608F070CF80916D030E945B03B0
:100B200085E0109273031092950310927203DF9187
:100B3000CF911F910F91FF90EF90DF90CF90BF90DA
:100B4000AF909F908F9008959D9191938F5F69CF03
:100B500085EEA5CF80916E0390916F03A0917003F5
:100B6000B0917103892B8A2B8B2B09F49ECF0E94A5
:100B7000BF0400916E0310916F03209170033091B8
:100B800071036C197D098E099F090617170728073D
:100B9000390708F08ACFC0CF81E0C3CF80E0C1CF52
:100BA00082E0BFCF83E0BDCFCF92DF92EF92FF9282
:100BB0000F931F93CF93DF93D82FC62F613208F086
:100BC00098C00E94BF046B017C0180916C0381116D
:100BD0006BC081E080936C0380936B039FEF9093D5
:100BE0006A03109269039C0F9093680380934703F4
:100BF00080914703DD0FD82BD093470380914603A4
:100C0000813009F078C0109246030E94BF046B0146
:100C10007C01809147038093BB0080916E0390918B
:100C20006F03A0917003B0917103892B8A2B8B2BDA
:100C3000A1F00E94BF0400916E0310916F032091F8
:100C40007003309171036C197D098E099F09061795
:100C500017072807390708F448C08091BC0083FDB6
:100C6000D8CF85EC8093BC000E94BF046B017C014F
:100C700080916C03813009F440C0809169038C1726
:100C800010F4C0916903E8E4F3E0A6E2B3E080E089
:100C90008C1355C08C2FDF91CF911F910F91FF9036
:100CA000EF90DF90CF90089580916E0390916F0345
:100CB000A0917003B0917103892B8A2B8B2B09F4BF
:100CC00084CF0E94BF0400916E0310916F032091A6
:100CD0007003309171036C197D098E099F09061705
:100CE00017072807390708F070CF80916D030E941D
:100CF0005B03C0E0CFCF85EEB5CF80916E039091BE
:100D00006F03A0917003B0917103892B8A2B8B2BF9
:100D100009F4AECF0E94BF0400916E0310916F03DF
:100D200020917003309171036C197D098E099F0920
:100D3000061717072807390708F09ACFD6CF9191E1
:100D40009D938F5FA5CF8F929F92AF92BF92CF92CC
:100D5000DF92EF92FF924B015C010E94BF046B0196
:100D60007C010E94BF046C197D098E099F09683EB1
:100D7000734081059105A8F321E0821A9108A1082A
:100D8000B10888EEC80E83E0D81EE11CF11C811466
:100D90009104A104B10429F7FF90EF90DF90CF9068
:100DA000BF90AF909F908F9008952FB7F894609167
:100DB000D8027091D9028091DA029091DB022FBFA4
:100DC0000895CF93DF93EC01CB01BA012A813B81D7
:100DD0004C815D810E9494242A853B854C855D85EC
:100DE0000E9493256A877B878C879D876E837F838C
:100DF00088879987DF91CF9108950895AF92BF9228
:100E0000CF92DF92EF92FF920F931F93CF93DF93D6
:100E10006C017B018B01040F151FEB015E01AE1805
:100E2000BF08C017D10759F06991D601ED91FC9127
:100E30000190F081E02DC6011995892B79F7C50144
:100E4000DF91CF911F910F91FF90EF90DF90CF90A6
:100E5000BF90AF90089590E080E00895FC01538D1D
:100E6000448D252F30E0842F90E0821B930B541784
:100E700010F0CF96089501970895FC01918D828D11
:100E8000981761F0A28DAE0FBF2FB11D5D968C91AA
:100E9000928D9F5F9F73928F90E008958FEF9FEFE9
:100EA0000895FC01918D828D981731F0828DE80FA5
:100EB000F11D858D90E008958FEF9FEF0895FC015F
:100EC000918D228D892F90E0805C9F4F821B91092C
:100ED0008F739927089586E993E00E945F0721E0C8
:100EE000892B09F420E0822F0895FC01A48DA80F1E
:100EF000B92FB11DA35ABF4F2C91848D90E001965C
:100F00008F739927848FA689B7892C93A089B1897B
:100F10008C91837080648C93938D848D981306C01C
:100F20000288F389E02D80818F7D80830895EF9280
:100F3000FF920F931F93CF93DF93EC0181E0888F93
:100F40009B8D8C8D98131AC0E889F989808185FF63
:100F500015C09FB7F894EE89FF896083E889F98905
:100F600080818370806480839FBF81E090E0DF9107
:100F7000CF911F910F91FF90EF900895F62E0B8D5A
:100F800010E00F5F1F4F0F731127E02E8C8D8E1115
:100F90000CC00FB607FCFACFE889F989808185FF7C
:100FA000F5CFCE010E947507F1CFEB8DEC0FFD2F31
:100FB000F11DE35AFF4FF0829FB7F8940B8FEA8937
:100FC000FB8980818062CFCFCF93DF93EC01888D46
:100FD0008823B9F0AA89BB89E889F9898C9185FDB4
:100FE00003C0808186FD0DC00FB607FCF7CF8C9142
:100FF00085FFF2CF808185FFEDCFCE010E9475077E
:10100000E9CFDF91CF91089580E090E0892B29F01E
:101010000E946B0781110E94000080E090E0892B04
:1010200049F080E090E0892B29F00E9400008111B6
:101030000E94000080E090E0892B49F080E090E081
:10104000892B29F00E94000081110E94000080E09D
:1010500090E0892B49F080E090E0892B29F00E94F4
:10106000000081110C9400000895FC01148A158A77
:10107000168A178A108A118A128A138A08958F9203
:101080009F92AF92BF92CF92DF92EF92FF92CF9357
:10109000DF93EC01CB01BA0188889988AA88BB88C4
:1010A000A50194010E9492256B017C018C8D8823FF
:1010B00001F12AED3FE049E450E4C701B6010E9486
:1010C00040271816BCF52BED3FE049EC50E4C70172
:1010D000B6010E9492256B017C012BED3FE049ECAB
:1010E00050E4C501B4010E9493256C8B7D8B8E8BDF
:1010F0009F8B288D398D4A8D5B8DC701B6010E946B
:101100007126AB01BC014E835F8368877987CE016E
:101110000A960E94E1066E817F8188859985DF911C
:10112000CF91FF90EF90DF90CF90BF90AF909F90C6
:101130008F9008952BED3FE049EC50ECC701B601CC
:101140000E942E2487FFD5CF2BED3FE049EC50E4E1
:10115000C701B6010E9493256B017C012BED3FE096
:1011600049EC50E4C501B4010E949225BECFFC01B8
:10117000148A158A168A178A108A118A128A138A83
:101180000895FC011286138614861586168217822E
:10119000108611860895AF92BF92CF92DF92EF92A0
:1011A000FF920F931F93CF93DF93EC015A016B01D2
:1011B000EA84FB840C851D859A01AB01B701C80147
:1011C0000E944027181674F0EE84FF84088919895C
:1011D0009501A601B701C8010E942E2487FD02C017
:1011E00075018601C701D8018E839F83A887B987BF
:1011F000B701C801DF91CF911F910F91FF90EF9040
:10120000DF90CF90BF90AF9008954F925F926F9212
:101210007F928F929F92AF92BF92CF92DF92EF9286
:10122000FF920F931F93CF93DF93EC016A017B0131
:101230002A853B854C855D85CB01B6010E949424AF
:101240004B015C014E845F84688879882C893D89D4
:101250004E895F89C701B6010E9494242C8D3D8D73
:101260004E8D5F8D0E9493259B01AC012C8F3D8F8D
:101270004E8F5F8F288F398F4A8F5B8FC301B201EA
:101280000E949424A50194010E9493254B015C01C6
:101290008E829F82A886B9868E01005E1F4FBC0198
:1012A000A401C8010E94CB089B01AC01C501B40197
:1012B0000E942E24882339F0B701A6017058CE0170
:1012C00042960E94E1064E815F8168857985C8015A
:1012D0000E94CB086E837F8388879987DF91CF91A7
:1012E0001F910F91FF90EF90DF90CF90BF90AF9044
:1012F0009F908F907F906F905F904F900895CF93C5
:10130000DF93EC01CB01BA012E813F8148855985DD
:101310000E9492252AA53BA54CA55DA50E94942478
:10132000AB01BC01CE0148960E94CB082C853D85BF
:101330004E855F850E9494242C893D894E895F8962
:101340000E9493256C8B7D8B8E8B9F8B688B798B0A
:101350008A8B9B8B6E837F8388879987DF91CF9160
:1013600008950895DC01ED91FC910280F381E02D58
:101370001994CF93DF93EC018B810E942D038A8D0A
:101380009B8D8230910538F0880F991F880F991F27
:1013900005970197F1F7DF91CF910895089561E0E6
:1013A0000C94B9098EBD00000DB407FEFDCF8EB5BB
:1013B00008958CBD9DBD0895CF93DF93D82FC62F80
:1013C0008091E708811128C08091DE089091DF08A4
:1013D0002091E40831E0309372032093940310923B
:1013E000730310929503DC01ED91FC910190F08163
:1013F000E02D6D2F19958091DE089091DF08DC01BA
:10140000ED91FC910190F081E02D6C2F199581E018
:10141000DF91CF910C94E4048091E2089091E3086D
:101420000E94D90960E08091E5080E942D038D2F6C
:101430000E94D2098C2F0E94D20961E08091E508B8
:10144000DF91CF910C942D03CF93DF93D82FC62F2C
:101450006CE885E20E94DC096D2F86E20E94DC09BF
:101460006C2F606887E20E94DC096AE070E080E02F
:1014700090E0DF91CF910C94A306CF93CFB7F8946F
:101480008091C602811127C0EBEDF2E08491E1E288
:10149000F3E09491E82FF0E0EE0FFF1FE85AFD4FC4
:1014A000A591B491EC91E92321F461E085E30E94D8
:1014B0002D0361E085E30E949A038CB580618CBDA9
:1014C0008CB580648CBD61E084E30E949A0361E086
:1014D00083E30E949A038091C6028F5F8093C602C5
:1014E000CFBFCF9108950F931F93CF93DF93EC015C
:1014F0008C81882341F10E94D506AB01BC018D810E
:101500009E81AF81B88509851A852B853C85800F22
:10151000911FA21FB31F481759076A077B0740F4A2
:101520001C8284E090E0DF91CF911F910F9108958C
:1015300061E08A810E942D030E94D5066D837E831F
:101540008F8398871C820E94D506AB01BC018D81D8
:101550009E81AF81B8850D851E852F853889800FC6
:10156000911FA21FB31F84179507A607B70720F482
:1015700060E08A810E942D0390E080E0D4CFCF9379
:10158000DF93EC018A810E94A204BC01990F880BB1
:10159000990B0E9435249B01AC016C857D858E855D
:1015A0009F850E949424688779878A879B8790E02B
:1015B00080E0DF91CF9108954F925F926F927F927A
:1015C0008F929F92AF92BF92CF92DF92EF92FF9253
:1015D0000F931F93CF93DF93EC014A018B015C01C2
:1015E0008AE6A80EB11C4C885D886E887F887301DE
:1015F0006201F7FAF094F7F8F0949A01AB01C70191
:10160000B6010E944027181664F09401A801C30196
:10161000B2010E942E247301620187FD02C06401A1
:101620007801B701A601C5010E947F096CAB7DABB3
:101630008EAB9FABDF91CF911F910F91FF90EF90F9
:10164000DF90CF90BF90AF909F908F907F906F90E2
:101650005F904F900895CF93DF93EC018A850E94AD
:1016600004032C853D85892B39F02F5F3F4F3D8743
:101670002C87DF91CF91089521503109F8CF8BE16C
:1016800096E00C942B0B86E097E00C942B0B81EFEB
:1016900097E00C942B0B0F931F93CF93DF93EC01E8
:1016A00022968C01005E1F4FC017D10739F0FE0152
:1016B0006889229680810E942D03F6CF90E080E019
:1016C000DF91CF911F910F910895CF93DF93EC019C
:1016D0008A810E940403AC0191E04115510509F48F
:1016E00090E09E832F81222321F081E04115510556
:1016F00009F080E08C83211103C021E0452B09F41F
:1017000020E02D839F8390E080E0DF91CF910895CA
:10171000CF93DF93EC018A810E94A2049D838C8386
:1017200090E080E0DF91CF910895EF92FF920F93C8
:101730001F93CF93DF93EC01162F7A0189858111D6
:1017400043C0888199812E8131E0309372032093C8
:1017500094031092730310929503DC01ED91FC91B8
:101760000190F081E02D199580E00E94E40466E08C
:101770008E810E94D40510922503809324038881D2
:101780009981DC01ED91FC910084F185E02D1995A2
:10179000892B99F08701B6E0EB0EF11C88819981C5
:1017A000DC01ED91FC910284F385E02D1995F8019F
:1017B00081938F01EE15FF0589F7DF91CF911F917E
:1017C0000F91FF90EF9008958C819D810E94D9091F
:1017D00060E08F810E942D03812F80680E94D209D2
:1017E0008701F6E0EF0EF11C80E00E94D209D801DB
:1017F0008D938D01AE15BF05B9F761E08F81DF9143
:10180000CF911F910F91FF90EF900C942D038F9229
:101810009F92AF92BF92CF92DF92EF92FF920F937F
:101820001F93CF93DF9300D000D0CDB7DEB78C01EC
:10183000CB01AE014F5F5F4F63E40E94950B69815E
:101840007A81762767277627072E000C880B990B5D
:101850000E9435244B015C016B817C8176276727D0
:101860007627072E000C880B990B0E9435246B01FC
:101870007C016D817E81762767277627072E000CF5
:10188000880B990B0E943524F80180829182A282F4
:10189000B382C482D582E682F782608771878287AD
:1018A0009387C80126960FB6F894DEBF0FBECDBF52
:1018B000DF91CF911F910F91FF90EF90DF90CF902C
:1018C000BF90AF909F908F9008954F925F926F92CC
:1018D0007F928F929F92AF92BF92CF92DF92EF92C0
:1018E000FF920F931F93CF93DF93CDB7DEB760972F
:1018F0000FB6F894DEBF0FBECDBF8C01BC016E5F8A
:101900007F4FCE0101960E94070CF801F5A06F2DC4
:1019100070E090E080E00E9435244B015C016F2D67
:1019200070E090E080E00E94332420E030E04AE75D
:1019300053E40E94942420E030E040E058E30E9409
:1019400094246B017C01A5019401F801608D718DD7
:10195000828D938D0E9471269B01AC0169817A81F1
:101960008B819C810E949225A70196010E9494245C
:101970002B013C01A5019401F801648D758D868DC4
:10198000978D0E9471269B01AC016D817E818F81B4
:1019900098850E949225A70196010E9494246D8744
:1019A0007E878F87988BA5019401F80160A171A1B2
:1019B00082A193A10E9471269B01AC0169857A8561
:1019C0008B859C850E949225A70196010E949424F4
:1019D0006B017C012BED3FE049E450E4C301B2010F
:1019E0000E94942420E030E044E353E40E947126F6
:1019F000F80164AB75AB86AB97AB2BED3FE049E4E8
:101A000050E46D857E858F8598890E94942420E01E
:101A100030E044E353E40E947126F80160AF71AFF7
:101A200082AF93AF2BED3FE049E450E4C701B6012C
:101A30000E94942420E030E044E353E40E947126A5
:101A4000F80164AF75AF86AF97AF90E080E0609625
:101A50000FB6F894DEBF0FBECDBFDF91CF911F91BF
:101A60000F91FF90EF90DF90CF90BF90AF909F903D
:101A70008F907F906F905F904F900895CF93C82F75
:101A80008091E708811140C08091DE089091DF08C5
:101A90002091E40831E03093720320939403109274
:101AA000730310929503DC01ED91FC910190F0819C
:101AB000E02D6C2F199580E00E94E40461E0809194
:101AC000E4080E94D405109225038093240380919A
:101AD000DE089091DF08DC01ED91FC910084F18536
:101AE000E02D1995C0E0892B61F08091DE0890917E
:101AF000DF08DC01ED91FC910284F385E02D19955E
:101B0000C82F8C2FCF9108958091E2089091E3081F
:101B10000E94D90960E08091E5080E942D038C2F76
:101B200080680E94D20980E00E94D209C82F61E03B
:101B30008091E5080E942D03E4CF8DE10E943E0DC7
:101B4000887F682F66608DE10C94DC098CE10E942F
:101B50003E0D682F677E8CE10E94DC0981E0809356
:101B6000000908958BE10E943E0D682F677E8BE18E
:101B70000E94DC0981E08093010908958AE10E94B6
:101B80003E0D887F682F66608AE10C94DC098BE14A
:101B90000E943E0D682F6C7F8BE10C94DC09FC01E8
:101BA00001900020E9F73197AF01481B590BBC01A8
:101BB00086E993E00C94FE068F929F92AF92BF92BB
:101BC0000F931F93CF93DF93CDB7DEB7A1970FB6D7
:101BD000F894DEBF0FBECDBF19A2423008F44AE030
:101BE0008E010F5D1F4F842E912CB12CA12CA501CD
:101BF00094010E946825E62FB901CA01EA30F4F485
:101C0000E05DD801EE938D01232B242B252B79F752
:101C100090E080E0109719F0CD010E94CF0DA196C1
:101C20000FB6F894DEBF0FBECDBFDF91CF911F91ED
:101C30000F91BF90AF909F908F900895E95CE1CF96
:101C40004F925F926F927F928F929F92AF92BF92CC
:101C5000CF92DF92EF92FF92CF93DF93EC016C85EE
:101C60007D85072E000C880B990B0E9435246B0193
:101C70007C011D861C866E857F85072E000C880BD7
:101C8000990B0E9435249B01AC01C701B6010E944B
:101C900071262BED3FE049E450E40E9494249B011F
:101CA000AC010E94932528A539A54AA55BA50E94F1
:101CB0009325AB01BC0148A759A76AA77BA7CE0112
:101CC00082539F4F0E943F084B015C0188AA99AA4A
:101CD000AAAABBAACCA8DDA8EEA8FFA8288D398D9A
:101CE0004A8D5B8DC701B6010E9494242B013C01F3
:101CF000A5019401C701B6010E949225AB01BC0168
:101D0000CE01C8960E9405099B01AC01C301B20136
:101D10000E9493256B017C01AC019B010E949F27CF
:101D2000882321F189E992E00E94CF0D85EA92E0B3
:101D30000E94CF0D20E030E0A901C701B6010E944A
:101D4000402718160CF0A4C020E030E040EC5FE320
:101D5000C701B6010E94402787FFA5C06FEF70E062
:101D60008A810E94CB036FEF70E01BC146015701CF
:101D7000E894B7F82FEF3FEF4FE75FE7C501B401F5
:101D80000E949F2781110DC02FEF3FEF4FE75FE7C4
:101D9000C501B4010E942E2418161CF48DE992E0AE
:101DA000C3CF2FEF3FEF4FE75FE4C701B6010E94BB
:101DB000402718161CF481EA92E0B6CF2FEF3FEFD0
:101DC0004FE75FECC701B6010E942E2487FDF3CFD9
:101DD00020E030E0A901C701B6010E942E2487FF50
:101DE00054C06DE286E993E00E949707C701B601EF
:101DF00090582AE037ED43EA5BE30E9493252B01DC
:101E00003C010E94EA264B015C010E9433249B01A5
:101E1000AC01C301B2010E9492252B013C014AE0B2
:101E2000C501B4010E94DC0D6EE286E993E00E94D8
:101E3000970720E030E040E251E4C301B2010E9484
:101E400094242B013C010E94EA264B01B12CA12CC9
:101E50004AE0C501B4010E94DC0DC501B4010E9435
:101E600033249B01AC01C301B2010E94922520E002
:101E700030E040E251E40E9494240E94EA2690E07F
:101E800080E04AE00E94DC0D51CFC701B601B1CF1E
:101E900020E030E040EC5FEBC701B6010E942E2449
:101EA00018160CF45BCF5E018CE9A80EB11CB701CB
:101EB000A601C5010E947F0920E030E04FE753E40E
:101EC0000E949424288939894A895B890E94712655
:101ED00020E030E04FE753EC0E942E2487FD7DC0C8
:101EE000B701A601C5010E947F0920E030E04FE75D
:101EF00053E40E949424288939894A895B890E9485
:101F0000712620E030E04FE753E40E944027181686
:101F10005CF1B701A601C5010E947F0920E030E015
:101F20004FE753E40E949424288939894A895B89C0
:101F30000E9471266B017C0120E030E0A9010E9423
:101F400040271816BCF020E030E04FE753E4C7010B
:101F5000B6010E9493250E94E3267F836E838FEF54
:101F600090E09987888716C0C12CD12C9FE7E92E75
:101F700093E4F92E8FEF90E09F838E83A701960163
:101F800060E070E08FE793E40E9492250E94E326D0
:101F9000798768876E817F818A810E94CB036885FB
:101FA00079858C810E94CB0388A599A5AAA5BBA59C
:101FB0008CA79DA7AEA7BFA790E080E0DF91CF914F
:101FC000FF90EF90DF90CF90BF90AF909F908F9059
:101FD0007F906F905F904F900895C12CD12C8FE728
:101FE000E82E83ECF82EAFCF85ED8093BC00809176
:101FF0006E0390916F03A0917003B09171030796E7
:10200000A11DB11D23E0B695A795979587952A95B3
:10201000D1F72091BC0024FD03C010926C030895F9
:1020200040916E0350916F03609170037091710342
:10203000452B462B472B69F30097A105B10541F0CD
:102040002AE22A95F1F700C00197A109B109E1CF71
:1020500080916D030C945B030F931F93CF93DF93D9
:10206000EC010C811D812E813F8140E052E16AE745
:1020700070E090E0041715072607370740F47695BF
:102080006795579547959F5F9630A1F797E0892F01
:10209000806A9095869591700E94D90960E0CE0182
:1020A000DF91CF911F910F910C94B9090F931F935A
:1020B000CF93DF93EC01062F142F0E942C10802F5A
:1020C00080620E94D2098887812F0E94D209CE01A6
:1020D000DF91CF911F910F910C94CF094091DF04B4
:1020E00041FD0CC042604093DF0460E080ED94E06D
:1020F0000E9456108BE19EE40197F1F70895FF923C
:102100000F931F93CF93DF93C82FF62E072F142F13
:1021100080ED94E00E942C108C2F80620E94D209E6
:102120008093D804CF2DD02F115020F089910E9498
:10213000D209FACF80ED94E0DF91CF911F910F91FA
:10214000FF900C94CF0980ED94E00E942C1080E564
:102150000E94D2098093D80483E70E94D20980EDBF
:1021600094E00C94CF091F93CF93DF93EC01162FCB
:102170000E942C10812F80620E94D2098887CE0194
:10218000DF91CF911F910C94CF091F93CF93DF93D1
:10219000EC01162F0E942C10812F0E94D2098887F3
:1021A0008FEF0E94D209182FCE010E94CF09812FF4
:1021B000DF91CF911F910895CF93DF93EC0166E0FB
:1021C00080ED94E00E94C510877D219701F145E5DF
:1021D00050E060E070E04093E6045093E7046093C1
:1021E000E8047093E904C0E0C82B4C2F66E080ED52
:1021F00094E00E94561066E080ED94E00E94C510C5
:1022000091E0C81390E0892FDF91CF91089541E4C8
:1022100050E060E070E04093E6045093E704609380
:10222000E8047093E904C8E0DFCF9F92AF92BF92B9
:10223000CF92DF92EF92FF920F931F93CF93DF9392
:1022400000D000D0CDB7DEB78C016C0182E0C80EA3
:10225000D11C9924939467E1C6010E94C51080FDAA
:102260004AC0F801868981111EC08385E82E873017
:1022700010F096E0E92EF82EFE18C6010E942C10F0
:1022800081E60E94D209F8018287CE0101965C01A5
:10229000EA949FEFE91659F08FEF0E94D209F501F9
:1022A00081935F01F5CFF12C86E0E82EE6CFFA941A
:1022B000FFEFFF1621F08FEF0E94D209F8CFC60181
:1022C0000E94CF0940E467E0C6010E9456102981B0
:1022D000F80186A197A140962817190609F0BBCFEF
:1022E00020A38A8181A38B8182A38C8183A38E8189
:1022F00084A395A2B0CF90E080E026960FB6F89424
:10230000DEBF0FBECDBFDF91CF911F910F91FF9028
:10231000EF90DF90CF90BF90AF909F9008954F9235
:102320005F926F927F928F929F92AF92BF92CF9265
:10233000DF92EF92FF920F931F93CF93DF93CDB76E
:10234000DEB72E970FB6F894DEBF0FBECDBF9E87C7
:102350008D874A015B012801390120E030E84BEB11
:1023600054ECCB01B4010E942E2487FDBFC020E0B5
:1023700030E84BEB54E4C501B4010E944027181625
:102380000CF4BCC020E030E84BEB54ECC301B201CC
:102390000E942E2487FDBAC020E030E84BEB54E4C5
:1023A000C301B2010E94402718160CF4B7C020E008
:1023B00030E040E051ECC701B6010E942E2487FDB9
:1023C000B5C020E030E040E051E4C701B6010E9412
:1023D000402718160CF4B0C0A5019401C501B40142
:1023E0000E94942469837A838B839C83A301920146
:1023F000C301B2010E9494249B01AC0169817A81DE
:102400008B819C810E9493250E945B2769837A833C
:102410008B839C8320E030E044EB52E4C701B6019B
:102420000E9494246B017C01A30192015058C501C4
:10243000B4010E9412264B015C012DE633EB44E807
:102440005FE30E9492250E944D276D837E838F83D8
:1024500098872BED3FE049E450E4C501B4010E94A8
:1024600092250E944D2769877A878B879C872DE666
:1024700033EB44E85FE3C501B4010E9493250E9459
:102480004D272D853E852230310509F45BC0233070
:10249000310509F460C029813A814B815C816D81ED
:1024A0007E818F8198850E949424A70196010E94C5
:1024B000932520E030E04CEB51E40E9471262E96EB
:1024C0000FB6F894DEBF0FBECDBFDF91CF911F9145
:1024D0000F91FF90EF90DF90CF90BF90AF909F90C3
:1024E0008F907F906F905F904F900895812C50E86F
:1024F000952E5BEBA52E54ECB52E44CF812C40E8F5
:10250000942E4BEBA42E44E4B42E3CCF412C30E867
:10251000532E3BEB632E34EC732E49CF412C20E835
:10252000522E2BEB622E24E4722E41CFC12CD12CE3
:10253000E12C91ECF92E50CFC12CD12CE12C81E46F
:10254000F82E4ACF29813A814B815C8169857A8551
:102550008B859C85A8CF29813A814B815C81A3CF53
:102560001F920F920FB60F9211240BB60F922F935A
:102570003F934F935F936F937F938F939F93AF930B
:10258000BF93EF93FF938091B900887F803609F461
:102590004DC008F040C0883209F4A7C028F580314A
:1025A00009F49BC0C8F4882309F4F7C0883009F403
:1025B00094C0FF91EF91BF91AF919F918F917F91C7
:1025C0006F915F914F913F912F910F900BBE0F90A4
:1025D0000FBE0F901F901895883109F486C0803285
:1025E00041F780936A0314C0803409F49BC040F41F
:1025F0008033B9F38833E9F680936A0385ECAEC083
:10260000803509F483C0883509F494C0883489F68C
:102610000E94F40FCECF883909F48AC038F5883784
:1026200029F050F4883611F0803719F683E0809352
:102630006C031092230355C0883809F479C080399F
:1026400019F0803809F0B5CF80912303803208F06B
:102650006FC0E091230381E08E0F8093230380916C
:10266000BB00F0E0ED5FFC4F80833BC0803B39F066
:10267000D0F4803A09F477C0883A09F09ACF84E020
:1026800080936C031092020310920103F0E0E0E0EB
:1026900019958091010381110FC081E0809301039E
:1026A0001092E10209C0803C09F4A8CF883C09F4EB
:1026B000A5CF883B09F07DCFE091020381E08E0F2A
:1026C00080930203F0E0EF51FD4F80818093BB00C7
:1026D000909102038091010329C080914703809368
:1026E000BB0085EC8093BC0064CF9091690380911E
:1026F0006803981758F5E091690381E08E0F809385
:102700006903F0E0E85BFC4F8081E9CFE091690369
:1027100081E08E0F809369038091BB00F0E0E85B5D
:10272000FC4F808390916903809168039817C8F2E9
:1027300085E8D8CFE091690381E08E0F809369032B
:102740008091BB00F0E0E85BFC4F808380916B03DD
:1027500081115ECF81E08093460384EA8093BC00C0
:1027600010926C0326CF85EC8093BC0010926C0312
:1027700080912303803230F4E0912303F0E0ED5F99
:10278000FC4F10826091230370E083E093E0F0E05F
:10279000E0E01995109223030CCF10926A0338CF12
:1027A0001F920F920FB60F9211242F933F938F9386
:1027B0009F93AF93BF938091D8029091D902A0913B
:1027C000DA02B091DB023091D70223E0230F2D37DC
:1027D00058F50196A11DB11D2093D7028093D80210
:1027E0009093D902A093DA02B093DB028091DC02CD
:1027F0009091DD02A091DE02B091DF020196A11D51
:10280000B11D8093DC029093DD02A093DE02B093B1
:10281000DF02BF91AF919F918F913F912F910F90C8
:102820000FBE0F901F90189526E8230F0296A11D4A
:10283000B11DD2CF1F920F920FB60F9211240BB67B
:102840000F922F933F934F935F936F937F938F9349
:102850009F93AF93BF93EF93FF93E0910E02F0919C
:102860000F021995FF91EF91BF91AF919F918F91B9
:102870007F916F915F914F913F912F910F900BBE80
:102880000F900FBE0F901F9018951F920F920FB6CA
:102890000F9211240BB60F922F933F934F935F9398
:1028A0006F937F938F939F93AF93BF93EF93FF9318
:1028B000E0910C02F0910D021995FF91EF91BF91FB
:1028C000AF919F918F917F916F915F914F913F91C8
:1028D0002F910F900BBE0F900FBE0F901F90189569
:1028E0001F920F920FB60F9211240BB60F922F93D7
:1028F0003F934F935F936F937F938F939F93AF9388
:10290000BF93EF93FF93E0910202F09103021995B8
:10291000FF91EF91BF91AF919F918F917F916F91B7
:102920005F914F913F912F910F900BBE0F900FBE73
:102930000F901F9018951F920F920FB60F921124AF
:102940000BB60F922F933F934F935F936F937F93A9
:102950008F939F93AF93BF93EF93FF93E091000208
:10296000F09101021995FF91EF91BF91AF919F9165
:102970008F917F916F915F914F913F912F910F9028
:102980000BBE0F900FBE0F901F9018951F920F92C5
:102990000FB60F9211240BB60F922F933F934F93C4
:1029A0005F936F937F938F939F93AF93BF93EF93B7
:1029B000FF93E0910A02F0910B021995FF91EF91BC
:1029C000BF91AF919F918F917F916F915F914F9147
:1029D0003F912F910F900BBE0F900FBE0F901F9045
:1029E00018951F920F920FB60F9211240BB60F92EB
:1029F0002F933F934F935F936F937F938F939F9307
:102A0000AF93BF93EF93FF93E0910802F091090217
:102A10001995FF91EF91BF91AF919F918F917F9108
:102A20006F915F914F913F912F910F900BBE0F903F
:102A30000FBE0F901F9018951F920F920FB60F9216
:102A400011240BB60F922F933F934F935F936F9385
:102A50007F938F939F93AF93BF93EF93FF93E091F7
:102A60000602F09107021995FF91EF91BF91AF9186
:102A70009F918F917F916F915F914F913F912F9196
:102A80000F900BBE0F900FBE0F901F9018951F92C6
:102A90000F920FB60F9211240BB60F922F933F9304
:102AA0004F935F936F937F938F939F93AF93BF9356
:102AB000EF93FF93E0910402F09105021995FF91C5
:102AC000EF91BF91AF919F918F917F916F915F91A6
:102AD0004F913F912F910F900BBE0F900FBE0F9013
:102AE0001F9018951F920F920FB60F9211240BB6DC
:102AF0000F922F933F934F935F936F937F938F9397
:102B00009F93AF93BF93EF93FF9386E993E00E9467
:102B10007507FF91EF91BF91AF919F918F917F9139
:102B20006F915F914F913F912F910F900BBE0F903E
:102B30000FBE0F901F9018951F920F920FB60F9215
:102B400011240BB60F922F938F939F93EF93FF93C4
:102B5000E091A603F091A7038081E091AC03F0918E
:102B6000AD0382FD1DC090818091AF038F5F8F7395
:102B70002091B003821741F0E091AF03F0E0EA56F4
:102B8000FC4F958F8093AF03FF91EF919F918F91B1
:102B90002F910F900BBE0F900FBE0F901F901895A6
:102BA0008081F2CF2F923F924F925F926F927F92ED
:102BB0008F929F92AF92BF92CF92DF92EF92FF924D
:102BC0000F931F93CF93DF93CDB7DEB76C970FB6FC
:102BD000F894DEBF0FBECDBF4C0169877A8F4A875C
:102BE0005B8F2B873C8FE982FA820B831C83AC8638
:102BF000BD86CE86DF862AA93BA94CA95DA9288B74
:102C0000398B4A8B5B8B4EA95FA95D8B4C8BC8AC13
:102C1000D9ACEAACFBAC8CAD9DADAEADBFAD8D8398
:102C20009E83AF83B88724962CAD3DAD4EAD5FAD8E
:102C300024972E8B3F8B488F598F8BE292E0D401E3
:102C400011969C938E93F401C2AED3AEE4AEF5AE72
:102C5000FE96108211821282138287E192E0D99649
:102C60009C938E93D8973C96C282D382E482F5825D
:102C7000168217821086118689E6A82E82E0B82E69
:102C8000B182A08212861386148615863E96128221
:102C9000138214821582168217821086118605E52A
:102CA00012E01183008389819A81AB81BC81B05885
:102CB00082879387A487B58729813A814B815C817C
:102CC00026873787408B518B76978D819E81AF8188
:102CD000B88580839183A283B38314019AE6290E79
:102CE000311CD1011296CD92DD92ED92FC92159796
:102CF000F10116821782108611862FE532E03183AA
:102D000020833A96C282D382E482F58216821782A9
:102D100010861186B182A0821286138614861586CB
:102D20003E961282138214821582168217821086B2
:102D300011861183008380E09CE3ACE1B6EC8287CE
:102D40009387A487B587412C9CE3592E9CE1692E7B
:102D500096E4792E46865786608A718AD1019E96BE
:102D60004D925D926D927C92D197A701960160E0A1
:102D700070E080E89FE30E947126F10162A773A7CB
:102D800084A795A7F296C282D382E482F582168246
:102D90001782108611862FE532E031832083D4011B
:102DA000AA55BF4F1296CD92DD92ED92FC921597E7
:102DB00016961D921D921D921C9219971196BC9207
:102DC000AE921A961D921D921D921C921D971E96F0
:102DD00012961D921D921D921C92159716961D9289
:102DE0001D921D921C92199711961C930E9320E030
:102DF0003CE34CE156EC1A962D933D934D935C9336
:102E00001D971E964D925D926D927C92519746A6AB
:102E100057A660AA71AA62A773A784A795A7840181
:102E200002531F4FD8011296CD92DD92ED92FC9283
:102E30001597F801168217821086118681E292E0BA
:102E4000918380833A96C282D382E482F58216828D
:102E5000178210861186B182A0821286138614868C
:102E60001586A7019601C701B6010E949325D801D6
:102E700058966D937D938D939C935B9781E05C96C0
:102E80008C932985F40122833A8D33834A854483C8
:102E90005B8D55838B8582879C8D938729813A81B1
:102EA0004B815C81D401208B318B428B538B2C85E1
:102EB0003D854E855F85248B358B468B578B2889C6
:102EC00039894A895B89208F318F428F538FEC89F2
:102ED000FD891F96FC93EE931E975C96CD92DD9232
:102EE000ED92FC925F972D813E814F81588590969F
:102EF0002D933D934D935C9393972E893F89488DF5
:102F0000598D94962D933D934D935C93979761E0E3
:102F100089850E949A0361E08A850E949A0360E095
:102F20008B856C960FB6F894DEBF0FBECDBFDF91D8
:102F3000CF911F910F91FF90EF90DF90CF90BF90B6
:102F4000AF909F908F907F906F905F904F903F9049
:102F50002F900C949A032F923F924F925F926F9210
:102F60007F928F929F92AF92BF92CF92DF92EF9219
:102F7000FF920F931F93CF93DF931092360410921A
:102F8000350488EE93E0A0E0B0E08093370490939E
:102F90003804A0933904B0933A0421E332E030932B
:102FA0003404209333041092990310929803809371
:102FB0009A0390939B03A0939C03B0939D0383E497
:102FC00092E0909397038093960385EC90E0909322
:102FD000A3038093A20384EC90E09093A5038093D5
:102FE000A40380EC90E09093A7038093A60381EC68
:102FF00090E09093A9038093A80382EC90E09093D3
:10300000AB038093AA0386EC90E09093AD0380938A
:10301000AC031092AF031092B0031092B103109260
:10302000B203CBE8D2E0D0933E09C0933D098FE0D4
:1030300090E09093400980933F0960E00E949A03DA
:10304000D0933609C093350980E190E09093380918
:103050008093370960E00E949A03D0932E09C093B1
:103060002D0981E190E09093300980932F0960E071
:103070000E949A0387E992E090931D0980931C09AE
:103080008EE090E090931F0980931E091092210911
:1030900010922209109223091092240980ED97E0E2
:1030A000A0E0B0E08093250990932609A09327091A
:1030B000B093280982E390E0A0E0B0E08093290972
:1030C00090932A09A0932B09B0932C0961E08EE01C
:1030D0000E949A0385E892E09093DD088093DC08D3
:1030E00083E394E09093DF088093DE088FE394E01D
:1030F0009093E1088093E00880E58093E2081092C5
:10310000E30888E68093E4088CE090E09093E6087A
:103110008093E508882483948092E7081092E80859
:103120001092E9081092EA081092EB081092EC084D
:103130001092ED081092EE081092EF081092F0082D
:103140001092F1081092F2081092F3081092F4080D
:103150001092F5081092F6081092F7081092F808ED
:103160001092F9081092FA081092FB081092FC08CD
:103170001092FD081092FE081092FF0810920409A8
:103180001092050910920609109207091092080979
:103190001092090910920A0910920B0910920C0959
:1031A00010920D0910920E0910920F091092100939
:1031B0001092110910921209109213091092140919
:1031C00010921509109216091092170910921809F9
:1031D0001092190910921A0910921B0904E4202E6A
:1031E0002F928AE7382E3F921F921F929FE3992ECB
:1031F0009F92C3E3CF93CF93CF932BE3422E4F9273
:1032000033EA532E5F9247ED642E6F92DAE0DF933C
:103210008F9250E4752E7F929F9287E58F93DF9374
:103220009DE39F93A12CB12C60EFC62E61E4D62EB6
:103230008601750123E030E044E050E065E070E095
:1032400081EF97E00E94D2152F923F921F921F921A
:103250009F92CF93CF93CF934F925F926F92DF93D2
:103260008F927F929F92A7E5AF93DF93BDE3BF93C9
:1032700023E130E046E050E067E070E086E097E070
:103280000E94D2158DB79EB784960FB6F8949EBF54
:103290000FBE8DBF2F923F921F921F929F92CF938E
:1032A000CF93CF934F925F926F92DF938F927F92E3
:1032B0009F9297E59F93DF93ADE3AF9325E130E0D5
:1032C00048E050E069E070E08BE196E00E94D215A2
:1032D0009F9280E88F931F921F929F928F931F92CD
:1032E0001F9291E49F9390E39F931F921F921F92CE
:1032F0008F929F928F931F921F92A12CB12C70E8F6
:10330000C72E7FE3D72E8601750121E030E041E032
:1033100050E061E070E080E395E00E94D2158FE715
:1033200092E090930F0580930E05E0E2F5E080E1D6
:10333000DF011D928A95E9F788E190E090931105ED
:103340008093100589E190E0909313058093120516
:103350008AE190E090931505809314058BE190E04D
:1033600090931705809316058CE190E090931905D2
:10337000809318058DE190E090931B0580931A05CA
:103380008EE190E090931D0580931C058FE190E005
:1033900090931F0580931E05CEE0D5E000E315E075
:1033A0008DB79EB784960FB6F8949EBF0FBE8DBFA3
:1033B00022960C171D0729F061E088810E949A036C
:1033C000F7CF81E992E09093FF048093FE0486E3B7
:1033D00090E0909301058093000586E696E6A6E4CA
:1033E000B1E48093020590930305A0930405B09384
:1033F000050580E090E0A8E4BCE380930A05909383
:103400000B05A0930C05B0930D0560E086E30E94C8
:103410009A0389E792E09093F7048093F60487E398
:1034200090E09093F9048093F80484E190E0909305
:10343000FD048093FC0460E087E30E949A0383E725
:1034400092E09093CF048093CE048AE08093D204DC
:103450008BE08093D30480E896E9A8E9B0E08093FC
:10346000D4049093D504A093D604B093D70480E2FB
:103470008093D9041092E0041092E10485E08093D7
:10348000E30481E08093E40485E090E0A0E0B0E014
:103490008093EA049093EB04A093EC04B093ED04C2
:1034A0008FE394E09093D1048093D0041092DA04D7
:1034B00081E090E09093F5048093F4048AE097ED26
:1034C000A3EABBE38093C2049093C304A093C40413
:1034D000B093C5041092C6041092C7041092C80499
:1034E0001092C90429E632E03093C1042093C0044D
:1034F0001092CA041092CB041092CC041092CD0406
:103500008093B4049093B504A093B604B093B70429
:103510001092B8041092B9041092BA041092BB042D
:103520003093B3042093B2041092BC041092BD04F3
:103530001092BE041092BF048093A6049093A70437
:10354000A093A804B093A9041092AA041092AB040B
:103550001092AC041092AD043093A5042093A404FF
:103560001092AE041092AF041092B0041092B10405
:103570008093740490937504A0937604B0937704B9
:10358000109278041092790410927A0410927B04BD
:10359000CFE5D2E0D0937304C093720480937E048D
:1035A00090937F04A0938004B093810410928204CE
:1035B00010928304109284041092850430937D0449
:1035C00020937C0410928604109287041092880441
:1035D0001092890410928C0410928D0410928E0423
:1035E00010928F0410929004109291041092920401
:1035F00010929304E5E5F2E0F0938B04E0938A04E3
:10360000812C912C4AEFA42E45ECB42E8092940488
:1036100090929504A0929604B092970440E050E0F6
:103620006AEF75E4409398045093990460939A0468
:1036300070939B044093A0045093A1046093A20450
:103640007093A304412C512C18E4612E13E4712EC5
:1036500040929C0450929D0460929E0470929F043C
:103660008093420490934304A0934404B093450490
:103670001092460410924704109248041092490494
:10368000D0934104C093400480934C0490934D0424
:10369000A0934E04B0934F04109250041092510422
:1036A000109252041092530430934B0420934A0416
:1036B000109254041092550410925604109257041C
:1036C00010925A0410925B0410925C0410925D04F4
:1036D00010925E0410925F041092600410926104D4
:1036E000F0935904E093580480926204909263042A
:1036F000A0926404B09265044093660450936704FA
:10370000609368047093690440936E0450936F044F
:10371000609370047093710440926A0450926B0439
:1037200060926C0470926D04DF91CF911F910F91A4
:10373000FF90EF90DF90CF90BF90AF909F908F90D1
:103740007F906F905F904F903F902F900895CF9310
:10375000DF93CDB7DEB7A4970FB6F894DEBF0FBEE8
:10376000CDBF789484B5826084BD84B5816084BD0A
:1037700085B5826085BD85B5816085BD80916E000F
:10378000816080936E001092810080918100826040
:10379000809381008091810081608093810080917D
:1037A00080008160809380008091B100846080936C
:1037B000B1008091B00081608093B0008091910051
:1037C000826080939100809191008160809391004C
:1037D000809190008160809390008091A100826030
:1037E0008093A1008091A10081608093A1008091CD
:1037F000A00081608093A00080912101826080936D
:10380000210180912101816080932101809120011B
:1038100081608093200180917A00846080937A0097
:1038200080917A00826080937A0080917A00816032
:1038300080937A0080917A00806880937A00109259
:10384000C1008091E708882391F061E08091E5084C
:103850000E949A0361E08091E5080E942D030E9476
:103860003D0A80E58093E20881E08093E30860E808
:103870008BE60E94DC096AE070E080E090E00E9444
:10388000A3066AE070E080E090E00E94A30662E098
:1038900087E30E94DC096AE070E080E090E00E942B
:1038A000A30685E70E943E0D813709F043C01092C0
:1038B000E8081092E9081092EA081092EB081092BA
:1038C000EC081092ED081092EE081092EF0810929A
:1038D000F0081092F1081092F2081092F30881E0BB
:1038E000809300091092F4081092F5081092F608DF
:1038F0001092F7081092F8081092F9081092FA083E
:103900001092FB081092FC081092FD081092FE081D
:103910001092FF088093010988E090E090930309DA
:10392000809302098BE60E943E0D682F6F7B8BE629
:103930000E94DC0968EE73E080E090E00E94A3063C
:103940000E94C70D0E94BE0D0E94B20D0E94A60DDE
:103950008DE10E943E0D682F677F8DE10E94DC099A
:103960000E949D0D64E670E080E090E00E94A30656
:1039700002E310E01D861E861F86188A198A1A8A9D
:103980001B8A1C8A1D8A1E8A1F8A188EC12CD12C64
:1039900076014601570126013701AE014F5F5F4FA7
:1039A0006BE38EED98E00E94950B69817A81762712
:1039B00067277627072E000C880B990B0E94352469
:1039C000698F7A8F8B8F9C8F6B817C81762767279D
:1039D0007627072E000C880B990B0E9435246D8FDB
:1039E0007E8F8F8F98A36D817E81762767277627BC
:1039F000072E000C880B990B0E94352469A37AA32B
:103A00008BA39CA3298D3A8D4B8D5C8DC301B20194
:103A10000E9493252B013C012D8D3E8D4F8D58A189
:103A2000C501B4010E9493254B015C0129A13AA173
:103A30004BA15CA1C701B6010E9493256B017C01DB
:103A40006EED78E0CE0101960E94070C29813A8143
:103A50004B815C816D897E898F89988D0E94932529
:103A60006D8B7E8B8F8B988F2D813E814F815885FA
:103A700069897A898B899C890E949325698B7A8BC5
:103A80008B8B9C8B29853A854B855C856D857E85E6
:103A90008F8598890E9493256D877E878F87988B65
:103AA00061E070E080E090E00E94A30601501109FF
:103AB00009F073CF20E030E048E452E4C301B201E2
:103AC0000E9471266093E8087093E9088093EA08E1
:103AD0009093EB0820E030E048E452E4C501B401E3
:103AE0000E9471266093EC087093ED088093EE08B5
:103AF0009093EF0820E030E048E452E4C701B601BB
:103B00000E94712620E030E040E856E40E949225B1
:103B10006093F0087093F1088093F2089093F30893
:103B200020E030E048E452E46D897E898F89988DE9
:103B30000E9471266093F4087093F5088093F6084C
:103B40009093F70820E030E048E452E469897A89EC
:103B50008B899C890E9471266093F8087093F908FC
:103B60008093FA089093FB0820E030E048E452E4A8
:103B70006D857E858F8598890E9471266093FC08EB
:103B80007093FD088093FE089093FF080E94C70D74
:103B90000E94BE0D65E089E10E94DC090E94B20D21
:103BA0000E94A60D8DE10E943E0D682F677F8DE17A
:103BB0000E94DC090E949D0D61E08AE00E94240AB7
:103BC00089E40E943E0D182F68E083E00E94240AD9
:103BD000107F16606CE085E20E94DC096AE086E2F4
:103BE0000E94DC09612F83E60E94DC096AE070E034
:103BF00080E090E00E94A30668E083E00E94240A2F
:103C000068EC70E080E090E00E94A3060E943D0A0C
:103C10008091D2048F3F09F4BDC19091D3049F3F9E
:103C200009F4B8C1891741F061E00E949A0361E08C
:103C30008091D3040E949A038091D2049091D3047E
:103C4000891719F060E00E942D0361E080ED94E097
:103C50000E94B90965E070E080E090E00E94A30650
:103C60004FE564E080ED94E00E94561090E080E023
:103C70000E94DC106DE180ED94E00E94C510182FC9
:103C80000E94A3106DE180ED94E00E94C51091E0C8
:103C9000181390E09093E004882351F0181302C0A9
:103CA0000E94A31040E06DE180ED94E00E94561068
:103CB0001092E20440E06CE180ED94E00E94561026
:103CC0001092E4044FE361E080ED94E00E9456100E
:103CD00043E062E080ED94E00E94561080E2809321
:103CE000D90411E14091D904612F80ED94E00E9444
:103CF00056101F5F1731B1F743E063E080ED94E0A9
:103D00000E94561085E08093E3044CE465E080ED6A
:103D100094E00E94561040E767E080ED94E00E9436
:103D2000561062EE80ED94E00E94B31061EE80EDDB
:103D300094E00E94B3104CE060E080ED94E00E94BB
:103D4000561060E080ED94E00E94C5108093DF047F
:103D50000E946E108091DF048E3009F01BC181E05B
:103D600090E00E94DC10882309F495C066E080EDA5
:103D700094E00E94C510482F476066E080ED94E013
:103D80000E9456106DE180ED94E00E94C510482F0E
:103D900044606DE180ED94E00E9456106CE180ED8E
:103DA00094E00E94C510482F4F636CE180ED94E0D1
:103DB0000E94561081E08093E4044091DF044C603F
:103DC0004093DF0460E080ED94E00E94561061E0D3
:103DD00080ED94E00E94C510482F4D7F61E080ED9A
:103DE00094E00E94561041E063E080ED94E00E9470
:103DF000561083E08093E3048091100290911102A9
:103E0000A091120289839A83AB83E3E5F2E0849167
:103E100043E0BE016F5F7F4F0E947F1062E080ED44
:103E200094E00E94C510EDE4F2E0E49141E050E03E
:103E300001C0440FEA95EAF7482B62E080ED94E078
:103E40000E9456100E946E104091DF044160409322
:103E5000DF0460E080ED94E00E94561040E767E0E8
:103E600080ED94E00E9456108091D2049091D3048A
:103E7000891719F061E00E942D038091E1048823E5
:103E800009F46FC04091E3046AED74E08AE00E9497
:103E90007F100E946E1090E080E00E94522590E01A
:103EA0009093D2028093D10287E49BE09093010229
:103EB0008093000280916A00836080936A00EC9A8C
:103EC00083E49BE090930B0280930A028091690047
:103ED000806C80936900EB9A8FE39BE090930702DC
:103EE00080930602809169008C6080936900E99A52
:103EF000E091A603F091A70382E08083E091A20302
:103F0000F091A3031082E091A403F091A50380E156
:103F100080831092AE03E091AA03F091AB0386E098
:103F20008083E091A803F091A90380818061808360
:103F3000E091A803F091A903808188608083E091DB
:103F4000A803F091A903808180688083E091A80391
:103F5000F091A90380818F7D808381E08093C702E7
:103F60002BC062E080ED94E00E94C510ECE4F2E02A
:103F7000E49121E030E001C0220FEA95EAF72095B4
:103F8000422F482362E080ED94E00E945610109288
:103F9000E1047FCFEEE0F5E090E080E021E030E06A
:103FA000338B228B019632968F30910509F0E7C052
:103FB0008EE095E00E944B0B22242394312C0E942A
:103FC000BF04AB01BC018091D3029091D402A091B7
:103FD000D502B091D60288579C4EAF4FBF4F4817BD
:103FE00059076A077B0758F30E94BF046093D30206
:103FF0007093D4028093D5029093D6028091D1021F
:104000009091D2029093F5048093F4048DE299E0AC
:104010000E94650B85E399E00E94650B8DE399E0B2
:104020000E94650B8CED98E00E94650C8EEF94E089
:104030000E94BF0A86EF94E00E94880B8EEC94E009
:104040000E9415112091B4043091B5044091B6043A
:104050005091B70460911009709111098091120973
:10406000909113090E9494242091BC043091BD04C6
:104070004091BE045091BF040E9493256093BC04FC
:104080007093BD048093BE049093BF046093B80402
:104090007093B9048093BA049093BB046093CD02EB
:1040A0007093CE028093CF029093D0022091A60409
:1040B0003091A7044091A8045091A904609114097B
:1040C0007091150980911609909117090E94942406
:1040D0002091AE043091AF044091B0045091B104EE
:1040E0000E9493256093AE047093AF048093B00454
:1040F0009093B1046093AA047093AB048093AC04D2
:104100009093AD046093C9027093CA028093CB026E
:104110009093CC0280914109882371F06091D10283
:104120007091D2026F5F7F4F7093D2026093D10281
:1041300090E080E00E945A2580913909882371F02F
:104140006091D1027091D202615071097093D202D4
:104150006093D10290E080E00E945A2561E087E1FF
:104160000E942D030091D1021091D202011140C092
:10417000EEE0F5E08AEF9FEF338A228A13C0AC01AC
:10418000435051094330510508F40ACF8730910557
:1041900009F406CF138A128A05CF8230910560F7A1
:1041A000138A128A3296019689309105B1F7C09030
:1041B0000605D0900705E0900805F09009052AE96A
:1041C00039E949E151E4C701B6010E942E2487FF75
:1041D00053C188EA92E00E94CF0D85EA92E00E94E6
:1041E000CF0DEEE0F5E08DEF9FEF138A128AF4C059
:1041F000013091F4EEE0F5E08FEF9FEF138A128A21
:1042000005C082309105D0F7338A228A3296019612
:104210008E309105B1F7CBCF0230B9F4EEE0F5E086
:1042200090E080E09C012D7F2530310519F082302F
:10423000910541F4138A128A019632968F309105C6
:1042400089F7B5CF338A228AF7CF0330C1F4EEE085
:10425000F5E090E080E09C012450310922303105E6
:1042600018F08730910541F4138A128A019632962C
:104270008F30910581F79BCF338A228AF7CF0430A4
:10428000C1F4EEE0F5E090E080E0138A128A019636
:1042900032968F30910509F48ACF9C012350310961
:1042A0002230310590F38730910579F3338A228AE1
:1042B000EECF0530C1F4EEE0F5E090E080E0338A27
:1042C000228A0BC08730910531F08130910519F0B9
:1042D00084309105A1F7138A128A019632968F30A5
:1042E000910581F764CF0630A9F4EEE0F5E090E0A7
:1042F00080E0338A228A08C08730910519F0813026
:104300009105B9F7138A128A019632968F3091057A
:1043100099F74DCF073091F4EEE0F5E090E080E0C2
:104320008330910544F4338A228A019632968F3085
:104330009105B1F73CCF138A128AF7CF0830A1F468
:10434000EEE0F5E090E080E0338A228A07C0873013
:104350009105D1F710922F0510922E0501963296F5
:104360008F309105A1F723CF0930A9F4EEE0F5E0F5
:1043700090E080E0338A228A08C08730910519F0E6
:1043800084309105B9F7138A128A019632968F30DC
:10439000910599F70CCF0A3008F409CFEEE0F5E06B
:1043A0008CEF9FEF9C012D5F3F4F2230310518F0BD
:1043B0008330910540F4338A228A329601968B30FD
:1043C000910581F7F4CE138A128AF7CF83309105D5
:1043D00008F00BCF338A228A329601968C309105F1
:1043E000A9F78091C802882309F433C281E090E0E4
:1043F00090932F0580932E0560E087E10E942D03A6
:104400008091C702811111C00E94D50628EE33E0C9
:1044100040E050E00E946825653F714081059105AC
:1044200020F461E087E10E942D038CE199E00E9475
:10443000730A81EF97E00E94200E86E097E00E94C9
:10444000200E8BE196E00E94200E8EE095E00E9407
:104450004B0B61E02091FA043091FB048091FC0445
:104460009091FD042817390708F060E086E10E946A
:104470002D030E940408A3CD2AE939E941E351E460
:10448000C701B6010E942E2487FF27C00E94D506CF
:1044900028EE33E040E050E00E946825653F71401F
:1044A00081059105D0F489EB92E00E94CF0D85EA59
:1044B00092E00E94CF0DEEE0F5E08DEF9FEF138AC2
:1044C000128A05C083309105D0F7338A228A32964A
:1044D00001968C309105B1F784CF80913109882302
:1044E00019F081E0809320098091EE048051990BAE
:1044F0000817190709F096C08091F204EEE0F5E084
:1045000030E020E086FD8BC0829581708093C802E8
:104510008091EF049EE0980F9D3160F418161CF412
:1045200051E15093EF048091EF0487FF03C08FEEB9
:104530008093EF046091EF04062E000C770B880B3C
:10454000990B0E94352420E030E040E251E40E94C3
:1045500094244B015C018091F0049EE0980F9D3102
:1045600060F418161CF491E19093F0048091F0042B
:1045700087FF03C02FEE2093F0046091F004062E15
:10458000000C770B880B990B0E94352420E030E05B
:1045900040E251E40E9494246B017C016091F1049B
:1045A000062E000C770B880B990B0E9435242FE800
:1045B00032EC45E75DE30E949424698B7A8B8B8B08
:1045C0009C8B1092F3042091FA043091FB048091AB
:1045D000FC049091FD0428173907E0F58091C8028A
:1045E0008823C1F181E080932009EEE0F5E090E0BE
:1045F00080E0138A128A29C02630310581F441E017
:1046000050E050932D0540932C052F5F3F4F32967D
:104610002F30310589F791E09093200975CF138AE7
:10462000128AF3CF198A1A8A1B8A1C8AC12CD12CB0
:10463000760146015701C7CF86309105D1F641E09A
:1046400050E050932D0540932C05019632968F3003
:10465000910591F7B501A40182E794E00E947F09DA
:104660006D877E878F87988BB701A60180E494E0E1
:104670000E947F092B013C012091180930911909F2
:1046800040911A0950911B0969897A898B899C8903
:104690000E9493252091C2043091C3044091C40428
:1046A0005091C5040E9494242091CA043091CB04F7
:1046B0004091CC045091CD040E9493256B017C0164
:1046C000C092CA04D092CB04E092CC04F092CD0404
:1046D000C092C604D092C704E092C804F092C90404
:1046E0008090CD029090CE02A090CF02B090D002E8
:1046F00020E030E0A901C501B4010E94402718164E
:104700000CF081C020E030E040E85FE3C501B40177
:104710000E94402718160CF480C08090C902909027
:10472000CA02A090CB02B090CC0220E030E0A901F8
:10473000C501B4010E94402718160CF078C020E093
:1047400030E040E85FE3C501B4010E94402718163D
:104750000CF463C020E030E040E051E4C701B60152
:104760000E94942429893A894B895C890E94932567
:104770004B015C0120E030E040EE50EC0E942E2422
:1047800087FD60C020E030E040EE50E4C501B40198
:104790000E944027181634F4812C912C90EEA92EFB
:1047A00090E4B92E75016401930182014D855E8507
:1047B0006F85788981E090E00E948F11AB01BC0188
:1047C00081EF97E00E94DC0A93014D855E856F853D
:1047D000788982E090E00E948F11AB01BC0186E0F5
:1047E00097E00E94DC0A93014D855E856F8578898C
:1047F00083E090E00E948F11AB01BC018BE196E059
:104800000E94DC0AEECD20E030E040E85FEBC5011D
:10481000B4010E942E2487FF80CF412C512C3201FD
:104820004D865E866F86788A53014201BBCF20E0B9
:1048300030E040E85FEBC501B4010E942E2487FD03
:10484000ECCF88CF812C912C80EEA82E80ECB82E56
:10485000A9CF10922F0510922E05CECD0E94702464
:1048600008F481E00895E89409C097FB3EF4909520
:104870008095709561957F4F8F4F9F4F9923A9F039
:10488000F92F96E9BB279395F695879577956795C8
:10489000B795F111F8CFFAF4BB0F11F460FF1BC00C
:1048A0006F5F7F4F8F4F9F4F16C0882311F096E99F
:1048B00011C0772321F09EE8872F762F05C066234D
:1048C00071F096E8862F70E060E02AF09A95660F06
:1048D000771F881FDAF7880F9695879597F90895BF
:1048E000990F0008550FAA0BE0E8FEEF1616170601
:1048F000E807F907C0F012161306E407F50798F069
:10490000621B730B840B950B39F40A2661F0232B81
:10491000242B252B21F408950A2609F4A140A695FD
:104920008FEF811D811D08950E94A7240C941825E6
:104930000E940A2538F00E94112520F0952311F0DD
:104940000C9401250C94072511240C944C250E94ED
:10495000292570F3959FC1F3950F50E0551F629F75
:10496000F001729FBB27F00DB11D639FAA27F00DC8
:10497000B11DAA1F649F6627B00DA11D661F829FEF
:104980002227B00DA11D621F739FB00DA11D621FD4
:10499000839FA00D611D221F749F3327A00D611DF1
:1049A000231F849F600D211D822F762F6A2F1124D3
:1049B0009F5750409AF0F1F088234AF0EE0FFF1F06
:1049C000BB1F661F771F881F91505040A9F79E3F5D
:1049D000510580F00C9401250C944C255F3FE4F3C5
:1049E000983ED4F3869577956795B795F795E795B3
:1049F0009F5FC1F7FE2B880F911D9695879597F9BC
:104A0000089597F99F6780E870E060E008959FEF50
:104A100080EC089500240A94161617061806090655
:104A2000089500240A941216130614060506089524
:104A3000092E0394000C11F4882352F0BB0F40F4AC
:104A4000BF2B11F460FF04C06F5F7F4F8F4F9F4FEC
:104A5000089557FD9058440F551F59F05F3F71F06E
:104A60004795880F97FB991F61F09F3F79F08795D5
:104A70000895121613061406551FF2CF4695F1DF5E
:104A800008C0161617061806991FF1CF86957105EE
:104A9000610508940895E894BB2766277727CB0122
:104AA00097F90895F999FECF92BD81BDF89A99279B
:104AB00080B50895262FF999FECF1FBA92BD81BD0A
:104AC00020BD0FB6F894FA9AF99A0FBE0196089590
:104AD000A1E21A2EAA1BBB1BFD010DC0AA1FBB1F02
:104AE000EE1FFF1FA217B307E407F50720F0A21B74
:104AF000B30BE40BF50B661F771F881F991F1A94E1
:104B000069F760957095809590959B01AC01BD010A
:104B1000CF010895EE0FFF1F881F8BBF0790F691FE
:104B2000E02D19945058BB27AA270E94AA250C945F
:104B300018250E940A2538F00E94112520F039F42A
:104B40009F3F19F426F40C9407250EF4E095E7FB3B
:104B50000C940125E92F0E94292558F3BA17620702
:104B600073078407950720F079F4A6F50C944B257C
:104B70000EF4E0950B2EBA2FA02D0B01B901900178
:104B80000C01CA01A0011124FF27591B99F0593FBC
:104B900050F4503E68F11A16F040A22F232F342F04
:104BA0004427585FF3CF469537952795A795F04052
:104BB0005395C9F77EF41F16BA0B620B730B840B67
:104BC000BAF09150A1F0FF0FBB1F661F771F881F1F
:104BD000C2F70EC0BA0F621F731F841F48F4879577
:104BE00077956795B795F7959E3F08F0B0CF939569
:104BF000880F08F09927EE0F9795879508950E94E2
:104C00000A2560F080E891E009F49EEF0E941125EA
:104C100028F040E851E071F45EEF0CC00C940725D9
:104C20000C944B25E92FE0780E94292540F3092EAA
:104C3000052AB1F3261737074807590738F00E2E13
:104C400007F8E02569F0E025E0640AC0EF6307F8A3
:104C5000009407FADB01B9019D01DC01CA01AD0135
:104C6000EF930E9488260E9418250E9442265F9199
:104C7000552339F02BED3FE049E450FD49EC0C940D
:104C800093250895DF93DD27B92FBF7740E85FE3D1
:104C90001616170648075B0718F4D92F0E944527F8
:104CA0009F938F937F936F930E949B27E4EEF0E096
:104CB0000E9419270E9418252F913F914F915F91D3
:104CC0000E94A724DD2351F09058A2EA2AED3FE08C
:104CD00049EC5FE3D0785D270E94AA25DF910C9410
:104CE00018250E9485260C9418250E94112558F03D
:104CF0000E940A2540F029F45F3F29F00C94012519
:104D000051110C944C250C9407250E94292568F319
:104D10009923B1F3552391F3951B550BBB27AA2774
:104D200062177307840738F09F5F5F4F220F331FAE
:104D3000441FAA1FA9F335D00E2E3AF0E0E832D076
:104D400091505040E695001CCAF72BD0FE2F29D079
:104D5000660F771F881FBB1F261737074807AB074B
:104D6000B0E809F0BB0B802DBF01FF2793585F4FC0
:104D70003AF09E3F510578F00C9401250C944C2597
:104D80005F3FE4F3983ED4F3869577956795B795A2
:104D9000F7959F5FC9F7880F911D9695879597F9AD
:104DA0000895E1E0660F771F881FBB1F6217730726
:104DB0008407BA0720F0621B730B840BBA0BEE1F3B
:104DC00088F7E09508950E94EA266894B1110C9442
:104DD0004C2508950E94312588F09F5798F0B92FEF
:104DE0009927B751B0F0E1F0660F771F881F991F20
:104DF0001AF0BA95C9F714C0B13091F00E944B2552
:104E0000B1E008950C944B25672F782F8827B85F61
:104E100039F0B93FCCF3869577956795B395D9F777
:104E20003EF490958095709561957F4F8F4F9F4F81
:104E30000895DF93CF931F930F93FF92EF92DF922A
:104E40007B018C01689406C0DA2EEF010E94A72432
:104E5000FE01E894A5912591359145915591A6F3D0
:104E6000EF010E94AA25FE019701A801DA9469F7D3
:104E7000DF90EF90FF900F911F91CF91DF910895F8
:104E80000E94702408F48FEF08959B01AC0160E04C
:104E900070E080E89FE30C9471269F930E94BB27EB
:104EA0000F9007FCEE5F0C94E42719F416F40C94B1
:104EB00007250C94A4270E943125B8F39923C9F340
:104EC000B6F39F57550B87FF0E94B2270024A0E638
:104ED00040EA900180585695979528F4805C660FBB
:104EE000771F881F20F026173707480730F4621B0A
:104EF000730B840B202931294A2BA695179407940C
:104F0000202531254A2758F7660F771F881F20F084
:104F100026173707480730F4620B730B840B200DFC
:104F2000311D411DA09581F7B901842F9158880F3B
:104F30009695879508959B01AC010C9494240E944A
:104F40007024880B990B08959F3F31F0915020F405
:104F5000879577956795B795880F911D9695879555
:104F600097F9089591505040660F771F881FD2F728
:104F700008950C9407250E943125D8F3E894E0E0C9
:104F8000BB279F57F0F02AED3FE049EC06C0EE0F3B
:104F9000BB0F661F771F881F28F0B23A620773079E
:104FA000840728F0B25A620B730B840BE3959A9531
:104FB00072F7803830F49A95BB0F661F771F881FF1
:104FC000D2F790480C94A627EF93E0FF07C0A2EA1F
:104FD0002AED3FE049EC5FEB0E94AA250E941825CC
:104FE0000F90039401FC9058E1E1F1E00C94F82754
:104FF0009F938F937F936F93FF93EF939B01AC01EC
:105000000E949424EF91FF910E9419272F913F91C4
:0C5010004F915F910C949424F894FFCF12
:10501C00FD06FD06FD06FD06FD06FD06FD06FD066C
:10502C00ABADAF0000000017020509B2090000008B
:10503C0000B7083F08B20900000000200E00000075
:10504C00006E0241022B0717023A022702180200D7
:10505C000000009707FE062E07E4075F073D075187
:10506C000700000000B109CB08B2090000000035B0
:10507C00087F09B20900000000C108E106B209006E
:10508C00000000151100000000880B000000004B10
:10509C000B00000000650C00000000650B00000018
:1050AC0000BF0A00000000730A6E616E00696E6634
:1050BC00006F7666000D0A00424154544552592047
:1050CC00435249544943414C00424154544552596E
:0650DC00204C4F570000BC
:00000001FF
