:100000000C94BD010C9404150C94D9140C94AE14EA
:100010000C9483140C9458140C942D140C94021406
:100020000C94D7130C94EE010C94EE010C94EE0199
:100030000C94EE010C94EE010C94EE010C94EE0184
:100040000C94EE010C94EE010C94EE010C94EE0174
:100050000C94EE010C94EE010C94EE010C948D13B3
:100060000C94EE010C9459150C942F150C94EE0180
:100070000C94EE010C94EE010C94EE010C94EE0144
:100080000C94EE010C94EE010C94EE010C94EE0134
:100090000C94EE010C94EE010C94EE010C946D1294
:1000A0000C94EE010C94EE010C94EE010C94EE0114
:1000B0000C94EE010C94EE010C94EE010C94EE0104
:1000C0000C94EE010C94EE010C94EE010C94EE01F4
:1000D0000C94EE010C94EE010C94EE010C94EE01E4
:1000E0000C94EE01084AD73B3BCE016E84BCBFFDA9
:1000F000C12F3D6C74319ABD56833DDA3D00C77FF8
:1001000011BED9E4BB4C3E916BAAAABE0000008090
:100110003F05A84CCDB2D44EB93836A9020C50B91F
:10012000918688083CA6AAAA2ABE000000803F004B
:100130000C9468170C9452040C9436040C94270207
:100140000C94FE060C9435080C9441020C94C108E2
:100150000C945D0C0C946E020C94C5020C94A20CD1
:100160000C943D070C94B2090C942E070C941702C2
:100170000C94120B0C94610C0C946B040C94E40220
:100180000C94650C0C943A020C94CD020C94E40788
:100190000C9493040C9475040C945F070C941A044B
:1001A0000C94B7080C94F2020C94E0020C94F31037
:1001B0000C947F0D0C9451070C945C040C94A60ACB
:1001C0000C9418020C94E8020C9497070C942404E5
:1001D0000C9403040C94FD060C94DA020C943F0872
:1001E0000C943E040C947F040C94F6020C949D0431
:1001F0000C94FC020C94590C0C942B070C945A0A86
:100200000C9400030C9448040C9489040C94D002C0
:100210000C94CB080C9405090C94D6020C94EE02B5
:100220000C94BB020C9410040C94C9020C94FB02B5
:100230000C94C1020C94E1060C947F0C0C940B04FA
:100240000C94B1090C947F090C942E040001020354
:1002500004050A0B0C0D0E0F0000210024002700DE
:100260002A002D00300033000101000004010701C5
:100270000A0100002200250028002B002E0031007A
:10028000340002010000050108010B0100002000FC
:100290002300260029002C002F003200000100005E
:1002A00003010601090105050505070508080808F9
:1002B000020202020A0A08080404040401010101FE
:1002C00001010101030303030303030304070707F9
:1002D0000C0C0C0C0C0C0C0C02020202060606069E
:1002E000060606060B0B0B0B0B0B0B0B010210206B
:1002F000200808102040102040800201020108045C
:1003000002010102040810204080804020100804EF
:100310000201800402018040201008040201080448
:10032000020101020408102040800102040810208C
:10033000408000000A0B02090C0D0E08070304019F
:1003400000000000000000000000000000000000AD
:10035000000000000000000000000000000012117A
:10036000100000000000000000000000000000007D
:100370000000000000000000681711241FBECFEF2E
:10038000D1E2DEBFCDBF00E00CBF29E0A6ECB2E0B9
:1003900001C01D92A434B207E1F712E0A0E0B2E080
:1003A000ECE5FEE400E00BBF02C007900D92A63C16
:1003B000B107D9F711E0CDEBD1E000E006C02197FD
:1003C0000109802FFE010E94AA24CC3BD10780E0C6
:1003D0000807A9F70E94651B0C942C270C940000B9
:1003E00020910003260F3327331F21323105ECF40F
:1003F00020916B03FC0190E080E0243069F082E002
:100400000895A09100032191AC0140525D4FA40FCB
:10041000B52FB11D2C930196861798F38091000398
:10042000680F6093000380E0089581E008950895C7
:10043000E091240380912303E81730F4F0E0EB5DB2
:10044000FC4F808190E008958FEF9FEF0895909189
:100450002403809123032FEF3FEF981748F4E92FEF
:10046000F0E0EB5DFC4F208130E09F5F9093240330
:10047000C90108958091230390912403891B990B4E
:100480000895CF92DF92EF92FF920F931F93CF9335
:10049000DF937C01CB018A0120917103222389F033
:1004A000EB016B01C40ED51ECC15DD0569F0699119
:1004B000D701ED91FC910190F081E02DC7011995D4
:1004C000F3CF642F0E94F001C801DF91CF911F91FB
:1004D0000F91FF90EF90DF90CF900895CF93DF932F
:1004E0001F92CDB7DEB76983209171032223F9F003
:1004F00020919403203258F021E030E0FC01338356
:10050000228390E080E00F90DF91CF910895809159
:100510007203E82FF0E0ED58FC4F998190838F5FD4
:10052000809372038093940381E090E0ECCF61E0CC
:10053000CE0101960E94F001F7CF8150823108F080
:100540005AC0E82FF0E08827E755FD4F8F4F0C94F5
:10055000AA24C902CD02BB02C102C502FB02D0021D
:10056000D602DA02E002E402E802EE02F202FB0244
:10057000F602FC020003809180008F778093800058
:100580000895809180008F7DF9CF80918000877FD2
:10059000F5CF84B58F7784BD089584B58F7DFBCF6B
:1005A0008091B0008F778093B00008958091B00063
:1005B0008F7DF9CF809190008F7780939000089580
:1005C000809190008F7DF9CF80919000877FF5CF4B
:1005D0008091A0008F778093A00008958091A00063
:1005E0008F7DF9CF8091A000877FF5CF809120018A
:1005F0008F77809320010895809120018F7DF9CF1E
:1006000080912001877FF5CFCF93DF93282F30E0B3
:10061000F901EE5CFC4F8491F901E451FD4FD49156
:10062000F901EA55FD4FC491CC23A1F081110E943C
:100630009D02EC2FF0E0EE0FFF1FE457FD4FA59158
:10064000B491EC91ED2381E090E009F480E0DF913A
:10065000CF91089580E090E0FACF1F93CF93DF937E
:10066000282F30E0F901EE5CFC4F8491F901E45150
:10067000FD4FD491F901EA55FD4FC491CC23A9F067
:10068000162F81110E949D02EC2FF0E0EE0FFF1F4C
:10069000EE58FD4FA591B4918FB7F894EC911111DC
:1006A00008C0D095DE23DC938FBFDF91CF911F91DF
:1006B0000895DE2BF8CF1F93CF93DF93C1E0C09353
:1006C000DF02882399F1D091B8001091BA0080918F
:1006D000BC008A7B8093BC0060E084E10E942D0313
:1006E00060E085E10E942D0310926B03C0936A03C2
:1006F0001092450361E084E10E942D0361E085E1F1
:100700000E942D038091B9008E7F8093B900809163
:10071000B9008D7F8093B90088E48093B80085E4A8
:100720008093BC001093BA00D093B800DF91CF91B2
:100730001F910895CF93DF9390E0FC01E451FD4FAA
:1007400024918A559D4FFC0184918823D1F090E03B
:10075000880F991FFC01E85AFD4FA591B491FC0147
:10076000EE58FD4FC591D49161110EC09FB7F8941A
:100770008C91E22FE0958E238C932881E223E883ED
:100780009FBFDF91CF9108958FB7F894EC91E22B42
:10079000EC938FBFF6CF1F93CF93DF93182FEB010E
:1007A00061E00E949A03209739F460E0812FDF9185
:1007B000CF911F910C942D03CF3FD10511F461E02F
:1007C000F5CFE12FF0E0EE5CFC4FE491E150E23137
:1007D00008F0B3C0F0E08827EF50FC4F8F4F0C9427
:1007E000AA2403040B0410041A0424049D042E04F8
:1007F00036043E04480452045C046B0475049D04F2
:100800007F048904930484B5806884BDC7BDDF91EB
:10081000CF911F91089584B5806284BDC8BDF7CF84
:1008200080918000806880938000D0938900C0937D
:100830008800EDCF80918000806280938000D0930B
:100840008B00C0938A00E3CF809180008860809302
:100850008000D0938D00C0938C00D9CF8091B000E0
:1008600080688093B000C093B300D1CF8091B00076
:1008700080628093B000C093B400C9CF8091900093
:10088000806880939000D0939900C0939800BFCF68
:1008900080919000806280939000D0939B00C093E1
:1008A0009A00B5CF80919000886080939000D0939B
:1008B0009D00C0939C00ABCF8091A0008068809386
:1008C000A0008091A0008F7B8093A000D093A9000E
:1008D000C093A8009CCF8091A00080628093A0006C
:1008E000D093AB00C093AA0092CF8091A000886003
:1008F0008093A000D093AD00C093AC0088CF8091CE
:100900002001806880932001D0932901C0932801A1
:100910007ECF80912001806280932001D0932B01B3
:10092000C0932A0174CF80912001886080932001B8
:10093000D0932D01C0932C016ACFC038D1050CF0A3
:100940003ECF33CF863308F0865320917B00982F1B
:100950009870277F922B90937B00877080648093A0
:100960007C0080917A00806480937A0080917A0084
:1009700086FDFCCF809178009091790008953FB773
:10098000F8948091DB029091DC02A091DD02B0919D
:10099000DE0226B5A89B05C02F3F19F00196A11DC8
:1009A000B11D3FBFBA2FA92F982F8827BC01CD01B9
:1009B000620F711D811D911D42E0660F771F881F18
:1009C000991F4A95D1F708958F929F92AF92BF9247
:1009D000CF92DF92EF92FF920F931F93CF93DF930B
:1009E000D0919403D13208F0D7C0182FC09193034F
:1009F0000E94BF046B017C0180916B0381116BC06D
:100A000082E080936B0310936A038FEF80936903F6
:100A100010926803D0936703A3E7B3E0E7E4F3E041
:100A200080E0D81391C01092460380914603CC0F0A
:100A3000C82BC093460380914503813009F088C0DC
:100A4000109245030E94BF046B017C018091460314
:100A50008093BB0080916D0390916E03A0916F0312
:100A6000B0917003892B8A2B8B2BA1F00E94BF04BD
:100A700000916D0310916E0320916F03309170030C
:100A80006C197D098E099F09061717072807390772
:100A900008F442C08091BC0083FDD8CF85EC8093E0
:100AA000BC000E94BF046B017C0180916B0382300B
:100AB00009F450C0809169038F3F09F46FC08091A1
:100AC0006903803209F46CC080916903803309F4B2
:100AD00069C084E026C080916D0390916E03A0915F
:100AE0006F03B0917003892B8A2B8B2B09F484CF71
:100AF0000E94BF0480906D0390906E03A0906F03DE
:100B0000B09070036C197D098E099F0986169706AF
:100B1000A806B90608F070CF80916C030E945B03B1
:100B200085E0109272031092940310927103DF918A
:100B3000CF911F910F91FF90EF90DF90CF90BF90DA
:100B4000AF909F908F9008959D9191938F5F69CF03
:100B500085EEA5CF80916D0390916E03A0916F03F8
:100B6000B0917003892B8A2B8B2B09F49ECF0E94A6
:100B7000BF0400916D0310916E0320916F033091BB
:100B800070036C197D098E099F090617170728073E
:100B9000390708F08ACFC0CF81E0C3CF80E0C1CF52
:100BA00082E0BFCF83E0BDCFCF92DF92EF92FF9282
:100BB0000F931F93CF93DF93D82FC62F613208F086
:100BC00098C00E94BF046B017C0180916B0381116E
:100BD0006BC081E080936B0380936A039FEF9093D7
:100BE0006903109268039C0F9093670380934603F8
:100BF00080914603DD0FD82BD093460380914503A7
:100C0000813009F078C0109245030E94BF046B0147
:100C10007C01809146038093BB0080916D0390918D
:100C20006E03A0916F03B0917003892B8A2B8B2BDD
:100C3000A1F00E94BF0400916D0310916E032091FA
:100C40006F03309170036C197D098E099F09061797
:100C500017072807390708F448C08091BC0083FDB6
:100C6000D8CF85EC8093BC000E94BF046B017C014F
:100C700080916B03813009F440C0809168038C1728
:100C800010F4C0916803E7E4F3E0A5E2B3E080E08C
:100C90008C1355C08C2FDF91CF911F910F91FF9036
:100CA000EF90DF90CF90089580916D0390916E0347
:100CB000A0916F03B0917003892B8A2B8B2B09F4C1
:100CC00084CF0E94BF0400916D0310916E032091A8
:100CD0006F03309170036C197D098E099F09061707
:100CE00017072807390708F070CF80916C030E941E
:100CF0005B03C0E0CFCF85EEB5CF80916D039091BF
:100D00006E03A0916F03B0917003892B8A2B8B2BFC
:100D100009F4AECF0E94BF0400916D0310916E03E1
:100D200020916F03309170036C197D098E099F0922
:100D3000061717072807390708F09ACFD6CF9191E1
:100D40009D938F5FA5CF8F929F92AF92BF92CF92CC
:100D5000DF92EF92FF924B015C010E94BF046B0196
:100D60007C010E94BF046C197D098E099F09683EB1
:100D7000734081059105A8F321E0821A9108A1082A
:100D8000B10888EEC80E83E0D81EE11CF11C811466
:100D90009104A104B10429F7FF90EF90DF90CF9068
:100DA000BF90AF909F908F9008952FB7F894609167
:100DB000D7027091D8028091D9029091DA022FBFA8
:100DC0000895CF93DF93EC01CB01BA012A813B81D7
:100DD0004C815D810E94B4232A853B854C855D85CD
:100DE0000E94B3246A877B878C879D876E837F836D
:100DF00088879987DF91CF9108950895AF92BF9228
:100E0000CF92DF92EF92FF920F931F93CF93DF93D6
:100E10006C017B018B01040F151FEB015E01AE1805
:100E2000BF08C017D10759F06991D601ED91FC9127
:100E30000190F081E02DC6011995892B79F7C50144
:100E4000DF91CF911F910F91FF90EF90DF90CF90A6
:100E5000BF90AF90089590E080E00895FC01538D1D
:100E6000448D252F30E0842F90E0821B930B541784
:100E700010F0CF96089501970895FC01918D828D11
:100E8000981761F0A28DAE0FBF2FB11D5D968C91AA
:100E9000928D9F5F9F73928F90E008958FEF9FEFE9
:100EA0000895FC01918D828D981731F0828DE80FA5
:100EB000F11D858D90E008958FEF9FEF0895FC015F
:100EC000918D228D892F90E0805C9F4F821B91092C
:100ED0008F739927089585E993E00E945F0721E0C9
:100EE000892B09F420E0822F0895FC01A48DA80F1E
:100EF000B92FB11DA35ABF4F2C91848D90E001965C
:100F00008F739927848FA689B7892C93A089B1897B
:100F10008C91837080648C93938D848D981306C01C
:100F20000288F389E02D80818F7D80830895EF9280
:100F3000FF920F931F93CF93DF93EC0181E0888F93
:100F40009B8D8C8D98131AC0E889F989808185FF63
:100F500015C09FB7F894EE89FF896083E889F98905
:100F600080818370806480839FBF81E090E0DF9107
:100F7000CF911F910F91FF90EF900895F62E0B8D5A
:100F800010E00F5F1F4F0F731127E02E8C8D8E1115
:100F90000CC00FB607FCFACFE889F989808185FF7C
:100FA000F5CFCE010E947507F1CFEB8DEC0FFD2F31
:100FB000F11DE35AFF4FF0829FB7F8940B8FEA8937
:100FC000FB8980818062CFCFCF93DF93EC01888D46
:100FD0008823B9F0AA89BB89E889F9898C9185FDB4
:100FE00003C0808186FD0DC00FB607FCF7CF8C9142
:100FF00085FFF2CF808185FFEDCFCE010E9475077E
:10100000E9CFDF91CF91089580E090E0892B29F01E
:101010000E946B0781110E94000080E090E0892B04
:1010200049F080E090E0892B29F00E9400008111B6
:101030000E94000080E090E0892B49F080E090E081
:10104000892B29F00E94000081110E94000080E09D
:1010500090E0892B49F080E090E0892B29F00E94F4
:10106000000081110C9400000895FC01148A158A77
:10107000168A178A108A118A128A138A08958F9203
:101080009F92AF92BF92CF92DF92EF92FF92CF9357
:10109000DF93EC01CB01BA0188889988AA88BB88C4
:1010A000A50194010E94B2246B017C018C8D8823E0
:1010B00001F12AED3FE049E450E4C701B6010E9486
:1010C00060261816BCF52BED3FE049EC50E4C70153
:1010D000B6010E94B2246B017C012BED3FE049EC8C
:1010E00050E4C501B4010E94B3246C8B7D8B8E8BC0
:1010F0009F8B288D398D4A8D5B8DC701B6010E946B
:101100009125AB01BC014E835F8368877987CE014F
:101110000A960E94E1066E817F8188859985DF911C
:10112000CF91FF90EF90DF90CF90BF90AF909F90C6
:101130008F9008952BED3FE049EC50ECC701B601CC
:101140000E944E2387FFD5CF2BED3FE049EC50E4C2
:10115000C701B6010E94B3246B017C012BED3FE077
:1011600049EC50E4C501B4010E94B224BECFFC0199
:10117000148A158A168A178A108A118A128A138A83
:101180000895FC011286138614861586168217822E
:10119000108611860895AF92BF92CF92DF92EF92A0
:1011A000FF920F931F93CF93DF93EC015A016B01D2
:1011B000EA84FB840C851D859A01AB01B701C80147
:1011C0000E946026181674F0EE84FF84088919893D
:1011D0009501A601B701C8010E944E2387FD02C0F8
:1011E00075018601C701D8018E839F83A887B987BF
:1011F000B701C801DF91CF911F910F91FF90EF9040
:10120000DF90CF90BF90AF9008954F925F926F9212
:101210007F928F929F92AF92BF92CF92DF92EF9286
:10122000FF920F931F93CF93DF93EC016A017B0131
:101230002A853B854C855D85CB01B6010E94B42390
:101240004B015C014E845F84688879882C893D89D4
:101250004E895F89C701B6010E94B4232C8D3D8D54
:101260004E8D5F8D0E94B3249B01AC012C8F3D8F6E
:101270004E8F5F8F288F398F4A8F5B8FC301B201EA
:101280000E94B423A50194010E94B3244B015C0188
:101290008E829F82A886B9868E01005E1F4FBC0198
:1012A000A401C8010E94CB089B01AC01C501B40197
:1012B0000E944E23882339F0B701A6017058CE0151
:1012C00042960E94E1064E815F8168857985C8015A
:1012D0000E94CB086E837F8388879987DF91CF91A7
:1012E0001F910F91FF90EF90DF90CF90BF90AF9044
:1012F0009F908F907F906F905F904F900895CF93C5
:10130000DF93EC01CB01BA012E813F8148855985DD
:101310000E94B2242AA53BA54CA55DA50E94B4233A
:10132000AB01BC01CE0148960E94CB082C853D85BF
:101330004E855F850E94B4232C893D894E895F8943
:101340000E94B3246C8B7D8B8E8B9F8B688B798BEB
:101350008A8B9B8B6E837F8388879987DF91CF9160
:1013600008950895DC01ED91FC910280F381E02D58
:101370001994CF93DF93EC018B810E942D038A8D0A
:101380009B8D8230910538F0880F991F880F991F27
:1013900005970197F1F7DF91CF910895089561E0E6
:1013A0000C94B9098EBD00000DB407FEFDCF8EB5BB
:1013B00008958CBD9DBD0895CF93DF93D82FC62F80
:1013C0008091E608811128C08091DD089091DE08A7
:1013D0002091E30831E0309371032093930310923E
:1013E000720310929403DC01ED91FC910190F08165
:1013F000E02D6D2F19958091DD089091DE08DC01BC
:10140000ED91FC910190F081E02D6C2F199581E018
:10141000DF91CF910C94E4048091E1089091E2086F
:101420000E94D90960E08091E4080E942D038D2F6D
:101430000E94D2098C2F0E94D20961E08091E408B9
:10144000DF91CF910C942D03CF93CFB7F894809177
:10145000C602811127C0EBEDF2E08491E1E2F3E0F6
:101460009491E82FF0E0EE0FFF1FE85AFD4FA59191
:10147000B491EC91E92321F461E085E30E942D030E
:1014800061E085E30E949A038CB580618CBD8CB5C8
:1014900080648CBD61E084E30E949A0361E083E391
:1014A0000E949A038091C6028F5F8093C602CFBFCD
:1014B000CF9108950F931F93CF93DF93EC018C810D
:1014C000882341F10E94D506AB01BC018D819E812C
:1014D000AF81B88509851A852B853C85800F911FC2
:1014E000A21FB31F481759076A077B0740F41C82E5
:1014F00084E090E0DF91CF911F910F91089561E01A
:101500008A810E942D030E94D5066D837E838F837E
:1015100098871C820E94D506AB01BC018D819E81FB
:10152000AF81B8850D851E852F853889800F911F65
:10153000A21FB31F84179507A607B70720F460E022
:101540008A810E942D0390E080E0D4CFCF93DF9377
:10155000EC018A810E94A204BC01990F880B990BAF
:101560000E9455239B01AC016C857D858E859F85EE
:101570000E94B423688779878A879B8790E080E000
:10158000DF91CF9108954F925F926F927F928F92E9
:101590009F92AF92BF92CF92DF92EF92FF920F9302
:1015A0001F93CF93DF93EC014A018B015C018AE624
:1015B000A80EB11C4C885D886E887F88730162011B
:1015C000F7FAF094F7F8F0949A01AB01C701B6016D
:1015D0000E946026181664F09401A801C301B201AC
:1015E0000E944E237301620187FD02C064017801ED
:1015F000B701A601C5010E947F096CAB7DAB8EAB24
:101600009FABDF91CF911F910F91FF90EF90DF90F3
:10161000CF90BF90AF909F908F907F906F905F9092
:101620004F9008954F925F926F927F928F929F9208
:10163000AF92BF92CF92DF92EF92FF920F931F93E0
:10164000CF93DF93EC016C857D85072E000C880B12
:10165000990B0E9455236B017C011D861C866E85AB
:101660007F85072E000C880B990B0E9455239B0148
:10167000AC01C701B6010E9491252BED3FE049E482
:1016800050E40E94B4239B01AC010E94B32428A51E
:1016900039A54AA55BA50E94B324AB01BC0148A7AC
:1016A00059A76AA77BA7CE0182539F4F0E943F088C
:1016B0004B015C0188AA99AAAAAABBAACCA8DDA85A
:1016C000EEA8FFA8288D398D4A8D5B8DC701B60124
:1016D0000E94B4232B013C01A5019401C701B6016E
:1016E0000E94B224AB01BC01CE01C8960E9405093C
:1016F0009B01AC01C301B2010E94B3246B017C01C8
:1017000020E030E0A9010E946026181694F420E041
:1017100030E040EC5FE3C701B6010E94602687FF1E
:1017200012C06FEF70E08A810E94CB036FEF70E010
:1017300087C020E030E040EC5FEBC701B6010E94BB
:101740004E23181674F38E0104561F4FB701A601DD
:10175000C8010E947F0920E030E04FE753E40E9477
:10176000B423288939894A895B890E94912520E020
:1017700030E04FE753EC0E944E2387FD7FC0B70156
:10178000A601C8010E947F0920E030E04FE753E442
:101790000E94B423288939894A895B890E9491254E
:1017A00020E030E04FE753E40E94602618165CF119
:1017B000B701A601C8010E947F0920E030E04FE791
:1017C00053E40E94B423288939894A895B890E949D
:1017D00091256B017C0120E030E0A9010E94602688
:1017E0001816BCF020E030E04FE753E4C701B60123
:1017F0000E94B3240E9403267F836E838FEF90E0C4
:101800009987888716C0C12CD12C9FE7E92E93E4D5
:10181000F92E8FEF90E09F838E83A701960160E001
:1018200070E08FE793E40E94B2240E940326798738
:1018300068876E817F818A810E94CB036885798564
:101840008C810E94CB0388A599A5AAA5BBA58CA7CE
:101850009DA7AEA7BFA790E080E0DF91CF911F9139
:101860000F91FF90EF90DF90CF90BF90AF909F903F
:101870008F907F906F905F904F900895C12CD12CE6
:101880008FE7E82E83ECF82EADCFCF93DF93EC01FA
:101890008A850E9404032C853D85892B39F02F5FB2
:1018A0003F4F3D872C87DF91CF910895215031091B
:1018B000F8CF8AE196E00C94450C85E097E00C9413
:1018C000450C80EF97E00C94450C0F931F93CF933A
:1018D000DF93EC0122968C01005E1F4FC017D107E9
:1018E00039F0FE016889229680810E942D03F6CF8F
:1018F00090E080E0DF91CF911F910F910895CF93F9
:10190000DF93EC018A810E940403AC0191E0411550
:10191000510509F490E09E832F81222321F081E07C
:101920004115510509F080E08C83211103C021E0AD
:10193000452B09F420E02D839F8390E080E0DF9128
:10194000CF910895CF93DF93EC018A810E94A20486
:101950009D838C8390E080E0DF91CF910895EF929A
:10196000FF920F931F93CF93DF93EC01162F7A0111
:101970008985811143C0888199812E8131E030931E
:101980007103209393031092720310929403DC016D
:10199000ED91FC910190F081E02D199580E00E947D
:1019A000E40466E08E810E94D405109224038093A3
:1019B000230388819981DC01ED91FC910084F185FC
:1019C000E02D1995892B99F08701B6E0EB0EF11CFB
:1019D00088819981DC01ED91FC910284F385E02DF1
:1019E0001995F80181938F01EE15FF0589F7DF91B5
:1019F000CF911F910F91FF90EF9008958C819D8161
:101A00000E94D90960E08F810E942D03812F806898
:101A10000E94D2098701F6E0EF0EF11C80E00E94DF
:101A2000D209D8018D938D01AE15BF05B9F761E0DC
:101A30008F81DF91CF911F910F91FF90EF900C94C8
:101A40002D038F929F92AF92BF92CF92DF92EF922F
:101A5000FF920F931F93CF93DF9300D000D0CDB7A9
:101A6000DEB78C01CB01AE014F5F5F4F63E40E9494
:101A7000AF0C69817A81762767277627072E000CBD
:101A8000880B990B0E9455234B015C016B817C8173
:101A9000762767277627072E000C880B990B0E9464
:101AA00055236B017C016D817E8176276727762720
:101AB000072E000C880B990B0E945523F801808299
:101AC0009182A282B382C482D582E682F782608745
:101AD000718782879387C80126960FB6F894DEBF78
:101AE0000FBECDBFDF91CF911F910F91FF90EF906F
:101AF000DF90CF90BF90AF909F908F9008954F92BE
:101B00005F926F927F928F929F92AF92BF92CF928D
:101B1000DF92EF92FF920F931F93CF93DF93CDB796
:101B2000DEB760970FB6F894DEBF0FBECDBF8C0155
:101B3000BC016E5F7F4FCE0101960E94210DF8011E
:101B4000F5A06F2D70E090E080E00E9455234B01DE
:101B50005C016F2D70E090E080E00E94532320E054
:101B600030E04AE753E40E94B42320E030E040E054
:101B700058E30E94B4236B017C01A5019401F80194
:101B8000608D718D828D938D0E9491259B01AC019A
:101B900069817A818B819C810E94B224A701960180
:101BA0000E94B4232B013C01A5019401F801648D2E
:101BB000758D868D978D0E9491259B01AC016D815D
:101BC0007E818F8198850E94B224A70196010E9490
:101BD000B4236D877E878F87988BA5019401F801C8
:101BE00060A171A182A193A10E9491259B01AC01EA
:101BF00069857A858B859C850E94B224A701960110
:101C00000E94B4236B017C012BED3FE049E450E4DA
:101C1000C301B2010E94B42320E030E044E353E466
:101C20000E949125F80164AB75AB86AB97AB2BEDA9
:101C30003FE049E450E46D857E858F8598890E9458
:101C4000B42320E030E044E353E40E949125F801FE
:101C500060AF71AF82AF93AF2BED3FE049E450E44A
:101C6000C701B6010E94B42320E030E044E353E40E
:101C70000E949125F80164AF75AF86AF97AF90E0F1
:101C800080E060960FB6F894DEBF0FBECDBFDF9147
:101C9000CF911F910F91FF90EF90DF90CF90BF9069
:101CA000AF909F908F907F906F905F904F9008952E
:101CB000CF93C82F8091E608811140C08091DD0844
:101CC0009091DE082091E30831E030937103209376
:101CD00093031092720310929403DC01ED91FC9136
:101CE0000190F081E02D6C2F199580E00E94E404B2
:101CF00061E08091E3080E94D40510922403809350
:101D000023038091DD089091DE08DC01ED91FC91C8
:101D10000084F185E02D1995C0E0892B61F0809158
:101D2000DD089091DE08DC01ED91FC910284F385E1
:101D3000E02D1995C82F8C2FCF9108958091E1083F
:101D40009091E2080E94D90960E08091E4080E9425
:101D50002D038C2F80680E94D20980E00E94D20956
:101D6000C82F61E08091E4080E942D03E4CFFC01BC
:101D700001900020E9F73197AF01481B590BBC01D6
:101D800085E993E00C94FE068F929F92AF92BF92EA
:101D90000F931F93CF93DF93CDB7DEB7A1970FB605
:101DA000F894DEBF0FBECDBF19A2423008F44AE05E
:101DB0008E010F5D1F4F842E912CB12CA12CA501FB
:101DC00094010E948824E62FB901CA01EA30F4F494
:101DD000E05DD801EE938D01232B242B252B79F781
:101DE00090E080E0109719F0CD010E94B70EA19607
:101DF0000FB6F894DEBF0FBECDBFDF91CF911F911C
:101E00000F91BF90AF909F908F900895E95CE1CFC4
:101E10004F925F926F927F928F929F92AF92BF92FA
:101E2000CF92DF92EF92FF926B017C01AC019B019C
:101E30000E94BF268823C1F089E992E00E94B70E74
:101E40007C0185EA92E00E94B70E8E0D9F1DFF90E7
:101E5000EF90DF90CF90BF90AF909F908F907F904A
:101E60006F905F904F90089546015701E894B7F83E
:101E70002FEF3FEF4FE75FE7C501B4010E94BF2698
:101E800081110DC02FEF3FEF4FE75FE7C501B401B0
:101E90000E944E2318161CF48DE992E0CFCF2FEF4D
:101EA0003FEF4FE75FE4C701B6010E9460261816B6
:101EB0001CF481EA92E0C2CF2FEF3FEF4FE75FECD7
:101EC000C701B6010E944E2387FDF3CF20E030E02A
:101ED000A901C701B6010E944E23B12CA12C87FF96
:101EE0000AC06DE285E993E00E9497075C01F7FA6A
:101EF000F094F7F8F0942AE037ED43EA5BE3C7018A
:101F0000B6010E94B3242B013C010E940A266B01FA
:101F10007C010E9453239B01AC01C301B2010E94CA
:101F2000B2242B013C014AE0C701B6010E94C40E55
:101F30007C01EA0CFB1C6EE285E993E00E949707A6
:101F4000E80EF91E20E030E040E251E4C301B201A6
:101F50000E94B4232B013C010E940A264B01B12CA4
:101F6000A12C4AE0C501B4010E94C40EE80EF91E7E
:101F7000C501B4010E9453239B01AC01C301B2010E
:101F80000E94B22420E030E040E251E40E94B423F9
:101F90000E940A2690E080E04AE00E94C40EE80E0B
:101FA000F91E4FCF85ED8093BC0080916D03909119
:101FB0006E03A0916F03B09170030796A11DB11D30
:101FC00023E0B695A795979587952A95D1F7209107
:101FD000BC0024FD03C010926B03089540916D0373
:101FE00050916E0360916F0370917003452B462BE7
:101FF000472B69F30097A105B10541F02AE22A9524
:10200000F1F700C00197A109B109E1CF80916C03FC
:102010000C945B030F931F93CF93DF93EC010C8120
:102020001D812E813F8140E052E16AE770E090E03F
:10203000041715072607370740F4769567955795D7
:1020400047959F5F9630A1F797E0892F806A90951A
:10205000869591700E94D90960E0CE01DF91CF9101
:102060001F910F910C94B9090F931F93CF93DF9396
:10207000EC01062F142F0E940A10802F80620E940C
:10208000D2098887812F0E94D209CE01DF91CF919A
:102090001F910F910C94CF094091DE0441FD0CC0BB
:1020A00042604093DE0460E08FEC94E00E943410C4
:1020B0008BE19EE40197F1F70895FF920F931F9330
:1020C000CF93DF93C82FF62E072F142F8FEC94E0B9
:1020D0000E940A108C2F80620E94D2098093D7043C
:1020E000CF2DD02F115020F089910E94D209FACF24
:1020F0008FEC94E0DF91CF911F910F91FF900C94A2
:10210000CF098FEC94E00E940A1080E50E94D2096A
:102110008093D70483E70E94D2098FEC94E00C945B
:10212000CF091F93CF93DF93EC01162F0E940A1063
:10213000812F80620E94D2098887CE01DF91CF91E2
:102140001F910C94CF091F93CF93DF93EC01162FAF
:102150000E940A10812F0E94D20988878FEF0E9467
:10216000D209182FCE010E94CF09812FDF91CF9184
:102170001F910895CF93DF93EC0166E08FEC94E01C
:102180000E94A310877D219701F145E550E060E0B2
:1021900070E04093E5045093E6046093E704709385
:1021A000E804C0E0C82B4C2F66E08FEC94E00E945E
:1021B000341066E08FEC94E00E94A31091E0C81305
:1021C00090E0892FDF91CF91089541E450E060E0E5
:1021D00070E04093E5045093E6046093E704709345
:1021E000E804C8E0DFCF9F92AF92BF92CF92DF9218
:1021F000EF92FF920F931F93CF93DF9300D000D005
:10220000CDB7DEB78C016C0182E0C80ED11C9924D9
:10221000939467E1C6010E94A31080FD4AC0F801B3
:10222000868981111EC08385E82E873010F096E0E4
:10223000E92EF82EFE18C6010E940A1081E60E94BF
:10224000D209F8018287CE0101965C01EA949FEFE2
:10225000E91659F08FEF0E94D209F50181935F01D1
:10226000F5CFF12C86E0E82EE6CFFA94FFEFFF16CB
:1022700021F08FEF0E94D209F8CFC6010E94CF094A
:1022800040E467E0C6010E9434102981F80186A16C
:1022900097A140962817190609F0BBCF20A38A8181
:1022A00081A38B8182A38C8183A38E8184A395A239
:1022B000B0CF90E080E026960FB6F894DEBF0FBE58
:1022C000CDBFDF91CF911F910F91FF90EF90DF90E5
:1022D000CF90BF90AF909F9008954F925F926F9272
:1022E0007F928F929F92AF92BF92CF92DF92EF92A6
:1022F000FF920F931F93CF93DF93CDB7DEB72E9747
:102300000FB6F894DEBF0FBECDBF9E878D874A0102
:102310005B012801390120E030E84BEB54ECCB01A4
:10232000B4010E944E2387FDAAC020E030E84BEBA9
:1023300054E4C501B4010E94602618160CF4A7C02D
:1023400020E030E84BEB54ECC301B2010E944E2375
:1023500087FDA5C020E030E84BEB54E4C301B20197
:102360000E94602618160CF4A2C0A5019401C501B4
:10237000B4010E94B42369837A838B839C83A30175
:102380009201C301B2010E94B4239B01AC01698197
:102390007A818B819C810E94B3240E947B26698371
:1023A0007A838B839C8320E030E044EB52E4C701C6
:1023B000B6010E94B4236B017C01A3019201505825
:1023C000C501B4010E9432254B015C012DE633EBBF
:1023D00044E85FE30E94B2240E946D266D837E83F1
:1023E0008F8398872BED3FE049E450E4C501B401A9
:1023F0000E94B2240E946D2669877A878B879C870A
:102400002DE633EB44E85FE3C501B4010E94B32439
:102410000E946D262D853E852230310509F44FC07E
:102420002330310509F454C029813A814B815C8104
:102430006D817E818F8198850E94B423A7019601CA
:102440000E94B32420E030E048EC51E40E94912542
:102450002E960FB6F894DEBF0FBECDBFDF91CF91A1
:102460001F910F91FF90EF90DF90CF90BF90AF90B2
:102470009F908F907F906F905F904F900895812CE8
:1024800030E8932E3BEBA32E34ECB32E59CF812CA6
:1024900020E8922E2BEBA22E24E4B22E51CF412C19
:1024A00090E8592E9BEB692E94EC792E5ECF412C4F
:1024B00080E8582E8BEB682E84E4782E56CF298145
:1024C0003A814B815C8169857A858B859C85B4CF07
:1024D00029813A814B815C81AFCF1F920F920FB659
:1024E0000F9211240BB60F922F933F934F935F934C
:1024F0006F937F938F939F93AF93BF93EF93FF93CC
:102500008091B900887F803609F44DC008F040C042
:10251000883209F4A7C028F5803109F49BC0C8F4BB
:10252000882309F4F7C0883009F494C0FF91EF9133
:10253000BF91AF919F918F917F916F915F914F91DB
:102540003F912F910F900BBE0F900FBE0F901F90D9
:102550001895883109F486C0803241F78093690369
:1025600014C0803409F49BC040F48033B9F388333D
:10257000E9F68093690385ECAEC0803509F483C029
:10258000883509F494C0883489F60E94D20FCECFE2
:10259000883909F48AC038F5883729F050F488362C
:1025A00011F0803719F683E080936B0310922203B9
:1025B00055C0883809F479C0803919F0803809F09D
:1025C000B5CF80912203803208F06FC0E0912203E2
:1025D00081E08E0F809322038091BB00F0E0EE5FDC
:1025E000FC4F80833BC0803B39F0D0F4803A09F443
:1025F00077C0883A09F09ACF84E080936B031092F9
:10260000010310920003F0E0E0E0199580910003CF
:1026100081110FC081E0809300031092E00209C095
:10262000803C09F4A8CF883C09F4A5CF883B09F089
:102630007DCFE091010381E08E0F80930103F0E0F4
:10264000E052FD4F80818093BB0090910103809107
:10265000000329C0809146038093BB0085EC8093E2
:10266000BC0064CF9091680380916703981758F578
:10267000E091680381E08E0F80936803F0E0E95BEE
:10268000FC4F8081E9CFE091680381E08E0F809359
:1026900068038091BB00F0E0E95BFC4F8083909180
:1026A0006803809167039817C8F285E8D8CFE09156
:1026B000680381E08E0F809368038091BB00F0E097
:1026C000E95BFC4F808380916A0381115ECF81E0DA
:1026D0008093450384EA8093BC0010926B0326CF5D
:1026E00085EC8093BC0010926B03809122038032B2
:1026F00030F4E0912203F0E0EE5FFC4F1082609135
:10270000220370E082E093E0F0E0E0E0199510929F
:1027100022030CCF1092690338CF1F920F920FB68D
:102720000F9211242F933F938F939F93AF93BF9357
:102730008091D7029091D802A091D902B091DA028B
:102740003091D60223E0230F2D3758F50196A11DB5
:10275000B11D2093D6028093D7029093D802A09304
:10276000D902B093DA028091DB029091DC02A09151
:10277000DD02B091DE020196A11DB11D8093DB0246
:102780009093DC02A093DD02B093DE02BF91AF9183
:102790009F918F913F912F910F900FBE0F901F909F
:1027A000189526E8230F0296A11DB11DD2CF1F92C6
:1027B0000F920FB60F9211240BB60F922F933F93E7
:1027C0004F935F936F937F938F939F93AF93BF9339
:1027D000EF93FF93E0910E02F0910F021995FF9194
:1027E000EF91BF91AF919F918F917F916F915F9189
:1027F0004F913F912F910F900BBE0F900FBE0F90F6
:102800001F9018951F920F920FB60F9211240BB6BE
:102810000F922F933F934F935F936F937F938F9379
:102820009F93AF93BF93EF93FF93E0910C02F091CE
:102830000D021995FF91EF91BF91AF919F918F91EB
:102840007F916F915F914F913F912F910F900BBEB0
:102850000F900FBE0F901F9018951F920F920FB6FA
:102860000F9211240BB60F922F933F934F935F93C8
:102870006F937F938F939F93AF93BF93EF93FF9348
:10288000E0910202F09103021995FF91EF91BF913F
:10289000AF919F918F917F916F915F914F913F91F8
:1028A0002F910F900BBE0F900FBE0F901F90189599
:1028B0001F920F920FB60F9211240BB60F922F9307
:1028C0003F934F935F936F937F938F939F93AF93B8
:1028D000BF93EF93FF93E0910002F09101021995ED
:1028E000FF91EF91BF91AF919F918F917F916F91E8
:1028F0005F914F913F912F910F900BBE0F900FBEA4
:102900000F901F9018951F920F920FB60F921124DF
:102910000BB60F922F933F934F935F936F937F93D9
:102920008F939F93AF93BF93EF93FF93E0910A022E
:10293000F0910B021995FF91EF91BF91AF919F918B
:102940008F917F916F915F914F913F912F910F9058
:102950000BBE0F900FBE0F901F9018951F920F92F5
:102960000FB60F9211240BB60F922F933F934F93F4
:102970005F936F937F938F939F93AF93BF93EF93E7
:10298000FF93E0910802F09109021995FF91EF91F0
:10299000BF91AF919F918F917F916F915F914F9177
:1029A0003F912F910F900BBE0F900FBE0F901F9075
:1029B00018951F920F920FB60F9211240BB60F921B
:1029C0002F933F934F935F936F937F938F939F9337
:1029D000AF93BF93EF93FF93E0910602F09107024C
:1029E0001995FF91EF91BF91AF919F918F917F9139
:1029F0006F915F914F913F912F910F900BBE0F9070
:102A00000FBE0F901F9018951F920F920FB60F9246
:102A100011240BB60F922F933F934F935F936F93B5
:102A20007F938F939F93AF93BF93EF93FF93E09127
:102A30000402F09105021995FF91EF91BF91AF91BA
:102A40009F918F917F916F915F914F913F912F91C6
:102A50000F900BBE0F900FBE0F901F9018951F92F6
:102A60000F920FB60F9211240BB60F922F933F9334
:102A70004F935F936F937F938F939F93AF93BF9386
:102A8000EF93FF9385E993E00E947507FF91EF9123
:102A9000BF91AF919F918F917F916F915F914F9176
:102AA0003F912F910F900BBE0F900FBE0F901F9074
:102AB00018951F920F920FB60F9211240BB60F921A
:102AC0002F938F939F93EF93FF93E091A503F09142
:102AD000A6038081E091AB03F091AC0382FD1DC0A1
:102AE00090818091AE038F5F8F732091AF03821727
:102AF00041F0E091AE03F0E0EB56FC4F958F8093F0
:102B0000AE03FF91EF919F918F912F910F900BBE8C
:102B10000F900FBE0F901F9018958081F2CF2F92CB
:102B20003F924F925F926F927F928F929F92AF925D
:102B3000BF92CF92DF92EF92FF920F931F93CF93AA
:102B4000DF93CDB7DEB76C970FB6F894DEBF0FBE3C
:102B5000CDBF4C0169877A8F4A875B8F2B873C8F6B
:102B6000E982FA820B831C83AC86BD86CE86DF8623
:102B70002AA93BA94CA95DA9288B398B4A8B5B8B71
:102B80004EA95FA95D8B4C8BC8ACD9ACEAACFBAC51
:102B90008CAD9DADAEADBFAD8D839E83AF83B88749
:102BA00024962CAD3DAD4EAD5FAD24972E8B3F8B63
:102BB000488F598F8BE292E0D40111969C938E93AB
:102BC000F401C2AED3AEE4AEF5AEFE961082118231
:102BD0001282138287E192E0D9969C938E93D897C4
:102BE0003C96C282D382E482F582168217821086D6
:102BF000118689E6A82E82E0B82EB182A0821286C4
:102C00001386148615863E961282138214821582CC
:102C1000168217821086118605E512E01183008363
:102C200089819A81AB81BC81B05882879387A487C0
:102C3000B58729813A814B815C8126873787408B14
:102C4000518B76978D819E81AF81B88580839183EA
:102C5000A283B38314019AE6290E311CD101129686
:102C6000CD92DD92ED92FC921597F10116821782BA
:102C7000108611862FE532E0318320833A96C28296
:102C8000D382E482F5821682178210861186B18281
:102C9000A08212861386148615863E9612821382AF
:102CA0001482158216821782108611861183008382
:102CB00080E09CE3ACE1B6EC82879387A487B5877C
:102CC000412C9CE3592E9CE1692E96E4792E468690
:102CD0005786608A718AD1019E964D925D926D925F
:102CE0007C92D197A701960160E070E080E89FE3B5
:102CF0000E949125F10162A773A784A795A7F29678
:102D0000C282D382E482F5821682178210861186EF
:102D10002FE532E031832083D401AA55BF4F1296AC
:102D2000CD92DD92ED92FC92159716961D921D9212
:102D30001D921C9219971196BC92AE921A961D92F2
:102D40001D921D921C921D971E9612961D921D9209
:102D50001D921C92159716961D921D921D921C9203
:102D6000199711961C930E9320E03CE34CE156EC2E
:102D70001A962D933D934D935C931D971E964D92FD
:102D80005D926D927C92519746A657A660AA71AA51
:102D900062A773A784A795A7840102531F4FD80188
:102DA0001296CD92DD92ED92FC921597F801168263
:102DB00017821086118681E292E0918380833A9691
:102DC000C282D382E482F58216821782108611862F
:102DD000B182A0821286138614861586A7019601F9
:102DE000C701B6010E94B324D80158966D937D9314
:102DF0008D939C935B9781E05C968C932985F4017D
:102E000022833A8D33834A8544835B8D55838B853A
:102E100082879C8D938729813A814B815C81D40183
:102E2000208B318B428B538B2C853D854E855F8566
:102E3000248B358B468B578B288939894A895B8946
:102E4000208F318F428F538FEC89FD891F96FC9321
:102E5000EE931E975C96CD92DD92ED92FC925F9779
:102E60002D813E814F81588590962D933D934D93B2
:102E70005C9393972E893F89488D598D94962D9315
:102E80003D934D935C93979761E089850E949A03E7
:102E900061E08A850E949A0360E08B856C960FB68C
:102EA000F894DEBF0FBECDBFDF91CF911F910F9180
:102EB000FF90EF90DF90CF90BF90AF909F908F905A
:102EC0007F906F905F904F903F902F900C949A035B
:102ED0002F923F924F925F926F927F928F929F922A
:102EE000AF92BF92CF92DF92EF92FF920F931F9318
:102EF000CF93DF93109235041092340488EE93E060
:102F0000A0E0B0E08093360490933704A093380497
:102F1000B093390421E332E0309333042093320438
:102F200010929803109297038093990390939A03B9
:102F3000A0939B03B0939C0383E492E09093960349
:102F40008093950385EC90E09093A2038093A10376
:102F500084EC90E09093A4038093A30380EC90E032
:102F60009093A6038093A50381EC90E09093A8032F
:102F70008093A70382EC90E09093AA038093A90327
:102F800086EC90E09093AC038093AB031092AE0379
:102F90001092AF031092B0031092B103CBE8D2E0CD
:102FA000D0933D09C0933C098FE090E090933F0996
:102FB00080933E0960E00E949A03D0933509C09344
:102FC000340980E190E0909337098093360960E0FE
:102FD0000E949A03D0932D09C0932C0981E190E0BF
:102FE00090932F0980932E0960E00E949A0387E94D
:102FF00092E090931C0980931B098EE090E09093DF
:103000001E0980931D091092200910922109109227
:1030100022091092230980ED97E0A0E0B0E08093B0
:10302000240990932509A0932609B093270982E3E8
:1030300090E0A0E0B0E08093280990932909A09344
:103040002A09B0932B0961E08EE00E949A0385E87B
:1030500092E09093DC088093DB0882E394E0909305
:10306000DE088093DD088EE394E09093E00880937F
:10307000DF0880E58093E1081092E20888E68093FB
:10308000E3088CE090E09093E5088093E4088824BE
:1030900083948092E6081092E7081092E808109254
:1030A000E9081092EA081092EB081092EC081092CE
:1030B000ED081092EE081092EF081092F0081092AE
:1030C000F1081092F2081092F3081092F40810928E
:1030D000F5081092F6081092F7081092F80810926E
:1030E000F9081092FA081092FB081092FC0810924E
:1030F000FD081092FE081092030910920409109224
:1031000005091092060910920709109208091092F9
:10311000090910920A0910920B0910920C091092D9
:103120000D0910920E0910920F09109210091092B9
:103130001109109212091092130910921409109299
:103140001509109216091092170910921809109279
:10315000190910921A0904E4202E2F928AE7382EBA
:103160003F921F921F929FE3992E9F92C3E3CF93AA
:10317000CF93CF932BE3422E4F9233EA532E5F929D
:1031800047ED642E6F92DAE0DF938F9250E4752E54
:103190007F929F9287E58F93DF939DE39F93A12C6E
:1031A000B12C60EFC62E61E4D62E8601750123E0B6
:1031B00030E044E050E065E070E080EF97E00E948E
:1031C0008F152F923F921F921F929F92CF93CF9372
:1031D000CF934F925F926F92DF938F927F929F92E5
:1031E000A7E5AF93DF93BDE3BF9323E130E046E073
:1031F00050E067E070E085E097E00E948F158DB7A2
:103200009EB784960FB6F8949EBF0FBE8DBF2F92C7
:103210003F921F921F929F92CF93CF93CF934F9243
:103220005F926F92DF938F927F929F9297E59F9329
:10323000DF93ADE3AF9325E130E048E050E069E093
:1032400070E08AE196E00E948F159F9280E88F934C
:103250001F921F929F928F931F921F9291E49F93B0
:1032600090E39F931F921F921F928F929F928F9332
:103270001F921F92A12CB12C70E8C72E7FE3D72E8E
:103280008601750121E030E041E050E061E070E04E
:103290008FE295E00E948F158FE792E090930E05E4
:1032A00080930D05EFE1F5E080E1DF011D928A9545
:1032B000E9F788E190E09093100580930F0589E18C
:1032C00090E090931205809311058AE190E090932D
:1032D0001405809313058BE190E09093160580937D
:1032E00015058CE190E090931805809317058DE10A
:1032F00090E090931A05809319058EE190E09093E9
:103300001C0580931B058FE190E090931E05809330
:103310001D05CDE0D5E00FE215E08DB79EB7849690
:103320000FB6F8949EBF0FBE8DBF22960C171D07D7
:1033300029F061E088810E949A03F7CF81E992E049
:103340009093FE048093FD0486E390E09093000543
:103350008093FF0486E696E6A6E4B1E48093010537
:1033600090930205A0930305B093040580E090E0DC
:10337000A8E4BCE38093090590930A05A0930B058C
:10338000B0930C0560E086E30E949A0389E792E01F
:103390009093F6048093F50487E390E09093F8040B
:1033A0008093F70484E190E09093FC048093FB0405
:1033B00060E087E30E949A0383E792E09093CE0453
:1033C0008093CD048AE08093D1048BE08093D20473
:1033D00080E896E9A8E9B0E08093D3049093D40400
:1033E000A093D504B093D60480E28093D8041092C1
:1033F000DF041092E00485E08093E20481E0809392
:10340000E30485E090E0A0E0B0E08093E9049093CD
:10341000EA04A093EB04B093EC048EE394E0909361
:10342000D0048093CF041092D90481E090E090936F
:10343000F4048093F3048AE097EDA3EABBE380935E
:10344000C1049093C204A093C304B093C404109227
:10345000C5041092C6041092C7041092C80429E64D
:1034600032E03093C0042093BF041092C90410923C
:10347000CA041092CB041092CC048093B3049093AE
:10348000B404A093B504B093B6041092B70410929C
:10349000B8041092B9041092BA043093B204209385
:1034A000B1041092BB041092BC041092BD0410929F
:1034B000BE048093A5049093A604A093A704B093A0
:1034C000A8041092A9041092AA041092AB041092BE
:1034D000AC043093A4042093A3041092AD04109282
:1034E000AE041092AF041092B004809373049093D2
:1034F0007404A0937504B09376041092770410922C
:1035000078041092790410927A04CFE5D2E0D09337
:103510007204C093710480937D0490937E04A09301
:103520007F04B09380041092810410928204109260
:1035300083041092840430937C0420937B041092C3
:1035400085041092860410928704109288041092C9
:103550008B0410928C0410928D0410928E041092A1
:103560008F04109290041092910410929204E5E559
:10357000F2E0F0938A04E0938904812C40E5942ED4
:1035800043ECA42E48ECB42E8092930490929404C1
:10359000A0929504B092960440E050E563EC78E484
:1035A00040939704509398046093990470939A04FD
:1035B00040939F045093A0046093A1047093A204CD
:1035C000412C512C18E4612E13E4712E40929B047F
:1035D00050929C0460929D0470929E0480934104DA
:1035E00090934204A0934304B09344041092450482
:1035F000109246041092470410924804D09340045D
:10360000C0933F0480934B0490934C04A0934D04CB
:10361000B0934E0410924F04109250041092510433
:103620001092520430934A04209349041092530498
:10363000109254041092550410925604109259049A
:1036400010925A0410925B0410925C0410925D0474
:1036500010925E0410925F0410926004F09358047C
:10366000E09357048092610490926204A0926304F4
:10367000B0926404409365045093660460936704B9
:103680007093680440936D0450936E0460936F04CC
:10369000709370044092690450926A0460926B04C3
:1036A00070926C04DF91CF911F910F91FF90EF907A
:1036B000DF90CF90BF90AF909F908F907F906F9052
:1036C0005F904F903F902F900895CF93DF93CDB7A9
:1036D000DEB7A4970FB6F894DEBF0FBECDBF7894C7
:1036E00084B5826084BD84B5816084BD85B5826007
:1036F00085BD85B5816085BD80916E0081608093B8
:103700006E00109281008091810082608093810020
:103710008091810081608093810080918000816030
:10372000809380008091B10084608093B10080918B
:10373000B00081608093B00080919100826080939E
:103740009100809191008160809391008091900020
:103750008160809390008091A10082608093A1009D
:103760008091A10081608093A1008091A000816080
:103770008093A0008091210182608093210180913B
:1037800021018160809321018091200181608093DB
:10379000200180917A00846080937A0080917A0081
:1037A000826080937A0080917A00816080937A00B1
:1037B00080917A00806880937A001092C100809195
:1037C000E608882391F061E08091E4080E949A0362
:1037D00061E08091E4080E942D030E94240A80E5A4
:1037E0008093E10881E08093E20860E88BE60E9424
:1037F000DC096AE070E080E090E00E94A3066AE0E5
:1038000070E080E090E00E94A30662E087E30E94FF
:10381000DC096AE070E080E090E00E94A30685E7A2
:103820000E94580E813709F043C01092E7081092A9
:10383000E8081092E9081092EA081092EB0810923A
:10384000EC081092ED081092EE081092EF0810921A
:10385000F0081092F1081092F20881E08093FF08BE
:103860001092F3081092F4081092F5081092F608DE
:103870001092F7081092F8081092F9081092FA08BE
:103880001092FB081092FC081092FD081092FE089E
:103890008093000988E090E09093020980930109E9
:1038A0008BE60E94580E682F6F7B8BE60E94DC0926
:1038B00068EE73E080E090E00E94A3068BE10E9436
:1038C000580E682F6C7F8BE10E94DC098AE10E9410
:1038D000580E887F682F66608AE10E94DC098BE1C0
:1038E0000E94580E682F677E8BE10E94DC0911E070
:1038F000109300098CE10E94580E682F677E8CE1BE
:103900000E94DC091093FF088DE10E94580E682F79
:10391000677F8DE10E94DC098DE10E94580E887F4F
:10392000682F66608DE10E94DC0964E670E080E04B
:1039300090E00E94A30602E310E01D861E861F860B
:10394000188A198A1A8A1B8A1C8A1D8A1E8A1F8A4B
:10395000188E812C912C54012401350175016401CC
:10396000AE014F5F5F4F6BE38DED98E00E94AF0CAF
:1039700069817A81762767277627072E000C880BC6
:10398000990B0E945523698F7A8F8B8F9C8F6B8147
:103990007C81762767277627072E000C880B990BEA
:1039A0000E9455236D8F7E8F8F8F98A36D817E81AE
:1039B000762767277627072E000C880B990B0E9425
:1039C000552369A37AA38BA39CA3298D3A8D4B8D94
:1039D0005C8DC701B6010E94B3246B017C012D8D63
:1039E0003E8D4F8D58A1C301B2010E94B3242B011B
:1039F0003C0129A13AA14BA15CA1C501B4010E94DF
:103A0000B3244B015C016DED78E0CE0101960E947C
:103A1000210D29813A814B815C816D897E898F8955
:103A2000988D0E94B3246D8B7E8B8F8B988F2D8108
:103A30003E814F81588569897A898B899C890E944A
:103A4000B324698B7A8B8B8B9C8B29853A854B852C
:103A50005C856D857E858F8598890E94B3246D87EE
:103A60007E878F87988B61E070E080E090E00E9415
:103A7000A3060150110909F073CF20E030E048E4BB
:103A800052E4C701B6010E9491256093E708709344
:103A9000E8088093E9089093EA0820E030E048E4E1
:103AA00052E4C301B2010E9491256093EB08709328
:103AB000EC088093ED089093EE0820E030E048E4B5
:103AC00052E4C501B4010E94912520E030E040E8B5
:103AD00056E40E94B2246093EF087093F00880933C
:103AE000F1089093F20820E030E048E452E46D8958
:103AF0007E898F89988D0E9491256093F308709339
:103B0000F4088093F5089093F60820E030E048E44C
:103B100052E469897A898B899C890E9491256093F6
:103B2000F7087093F8088093F9089093FA0820E05A
:103B300030E048E452E46D857E858F8598890E9447
:103B400091256093FB087093FC088093FD08909387
:103B5000FE0868EC70E080E090E00E94A3060E94FE
:103B6000240A8091D1048F3F09F4BDC19091D20401
:103B70009F3F09F4B8C1891741F061E00E949A03A0
:103B800061E08091D2040E949A038091D1049091C7
:103B9000D204891719F060E00E942D0361E08FECD8
:103BA00094E00E94B90965E070E080E090E00E9436
:103BB000A3064FE564E08FEC94E00E94341090E09F
:103BC00080E00E94BA106DE18FEC94E00E94A31097
:103BD000182F0E9481106DE18FEC94E00E94A310D9
:103BE00091E0181390E09093DF04882351F01813AC
:103BF00002C00E94811040E06DE18FEC94E00E94D1
:103C000034101092E10440E06CE18FEC94E00E94EB
:103C100034101092E3044FE361E08FEC94E00E94D3
:103C2000341043E062E08FEC94E00E94341080E2B4
:103C30008093D80411E14091D804612F8FEC94E077
:103C40000E9434101F5F1731B1F743E063E08FEC3F
:103C500094E00E94341085E08093E2044CE465E037
:103C60008FEC94E00E94341040E767E08FEC94E022
:103C70000E94341062EE8FEC94E00E94911061EE8D
:103C80008FEC94E00E9491104CE060E08FEC94E0A7
:103C90000E94341060E08FEC94E00E94A3108093A7
:103CA000DE040E944C108091DE048E3009F01BC1AE
:103CB00081E090E00E94BA10882309F495C066E084
:103CC0008FEC94E00E94A310482F476066E08FECD1
:103CD00094E00E9434106DE18FEC94E00E94A310F8
:103CE000482F44606DE18FEC94E00E9434106CE149
:103CF0008FEC94E00E94A310482F4F636CE18FEC8F
:103D000094E00E94341081E08093E3044091DE044B
:103D10004C604093DE0460E08FEC94E00E9434102D
:103D200061E08FEC94E00E94A310482F4D7F61E08A
:103D30008FEC94E00E94341041E063E08FEC94E05B
:103D40000E94341083E08093E204809110029091ED
:103D50001102A091120289839A83AB83E3E5F2E01A
:103D6000849143E0BE016F5F7F4F0E945D1062E06F
:103D70008FEC94E00E94A310EDE4F2E0E49141E0C6
:103D800050E001C0440FEA95EAF7482B62E08FEC5F
:103D900094E00E9434100E944C104091DE04416077
:103DA0004093DE0460E08FEC94E00E94341040E722
:103DB00067E08FEC94E00E9434108091D1049091E0
:103DC000D204891719F061E00E942D038091E0046C
:103DD000882309F46FC04091E20469ED74E08AE041
:103DE0000E945D100E944C1090E080E00E947224BE
:103DF00090E09093D1028093D00281E69CE0909372
:103E000001028093000280916A00836080936A00BF
:103E1000EC9A8DE59CE090930B0280930A028091CE
:103E20006900806C80936900EB9A89E59CE090932F
:103E3000070280930602809169008C60809369007C
:103E4000E99AE091A503F091A60382E08083E091D6
:103E5000A103F091A2031082E091A303F091A403C7
:103E600080E180831092AD03E091A903F091AA0351
:103E700086E08083E091A703F091A80380818061B0
:103E80008083E091A703F091A803808188608083FC
:103E9000E091A703F091A803808180688083E0917E
:103EA000A703F091A80380818F7D808381E08093B8
:103EB000C7022BC062E08FEC94E00E94A310ECE4F8
:103EC000F2E0E49121E030E001C0220FEA95EAF748
:103ED0002095422F482362E08FEC94E00E9434103A
:103EE0001092E0047FCFEDE0F5E090E080E021E08B
:103EF00030E0338B228B019632968F30910509F09A
:103F0000FDC08DE095E00E94650C22242394312CA5
:103F10000E94BF04AB01BC018091D2029091D302F8
:103F2000A091D402B091D50288579C4EAF4FBF4F9D
:103F3000481759076A077B0758F30E94BF0460932C
:103F4000D2027093D3028093D4029093D5028091D1
:103F5000D0029091D1029093F4048093F3048CE208
:103F600099E00E947F0C84E399E00E947F0C8CE32F
:103F700099E00E947F0C8BED98E00E947F0D8DEF01
:103F800094E00E94A60A85EF94E00E94A20C8DECBA
:103F900094E00E94F31060910F09709110098091D4
:103FA0001109909112090E94080F2091B3043091D9
:103FB000B4044091B5045091B60460910F0970911A
:103FC000100980911109909112090E94B423209147
:103FD000BB043091BC044091BD045091BE040E94CA
:103FE000B3246093BB047093BC048093BD0490938E
:103FF000BE046093B7047093B8048093B90490939F
:10400000BA046093CC027093CD028093CE02909359
:10401000CF02C0901309D0901409E0901509F090D8
:1040200016092091A5043091A6044091A70450914F
:10403000A804C701B6010E94B4232091AD043091B9
:10404000AE044091AF045091B0040E94B324609339
:10405000AD047093AE048093AF049093B00460936A
:10406000A9047093AA048093AB049093AC0460936A
:10407000C8027093C9028093CA029093CB02C70111
:10408000B6010E94080F6091C8027091C902809128
:10409000CA029091CB020E94080F809140098823A8
:1040A00071F06091D0027091D1026F5F7F4F709379
:1040B000D1026093D00290E080E00E947A24809147
:1040C0003809882371F06091D0027091D10261505B
:1040D00071097093D1026093D00290E080E00E9459
:1040E0007A240091D0021091D102011140C0EDE07C
:1040F000F5E08AEF9FEF338A228A13C0AC01435068
:1041000051094330510508F4F4CE8730910509F484
:10411000F0CE138A128AEFCE8230910560F7138AAF
:10412000128A3296019689309105B1F7C090050543
:10413000D0900605E0900705F09008052AE939E9D6
:1041400049E151E4C701B6010E944E2387FF48C1EF
:1041500088EA92E00E94B70E85EA92E00E94B70ECC
:10416000EDE0F5E08DEF9FEF138A128AF4C0013085
:1041700091F4EDE0F5E08FEF9FEF138A128A05C00E
:1041800082309105D0F7338A228A329601968E309A
:104190009105B1F7CBCF0230B9F4EDE0F5E090E056
:1041A00080E09C012D7F2530310519F0823091058A
:1041B00041F4138A128A019632968F30910589F75D
:1041C000B5CF338A228AF7CF0330C1F4EDE0F5E0B2
:1041D00090E080E09C01245031092230310518F034
:1041E0008730910541F4138A128A019632968F30F6
:1041F000910581F79BCF338A228AF7CF0430C1F42F
:10420000EDE0F5E090E080E0138A128A01963296A4
:104210008F30910509F48ACF9C0123503109223057
:10422000310590F38730910579F3338A228AEECFF6
:104230000530C1F4EDE0F5E090E080E0338A228AB9
:104240000BC08730910531F08130910519F0843031
:104250009105A1F7138A128A019632968F30910543
:1042600081F764CF0630A9F4EDE0F5E090E080E05E
:10427000338A228A08C08730910519F08130910570
:10428000B9F7138A128A019632968F30910599F701
:104290004DCF073091F4EDE0F5E090E080E0833021
:1042A000910544F4338A228A019632968F30910523
:1042B000B1F73CCF138A128AF7CF0830A1F4EDE0B2
:1042C000F5E090E080E0338A228A07C087309105CC
:1042D000D1F710922E0510922D05019632968F304F
:1042E0009105A1F723CF0930A9F4EDE0F5E090E0C6
:1042F00080E0338A228A08C08730910519F0843023
:104300009105B9F7138A128A019632968F3091057A
:1043100099F70CCF0A3008F409CFEDE0F5E08CEF07
:104320009FEF9C012D5F3F4F2230310518F0833005
:10433000910540F4338A228A329601968B3091059A
:1043400081F7F4CE138A128AF7CF8330910508F0F3
:104350000BCF338A228A329601968C309105A9F7C9
:1043600060E087E10E942D038091C702811111C096
:104370000E94D50628EE33E040E050E00E948824F9
:10438000653F71408105910520F461E087E10E945D
:104390002D038BE199E00E945A0A80EF97E00E947A
:1043A000120B85E097E00E94120B8AE196E00E94D2
:1043B000120B8DE095E00E94650C61E02091F904FC
:1043C0003091FA048091FB049091FC04281739077E
:1043D00008F060E086E10E942D030E94040898CD59
:1043E0002AE939E941E351E4C701B6010E944E23AD
:1043F00087FF27C00E94D50628EE33E040E050E05A
:104400000E948824653F714081059105D0F489EBB5
:1044100092E00E94B70E85EA92E00E94B70EEDE0AE
:10442000F5E08DEF9FEF138A128A05C08330910566
:10443000D0F7338A228A329601968C309105B1F7F3
:104440008FCF80913009882319F081E080931F0974
:104450008091F2048111FBC08091ED04005111099B
:104460008017110609F0F3C08091F10486FF03C0A4
:1044700021E020931F096091EE04062E000C770BBB
:10448000880B990B0E94552320E030E040E251E474
:104490000E94B4232B013C016091EF04062E000C16
:1044A000770B880B990B0E94552320E030E040E207
:1044B00051E40E94B4234B015C016091F004062E8C
:1044C000000C770B880B990B0E9455232AE037EDDF
:1044D00043E25DE30E94B4236B017C01B301A201BE
:1044E00081E794E00E947F096D877E878F87988B94
:1044F000B501A4018FE394E00E947F094B015C01A8
:1045000020911709309118094091190950911A0901
:10451000C701B6010E94B3242091C1043091C204A6
:104520004091C3045091C4040E94B4232091C90453
:104530003091CA044091CB045091CC040E94B32422
:104540006093C9047093CA048093CB049093CC0405
:104550006093C5047093C6048093C7049093C80405
:1045600020E030E040E051E40E94B423A70196012E
:104570000E94B3242B013C01C090CC02D090CD020C
:10458000E090CE02F090CF0220E030E0A901C70118
:10459000B6010E94602618160CF061C020E030E0E1
:1045A00040E85FE3C701B6010E94602618160CF4CC
:1045B00060C0C090C802D090C902E090CA02F090DA
:1045C000CB0220E030E0A901C701B6010E946026BD
:1045D00018160CF058C020E030E040E85FE3C70157
:1045E000B6010E94602618160CF443C073016201E4
:1045F000950184014D855E856F85788981E090E025
:104600000E946D11AB01BC0180EF97E00E94C30ACC
:1046100095014D855E856F85788982E090E00E94E6
:104620006D11AB01BC0185E097E00E94C30A9501C2
:104630004D855E856F85788983E090E00E946D11DD
:10464000AB01BC018AE196E00E94C30A89CEC12C6D
:10465000D12C760146015701260137013FCF20E0DA
:1046600030E040E85FEBC701B6010E944E2387FFB0
:10467000A0CF412C512C3201530142014D865E8660
:104680006F86788AB3CF20E030E040E85FEBC70167
:10469000B6010E944E2387FFA9CFEBCF0E94902343
:1046A00008F481E00895E89409C097FB3EF49095E2
:1046B0008095709561957F4F8F4F9F4F9923A9F0FB
:1046C000F92F96E9BB279395F6958795779567958A
:1046D000B795F111F8CFFAF4BB0F11F460FF1BC0CE
:1046E0006F5F7F4F8F4F9F4F16C0882311F096E961
:1046F00011C0772321F09EE8872F762F05C066230F
:1047000071F096E8862F70E060E02AF09A95660FC7
:10471000771F881FDAF7880F9695879597F9089580
:10472000990F0008550FAA0BE0E8FEEF16161706C2
:10473000E807F907C0F012161306E407F50798F02A
:10474000621B730B840B950B39F40A2661F0232B43
:10475000242B252B21F408950A2609F4A140A695BF
:104760008FEF811D811D08950E94C7230C9438246A
:104770000E942A2438F00E94312420F0952311F061
:104780000C9421240C94272411240C946C240E9452
:10479000492470F3959FC1F3950F50E0551F629F18
:1047A000F001729FBB27F00DB11D639FAA27F00D8A
:1047B000B11DAA1F649F6627B00DA11D661F829FB1
:1047C0002227B00DA11D621F739FB00DA11D621F96
:1047D000839FA00D611D221F749F3327A00D611DB3
:1047E000231F849F600D211D822F762F6A2F112495
:1047F0009F5750409AF0F1F088234AF0EE0FFF1FC8
:10480000BB1F661F771F881F91505040A9F79E3F1E
:10481000510580F00C9421240C946C245F3FE4F348
:10482000983ED4F3869577956795B795F795E79574
:104830009F5FC1F7FE2B880F911D9695879597F97D
:10484000089597F99F6780E870E060E008959FEF12
:1048500080EC089500240A94161617061806090617
:10486000089500240A9412161306140605060895E6
:10487000092E0394000C11F4882352F0BB0F40F46E
:10488000BF2B11F460FF04C06F5F7F4F8F4F9F4FAE
:10489000089557FD9058440F551F59F05F3F71F030
:1048A0004795880F97FB991F61F09F3F79F0879597
:1048B0000895121613061406551FF2CF4695F1DF20
:1048C00008C0161617061806991FF1CF86957105B0
:1048D000610508940895E894BB2766277727CB01E4
:1048E00097F90895F999FECF92BD81BDF89A99275D
:1048F00080B50895262FF999FECF1FBA92BD81BDCC
:1049000020BD0FB6F894FA9AF99A0FBE0196089551
:10491000A1E21A2EAA1BBB1BFD010DC0AA1FBB1FC3
:10492000EE1FFF1FA217B307E407F50720F0A21B35
:10493000B30BE40BF50B661F771F881F991F1A94A2
:1049400069F760957095809590959B01AC01BD01CC
:10495000CF010895EE0FFF1F881F8BBF0790F691C0
:10496000E02D19945058BB27AA270E94CA240C9402
:1049700038240E942A2438F00E94312420F039F48F
:104980009F3F19F426F40C9427240EF4E095E7FBDE
:104990000C942124E92F0E94492458F3BA17620786
:1049A00073078407950720F079F4A6F50C946B241F
:1049B0000EF4E0950B2EBA2FA02D0B01B90190013A
:1049C0000C01CA01A0011124FF27591B99F0593F7E
:1049D00050F4503E68F11A16F040A22F232F342FC6
:1049E0004427585FF3CF469537952795A795F04014
:1049F0005395C9F77EF41F16BA0B620B730B840B29
:104A0000BAF09150A1F0FF0FBB1F661F771F881FE0
:104A1000C2F70EC0BA0F621F731F841F48F4879538
:104A200077956795B795F7959E3F08F0B0CF93952A
:104A3000880F08F09927EE0F9795879508950E94A3
:104A40002A2460F080E891E009F49EEF0E9431246E
:104A500028F040E851E071F45EEF0CC00C9427247C
:104A60000C946B24E92FE0780E94492440F3092E2E
:104A7000052AB1F3261737074807590738F00E2ED5
:104A800007F8E02569F0E025E0640AC0EF6307F865
:104A9000009407FADB01B9019D01DC01CA01AD01F7
:104AA000EF930E94A8250E9438240E9462255F91FE
:104AB000552339F02BED3FE049E450FD49EC0C94CF
:104AC000B3240895DF93DD27B92FBF7740E85FE374
:104AD0001616170648075B0718F4D92F0E9465269B
:104AE0009F938F937F936F930E94BB26E4EEF0E039
:104AF0000E9439260E9438242F913F914F915F9157
:104B00000E94C723DD2351F09058A2EA2AED3FE02E
:104B100049EC5FE3D0785D270E94CA24DF910C94B2
:104B200038240E94A5250C9438240E94312458F082
:104B30000E942A2440F029F45F3F29F00C9421249C
:104B400051110C946C240C9427240E94492468F37E
:104B50009923B1F3552391F3951B550BBB27AA2736
:104B600062177307840738F09F5F5F4F220F331F70
:104B7000441FAA1FA9F335D00E2E3AF0E0E832D038
:104B800091505040E695001CCAF72BD0FE2F29D03B
:104B9000660F771F881FBB1F261737074807AB070D
:104BA000B0E809F0BB0B802DBF01FF2793585F4F82
:104BB0003AF09E3F510578F00C9421240C946C241B
:104BC0005F3FE4F3983ED4F3869577956795B79564
:104BD000F7959F5FC9F7880F911D9695879597F96F
:104BE0000895E1E0660F771F881FBB1F62177307E8
:104BF0008407BA0720F0621B730B840BBA0BEE1FFD
:104C000088F7E09508950E940A266894B1110C94E3
:104C10006C2408950E94512488F09F5798F0B92F72
:104C20009927B751B0F0E1F0660F771F881F991FE1
:104C30001AF0BA95C9F714C0B13091F00E946B24F4
:104C4000B1E008950C946B24672F782F8827B85F04
:104C500039F0B93FCCF3869577956795B395D9F739
:104C60003EF490958095709561957F4F8F4F9F4F43
:104C70000895DF93CF931F930F93FF92EF92DF92EC
:104C80007B018C01689406C0DA2EEF010E94C723D5
:104C9000FE01E894A5912591359145915591A6F392
:104CA000EF010E94CA24FE019701A801DA9469F776
:104CB000DF90EF90FF900F911F91CF91DF910895BA
:104CC0000E94902308F48FEF08959B01AC0160E0EF
:104CD00070E080E89FE30C9491259F930E94DB266F
:104CE0000F9007FCEE5F0C94042719F416F40C9453
:104CF00027240C94C4260E945124B8F39923C9F3A5
:104D0000B6F39F57550B87FF0E94D2260024A0E6DA
:104D100040EA900180585695979528F4805C660F7C
:104D2000771F881F20F026173707480730F4621BCB
:104D3000730B840B202931294A2BA69517940794CD
:104D4000202531254A2758F7660F771F881F20F046
:104D500026173707480730F4620B730B840B200DBE
:104D6000311D411DA09581F7B901842F9158880FFD
:104D70009695879508959B01AC010C94B4230E94ED
:104D80009023880B990B08959F3F31F0915020F4A8
:104D9000879577956795B795880F911D9695879517
:104DA00097F9089591505040660F771F881FD2F7EA
:104DB00008950C9427240E945124D8F3E894E0E04D
:104DC000BB279F57F0F02AED3FE049EC06C0EE0FFD
:104DD000BB0F661F771F881F28F0B23A6207730760
:104DE000840728F0B25A620B730B840BE3959A95F3
:104DF00072F7803830F49A95BB0F661F771F881FB3
:104E0000D2F790480C94C626EF93E0FF07C0A2EAC1
:104E10002AED3FE049EC5FEB0E94CA240E9438244F
:104E20000F90039401FC9058E1E1F1E00C941827F5
:104E30009F938F937F936F93FF93EF939B01AC01AD
:104E40000E94B423EF91FF910E9439262F913F9148
:0C4E50004F915F910C94B423F894FFCFB5
:104E5C00FD06FD06FD06FD06FD06FD06FD06FD062E
:104E6C00ABADAF0000000017020509B2090000004D
:104E7C0000B7083F08B20900000000120B00000048
:104E8C00006E0241022B0717023A02270218020099
:104E9C000000009707FE062E07E4075F073D075149
:104EAC000700000000B109CB08B209000000003572
:104EBC00087F09B20900000000C108E106B2090030
:104ECC00000000F31000000000A20C0000000065C0
:104EDC000C000000007F0D000000007F0C000000A3
:104EEC0000A60A000000005A0A6E616E00696E6628
:104EFC00006F7666000D0A00424154544552592009
:104F0C00435249544943414C00424154544552592F
:064F1C00204C4F5700007D
:00000001FF
