:100000000C94BD010C9462140C9437140C940C14D1
:100010000C94E1130C94B6130C948B130C94601392
:100020000C9435130C94EE010C94EE010C94EE013B
:100030000C94EE010C94EE010C94EE010C94EE0184
:100040000C94EE010C94EE010C94EE010C94EE0174
:100050000C94EE010C94EE010C94EE010C94EB1256
:100060000C94EE010C94B7140C948D140C94EE01C6
:100070000C94EE010C94EE010C94EE010C94EE0144
:100080000C94EE010C94EE010C94EE010C94EE0134
:100090000C94EE010C94EE010C94EE010C94CB1137
:1000A0000C94EE010C94EE010C94EE010C94EE0114
:1000B0000C94EE010C94EE010C94EE010C94EE0104
:1000C0000C94EE010C94EE010C94EE010C94EE01F4
:1000D0000C94EE010C94EE010C94EE010C94EE01E4
:1000E0000C94EE01084AD73B3BCE016E84BCBFFDA9
:1000F000C12F3D6C74319ABD56833DDA3D00C77FF8
:1001000011BED9E4BB4C3E916BAAAABE0000008090
:100110003F05A84CCDB2D44EB93836A9020C50B91F
:10012000918688083CA6AAAA2ABE000000803F004B
:100130000C9475040C94E0020C94980D0C946B04D0
:100140000C94CB080C94FC020C9493040C94720C49
:100150000C94D0020C9448040C94CD020C943E04F0
:100160000C949D040C940B040C9497070C94301081
:100170000C945C040C9441020C94FE060C94F60260
:100180000C94DA020C947A0C0C94C5020C945F0760
:100190000C94BB0C0C941A040C94B7080C94180221
:1001A0000C94F2020C943A020C94BF0A0C942702AD
:1001B0000C94FD060C947F090C94C9020C94E10682
:1001C0000C9403040C9452040C94BB020C94E407AA
:1001D0000C94760C0C946E020C94D6020C942B0B9F
:1001E0000C9436040C943F080C9435080C940509C3
:1001F0000C94FB020C943D070C94730A0C947F043E
:100200000C94E4020C942E040C94B2090C94000398
:100210000C94E8020C9410040C947E0C0C94890449
:100220000C94EE020C9451070C94C1020C94980C9F
:100230000C9417020C94C6160C94B1090C94C108C6
:100240000C942B070C9424040C942E070001020339
:1002500004050A0B0C0D0E0F0000210024002700DE
:100260002A002D00300033000101000004010701C5
:100270000A0100002200250028002B002E0031007A
:10028000340002010000050108010B0100002000FC
:100290002300260029002C002F003200000100005E
:1002A00003010601090105050505070508080808F9
:1002B000020202020A0A08080404040401010101FE
:1002C00001010101030303030303030304070707F9
:1002D0000C0C0C0C0C0C0C0C02020202060606069E
:1002E000060606060B0B0B0B0B0B0B0B010210206B
:1002F000200808102040102040800201020108045C
:1003000002010102040810204080804020100804EF
:100310000201800402018040201008040201080448
:10032000020101020408102040800102040810208C
:10033000408000000A0B02090C0D0E08070304019F
:1003400000000000000000000000000000000000AD
:10035000000000000000000000000000000012117A
:10036000100000000000000000000000000000007D
:100370000000000000000000C61611241FBECFEFD1
:10038000D1E2DEBFCDBF00E00CBF29E0AAEBB2E0B6
:1003900001C01D92A933B207E1F712E0A0E0B2E07C
:1003A000EAE1FEE400E00BBF02C007900D92AA3B19
:1003B000B107D9F711E0CDEBD1E000E006C02197FD
:1003C0000109802FFE010E948E24CC3BD10780E0E2
:1003D0000807A9F70E94C21A0C940B270C9400007E
:1003E0002091F502260F3327331F21323105ECF41B
:1003F00020916003FC0190E080E0243069F082E00D
:100400000895A091F5022191AC014B525D4FA40FCC
:10041000B52FB11D2C930196861798F38091F502A4
:10042000680F6093F50280E0089581E008950895D3
:10043000E091190380911803E81730F4F0E0E65ECC
:10044000FC4F808190E008958FEF9FEF0895909189
:100450001903809118032FEF3FEF981748F4E92F05
:10046000F0E0E65EFC4F208130E09F5F909319033F
:10047000C90108958091180390911903891B990B64
:100480000895CF92DF92EF92FF920F931F93CF9335
:10049000DF937C01CB018A0120916603222389F03E
:1004A000EB016B01C40ED51ECC15DD0569F0699119
:1004B000D701ED91FC910190F081E02DC7011995D4
:1004C000F3CF642F0E94F001C801DF91CF911F91FB
:1004D0000F91FF90EF90DF90CF900895CF93DF932F
:1004E0001F92CDB7DEB76983209166032223F9F00E
:1004F00020918903203258F021E030E0FC01338361
:10050000228390E080E00F90DF91CF910895809159
:100510006703E82FF0E0E859FC4F998190838F5FE3
:10052000809367038093890381E090E0ECCF61E0E2
:10053000CE0101960E94F001F7CF8150823108F080
:100540005AC0E82FF0E08827E755FD4F8F4F0C94F5
:100550008E24C902CD02BB02C102C502FB02D00239
:10056000D602DA02E002E402E802EE02F202FB0244
:10057000F602FC020003809180008F778093800058
:100580000895809180008F7DF9CF80918000877FD2
:10059000F5CF84B58F7784BD089584B58F7DFBCF6B
:1005A0008091B0008F778093B00008958091B00063
:1005B0008F7DF9CF809190008F7780939000089580
:1005C000809190008F7DF9CF80919000877FF5CF4B
:1005D0008091A0008F778093A00008958091A00063
:1005E0008F7DF9CF8091A000877FF5CF809120018A
:1005F0008F77809320010895809120018F7DF9CF1E
:1006000080912001877FF5CFCF93DF93282F30E0B3
:10061000F901EE5CFC4F8491F901E451FD4FD49156
:10062000F901EA55FD4FC491CC23A1F081110E943C
:100630009D02EC2FF0E0EE0FFF1FE457FD4FA59158
:10064000B491EC91ED2381E090E009F480E0DF913A
:10065000CF91089580E090E0FACF1F93CF93DF937E
:10066000282F30E0F901EE5CFC4F8491F901E45150
:10067000FD4FD491F901EA55FD4FC491CC23A9F067
:10068000162F81110E949D02EC2FF0E0EE0FFF1F4C
:10069000EE58FD4FA591B4918FB7F894EC911111DC
:1006A00008C0D095DE23DC938FBFDF91CF911F91DF
:1006B0000895DE2BF8CF1F93CF93DF93C1E0C09353
:1006C000D402882399F1D091B8001091BA0080919A
:1006D000BC008A7B8093BC0060E084E10E942D0313
:1006E00060E085E10E942D0310926003C0935F03D8
:1006F00010923A0361E084E10E942D0361E085E1FC
:100700000E942D038091B9008E7F8093B900809163
:10071000B9008D7F8093B90088E48093B80085E4A8
:100720008093BC001093BA00D093B800DF91CF91B2
:100730001F910895CF93DF9390E0FC01E451FD4FAA
:1007400024918A559D4FFC0184918823D1F090E03B
:10075000880F991FFC01E85AFD4FA591B491FC0147
:10076000EE58FD4FC591D49161110EC09FB7F8941A
:100770008C91E22FE0958E238C932881E223E883ED
:100780009FBFDF91CF9108958FB7F894EC91E22B42
:10079000EC938FBFF6CF1F93CF93DF93182FEB010E
:1007A00061E00E949A03209739F460E0812FDF9185
:1007B000CF911F910C942D03CF3FD10511F461E02F
:1007C000F5CFE12FF0E0EE5CFC4FE491E150E23137
:1007D00008F0B3C0F0E08827EF50FC4F8F4F0C9427
:1007E0008E2403040B0410041A0424049D042E0414
:1007F00036043E04480452045C046B0475049D04F2
:100800007F048904930484B5806884BDC7BDDF91EB
:10081000CF911F91089584B5806284BDC8BDF7CF84
:1008200080918000806880938000D0938900C0937D
:100830008800EDCF80918000806280938000D0930B
:100840008B00C0938A00E3CF809180008860809302
:100850008000D0938D00C0938C00D9CF8091B000E0
:1008600080688093B000C093B300D1CF8091B00076
:1008700080628093B000C093B400C9CF8091900093
:10088000806880939000D0939900C0939800BFCF68
:1008900080919000806280939000D0939B00C093E1
:1008A0009A00B5CF80919000886080939000D0939B
:1008B0009D00C0939C00ABCF8091A0008068809386
:1008C000A0008091A0008F7B8093A000D093A9000E
:1008D000C093A8009CCF8091A00080628093A0006C
:1008E000D093AB00C093AA0092CF8091A000886003
:1008F0008093A000D093AD00C093AC0088CF8091CE
:100900002001806880932001D0932901C0932801A1
:100910007ECF80912001806280932001D0932B01B3
:10092000C0932A0174CF80912001886080932001B8
:10093000D0932D01C0932C016ACFC038D1050CF0A3
:100940003ECF33CF863308F0865320917B00982F1B
:100950009870277F922B90937B00877080648093A0
:100960007C0080917A00806480937A0080917A0084
:1009700086FDFCCF809178009091790008953FB773
:10098000F8948091D0029091D102A091D202B091BE
:10099000D30226B5A89B05C02F3F19F00196A11DD3
:1009A000B11D3FBFBA2FA92F982F8827BC01CD01B9
:1009B000620F711D811D911D42E0660F771F881F18
:1009C000991F4A95D1F708958F929F92AF92BF9247
:1009D000CF92DF92EF92FF920F931F93CF93DF930B
:1009E000D0918903D13208F0D7C0182FC091880365
:1009F0000E94BF046B017C018091600381116BC078
:100A000082E08093600310935F038FEF80935E0317
:100A100010925D03D0935C03A8E6B3E0ECE3F3E04F
:100A200080E0D81391C010923B0380913B03CC0F20
:100A3000C82BC0933B0380913A03813009F088C0F2
:100A400010923A030E94BF046B017C0180913B032A
:100A50008093BB008091620390916303A091640333
:100A6000B0916503892B8A2B8B2BA1F00E94BF04C8
:100A70000091620310916303209164033091650338
:100A80006C197D098E099F09061717072807390772
:100A900008F442C08091BC0083FDD8CF85EC8093E0
:100AA000BC000E94BF046B017C0180916003823016
:100AB00009F450C080915E038F3F09F46FC08091AC
:100AC0005E03803209F46CC080915E03803309F4C8
:100AD00069C084E026C08091620390916303A09175
:100AE0006403B0916503892B8A2B8B2B09F484CF87
:100AF0000E94BF048090620390906303A0906403FF
:100B0000B09065036C197D098E099F0986169706BA
:100B1000A806B90608F070CF809161030E945B03BC
:100B200085E0109267031092890310926603DF91AB
:100B3000CF911F910F91FF90EF90DF90CF90BF90DA
:100B4000AF909F908F9008959D9191938F5F69CF03
:100B500085EEA5CF8091620390916303A091640319
:100B6000B0916503892B8A2B8B2B09F49ECF0E94B1
:100B7000BF040091620310916303209164033091DC
:100B800065036C197D098E099F0906171707280749
:100B9000390708F08ACFC0CF81E0C3CF80E0C1CF52
:100BA00082E0BFCF83E0BDCFCF92DF92EF92FF9282
:100BB0000F931F93CF93DF93D82FC62F613208F086
:100BC00098C00E94BF046B017C0180916003811179
:100BD0006BC081E08093600380935F039FEF9093ED
:100BE0005E0310925D039C0F90935C0380933B0324
:100BF00080913B03DD0FD82BD0933B0380913A03C8
:100C0000813009F078C010923A030E94BF046B0152
:100C10007C0180913B038093BB00809162039091A3
:100C20006303A0916403B0916503892B8A2B8B2BFE
:100C3000A1F00E94BF040091620310916303209110
:100C40006403309165036C197D098E099F090617AD
:100C500017072807390708F448C08091BC0083FDB6
:100C6000D8CF85EC8093BC000E94BF046B017C014F
:100C700080916003813009F440C080915D038C173E
:100C800010F4C0915D03ECE3F3E0AAE1B3E080E08F
:100C90008C1355C08C2FDF91CF911F910F91FF9036
:100CA000EF90DF90CF90089580916203909163035D
:100CB000A0916403B0916503892B8A2B8B2B09F4D7
:100CC00084CF0E94BF0400916203109163032091BE
:100CD0006403309165036C197D098E099F0906171D
:100CE00017072807390708F070CF809161030E9429
:100CF0005B03C0E0CFCF85EEB5CF809162039091CA
:100D00006303A0916403B0916503892B8A2B8B2B1D
:100D100009F4AECF0E94BF040091620310916303F7
:100D200020916403309165036C197D098E099F0938
:100D3000061717072807390708F09ACFD6CF9191E1
:100D40009D938F5FA5CF8F929F92AF92BF92CF92CC
:100D5000DF92EF92FF924B015C010E94BF046B0196
:100D60007C010E94BF046C197D098E099F09683EB1
:100D7000734081059105A8F321E0821A9108A1082A
:100D8000B10888EEC80E83E0D81EE11CF11C811466
:100D90009104A104B10429F7FF90EF90DF90CF9068
:100DA000BF90AF909F908F9008952FB7F894609167
:100DB000CC027091CD028091CE029091CF022FBFD4
:100DC0000895CF93DF93EC01CB01BA012A813B81D7
:100DD0004C815D810E9498232A853B854C855D85E9
:100DE0000E9497246A877B878C879D876E837F8389
:100DF00088879987DF91CF9108950895AF92BF9228
:100E0000CF92DF92EF92FF920F931F93CF93DF93D6
:100E10006C017B018B01040F151FEB015E01AE1805
:100E2000BF08C017D10759F06991D601ED91FC9127
:100E30000190F081E02DC6011995892B79F7C50144
:100E4000DF91CF911F910F91FF90EF90DF90CF90A6
:100E5000BF90AF90089590E080E00895FC01538D1D
:100E6000448D252F30E0842F90E0821B930B541784
:100E700010F0CF96089501970895FC01918D828D11
:100E8000981761F0A28DAE0FBF2FB11D5D968C91AA
:100E9000928D9F5F9F73928F90E008958FEF9FEFE9
:100EA0000895FC01918D828D981731F0828DE80FA5
:100EB000F11D858D90E008958FEF9FEF0895FC015F
:100EC000918D228D892F90E0805C9F4F821B91092C
:100ED0008F73992708958AE893E00E945F0721E0C5
:100EE000892B09F420E0822F0895FC01A48DA80F1E
:100EF000B92FB11DA35ABF4F2C91848D90E001965C
:100F00008F739927848FA689B7892C93A089B1897B
:100F10008C91837080648C93938D848D981306C01C
:100F20000288F389E02D80818F7D80830895EF9280
:100F3000FF920F931F93CF93DF93EC0181E0888F93
:100F40009B8D8C8D98131AC0E889F989808185FF63
:100F500015C09FB7F894EE89FF896083E889F98905
:100F600080818370806480839FBF81E090E0DF9107
:100F7000CF911F910F91FF90EF900895F62E0B8D5A
:100F800010E00F5F1F4F0F731127E02E8C8D8E1115
:100F90000CC00FB607FCFACFE889F989808185FF7C
:100FA000F5CFCE010E947507F1CFEB8DEC0FFD2F31
:100FB000F11DE35AFF4FF0829FB7F8940B8FEA8937
:100FC000FB8980818062CFCFCF93DF93EC01888D46
:100FD0008823B9F0AA89BB89E889F9898C9185FDB4
:100FE00003C0808186FD0DC00FB607FCF7CF8C9142
:100FF00085FFF2CF808185FFEDCFCE010E9475077E
:10100000E9CFDF91CF91089580E090E0892B29F01E
:101010000E946B0781110E94000080E090E0892B04
:1010200049F080E090E0892B29F00E9400008111B6
:101030000E94000080E090E0892B49F080E090E081
:10104000892B29F00E94000081110E94000080E09D
:1010500090E0892B49F080E090E0892B29F00E94F4
:10106000000081110C9400000895FC01148A158A77
:10107000168A178A108A118A128A138A08958F9203
:101080009F92AF92BF92CF92DF92EF92FF92CF9357
:10109000DF93EC01CB01BA0188889988AA88BB88C4
:1010A000A50194010E9496246B017C018C8D8823FC
:1010B00001F12AED3FE049E450E4C701B6010E9486
:1010C00044261816BCF52BED3FE049EC50E4C7016F
:1010D000B6010E9496246B017C012BED3FE049ECA8
:1010E00050E4C501B4010E9497246C8B7D8B8E8BDC
:1010F0009F8B288D398D4A8D5B8DC701B6010E946B
:101100007525AB01BC014E835F8368877987CE016B
:101110000A960E94E1066E817F8188859985DF911C
:10112000CF91FF90EF90DF90CF90BF90AF909F90C6
:101130008F9008952BED3FE049EC50ECC701B601CC
:101140000E94322387FFD5CF2BED3FE049EC50E4DE
:10115000C701B6010E9497246B017C012BED3FE093
:1011600049EC50E4C501B4010E949624BECFFC01B5
:10117000148A158A168A178A108A118A128A138A83
:101180000895FC011286138614861586168217822E
:10119000108611860895AF92BF92CF92DF92EF92A0
:1011A000FF920F931F93CF93DF93EC015A016B01D2
:1011B000EA84FB840C851D859A01AB01B701C80147
:1011C0000E944426181674F0EE84FF840889198959
:1011D0009501A601B701C8010E94322387FD02C014
:1011E00075018601C701D8018E839F83A887B987BF
:1011F000B701C801DF91CF911F910F91FF90EF9040
:10120000DF90CF90BF90AF9008954F925F926F9212
:101210007F928F929F92AF92BF92CF92DF92EF9286
:10122000FF920F931F93CF93DF93EC016A017B0131
:101230002A853B854C855D85CB01B6010E949823AC
:101240004B015C014E845F84688879882C893D89D4
:101250004E895F89C701B6010E9498232C8D3D8D70
:101260004E8D5F8D0E9497249B01AC012C8F3D8F8A
:101270004E8F5F8F288F398F4A8F5B8FC301B201EA
:101280000E949823A50194010E9497244B015C01C0
:101290008E829F82A886B9868E01005E1F4FBC0198
:1012A000A401C8010E94CB089B01AC01C501B40197
:1012B0000E943223882339F0B701A6017058CE016D
:1012C00042960E94E1064E815F8168857985C8015A
:1012D0000E94CB086E837F8388879987DF91CF91A7
:1012E0001F910F91FF90EF90DF90CF90BF90AF9044
:1012F0009F908F907F906F905F904F900895CF93C5
:10130000DF93EC01CB01BA012E813F8148855985DD
:101310000E9496242AA53BA54CA55DA50E94982372
:10132000AB01BC01CE0148960E94CB082C853D85BF
:101330004E855F850E9498232C893D894E895F895F
:101340000E9497246C8B7D8B8E8B9F8B688B798B07
:101350008A8B9B8B6E837F8388879987DF91CF9160
:1013600008950895DC01ED91FC910280F381E02D58
:101370001994CF93DF93EC018B810E942D038A8D0A
:101380009B8D8230910538F0880F991F880F991F27
:1013900005970197F1F7DF91CF910895089561E0E6
:1013A0000C94B9098EBD00000DB407FEFDCF8EB5BB
:1013B00008958CBD9DBD0895CF93DF93D82FC62F80
:1013C0008091DB08811128C08091D2089091D308C8
:1013D0002091D80831E0309366032093880310925F
:1013E000670310928903DC01ED91FC910190F0817B
:1013F000E02D6D2F19958091D2089091D308DC01D2
:10140000ED91FC910190F081E02D6C2F199581E018
:10141000DF91CF910C94E4048091D6089091D70885
:101420000E94D90960E08091D9080E942D038D2F78
:101430000E94D2098C2F0E94D20961E08091D908C4
:10144000DF91CF910C942D03CF93DF93D82FC62F2C
:101450006CE885E20E94DC096D2F86E20E94DC09BF
:101460006C2F606887E20E94DC096AE070E080E02F
:1014700090E0DF91CF910C94A306CF93CFB7F8946F
:101480008091BA02811127C0EBEDF2E08491E1E294
:10149000F3E09491E82FF0E0EE0FFF1FE85AFD4FC4
:1014A000A591B491EC91E92321F461E085E30E94D8
:1014B0002D0361E085E30E949A038CB580618CBDA9
:1014C0008CB580648CBD61E084E30E949A0361E086
:1014D00083E30E949A038091BA028F5F8093BA02DD
:1014E000CFBFCF9108950F931F93CF93DF93EC015C
:1014F0008C81882341F10E94D506AB01BC018D810E
:101500009E81AF81B88509851A852B853C85800F22
:10151000911FA21FB31F481759076A077B0740F4A2
:101520001C8284E090E0DF91CF911F910F9108958C
:1015300061E08A810E942D030E94D5066D837E831F
:101540008F8398871C820E94D506AB01BC018D81D8
:101550009E81AF81B8850D851E852F853889800FC6
:10156000911FA21FB31F84179507A607B70720F482
:1015700060E08A810E942D0390E080E0D4CFCF9379
:10158000DF93EC018A810E94A204BC01990F880BB1
:10159000990B0E9439239B01AC016C857D858E855A
:1015A0009F850E949823688779878A879B8790E028
:1015B00080E0DF91CF9108954F925F926F927F927A
:1015C0008F929F92AF92BF92CF92DF92EF92FF9253
:1015D0000F931F93CF93DF93EC014A018B015C01C2
:1015E0008AE6A80EB11C4C885D886E887F887301DE
:1015F0006201F7FAF094F7F8F0949A01AB01C70191
:10160000B6010E944426181664F09401A801C30193
:10161000B2010E9432237301620187FD02C064019E
:101620007801B701A601C5010E947F096CAB7DABB3
:101630008EAB9FABDF91CF911F910F91FF90EF90F9
:10164000DF90CF90BF90AF909F908F907F906F90E2
:101650005F904F9008954F925F926F927F928F921A
:101660009F92AF92BF92CF92DF92EF92FF920F9331
:101670001F93CF93DF93EC016C857D85072E000CC3
:10168000880B990B0E9439236B017C011D861C86F7
:101690006E857F85072E000C880B990B0E943923DD
:1016A0009B01AC01C701B6010E9475252BED3FE0FF
:1016B00049E450E40E9498239B01AC010E949724C6
:1016C00028A539A54AA55BA50E949724AB01BC01BA
:1016D00048A759A76AA77BA7CE0182539F4F0E94B4
:1016E0003F084B015C0188AA99AAAAAABBAACCA868
:1016F000DDA8EEA8FFA8288D398D4A8D5B8DC70126
:10170000B6010E9498232B013C01A5019401C70159
:10171000B6010E949624AB01BC01CE01C8960E947E
:1017200005099B01AC01C301B2010E9497246B0122
:101730007C0120E030E0A9010E944426181694F4B0
:1017400020E030E040EC5FE3C701B6010E94442690
:1017500087FF12C06FEF70E08A810E94CB036FEFAA
:1017600070E087C020E030E040EC5FEBC701B601DD
:101770000E943223181674F38E0104561F4FB701CE
:10178000A601C8010E947F0920E030E04FE753E442
:101790000E949823288939894A895B890E94752586
:1017A00020E030E04FE753EC0E94322387FD7FC0FA
:1017B000B701A601C8010E947F0920E030E04FE791
:1017C00053E40E949823288939894A895B890E94B9
:1017D000752520E030E04FE753E40E9444261816B8
:1017E0005CF1B701A601C8010E947F0920E030E04A
:1017F0004FE753E40E949823288939894A895B89F5
:101800000E9475256B017C0120E030E0A9010E9457
:1018100044261816BCF020E030E04FE753E4C7013F
:10182000B6010E9497240E94E7257F836E838FEF85
:1018300090E09987888716C0C12CD12C9FE7E92EAC
:1018400093E4F92E8FEF90E09F838E83A70196019A
:1018500060E070E08FE793E40E9496240E94E72501
:10186000798768876E817F818A810E94CB03688532
:1018700079858C810E94CB0388A599A5AAA5BBA5D3
:101880008CA79DA7AEA7BFA790E080E0DF91CF9186
:101890001F910F91FF90EF90DF90CF90BF90AF908E
:1018A0009F908F907F906F905F904F900895C12C84
:1018B000D12C8FE7E82E83ECF82EADCFCF93DF93BA
:1018C000EC018A850E9404032C853D85892B39F023
:1018D0002F5F3F4F3D872C87DF91CF910895215097
:1018E0003109F8CF8FE096E00C945E0C8AEF96E019
:1018F0000C945E0C85EE97E00C945E0C0F931F9396
:10190000CF93DF93EC0122968C01005E1F4FC0172E
:10191000D10739F0FE016889229680810E942D034B
:10192000F6CF90E080E0DF91CF911F910F91089565
:10193000CF93DF93EC018A810E940403AC0191E014
:101940004115510509F490E09E832F81222321F057
:1019500081E04115510509F080E08C83211103C01D
:1019600021E0452B09F420E02D839F8390E080E067
:10197000DF91CF910895CF93DF93EC018A810E948C
:10198000A2049D838C8390E080E0DF91CF91089545
:10199000EF92FF920F931F93CF93DF93EC01162FDB
:1019A0007A018985811143C0888199812E8131E036
:1019B0003093660320938803109267031092890383
:1019C000DC01ED91FC910190F081E02D199580E012
:1019D0000E94E40466E08E810E94D40510921903EF
:1019E0008093180388819981DC01ED91FC9100843A
:1019F000F185E02D1995892B99F08701B6E0EB0E62
:101A0000F11C88819981DC01ED91FC910284F385C0
:101A1000E02D1995F80181938F01EE15FF0589F7E7
:101A2000DF91CF911F910F91FF90EF9008958C81DE
:101A30009D810E94D90960E08F810E942D03812F32
:101A400080680E94D2098701F6E0EF0EF11C80E069
:101A50000E94D209D8018D938D01AE15BF05B9F74B
:101A600061E08F81DF91CF911F910F91FF90EF90F7
:101A70000C942D038F929F92AF92BF92CF92DF92E0
:101A8000EF92FF920F931F93CF93DF9300D000D07C
:101A9000CDB7DEB78C01CB01AE014F5F5F4F63E482
:101AA0000E94C80C69817A81762767277627072EDE
:101AB000000C880B990B0E9439234B015C016B8150
:101AC0007C81762767277627072E000C880B990BD9
:101AD0000E9439236B017C016D817E817627672707
:101AE0007627072E000C880B990B0E943923F801EA
:101AF00080829182A282B382C482D582E682F782FA
:101B00006087718782879387C80126960FB6F894FD
:101B1000DEBF0FBECDBFDF91CF911F910F91FF9020
:101B2000EF90DF90CF90BF90AF909F908F900895EF
:101B30004F925F926F927F928F929F92AF92BF92DD
:101B4000CF92DF92EF92FF920F931F93CF93DF9389
:101B5000CDB7DEB760970FB6F894DEBF0FBECDBF2E
:101B60008C01BC016E5F7F4FCE0101960E943A0D41
:101B7000F801F5A06F2D70E090E080E00E9439231D
:101B80004B015C016F2D70E090E080E00E943723F4
:101B900020E030E04AE753E40E94982320E030E060
:101BA00040E058E30E9498236B017C01A501940159
:101BB000F801608D718D828D938D0E9475259B013A
:101BC000AC0169817A818B819C810E949624A70156
:101BD00096010E9498232B013C01A5019401F80174
:101BE000648D758D868D978D0E9475259B01AC0146
:101BF0006D817E818F8198850E949624A701960130
:101C00000E9498236D877E878F87988BA50194010A
:101C1000F80160A171A182A193A10E9475259B0189
:101C2000AC0169857A858B859C850E949624A701E5
:101C300096010E9498236B017C012BED3FE049E463
:101C400050E4C301B2010E94982320E030E044E355
:101C500053E40E947525F80164AB75AB86AB97AB76
:101C60002BED3FE049E450E46D857E858F859889B2
:101C70000E94982320E030E044E353E40E9475255D
:101C8000F80160AF71AF82AF93AF2BED3FE049E455
:101C900050E4C701B6010E94982320E030E044E3FD
:101CA00053E40E947525F80164AF75AF86AF97AF16
:101CB00090E080E060960FB6F894DEBF0FBECDBF17
:101CC000DF91CF911F910F91FF90EF90DF90CF9018
:101CD000BF90AF909F908F907F906F905F904F904C
:101CE0000895CF93C82F8091DB08811140C0809167
:101CF000D2089091D3082091D80831E03093660340
:101D0000209388031092670310928903DC01ED9100
:101D1000FC910190F081E02D6C2F199580E00E94DC
:101D2000E40461E08091D8080E94D4051092190360
:101D3000809318038091D2089091D308DC01ED9133
:101D4000FC910084F185E02D1995C0E0892B61F0AC
:101D50008091D2089091D308DC01ED91FC9102842E
:101D6000F385E02D1995C82F8C2FCF910895809180
:101D7000D6089091D7080E94D90960E08091D908CF
:101D80000E942D038C2F80680E94D20980E00E945F
:101D9000D209C82F61E08091D9080E942D03E4CFB9
:101DA0008DE10E94710E887F682F66608DE10C9432
:101DB000DC098CE10E94710E682F677E8CE10E9425
:101DC000DC0981E08093F40808958BE10E94710E94
:101DD000682F677E8BE10E94DC0981E08093F50823
:101DE00008958AE10E94710E887F682F66608AE1FB
:101DF0000C94DC098BE10E94710E682F6C7F8BE1E3
:101E00000C94DC09FC0101900020E9F73197AF0147
:101E1000481B590BBC018AE893E00C94FE0685ED43
:101E20008093BC008091620390916303A09164034E
:101E3000B09165030796A11DB11D23E0B695A79546
:101E4000979587952A95D1F72091BC0024FD03C072
:101E50001092600308954091620350916303609172
:101E6000640370916503452B462B472B69F300975C
:101E7000A105B10541F02AE22A95F1F700C00197CA
:101E8000A109B109E1CF809161030C945B030F9329
:101E90001F93CF93DF93EC010C811D812E813F8135
:101EA00040E052E16AE770E090E00417150726076A
:101EB000370740F476956795579547959F5F96301D
:101EC000A1F797E0892F806A9095869591700E947E
:101ED000D90960E0CE01DF91CF911F910F910C9451
:101EE000B9090F931F93CF93DF93EC01062F142FA3
:101EF0000E94470F802F80620E94D2098887812F1D
:101F00000E94D209CE01DF91CF911F910F910C94C5
:101F1000CF094091D30441FD0CC042604093D304EB
:101F200060E084EC94E00E94710F8BE19EE40197E5
:101F3000F1F70895FF920F931F93CF93DF93C82F6C
:101F4000F62E072F142F84EC94E00E94470F8C2F5D
:101F500080620E94D2098093CC04CF2DD02F1150E3
:101F600020F089910E94D209FACF84EC94E0DF91AD
:101F7000CF911F910F91FF900C94CF0984EC94E0C6
:101F80000E94470F80E50E94D2098093CC0483E72A
:101F90000E94D20984EC94E00C94CF091F93CF9354
:101FA000DF93EC01162F0E94470F812F80620E9461
:101FB000D2098887CE01DF91CF911F910C94CF0970
:101FC0001F93CF93DF93EC01162F0E94470F812FB1
:101FD0000E94D20988878FEF0E94D209182FCE0164
:101FE0000E94CF09812FDF91CF911F910895CF9348
:101FF000DF93EC0166E084EC94E00E94E00F877DC3
:10200000219701F145E550E060E070E04093DA048B
:102010005093DB046093DC047093DD04C0E0C82BB4
:102020004C2F66E084EC94E00E94710F66E084EC33
:1020300094E00E94E00F91E0C81390E0892FDF91B7
:10204000CF91089541E450E060E070E04093DA04FD
:102050005093DB046093DC047093DD04C8E0DFCFB1
:102060009F92AF92BF92CF92DF92EF92FF920F9327
:102070001F93CF93DF9300D000D0CDB7DEB78C0194
:102080006C0182E0C80ED11C9924939467E1C601CB
:102090000E94E00F80FD4AC0F801868981111EC0B0
:1020A0008385E82E873010F096E0E92EF82EFE1892
:1020B000C6010E94470F81E60E94D209F80182877B
:1020C000CE0101965C01EA949FEFE91659F08FEF7B
:1020D0000E94D209F50181935F01F5CFF12C86E0D2
:1020E000E82EE6CFFA94FFEFFF1621F08FEF0E9463
:1020F000D209F8CFC6010E94CF0940E467E0C601CB
:102100000E94710F2981F80186A197A14096281796
:10211000190609F0BBCF20A38A8181A38B8182A3FA
:102120008C8183A38E8184A395A2B0CF90E080E0C0
:1021300026960FB6F894DEBF0FBECDBFDF91CF91CC
:102140001F910F91FF90EF90DF90CF90BF90AF90D5
:102150009F9008954F925F926F927F928F929F927D
:10216000AF92BF92CF92DF92EF92FF920F931F93A5
:10217000CF93DF93CDB7DEB72E970FB6F894DEBFBF
:102180000FBECDBF9E878D874A015B0128013901B3
:1021900020E030E84BEB54ECCB01B4010E94322339
:1021A00087FDBFC020E030E84BEB54E4C501B4012B
:1021B0000E94442618160CF4BCC020E030E84BEB1B
:1021C00054ECC301B2010E94322387FDBAC020E063
:1021D00030E84BEB54E4C301B2010E9444261816C8
:1021E0000CF4B7C020E030E040E051ECC701B6018C
:1021F0000E94322387FDB5C020E030E040E051E48A
:10220000C701B6010E94442618160CF4B0C0A501FF
:102210009401C501B4010E94982369837A838B835A
:102220009C83A3019201C301B2010E9498239B01E8
:10223000AC0169817A818B819C810E9497240E94E4
:102240005F2669837A838B839C8320E030E044EBB4
:1022500052E4C701B6010E9498236B017C01A301DF
:1022600092015058C501B4010E9416254B015C0132
:102270002DE633EB44E85FE30E9496240E9451264A
:102280006D837E838F8398872BED3FE049E450E494
:10229000C501B4010E9496240E94512669877A875D
:1022A0008B879C872DE633EB44E85FE3C501B401DF
:1022B0000E9497240E9451262D853E8522303105AB
:1022C00009F45BC02330310509F460C029813A81EB
:1022D0004B815C816D817E818F8198850E949823DE
:1022E000A70196010E94972420E030E04CEB51E4D6
:1022F0000E9475252E960FB6F894DEBF0FBECDBF97
:10230000DF91CF911F910F91FF90EF90DF90CF90D1
:10231000BF90AF909F908F907F906F905F904F9005
:102320000895812C50E8952E5BEBA52E54ECB52E2C
:1023300044CF812C40E8942E4BEBA42E44E4B42EE1
:102340003CCF412C30E8532E3BEB632E34EC732E04
:1023500049CF412C20E8522E2BEB622E24E4722E22
:1023600041CFC12CD12CE12C91ECF92E50CFC12CB6
:10237000D12CE12C81E4F82E4ACF29813A814B817E
:102380005C8169857A858B859C85A8CF29813A8176
:102390004B815C81A3CF1F920F920FB60F92112435
:1023A0000BB60F922F933F934F935F936F937F934F
:1023B0008F939F93AF93BF93EF93FF938091B90057
:1023C000887F803609F44DC008F040C0883209F497
:1023D000A7C028F5803109F49BC0C8F4882309F40C
:1023E000F7C0883009F494C0FF91EF91BF91AF918D
:1023F0009F918F917F916F915F914F913F912F911D
:102400000F900BBE0F900FBE0F901F901895883144
:1024100009F486C0803241F780935E0314C0803493
:1024200009F49BC040F48033B9F38833E9F6809314
:102430005E0385ECAEC0803509F483C0883509F4AD
:1024400094C0883489F60E940F0FCECF883909F4E2
:102450008AC038F5883729F050F4883611F0803773
:1024600019F683E0809360031092170355C08838F3
:1024700009F479C0803919F0803809F0B5CF80911E
:102480001703803208F06FC0E091170381E08E0FD0
:10249000809317038091BB00F0E0E950FD4F8083EB
:1024A0003BC0803B39F0D0F4803A09F477C0883AD9
:1024B00009F09ACF84E0809360031092F6021092A4
:1024C000F502F0E0E0E019958091F50281110FC06E
:1024D00081E08093F5021092D50209C0803C09F496
:1024E000A8CF883C09F4A5CF883B09F07DCFE091C7
:1024F000F60281E08E0F8093F602F0E0EB52FD4F82
:1025000080818093BB009091F6028091F50229C0F2
:1025100080913B038093BB0085EC8093BC0064CF2B
:1025200090915D0380915C03981758F5E0915D03ED
:1025300081E08E0F80935D03F0E0E45CFC4F8081CE
:10254000E9CFE0915D0381E08E0F80935D03809180
:10255000BB00F0E0E45CFC4F808390915D038091D0
:102560005C039817C8F285E8D8CFE0915D0381E05D
:102570008E0F80935D038091BB00F0E0E45CFC4F24
:10258000808380915F0381115ECF81E080933A0365
:1025900084EA8093BC001092600326CF85EC809380
:1025A000BC001092600380911703803230F4E091F8
:1025B0001703F0E0E950FD4F10826091170370E0BF
:1025C00087EF92E0F0E0E0E01995109217030CCF4E
:1025D00010925E0338CF1F920F920FB60F92112404
:1025E0002F933F938F939F93AF93BF938091CC0290
:1025F0009091CD02A091CE02B091CF023091CB024A
:1026000023E0230F2D3758F50196A11DB11D20930E
:10261000CB028093CC029093CD02A093CE02B093D4
:10262000CF028091D0029091D102A091D202B091BC
:10263000D3020196A11DB11D8093D0029093D102C7
:10264000A093D202B093D302BF91AF919F918F918B
:102650003F912F910F900FBE0F901F90189526E875
:10266000230F0296A11DB11DD2CF1F920F920FB65C
:102670000F9211240BB60F922F933F934F935F93BA
:102680006F937F938F939F93AF93BF93EF93FF933A
:10269000E0910E02F0910F021995FF91EF91BF9119
:1026A000AF919F918F917F916F915F914F913F91EA
:1026B0002F910F900BBE0F900FBE0F901F9018958B
:1026C0001F920F920FB60F9211240BB60F922F93F9
:1026D0003F934F935F936F937F938F939F93AF93AA
:1026E000BF93EF93FF93E0910C02F0910D021995C7
:1026F000FF91EF91BF91AF919F918F917F916F91DA
:102700005F914F913F912F910F900BBE0F900FBE95
:102710000F901F9018951F920F920FB60F921124D1
:102720000BB60F922F933F934F935F936F937F93CB
:102730008F939F93AF93BF93EF93FF93E091020228
:10274000F09103021995FF91EF91BF91AF919F9185
:102750008F917F916F915F914F913F912F910F904A
:102760000BBE0F900FBE0F901F9018951F920F92E7
:102770000FB60F9211240BB60F922F933F934F93E6
:102780005F936F937F938F939F93AF93BF93EF93D9
:10279000FF93E0910002F09101021995FF91EF91F2
:1027A000BF91AF919F918F917F916F915F914F9169
:1027B0003F912F910F900BBE0F900FBE0F901F9067
:1027C00018951F920F920FB60F9211240BB60F920D
:1027D0002F933F934F935F936F937F938F939F9329
:1027E000AF93BF93EF93FF93E0910A02F0910B0236
:1027F0001995FF91EF91BF91AF919F918F917F912B
:102800006F915F914F913F912F910F900BBE0F9061
:102810000FBE0F901F9018951F920F920FB60F9238
:1028200011240BB60F922F933F934F935F936F93A7
:102830007F938F939F93AF93BF93EF93FF93E09119
:102840000802F09109021995FF91EF91BF91AF91A4
:102850009F918F917F916F915F914F913F912F91B8
:102860000F900BBE0F900FBE0F901F9018951F92E8
:102870000F920FB60F9211240BB60F922F933F9326
:102880004F935F936F937F938F939F93AF93BF9378
:10289000EF93FF93E0910602F09107021995FF91E3
:1028A000EF91BF91AF919F918F917F916F915F91C8
:1028B0004F913F912F910F900BBE0F900FBE0F9035
:1028C0001F9018951F920F920FB60F9211240BB6FE
:1028D0000F922F933F934F935F936F937F938F93B9
:1028E0009F93AF93BF93EF93FF93E0910402F09116
:1028F00005021995FF91EF91BF91AF919F918F9133
:102900007F916F915F914F913F912F910F900BBEEF
:102910000F900FBE0F901F9018951F920F920FB639
:102920000F9211240BB60F922F933F934F935F9307
:102930006F937F938F939F93AF93BF93EF93FF9387
:102940008AE893E00E947507FF91EF91BF91AF91E4
:102950009F918F917F916F915F914F913F912F91B7
:102960000F900BBE0F900FBE0F901F9018951F92E7
:102970000F920FB60F9211240BB60F922F938F93D5
:102980009F93EF93FF93E0919A03F0919B038081D3
:10299000E091A003F091A10382FD1DC09081809180
:1029A000A3038F5F8F732091A403821741F0E091FE
:1029B000A303F0E0E657FC4F958F8093A303FF91AC
:1029C000EF919F918F912F910F900BBE0F900FBEA3
:1029D0000F901F9018958081F2CF2F923F924F92C7
:1029E0005F926F927F928F929F92AF92BF92CF929F
:1029F000DF92EF92FF920F931F93CF93DF93CDB7A8
:102A0000DEB76C970FB6F894DEBF0FBECDBF4C019A
:102A100069877A8F4A875B8F2B873C8FE982FA829E
:102A20000B831C83AC86BD86CE86DF862AA93BA994
:102A30004CA95DA9288B398B4A8B5B8B4EA95FA96A
:102A40005D8B4C8BC8ACD9ACEAACFBAC8CAD9DAD0E
:102A5000AEADBFAD8D839E83AF83B88724962CAD7A
:102A60003DAD4EAD5FAD24972E8B3F8B488F598F78
:102A70008BE292E0D40111969C938E93F401C2AE46
:102A8000D3AEE4AEF5AEFE961082118212821382AE
:102A900087E192E0D9969C938E93D8973C96C28218
:102AA000D382E482F582168217821086118689E627
:102AB000A82E82E0B82EB182A082128613861486D8
:102AC00015863E9612821382148215821682178210
:102AD0001086118605E512E01183008389819A81B1
:102AE000AB81BC81B05882879387A487B587298141
:102AF0003A814B815C8126873787408B518B769753
:102B00008D819E81AF81B88580839183A283B383B9
:102B100014019AE6290E311CD1011296CD92DD9254
:102B2000ED92FC921597F10116821782108611869C
:102B30002FE532E0318320833A96C282D382E48249
:102B4000F5821682178210861186B182A0821286C3
:102B50001386148615863E9612821382148215827D
:102B600016821782108611861183008380E09CE311
:102B7000ACE1B6EC82879387A487B587412C9CE3B0
:102B8000592E9CE1692E96E4792E46865786608AF6
:102B9000718AD1019E964D925D926D927C92D197F1
:102BA000A701960160E070E080E89FE30E94752530
:102BB000F10162A773A784A795A7F296C282D38278
:102BC000E482F58216821782108611862FE532E0A4
:102BD00031832083D401AA55BF4F1296CD92DD9246
:102BE000ED92FC92159716961D921D921D921C92C5
:102BF00019971196BC92AE921A961D921D921D9233
:102C00001C921D971E9612961D921D921D921C924B
:102C1000159716961D921D921D921C92199711964A
:102C20001C930E9320E03CE34CE156EC1A962D9356
:102C30003D934D935C931D971E964D925D926D92C0
:102C40007C92519746A657A660AA71AA62A773A75D
:102C500084A795A7840102531F4FD8011296CD92E5
:102C6000DD92ED92FC921597F8011682178210867C
:102C7000118681E292E0918380833A96C282D38268
:102C8000E482F5821682178210861186B182A082B4
:102C90001286138614861586A7019601C701B60110
:102CA0000E949724D80158966D937D938D939C93A1
:102CB0005B9781E05C968C932985F40122833A8DA1
:102CC00033834A8544835B8D55838B8582879C8DB6
:102CD000938729813A814B815C81D401208B318B90
:102CE000428B538B2C853D854E855F85248B358BA0
:102CF000468B578B288939894A895B89208F318F88
:102D0000428F538FEC89FD891F96FC93EE931E979B
:102D10005C96CD92DD92ED92FC925F972D813E8183
:102D20004F81588590962D933D934D935C93939747
:102D30002E893F89488D598D94962D933D934D93BF
:102D40005C93979761E089850E949A0361E08A8588
:102D50000E949A0360E08B856C960FB6F894DEBFF4
:102D60000FBECDBFDF91CF911F910F91FF90EF90DC
:102D7000DF90CF90BF90AF909F908F907F906F909B
:102D80005F904F903F902F900C949A032F923F9218
:102D90004F925F926F927F928F929F92AF92BF926B
:102DA000CF92DF92EF92FF920F931F93CF93DF9317
:102DB00010922A041092290488EE93E0A0E0B0E07B
:102DC00080932B0490932C04A0932D04B0932E0495
:102DD00021E332E0309328042093270410928D03DE
:102DE00010928C0380938E0390938F03A093900393
:102DF000B093910383E492E090938B0380938A03D2
:102E000085EC90E0909397038093960384EC90E098
:102E1000909399038093980380EC90E090939B03A8
:102E200080939A0381EC90E090939D0380939C03A0
:102E300082EC90E090939F0380939E0386EC90E059
:102E40009093A1038093A0031092A3031092A40374
:102E50001092A5031092A603CBE8D2E0D0933209DA
:102E6000C09331098FE090E0909334098093330947
:102E700060E00E949A03D0932A09C093290980E157
:102E800090E090932C0980932B0960E00E949A03B4
:102E9000D0932209C093210981E190E09093240905
:102EA0008093230960E00E949A0387E992E090935F
:102EB0001109809310098EE090E09093130980939C
:102EC0001209109215091092160910921709109202
:102ED000180980ED97E0A0E0B0E080931909909385
:102EE0001A09A0931B09B0931C0982E390E0A0E0AB
:102EF000B0E080931D0990931E09A0931F09B09321
:102F0000200961E08EE00E949A0385E892E09093A8
:102F1000D1088093D00887E294E09093D3088093FF
:102F2000D20883E394E09093D5088093D40880E599
:102F30008093D6081092D70888E68093D8088CE052
:102F400090E09093DA088093D90888248394809243
:102F5000DB081092DC081092DD081092DE08109257
:102F6000DF081092E0081092E1081092E208109237
:102F7000E3081092E4081092E5081092E608109217
:102F8000E7081092E8081092E9081092EA081092F7
:102F9000EB081092EC081092ED081092EE081092D7
:102FA000EF081092F0081092F1081092F2081092B7
:102FB000F3081092F8081092F9081092FA0810928B
:102FC000FB081092FC081092FD081092FE08109267
:102FD000FF08109200091092010910920209109244
:102FE0000309109204091092050910920609109223
:102FF0000709109208091092090910920A09109203
:103000000B0910920C0910920D0910920E091092E2
:103010000F0904E4202E2F928AE7382E3F921F9248
:103020001F929FE3992E9F92C3E3CF93CF93CF93A9
:103030002BE3422E4F9233EA532E5F9247ED642EDC
:103040006F92DAE0DF938F9250E4752E7F929F9219
:1030500087E58F93DF939DE39F93A12CB12C60EFC5
:10306000C62E61E4D62E8601750123E030E044E0EF
:1030700050E065E070E085EE97E00E94ED142F923D
:103080003F921F921F929F92CF93CF93CF934F92D5
:103090005F926F92DF938F927F929F92A7E5AF939B
:1030A000DF93BDE3BF9323E130E046E050E067E00B
:1030B00070E08AEF96E00E94ED148DB79EB784967B
:1030C0000FB6F8949EBF0FBE8DBF2F923F921F92F6
:1030D0001F929F92CF93CF93CF934F925F926F9215
:1030E000DF938F927F929F9297E59F93DF93ADE35B
:1030F000AF9325E130E048E050E069E070E08FE018
:1031000096E00E94ED149F9280E88F931F921F9289
:103110009F928F931F921F9291E49F9390E39F93AE
:103120001F921F921F928F929F928F931F921F92B6
:10313000A12CB12C70E8C72E7FE3D72E8601750134
:1031400021E030E041E050E061E070E084E295E0B1
:103150000E94ED148FE792E090930305809302059F
:10316000E4E1F5E080E1DF011D928A95E9F788E16D
:1031700090E0909305058093040589E190E0909399
:103180000705809306058AE190E0909309058093F6
:1031900008058BE190E090930B0580930A058CE184
:1031A00090E090930D0580930C058DE190E0909355
:1031B0000F0580930E058EE190E0909311058093AA
:1031C00010058FE190E09093130580931205C2E003
:1031D000D5E004E215E08DB79EB784960FB6F8945B
:1031E0009EBF0FBE8DBF22960C171D0729F061E010
:1031F00088810E949A03F7CF81E992E09093F304CB
:103200008093F20486E390E09093F5048093F404B5
:1032100086E696E6A6E4B1E48093F6049093F7047C
:10322000A093F804B093F90480E090E0A8E4BCE334
:103230008093FE049093FF04A0930005B0930105D2
:1032400060E086E30E949A0389E792E09093EB04A2
:103250008093EA0487E390E09093ED048093EC047C
:1032600084E190E09093F1048093F00460E087E3C0
:103270000E949A0383E792E09093C3048093C20470
:103280008AE08093C6048BE08093C70480E896E9C7
:10329000A8E9B0E08093C8049093C904A093CA043D
:1032A000B093CB0480E28093CD041092D4041092AA
:1032B000D50485E08093D70481E08093D80485E02D
:1032C00090E0A0E0B0E08093DE049093DF04A09350
:1032D000E004B093E10483E394E09093C504809309
:1032E000C4041092CE0481E090E09093E9048093AE
:1032F000E8048AE097EDA3EABBE38093B6049093D9
:10330000B704A093B804B093B9041092BA04109211
:10331000BB041092BC041092BD0429E632E0309345
:10332000B5042093B4041092BE041092BF0410920E
:10333000C0041092C1048093A8049093A904A093A0
:10334000AA04B093AB041092AC041092AD04109296
:10335000AE041092AF043093A7042093A6041092F9
:10336000B0041092B1041092B2041092B30480938E
:103370009A0490939B04A0939C04B0939D04109294
:103380009E0410929F041092A0041092A104309306
:103390009904209398041092A2041092A30410920E
:1033A000A4041092A5048093680490936904A093E8
:1033B0006A04B0936B0410926C0410926D04109226
:1033C0006E0410926F04CFE5D2E0D0936704C093EF
:1033D00066048093720490937304A0937404B09372
:1033E000750410927604109277041092780410926B
:1033F0007904309371042093700410927A0410922F
:103400007B0410927C0410927D0410928004109230
:10341000810410928204109283041092840410920A
:1034200085041092860410928704E5E5F2E0F0939B
:103430007F04E0937E04812C912C4AEFA42E45EC6E
:10344000B42E8092880490928904A0928A04B0924B
:103450008B0440E050E06AEF75E440938C04509395
:103460008D0460938E0470938F0440939404509362
:1034700095046093960470939704412C512C18E4A2
:10348000612E13E4712E4092900450929104609248
:103490009204709293048093360490933704A0931F
:1034A0003804B093390410923A0410923B041092FD
:1034B0003C0410923D04D0933504C09334048093AF
:1034C000400490934104A0934204B09343041092AB
:1034D000440410924504109246041092470430931D
:1034E0003F0420933E041092480410924904109225
:1034F0004A0410924B0410924E0410924F04109202
:1035000050041092510410925204109253041092DD
:10351000540410925504F0934D04E0934C048092AF
:10352000560490925704A0925804B09259044093C4
:103530005A0450935B0460935C0470935D04409361
:103540006204509363046093640470936504409232
:103550005E0450925F046092600470926104DF9197
:10356000CF911F910F91FF90EF90DF90CF90BF9080
:10357000AF909F908F907F906F905F904F903F9013
:103580002F900895CF93DF93CDB7DEB7E9970FB6AD
:10359000F894DEBF0FBECDBF789484B5826084BD41
:1035A00084B5816084BD85B5826085BD85B5816047
:1035B00085BD80916E00816080936E0010928100C5
:1035C0008091810082608093810080918100816080
:1035D0008093810080918000816080938000809141
:1035E000B10084608093B1008091B00081608093CD
:1035F000B000809191008260809391008091910051
:103600008160809391008091900081608093900010
:103610008091A10082608093A1008091A1008160CF
:103620008093A1008091A00081608093A000809190
:10363000210182608093210180912101816080932A
:1036400021018091200181608093200180917A0086
:10365000846080937A0080917A00826080937A00FF
:1036600080917A00816080937A0080917A008068EE
:1036700080937A001092C1008091DB08882391F03A
:1036800061E08091D9080E949A0361E08091D90895
:103690000E942D030E943D0A80E58093D60881E0B8
:1036A0008093D70860E88BE60E94DC096AE070E04E
:1036B00080E090E00E94A3066AE070E080E090E085
:1036C0000E94A30662E087E30E94DC096AE070E0E2
:1036D00080E090E00E94A30685E70E94710E81378A
:1036E00009F043C01092DC081092DD081092DE0849
:1036F0001092DF081092E0081092E1081092E208A0
:103700001092E3081092E4081092E5081092E6087F
:103710001092E70881E08093F4081092E808109274
:10372000E9081092EA081092EB081092EC08109247
:10373000ED081092EE081092EF081092F008109227
:10374000F1081092F2081092F3088093F50888E0CF
:1037500090E09093F7088093F6088BE60E94710E34
:10376000682F6F7B8BE60E94DC0968EE73E080E0D7
:1037700090E00E94A3060E94FA0E0E94F10E0E94A1
:10378000E50E0E94D90E8DE10E94710E682F677FB1
:103790008DE10E94DC090E94D00E64E670E080E0BA
:1037A00090E00E94A30602E310E01AA61BA61CA646
:1037B0001DA61EA21FA218A619A61AA21BA21CA211
:1037C0001DA2C12CD12C76014601570126013701DB
:1037D000AE014F5F5F4F6BE382ED98E00E94C80C33
:1037E00069817A81762767277627072E000C880B58
:1037F000990B0E9439236EA77FA788AB99AB6B8189
:103800007C81762767277627072E000C880B990B7B
:103810000E9439236AAB7BAB8CAB9DAB6D817E8103
:10382000762767277627072E000C880B990B0E94B6
:1038300039236EAB7FAB88AF99AF2EA53FA548A9C2
:1038400059A9C301B2010E9497242B013C012AA966
:103850003BA94CA95DA9C501B4010E9497244B0165
:103860005C012EA93FA948AD59ADC701B6010E9420
:1038700097246B017C0162ED78E0CE0101960E94F5
:103880003A0D29813A814B815C816AA17BA18CA18F
:103890009DA10E9497246AA37BA38CA39DA32D8145
:1038A0003E814F8158856EA17FA188A599A50E9470
:1038B00097246EA37FA388A799A729853A854B856E
:1038C0005C856AA57BA58CA59DA50E9497246AA707
:1038D0007BA78CA79DA761E070E080E090E00E944C
:1038E000A3060150110909F073CF20E030E048E44D
:1038F00052E4C301B2010E9475256093DC08709305
:10390000DD088093DE089093DF0820E030E048E493
:1039100052E4C501B4010E9475256093E0087093DC
:10392000E1088093E2089093E30820E030E048E467
:1039300052E4C701B6010E94752520E030E040E85E
:1039400056E40E9496246093E4087093E5088093FF
:10395000E6089093E70820E030E048E452E46AA1EA
:103960007BA18CA19DA10E9475256093E8087093AE
:10397000E9088093EA089093EB0820E030E048E4FF
:1039800052E46EA17FA188A599A50E947525609338
:10399000EC087093ED088093EE089093EF0820E018
:1039A00030E048E452E46AA57BA58CA59DA50E9461
:1039B00075256093F0087093F1088093F208909356
:1039C000F3080E94FA0E0E94F10E65E089E10E9460
:1039D000DC090E94E50E0E94D90E8DE10E94710E55
:1039E000682F677F8DE10E94DC090E94D00E61E0A4
:1039F0008AE00E94240A89E40E94710E182F68E070
:103A000083E00E94240A107F16606CE085E20E9429
:103A1000DC096AE086E20E94DC09612F83E60E94ED
:103A2000DC096AE070E080E090E00E94A30668E0B4
:103A300083E00E94240A68EC70E080E090E00E943D
:103A4000A3060E943D0A8091C6048F3F09F4BDC1C0
:103A50009091C7049F3F09F4B8C1891741F061E014
:103A60000E949A0361E08091C7040E949A038091AA
:103A7000C6049091C704891719F060E00E942D03D5
:103A800061E084EC94E00E94B90965E070E080E0B8
:103A900090E00E94A3064FE564E084EC94E00E946D
:103AA000710F90E080E00E94F70F6DE184EC94E0EC
:103AB0000E94E00F182F0E94BE0F6DE184EC94E08D
:103AC0000E94E00F91E0181390E09093D4048823B3
:103AD00051F0181302C00E94BE0F40E06DE184EC6B
:103AE00094E00E94710F1092D60440E06CE184ECE7
:103AF00094E00E94710F1092D8044FE361E084ECCF
:103B000094E00E94710F43E062E084EC94E00E9434
:103B1000710F80E28093CD0411E14091CD04612FBB
:103B200084EC94E00E94710F1F5F1731B1F743E0FE
:103B300063E084EC94E00E94710F85E08093D704E9
:103B40004CE465E084EC94E00E94710F40E767E08C
:103B500084EC94E00E94710F62EE84EC94E00E9489
:103B6000CE0F61EE84EC94E00E94CE0F4CE060E05A
:103B700084EC94E00E94710F60E084EC94E00E9479
:103B8000E00F8093D3040E94890F8091D3048E307C
:103B900009F01BC181E090E00E94F70F882309F42F
:103BA00095C066E084EC94E00E94E00F482F4760E7
:103BB00066E084EC94E00E94710F6DE184EC94E087
:103BC0000E94E00F482F44606DE184EC94E00E9475
:103BD000710F6CE184EC94E00E94E00F482F4F637A
:103BE0006CE184EC94E00E94710F81E08093D80432
:103BF0004091D3044C604093D30460E084EC94E0A3
:103C00000E94710F61E084EC94E00E94E00F482F65
:103C10004D7F61E084EC94E00E94710F41E063E02D
:103C200084EC94E00E94710F83E08093D70480912C
:103C3000100290911102A091120289839A83AB83A2
:103C4000E3E5F2E0849143E0BE016F5F7F4F0E94A5
:103C50009A0F62E084EC94E00E94E00FEDE4F2E061
:103C6000E49141E050E001C0440FEA95EAF7482BA7
:103C700062E084EC94E00E94710F0E94890F4091F1
:103C8000D30441604093D30460E084EC94E00E944C
:103C9000710F40E767E084EC94E00E94710F80911F
:103CA000C6049091C704891719F061E00E942D03A2
:103CB0008091D504882309F46FC04091D7046EEC3D
:103CC00074E08AE00E949A0F0E94890F90E080E0E1
:103CD0000E94562490E09093C6028093C5028AE722
:103CE0009CE0909301028093000280916A008360BF
:103CF00080936A00EC9A86E79CE090930B02809395
:103D00000A0280916900806C80936900EB9A82E7D7
:103D10009CE09093070280930602809169008C607A
:103D200080936900E99AE0919A03F0919B0382E005
:103D30008083E0919603F09197031082E0919803BD
:103D4000F091990380E180831092A203E0919E0399
:103D5000F0919F0386E08083E0919C03F0919D03A6
:103D6000808180618083E0919C03F0919D0380813C
:103D700088608083E0919C03F0919D03808180683E
:103D80008083E0919C03F0919D0380818F7D8083EF
:103D900081E08093BB022BC062E084EC94E00E943F
:103DA000E00FECE4F2E0E49121E030E001C0220F0A
:103DB000EA95EAF72095422F482362E084EC94E0EC
:103DC0000E94710F1092D5047FCFE2E0F5E090E001
:103DD00080E021E030E0338B228B019632968F30E9
:103DE000910509F0F4C082E095E00E947E0C222447
:103DF0002394312C0E94BF04AB01BC018091C70207
:103E00009091C802A091C902B091CA0288579C4EF5
:103E1000AF4FBF4F481759076A077B0758F30E94F7
:103E2000BF046093C7027093C8028093C902909345
:103E3000CA028091C5029091C6029093E9048093D2
:103E4000E80481E299E00E94980C89E299E00E94DE
:103E5000980C81E399E00E94980C80ED98E00E9414
:103E6000980D82EF94E00E94BF0A8AEE94E00E94CF
:103E7000BB0C82EC94E00E9430102091A804309199
:103E8000A9044091AA045091AB0460910409709177
:103E9000050980910609909107090E9498232091B5
:103EA000B0043091B1044091B2045091B3040E9427
:103EB00097246093B0047093B1048093B2049093FC
:103EC000B3046093AC047093AD048093AE049093FC
:103ED000AF046093C1027093C2028093C3029093B7
:103EE000C40220919A0430919B0440919C0450910B
:103EF0009D04609108097091090980910A099091C7
:103F00000B090E9498232091A2043091A3044091B0
:103F1000A4045091A5040E9497246093A204709376
:103F2000A3048093A4049093A50460939E047093CB
:103F30009F048093A0049093A1046093BD027093AA
:103F4000BE028093BF029093C0028091BC0219A26E
:103F5000805D88A3CE0180960E94020F89E992E0DD
:103F60000E94020F80913509882371F06091C5028B
:103F70007091C6026F5F7F4F7093C6026093C50257
:103F800090E080E00E945E2480912D09882371F0EA
:103F90006091C5027091C602615071097093C602AA
:103FA0006093C50290E080E00E945E2461E087E1BA
:103FB0000E942D030091C5021091C602011140C05C
:103FC000E2E0F5E08AEF9FEF338A228A13C0AC016A
:103FD000435051094330510508F4FDCE8730910517
:103FE00009F4F9CE138A128AF8CE8230910560F76F
:103FF000138A128A3296019689309105B1F7C090E2
:10400000FA04D090FB04E090FC04F090FD042AE94F
:1040100039E949E151E4C701B6010E94322387FF23
:1040200053C18CE992E00E94020F89E992E00E945C
:10403000020FE2E0F5E08DEF9FEF138A128AF4C0E1
:10404000013091F4E2E0F5E08FEF9FEF138A128ADE
:1040500005C082309105D0F7338A228A32960196C4
:104060008E309105B1F7CBCF0230B9F4E2E0F5E044
:1040700090E080E09C012D7F2530310519F08230E1
:10408000910541F4138A128A019632968F30910578
:1040900089F7B5CF338A228AF7CF0330C1F4E2E043
:1040A000F5E090E080E09C01245031092230310598
:1040B00018F08730910541F4138A128A01963296DE
:1040C0008F30910581F79BCF338A228AF7CF043056
:1040D000C1F4E2E0F5E090E080E0138A128A0196F4
:1040E00032968F30910509F48ACF9C012350310913
:1040F0002230310590F38730910579F3338A228A93
:10410000EECF0530C1F4E2E0F5E090E080E0338AE4
:10411000228A0BC08730910531F08130910519F06A
:1041200084309105A1F7138A128A019632968F3056
:10413000910581F764CF0630A9F4E2E0F5E090E064
:1041400080E0338A228A08C08730910519F08130D7
:104150009105B9F7138A128A019632968F3091052C
:1041600099F74DCF073091F4E2E0F5E090E080E080
:104170008330910544F4338A228A019632968F3037
:104180009105B1F73CCF138A128AF7CF0830A1F41A
:10419000E2E0F5E090E080E0338A228A07C08730D1
:1041A0009105D1F7109223051092220501963296BF
:1041B0008F309105A1F723CF0930A9F4E2E0F5E0B3
:1041C00090E080E0338A228A08C08730910519F098
:1041D00084309105B9F7138A128A019632968F308E
:1041E000910599F70CCF0A3008F409CFE2E0F5E029
:1041F0008CEF9FEF9C012D5F3F4F2230310518F06F
:104200008330910540F4338A228A329601968B30AE
:10421000910581F7F4CE138A128AF7CF8330910586
:1042200008F00BCF338A228A329601968C309105A2
:10423000A9F78091BC02882309F40FC241E050E045
:10424000509323054093220560E087E10E942D03EF
:104250008091BB02811111C00E94D50628EE33E087
:1042600040E050E00E946C24653F7140810591055B
:1042700020F461E087E10E942D0380E199E00E9433
:10428000730A85EE97E00E942B0B8AEF96E00E945E
:104290002B0B8FE096E00E942B0B82E095E00E94B2
:1042A0007E0C61E02091EE043091EF048091F004E7
:1042B0009091F1042817390708F060E086E10E9428
:1042C0002D030E94040896CD2AE939E941E351E41F
:1042D000C701B6010E94322387FF27C00E94D5067E
:1042E00028EE33E040E050E00E946C24653F7140CE
:1042F00081059105D0F48DEA92E00E94020F89E9D0
:1043000092E00E94020FE2E0F5E08DEF9FEF138A4A
:10431000128A05C083309105D0F7338A228A3296FB
:1043200001968C309105B1F784CF809125098823BF
:1043300019F081E0809314098091E2048051990B77
:104340000817190709F072C08091E604E2E0F5E071
:1043500030E020E086FD67C0829581708093BC02CA
:104360006091E304062E000C770B880B990B0E94DA
:10437000392320E030E040E251E40E9498234B01D1
:104380005C016091E404062E000C770B880B990BFE
:104390000E94392320E030E040E251E40E9498235B
:1043A0006B017C016091E504062E000C770B880BF5
:1043B000990B0E9439232FE832EC45E75DE30E9418
:1043C00098236EA37FA388A799A71092E704209152
:1043D000EE043091EF048091F0049091F1042817DD
:1043E0003907E0F58091BC028823C1F181E0809318
:1043F0001409E2E0F5E090E080E0138A128A29C017
:104400002630310581F441E050E05093210540937E
:1044100020052F5F3F4F32962F30310589F791E00D
:104420009093140999CF138A128AF3CF1EA21FA268
:1044300018A619A6C12CD12C760146015701C7CF69
:1044400086309105D1F621E030E0309321052093AC
:104450002005019632968F30910591F7B501A401A0
:1044600086E694E00E947F096AA37BA38CA39DA3A8
:10447000B701A60184E394E00E947F092B013C016F
:1044800020910C0930910D0940910E0950910F09AE
:104490006EA17FA188A599A50E9497242091B604BA
:1044A0003091B7044091B8045091B9040E94982308
:1044B0002091BE043091BF044091C0045091C104CA
:1044C0000E9497246B017C01C092BE04D092BF046D
:1044D000E092C004F092C104C092BA04D092BB042E
:1044E000E092BC04F092BD048090C1029090C202A0
:1044F000A090C302B090C40220E030E0A901C50141
:10450000B4010E94442618160CF081C020E030E06F
:1045100040E85FE3C501B4010E94442618160CF47C
:1045200080C08090BD029090BE02A090BF02B0906B
:10453000C00220E030E0A901C501B4010E94442678
:1045400018160CF078C020E030E040E85FE3C501C9
:10455000B4010E94442618160CF463C020E030E039
:1045600040E051E4C701B6010E9498232EA13FA16B
:1045700048A559A50E9497244B015C0120E030E03A
:1045800040EE50EC0E94322387FD60C020E030E016
:1045900040EE50E4C501B4010E944426181634F4DC
:1045A000812C912C90EEA92E90E4B92E7501640116
:1045B000930182014AA15BA16CA17DA181E090E001
:1045C0000E94AA10AB01BC0185EE97E00E94DC0AB4
:1045D00093014AA15BA16CA17DA182E090E00E94C1
:1045E000AA10AB01BC018AEF96E00E94DC0A93019D
:1045F0004AA15BA16CA17DA183E090E00E94AA107A
:10460000AB01BC018FE096E00E94DC0A12CE20E0F4
:1046100030E040E85FEBC501B4010E94322387FF20
:1046200080CF412C512C32014AA25BA26CA27DA208
:1046300053014201BBCF20E030E040E85FEBC50111
:10464000B4010E94322387FDECCF88CF812C912CBE
:1046500080EEA82E80ECB82EA9CF109223051092E0
:104660002205F2CD0E94742308F481E00895E894B5
:1046700009C097FB3EF490958095709561957F4FAA
:104680008F4F9F4F9923A9F0F92F96E9BB27939558
:10469000F695879577956795B795F111F8CFFAF468
:1046A000BB0F11F460FF1BC06F5F7F4F8F4F9F4F99
:1046B00016C0882311F096E911C0772321F09EE8F7
:1046C000872F762F05C0662371F096E8862F70E05D
:1046D00060E02AF09A95660F771F881FDAF7880F37
:1046E0009695879597F90895990F0008550FAA0B8D
:1046F000E0E8FEEF16161706E807F907C0F01216F5
:104700001306E407F50798F0621B730B840B950BF7
:1047100039F40A2661F0232B242B252B21F408954C
:104720000A2609F4A140A6958FEF811D811D0895E9
:104730000E94AB230C941C240E940E2438F00E948B
:10474000152420F0952311F00C9405240C940B24CF
:1047500011240C9450240E942D2470F3959FC1F3D2
:10476000950F50E0551F629FF001729FBB27F00D1F
:10477000B11D639FAA27F00DB11DAA1F649F662774
:10478000B00DA11D661F829F2227B00DA11D621FC3
:10479000739FB00DA11D621F839FA00D611D221F7D
:1047A000749F3327A00D611D231F849F600D211D61
:1047B000822F762F6A2F11249F5750409AF0F1F0E4
:1047C00088234AF0EE0FFF1FBB1F661F771F881F4D
:1047D00091505040A9F79E3F510580F00C9405245C
:1047E0000C9450245F3FE4F3983ED4F3869577957C
:1047F0006795B795F795E7959F5FC1F7FE2B880FF3
:10480000911D9695879597F9089597F99F6780E888
:1048100070E060E008959FEF80EC089500240A9412
:104820001616170618060906089500240A9412168B
:104830001306140605060895092E0394000C11F4BE
:10484000882352F0BB0F40F4BF2B11F460FF04C06B
:104850006F5F7F4F8F4F9F4F089557FD9058440FC4
:10486000551F59F05F3F71F04795880F97FB991FCF
:1048700061F09F3F79F0879508951216130614068C
:10488000551FF2CF4695F1DF08C016161706180619
:10489000991FF1CF86957105610508940895E894F4
:1048A000BB2766277727CB0197F90895F999FECFA3
:1048B00092BD81BDF89A992780B50895262FF99960
:1048C000FECF1FBA92BD81BD20BD0FB6F894FA9AF3
:1048D000F99A0FBE01960895A1E21A2EAA1BBB1BDE
:1048E000FD010DC0AA1FBB1FEE1FFF1FA217B307BC
:1048F000E407F50720F0A21BB30BE40BF50B661FD2
:10490000771F881F991F1A9469F760957095809595
:1049100090959B01AC01BD01CF010895EE0FFF1FE3
:10492000881F8BBF0790F691E02D19945058BB2734
:10493000AA270E94AE240C941C240E940E2438F056
:104940000E94152420F039F49F3F19F426F40C94AA
:104950000B240EF4E095E7FB0C940524E92F0E944C
:104960002D2458F3BA17620773078407950720F0C0
:1049700079F4A6F50C944F240EF4E0950B2EBA2F83
:10498000A02D0B01B90190010C01CA01A001112455
:10499000FF27591B99F0593F50F4503E68F11A1601
:1049A000F040A22F232F342F4427585FF3CF469592
:1049B00037952795A795F0405395C9F77EF41F16B4
:1049C000BA0B620B730B840BBAF09150A1F0FF0F7E
:1049D000BB1F661F771F881FC2F70EC0BA0F621F6A
:1049E000731F841F48F4879577956795B795F7955A
:1049F0009E3F08F0B0CF9395880F08F09927EE0FEF
:104A00009795879508950E940E2460F080E891E0C4
:104A100009F49EEF0E94152428F040E851E071F45B
:104A20005EEF0CC00C940B240C944F24E92FE0781B
:104A30000E942D2440F3092E052AB1F326173707CB
:104A40004807590738F00E2E07F8E02569F0E025F1
:104A5000E0640AC0EF6307F8009407FADB01B901CC
:104A60009D01DC01CA01AD01EF930E948C250E94DB
:104A70001C240E9446255F91552339F02BED3FE021
:104A800049E450FD49EC0C9497240895DF93DD2709
:104A9000B92FBF7740E85FE31616170648075B0794
:104AA00018F4D92F0E9449269F938F937F936F9379
:104AB0000E949F26E4EEF0E00E941D260E941C2426
:104AC0002F913F914F915F910E94AB23DD2351F0D5
:104AD0009058A2EA2AED3FE049EC5FE3D0785D27E9
:104AE0000E94AE24DF910C941C240E9489250C9412
:104AF0001C240E94152458F00E940E2440F029F432
:104B00005F3F29F00C94052451110C9450240C940F
:104B10000B240E942D2468F39923B1F3552391F3BC
:104B2000951B550BBB27AA2762177307840738F01C
:104B30009F5F5F4F220F331F441FAA1FA9F335D079
:104B40000E2E3AF0E0E832D091505040E695001C2D
:104B5000CAF72BD0FE2F29D0660F771F881FBB1FE7
:104B6000261737074807AB07B0E809F0BB0B802DC5
:104B7000BF01FF2793585F4F3AF09E3F510578F0F1
:104B80000C9405240C9450245F3FE4F3983ED4F336
:104B9000869577956795B795F7959F5FC9F7880FC5
:104BA000911D9695879597F90895E1E0660F771F17
:104BB000881FBB1F621773078407BA0720F0621BA8
:104BC000730B840BBA0BEE1F88F7E09508950E94D3
:104BD000EE256894B1110C94502408950E94352458
:104BE00088F09F5798F0B92F9927B751B0F0E1F0AE
:104BF000660F771F881F991F1AF0BA95C9F714C05E
:104C0000B13091F00E944F24B1E008950C944F24EC
:104C1000672F782F8827B85F39F0B93FCCF3869596
:104C200077956795B395D9F73EF4909580957095F3
:104C300061957F4F8F4F9F4F0895DF93CF931F93C1
:104C40000F93FF92EF92DF927B018C01689406C074
:104C5000DA2EEF010E94AB23FE01E894A591259185
:104C6000359145915591A6F3EF010E94AE24FE01C6
:104C70009701A801DA9469F7DF90EF90FF900F9108
:104C80001F91CF91DF9108950E94742308F48FEF54
:104C900008959B01AC0160E070E080E89FE30C9414
:104CA00075259F930E94BA260F9007FCEE5F0C9427
:104CB000E32619F416F40C940B240C94A3260E94FA
:104CC0003524B8F39923C9F3B6F39F57550B87FFE3
:104CD0000E94B1260024A0E640EA90018058569533
:104CE000979528F4805C660F771F881F20F02617A1
:104CF0003707480730F4621B730B840B20293129D6
:104D00004A2BA69517940794202531254A2758F752
:104D1000660F771F881F20F026173707480730F4E3
:104D2000620B730B840B200D311D411DA09581F783
:104D3000B901842F9158880F9695879508959B0106
:104D4000AC010C9498239F3F31F0915020F487954B
:104D500077956795B795880F911D9695879597F9E3
:104D6000089591505040660F771F881FD2F708951D
:104D70000C940B240E943524D8F3E894E0E0BB2780
:104D80009F57F0F02AED3FE049EC06C0EE0FBB0F55
:104D9000661F771F881F28F0B23A620773078407DF
:104DA00028F0B25A620B730B840BE3959A9572F755
:104DB000803830F49A95BB0F661F771F881FD2F793
:104DC00090480C94A526EF93E0FF07C0A2EA2AEDD5
:104DD0003FE049EC5FEB0E94AE240E941C240F9040
:104DE000039401FC9058E1E1F1E00C94F7269F93C5
:104DF0008F937F936F93FF93EF939B01AC010E947E
:104E00009823EF91FF910E941D262F913F914F9182
:0A4E10005F910C949823F894FFCFF3
:104E1A00FD06FD06FD06FD06FD06FD06FD06FD0670
:104E2A00ABADAF0000000017020509B2090000008F
:104E3A0000B7083F08B209000000002B0B00000071
:104E4A00006E0241022B0717023A022702180200DB
:104E5A000000009707FE062E07E4075F073D07518B
:104E6A000700000000B109CB08B2090000000035B4
:104E7A00087F09B20900000000C108E106B2090072
:104E8A00000000301000000000BB0C000000007E93
:104E9A000C00000000980D00000000980C000000B3
:104EAA0000BF0A00000000730A0D0A004241545470
:104EBA0045525920435249544943414C00424154B6
:0A4ECA0054455259204C4F57000088
:00000001FF
