:100000000C94BD010C943A140C940F140C94E4134A
:100010000C94B9130C948E130C9463130C94381332
:100020000C940D130C94EE010C94EE010C94EE0163
:100030000C94EE010C94EE010C94EE010C94EE0184
:100040000C94EE010C94EE010C94EE010C94EE0174
:100050000C94EE010C94EE010C94EE010C94C3127E
:100060000C94EE010C948F140C9465140C94EE0116
:100070000C94EE010C94EE010C94EE010C94EE0144
:100080000C94EE010C94EE010C94EE010C94EE0134
:100090000C94EE010C94EE010C94EE010C94A3115F
:1000A0000C94EE010C94EE010C94EE010C94EE0114
:1000B0000C94EE010C94EE010C94EE010C94EE0104
:1000C0000C94EE010C94EE010C94EE010C94EE01F4
:1000D0000C94EE010C94EE010C94EE010C94EE01E4
:1000E0000C94EE01084AD73B3BCE016E84BCBFFDA9
:1000F000C12F3D6C74319ABD56833DDA3D00C77FF8
:1001000011BED9E4BB4C3E916BAAAABE0000008090
:100110003F05A84CCDB2D44EB93836A9020C50B91F
:10012000918688083CA6AAAA2ABE000000803F004B
:100130000C949E160C9452040C9436040C942702D2
:100140000C94FE060C9435080C9441020C94C108E2
:100150000C945D0C0C946E020C94C5020C94A20CD1
:100160000C943D070C94B2090C942E070C941702C2
:100170000C94120B0C94610C0C946B040C94E40220
:100180000C94650C0C943A020C94CD020C94E40788
:100190000C9493040C9475040C945F070C941A044B
:1001A0000C94B7080C94F2020C94E0020C947F0DAE
:1001B0000C9451070C945C040C94A60A0C9418023D
:1001C0000C94E8020C9497070C9424040C940304F8
:1001D0000C94FD060C94DA020C943F080C943E0437
:1001E0000C947F040C94F6020C949D040C94FC0275
:1001F0000C94590C0C942B070C945A0A0C94000381
:100200000C9448040C9489040C94D0020C94CB08F0
:100210000C9405090C94D6020C94EE020C9429104F
:100220000C94BB020C9410040C94C9020C94FB02B5
:100230000C94C1020C94E1060C947F0C0C940B04FA
:100240000C94B1090C947F090C942E040001020354
:1002500004050A0B0C0D0E0F0000210024002700DE
:100260002A002D00300033000101000004010701C5
:100270000A0100002200250028002B002E0031007A
:10028000340002010000050108010B0100002000FC
:100290002300260029002C002F003200000100005E
:1002A00003010601090105050505070508080808F9
:1002B000020202020A0A08080404040401010101FE
:1002C00001010101030303030303030304070707F9
:1002D0000C0C0C0C0C0C0C0C02020202060606069E
:1002E000060606060B0B0B0B0B0B0B0B010210206B
:1002F000200808102040102040800201020108045C
:1003000002010102040810204080804020100804EF
:100310000201800402018040201008040201080448
:10032000020101020408102040800102040810208C
:10033000408000000A0B02090C0D0E08070304019F
:1003400000000000000000000000000000000000AD
:10035000000000000000000000000000000012117A
:10036000100000000000000000000000000000007D
:1003700000000000000000009E1611241FBECFEFF9
:10038000D1E2DEBFCDBF00E00CBF29E0A6ECB2E0B9
:1003900001C01D92A032B207E1F712E0A0E0B2E086
:1003A000E6EFFBE400E00BBF02C007900D92A63C15
:1003B000B107D9F711E0CDEBD1E000E006C02197FD
:1003C0000109802FFE010E947723CC3BD10780E0FA
:1003D0000807A9F70E94631A0C94F9250C940000F1
:1003E0002091F802260F3327331F21323105ECF418
:1003F00020916303FC0190E080E0243069F082E00A
:100400000895A091F8022191AC0148525D4FA40FCC
:10041000B52FB11D2C930196861798F38091F802A1
:10042000680F6093F80280E0089581E008950895D0
:10043000E0911C0380911B03E81730F4F0E0E35EC9
:10044000FC4F808190E008958FEF9FEF0895909189
:100450001C0380911B032FEF3FEF981748F4E92FFF
:10046000F0E0E35EFC4F208130E09F5F90931C033F
:10047000C901089580911B0390911C03891B990B5E
:100480000895CF92DF92EF92FF920F931F93CF9335
:10049000DF937C01CB018A0120916903222389F03B
:1004A000EB016B01C40ED51ECC15DD0569F0699119
:1004B000D701ED91FC910190F081E02DC7011995D4
:1004C000F3CF642F0E94F001C801DF91CF911F91FB
:1004D0000F91FF90EF90DF90CF900895CF93DF932F
:1004E0001F92CDB7DEB76983209169032223F9F00B
:1004F00020918C03203258F021E030E0FC0133835E
:10050000228390E080E00F90DF91CF910895809159
:100510006A03E82FF0E0E559FC4F998190838F5FE3
:1005200080936A0380938C0381E090E0ECCF61E0DC
:10053000CE0101960E94F001F7CF8150823108F080
:100540005AC0E82FF0E08827E755FD4F8F4F0C94F5
:100550007723C902CD02BB02C102C502FB02D00251
:10056000D602DA02E002E402E802EE02F202FB0244
:10057000F602FC020003809180008F778093800058
:100580000895809180008F7DF9CF80918000877FD2
:10059000F5CF84B58F7784BD089584B58F7DFBCF6B
:1005A0008091B0008F778093B00008958091B00063
:1005B0008F7DF9CF809190008F7780939000089580
:1005C000809190008F7DF9CF80919000877FF5CF4B
:1005D0008091A0008F778093A00008958091A00063
:1005E0008F7DF9CF8091A000877FF5CF809120018A
:1005F0008F77809320010895809120018F7DF9CF1E
:1006000080912001877FF5CFCF93DF93282F30E0B3
:10061000F901EE5CFC4F8491F901E451FD4FD49156
:10062000F901EA55FD4FC491CC23A1F081110E943C
:100630009D02EC2FF0E0EE0FFF1FE457FD4FA59158
:10064000B491EC91ED2381E090E009F480E0DF913A
:10065000CF91089580E090E0FACF1F93CF93DF937E
:10066000282F30E0F901EE5CFC4F8491F901E45150
:10067000FD4FD491F901EA55FD4FC491CC23A9F067
:10068000162F81110E949D02EC2FF0E0EE0FFF1F4C
:10069000EE58FD4FA591B4918FB7F894EC911111DC
:1006A00008C0D095DE23DC938FBFDF91CF911F91DF
:1006B0000895DE2BF8CF1F93CF93DF93C1E0C09353
:1006C000D702882399F1D091B8001091BA00809197
:1006D000BC008A7B8093BC0060E084E10E942D0313
:1006E00060E085E10E942D0310926303C0936203D2
:1006F00010923D0361E084E10E942D0361E085E1F9
:100700000E942D038091B9008E7F8093B900809163
:10071000B9008D7F8093B90088E48093B80085E4A8
:100720008093BC001093BA00D093B800DF91CF91B2
:100730001F910895CF93DF9390E0FC01E451FD4FAA
:1007400024918A559D4FFC0184918823D1F090E03B
:10075000880F991FFC01E85AFD4FA591B491FC0147
:10076000EE58FD4FC591D49161110EC09FB7F8941A
:100770008C91E22FE0958E238C932881E223E883ED
:100780009FBFDF91CF9108958FB7F894EC91E22B42
:10079000EC938FBFF6CF1F93CF93DF93182FEB010E
:1007A00061E00E949A03209739F460E0812FDF9185
:1007B000CF911F910C942D03CF3FD10511F461E02F
:1007C000F5CFE12FF0E0EE5CFC4FE491E150E23137
:1007D00008F0B3C0F0E08827EF50FC4F8F4F0C9427
:1007E000772303040B0410041A0424049D042E042C
:1007F00036043E04480452045C046B0475049D04F2
:100800007F048904930484B5806884BDC7BDDF91EB
:10081000CF911F91089584B5806284BDC8BDF7CF84
:1008200080918000806880938000D0938900C0937D
:100830008800EDCF80918000806280938000D0930B
:100840008B00C0938A00E3CF809180008860809302
:100850008000D0938D00C0938C00D9CF8091B000E0
:1008600080688093B000C093B300D1CF8091B00076
:1008700080628093B000C093B400C9CF8091900093
:10088000806880939000D0939900C0939800BFCF68
:1008900080919000806280939000D0939B00C093E1
:1008A0009A00B5CF80919000886080939000D0939B
:1008B0009D00C0939C00ABCF8091A0008068809386
:1008C000A0008091A0008F7B8093A000D093A9000E
:1008D000C093A8009CCF8091A00080628093A0006C
:1008E000D093AB00C093AA0092CF8091A000886003
:1008F0008093A000D093AD00C093AC0088CF8091CE
:100900002001806880932001D0932901C0932801A1
:100910007ECF80912001806280932001D0932B01B3
:10092000C0932A0174CF80912001886080932001B8
:10093000D0932D01C0932C016ACFC038D1050CF0A3
:100940003ECF33CF863308F0865320917B00982F1B
:100950009870277F922B90937B00877080648093A0
:100960007C0080917A00806480937A0080917A0084
:1009700086FDFCCF809178009091790008953FB773
:10098000F8948091D3029091D402A091D502B091B5
:10099000D60226B5A89B05C02F3F19F00196A11DD0
:1009A000B11D3FBFBA2FA92F982F8827BC01CD01B9
:1009B000620F711D811D911D42E0660F771F881F18
:1009C000991F4A95D1F708958F929F92AF92BF9247
:1009D000CF92DF92EF92FF920F931F93CF93DF930B
:1009E000D0918C03D13208F0D7C0182FC0918B035F
:1009F0000E94BF046B017C018091630381116BC075
:100A000082E080936303109362038FEF809361030E
:100A100010926003D0935F03ABE6B3E0EFE3F3E043
:100A200080E0D81391C010923E0380913E03CC0F1A
:100A3000C82BC0933E0380913D03813009F088C0EC
:100A400010923D030E94BF046B017C0180913E0324
:100A50008093BB008091650390916603A09167032A
:100A6000B0916803892B8A2B8B2BA1F00E94BF04C5
:100A7000009165031091660320916703309168032C
:100A80006C197D098E099F09061717072807390772
:100A900008F442C08091BC0083FDD8CF85EC8093E0
:100AA000BC000E94BF046B017C0180916303823013
:100AB00009F450C0809161038F3F09F46FC08091A9
:100AC0006103803209F46CC080916103803309F4C2
:100AD00069C084E026C08091650390916603A0916F
:100AE0006703B0916803892B8A2B8B2B09F484CF81
:100AF0000E94BF048090650390906603A0906703F6
:100B0000B09068036C197D098E099F0986169706B7
:100B1000A806B90608F070CF809164030E945B03B9
:100B200085E010926A0310928C0310926903DF91A2
:100B3000CF911F910F91FF90EF90DF90CF90BF90DA
:100B4000AF909F908F9008959D9191938F5F69CF03
:100B500085EEA5CF8091650390916603A091670310
:100B6000B0916803892B8A2B8B2B09F49ECF0E94AE
:100B7000BF040091650310916603209167033091D3
:100B800068036C197D098E099F0906171707280746
:100B9000390708F08ACFC0CF81E0C3CF80E0C1CF52
:100BA00082E0BFCF83E0BDCFCF92DF92EF92FF9282
:100BB0000F931F93CF93DF93D82FC62F613208F086
:100BC00098C00E94BF046B017C0180916303811176
:100BD0006BC081E080936303809362039FEF9093E7
:100BE0006103109260039C0F90935F0380933E0318
:100BF00080913E03DD0FD82BD0933E0380913D03BF
:100C0000813009F078C010923D030E94BF046B014F
:100C10007C0180913E038093BB008091650390919D
:100C20006603A0916703B0916803892B8A2B8B2BF5
:100C3000A1F00E94BF04009165031091660320910A
:100C40006703309168036C197D098E099F090617A7
:100C500017072807390708F448C08091BC0083FDB6
:100C6000D8CF85EC8093BC000E94BF046B017C014F
:100C700080916303813009F440C0809160038C1738
:100C800010F4C0916003EFE3F3E0ADE1B3E080E086
:100C90008C1355C08C2FDF91CF911F910F91FF9036
:100CA000EF90DF90CF900895809165039091660357
:100CB000A0916703B0916803892B8A2B8B2B09F4D1
:100CC00084CF0E94BF0400916503109166032091B8
:100CD0006703309168036C197D098E099F09061717
:100CE00017072807390708F070CF809164030E9426
:100CF0005B03C0E0CFCF85EEB5CF809165039091C7
:100D00006603A0916703B0916803892B8A2B8B2B14
:100D100009F4AECF0E94BF040091650310916603F1
:100D200020916703309168036C197D098E099F0932
:100D3000061717072807390708F09ACFD6CF9191E1
:100D40009D938F5FA5CF8F929F92AF92BF92CF92CC
:100D5000DF92EF92FF924B015C010E94BF046B0196
:100D60007C010E94BF046C197D098E099F09683EB1
:100D7000734081059105A8F321E0821A9108A1082A
:100D8000B10888EEC80E83E0D81EE11CF11C811466
:100D90009104A104B10429F7FF90EF90DF90CF9068
:100DA000BF90AF909F908F9008952FB7F894609167
:100DB000CF027091D0028091D1029091D2022FBFC8
:100DC0000895CF93DF93EC01CB01BA012A813B81D7
:100DD0004C815D810E9481222A853B854C855D8501
:100DE0000E9480236A877B878C879D876E837F83A1
:100DF00088879987DF91CF9108950895AF92BF9228
:100E0000CF92DF92EF92FF920F931F93CF93DF93D6
:100E10006C017B018B01040F151FEB015E01AE1805
:100E2000BF08C017D10759F06991D601ED91FC9127
:100E30000190F081E02DC6011995892B79F7C50144
:100E4000DF91CF911F910F91FF90EF90DF90CF90A6
:100E5000BF90AF90089590E080E00895FC01538D1D
:100E6000448D252F30E0842F90E0821B930B541784
:100E700010F0CF96089501970895FC01918D828D11
:100E8000981761F0A28DAE0FBF2FB11D5D968C91AA
:100E9000928D9F5F9F73928F90E008958FEF9FEFE9
:100EA0000895FC01918D828D981731F0828DE80FA5
:100EB000F11D858D90E008958FEF9FEF0895FC015F
:100EC000918D228D892F90E0805C9F4F821B91092C
:100ED0008F73992708958DE893E00E945F0721E0C2
:100EE000892B09F420E0822F0895FC01A48DA80F1E
:100EF000B92FB11DA35ABF4F2C91848D90E001965C
:100F00008F739927848FA689B7892C93A089B1897B
:100F10008C91837080648C93938D848D981306C01C
:100F20000288F389E02D80818F7D80830895EF9280
:100F3000FF920F931F93CF93DF93EC0181E0888F93
:100F40009B8D8C8D98131AC0E889F989808185FF63
:100F500015C09FB7F894EE89FF896083E889F98905
:100F600080818370806480839FBF81E090E0DF9107
:100F7000CF911F910F91FF90EF900895F62E0B8D5A
:100F800010E00F5F1F4F0F731127E02E8C8D8E1115
:100F90000CC00FB607FCFACFE889F989808185FF7C
:100FA000F5CFCE010E947507F1CFEB8DEC0FFD2F31
:100FB000F11DE35AFF4FF0829FB7F8940B8FEA8937
:100FC000FB8980818062CFCFCF93DF93EC01888D46
:100FD0008823B9F0AA89BB89E889F9898C9185FDB4
:100FE00003C0808186FD0DC00FB607FCF7CF8C9142
:100FF00085FFF2CF808185FFEDCFCE010E9475077E
:10100000E9CFDF91CF91089580E090E0892B29F01E
:101010000E946B0781110E94000080E090E0892B04
:1010200049F080E090E0892B29F00E9400008111B6
:101030000E94000080E090E0892B49F080E090E081
:10104000892B29F00E94000081110E94000080E09D
:1010500090E0892B49F080E090E0892B29F00E94F4
:10106000000081110C9400000895FC01148A158A77
:10107000168A178A108A118A128A138A08958F9203
:101080009F92AF92BF92CF92DF92EF92FF92CF9357
:10109000DF93EC01CB01BA0188889988AA88BB88C4
:1010A000A50194010E947F236B017C018C8D882314
:1010B00001F12AED3FE049E450E4C701B6010E9486
:1010C0002D251816BCF52BED3FE049EC50E4C70187
:1010D000B6010E947F236B017C012BED3FE049ECC0
:1010E00050E4C501B4010E9480236C8B7D8B8E8BF4
:1010F0009F8B288D398D4A8D5B8DC701B6010E946B
:101100005E24AB01BC014E835F8368877987CE0183
:101110000A960E94E1066E817F8188859985DF911C
:10112000CF91FF90EF90DF90CF90BF90AF909F90C6
:101130008F9008952BED3FE049EC50ECC701B601CC
:101140000E941B2287FFD5CF2BED3FE049EC50E4F6
:10115000C701B6010E9480236B017C012BED3FE0AB
:1011600049EC50E4C501B4010E947F23BECFFC01CD
:10117000148A158A168A178A108A118A128A138A83
:101180000895FC011286138614861586168217822E
:10119000108611860895AF92BF92CF92DF92EF92A0
:1011A000FF920F931F93CF93DF93EC015A016B01D2
:1011B000EA84FB840C851D859A01AB01B701C80147
:1011C0000E942D25181674F0EE84FF840889198971
:1011D0009501A601B701C8010E941B2287FD02C02C
:1011E00075018601C701D8018E839F83A887B987BF
:1011F000B701C801DF91CF911F910F91FF90EF9040
:10120000DF90CF90BF90AF9008954F925F926F9212
:101210007F928F929F92AF92BF92CF92DF92EF9286
:10122000FF920F931F93CF93DF93EC016A017B0131
:101230002A853B854C855D85CB01B6010E948122C4
:101240004B015C014E845F84688879882C893D89D4
:101250004E895F89C701B6010E9481222C8D3D8D88
:101260004E8D5F8D0E9480239B01AC012C8F3D8FA2
:101270004E8F5F8F288F398F4A8F5B8FC301B201EA
:101280000E948122A50194010E9480234B015C01F0
:101290008E829F82A886B9868E01005E1F4FBC0198
:1012A000A401C8010E94CB089B01AC01C501B40197
:1012B0000E941B22882339F0B701A6017058CE0185
:1012C00042960E94E1064E815F8168857985C8015A
:1012D0000E94CB086E837F8388879987DF91CF91A7
:1012E0001F910F91FF90EF90DF90CF90BF90AF9044
:1012F0009F908F907F906F905F904F900895CF93C5
:10130000DF93EC01CB01BA012E813F8148855985DD
:101310000E947F232AA53BA54CA55DA50E948122A2
:10132000AB01BC01CE0148960E94CB082C853D85BF
:101330004E855F850E9481222C893D894E895F8977
:101340000E9480236C8B7D8B8E8B9F8B688B798B1F
:101350008A8B9B8B6E837F8388879987DF91CF9160
:1013600008950895DC01ED91FC910280F381E02D58
:101370001994CF93DF93EC018B810E942D038A8D0A
:101380009B8D8230910538F0880F991F880F991F27
:1013900005970197F1F7DF91CF910895089561E0E6
:1013A0000C94B9098EBD00000DB407FEFDCF8EB5BB
:1013B00008958CBD9DBD0895CF93DF93D82FC62F80
:1013C0008091C208811128C08091B9089091BA0813
:1013D0002091BF0831E03093690320938B03109272
:1013E0006A0310928C03DC01ED91FC910190F08175
:1013F000E02D6D2F19958091B9089091BA08DC0104
:10140000ED91FC910190F081E02D6C2F199581E018
:10141000DF91CF910C94E4048091BD089091BE08B7
:101420000E94D90960E08091C0080E942D038D2F91
:101430000E94D2098C2F0E94D20961E08091C008DD
:10144000DF91CF910C942D03CF93CFB7F894809177
:10145000C602811127C0EBEDF2E08491E1E2F3E0F6
:101460009491E82FF0E0EE0FFF1FE85AFD4FA59191
:10147000B491EC91E92321F461E085E30E942D030E
:1014800061E085E30E949A038CB580618CBD8CB5C8
:1014900080648CBD61E084E30E949A0361E083E391
:1014A0000E949A038091C6028F5F8093C602CFBFCD
:1014B000CF9108950F931F93CF93DF93EC018C810D
:1014C000882341F10E94D506AB01BC018D819E812C
:1014D000AF81B88509851A852B853C85800F911FC2
:1014E000A21FB31F481759076A077B0740F41C82E5
:1014F00084E090E0DF91CF911F910F91089561E01A
:101500008A810E942D030E94D5066D837E838F837E
:1015100098871C820E94D506AB01BC018D819E81FB
:10152000AF81B8850D851E852F853889800F911F65
:10153000A21FB31F84179507A607B70720F460E022
:101540008A810E942D0390E080E0D4CFCF93DF9377
:10155000EC018A810E94A204BC01990F880B990BAF
:101560000E9422229B01AC016C857D858E859F8522
:101570000E948122688779878A879B8790E080E034
:10158000DF91CF9108954F925F926F927F928F92E9
:101590009F92AF92BF92CF92DF92EF92FF920F9302
:1015A0001F93CF93DF93EC014A018B015C018AE624
:1015B000A80EB11C4C885D886E887F88730162011B
:1015C000F7FAF094F7F8F0949A01AB01C701B6016D
:1015D0000E942D25181664F09401A801C301B201E0
:1015E0000E941B227301620187FD02C06401780121
:1015F000B701A601C5010E947F096CAB7DAB8EAB24
:101600009FABDF91CF911F910F91FF90EF90DF90F3
:10161000CF90BF90AF909F908F907F906F905F9092
:101620004F9008954F925F926F927F928F929F9208
:10163000AF92BF92CF92DF92EF92FF920F931F93E0
:10164000CF93DF93EC016C857D85072E000C880B12
:10165000990B0E9422226B017C011D861C866E85DF
:101660007F85072E000C880B990B0E9422229B017C
:10167000AC01C701B6010E945E242BED3FE049E4B6
:1016800050E40E9481229B01AC010E94802328A586
:1016900039A54AA55BA50E948023AB01BC0148A7E0
:1016A00059A76AA77BA7CE0182539F4F0E943F088C
:1016B0004B015C0188AA99AAAAAABBAACCA8DDA85A
:1016C000EEA8FFA8288D398D4A8D5B8DC701B60124
:1016D0000E9481222B013C01A5019401C701B601A2
:1016E0000E947F23AB01BC01CE01C8960E94050970
:1016F0009B01AC01C301B2010E9480236B017C01FC
:1017000020E030E0A9010E942D25181694F420E075
:1017100030E040EC5FE3C701B6010E942D2587FF52
:1017200012C06FEF70E08A810E94CB036FEF70E010
:1017300087C020E030E040EC5FEBC701B6010E94BB
:101740001B22181674F38E0104561F4FB701A60111
:10175000C8010E947F0920E030E04FE753E40E9477
:101760008122288939894A895B890E945E2420E088
:1017700030E04FE753EC0E941B2287FD7FC0B7018A
:10178000A601C8010E947F0920E030E04FE753E442
:101790000E948122288939894A895B890E945E24B6
:1017A00020E030E04FE753E40E942D2518165CF14D
:1017B000B701A601C8010E947F0920E030E04FE791
:1017C00053E40E948122288939894A895B890E94D1
:1017D0005E246B017C0120E030E0A9010E942D25F0
:1017E0001816BCF020E030E04FE753E4C701B60123
:1017F0000E9480230E94D0247F836E838FEF90E02D
:101800009987888716C0C12CD12C9FE7E92E93E4D5
:10181000F92E8FEF90E09F838E83A701960160E001
:1018200070E08FE793E40E947F230E94D0247987A1
:1018300068876E817F818A810E94CB036885798564
:101840008C810E94CB0388A599A5AAA5BBA58CA7CE
:101850009DA7AEA7BFA790E080E0DF91CF911F9139
:101860000F91FF90EF90DF90CF90BF90AF909F903F
:101870008F907F906F905F904F900895C12CD12CE6
:101880008FE7E82E83ECF82EADCFCF93DF93EC01FA
:101890008A850E9404032C853D85892B39F02F5FB2
:1018A0003F4F3D872C87DF91CF910895215031091B
:1018B000F8CF86EF95E00C94450C81EE96E00C9401
:1018C000450C8CEC97E00C94450C0F931F93CF9331
:1018D000DF93EC0122968C01005E1F4FC017D107E9
:1018E00039F0FE016889229680810E942D03F6CF8F
:1018F00090E080E0DF91CF911F910F910895CF93F9
:10190000DF93EC018A810E940403AC0191E0411550
:10191000510509F490E09E832F81222321F081E07C
:101920004115510509F080E08C83211103C021E0AD
:10193000452B09F420E02D839F8390E080E0DF9128
:10194000CF910895CF93DF93EC018A810E94A20486
:101950009D838C8390E080E0DF91CF910895EF929A
:10196000FF920F931F93CF93DF93EC01162F7A0111
:101970008985811143C0888199812E8131E030931E
:10198000690320938B0310926A0310928C03DC018D
:10199000ED91FC910190F081E02D199580E00E947D
:1019A000E40466E08E810E94D40510921C038093AB
:1019B0001B0388819981DC01ED91FC910084F18504
:1019C000E02D1995892B99F08701B6E0EB0EF11CFB
:1019D00088819981DC01ED91FC910284F385E02DF1
:1019E0001995F80181938F01EE15FF0589F7DF91B5
:1019F000CF911F910F91FF90EF9008958C819D8161
:101A00000E94D90960E08F810E942D03812F806898
:101A10000E94D2098701F6E0EF0EF11C80E00E94DF
:101A2000D209D8018D938D01AE15BF05B9F761E0DC
:101A30008F81DF91CF911F910F91FF90EF900C94C8
:101A40002D038F929F92AF92BF92CF92DF92EF922F
:101A5000FF920F931F93CF93DF9300D000D0CDB7A9
:101A6000DEB78C01CB01AE014F5F5F4F63E40E9494
:101A7000AF0C69817A81762767277627072E000CBD
:101A8000880B990B0E9422224B015C016B817C81A7
:101A9000762767277627072E000C880B990B0E9464
:101AA00022226B017C016D817E8176276727762754
:101AB000072E000C880B990B0E942222F8018082CD
:101AC0009182A282B382C482D582E682F782608745
:101AD000718782879387C80126960FB6F894DEBF78
:101AE0000FBECDBFDF91CF911F910F91FF90EF906F
:101AF000DF90CF90BF90AF909F908F9008954F92BE
:101B00005F926F927F928F929F92AF92BF92CF928D
:101B1000DF92EF92FF920F931F93CF93DF93CDB796
:101B2000DEB760970FB6F894DEBF0FBECDBF8C0155
:101B3000BC016E5F7F4FCE0101960E94210DF8011E
:101B4000F5A06F2D70E090E080E00E9422224B0112
:101B50005C016F2D70E090E080E00E94202220E088
:101B600030E04AE753E40E94812220E030E040E088
:101B700058E30E9481226B017C01A5019401F801C8
:101B8000608D718D828D938D0E945E249B01AC01CE
:101B900069817A818B819C810E947F23A7019601B4
:101BA0000E9481222B013C01A5019401F801648D62
:101BB000758D868D978D0E945E249B01AC016D8191
:101BC0007E818F8198850E947F23A70196010E94C4
:101BD00081226D877E878F87988BA5019401F801FC
:101BE00060A171A182A193A10E945E249B01AC011E
:101BF00069857A858B859C850E947F23A701960144
:101C00000E9481226B017C012BED3FE049E450E40E
:101C1000C301B2010E94812220E030E044E353E49A
:101C20000E945E24F80164AB75AB86AB97AB2BEDDD
:101C30003FE049E450E46D857E858F8598890E9458
:101C4000812220E030E044E353E40E945E24F80166
:101C500060AF71AF82AF93AF2BED3FE049E450E44A
:101C6000C701B6010E94812220E030E044E353E442
:101C70000E945E24F80164AF75AF86AF97AF90E025
:101C800080E060960FB6F894DEBF0FBECDBFDF9147
:101C9000CF911F910F91FF90EF90DF90CF90BF9069
:101CA000AF909F908F907F906F905F904F9008952E
:101CB000CF93C82F8091C208811140C08091B9088C
:101CC0009091BA082091BF0831E0309369032093C6
:101CD0008B0310926A0310928C03DC01ED91FC914E
:101CE0000190F081E02D6C2F199580E00E94E404B2
:101CF00061E08091BF080E94D40510921C0380937C
:101D00001B038091B9089091BA08DC01ED91FC9118
:101D10000084F185E02D1995C0E0892B61F0809158
:101D2000B9089091BA08DC01ED91FC910284F38529
:101D3000E02D1995C82F8C2FCF9108958091BD0863
:101D40009091BE080E94D90960E08091C0080E946D
:101D50002D038C2F80680E94D20980E00E94D20956
:101D6000C82F61E08091C0080E942D03E4CFFC01E0
:101D700001900020E9F73197AF01481B590BBC01D6
:101D80008DE893E00C94FE068F929F92AF92BF92E3
:101D90000F931F93CF93DF93CDB7DEB7A1970FB605
:101DA000F894DEBF0FBECDBF19A2423008F44AE05E
:101DB0008E010F5D1F4F842E912CB12CA12CA501FB
:101DC00094010E945523E62FB901CA01EA30F4F4C8
:101DD000E05DD801EE938D01232B242B252B79F781
:101DE00090E080E0109719F0CD010E94B70EA19607
:101DF0000FB6F894DEBF0FBECDBFDF91CF911F911C
:101E00000F91BF90AF909F908F900895E95CE1CFC4
:101E100085ED8093BC008091650390916603A0914D
:101E20006703B09168030796A11DB11D23E0B69525
:101E3000A795979587952A95D1F72091BC0024FD09
:101E400003C01092630308954091650350916603A7
:101E50006091670370916803452B462B472B69F30C
:101E60000097A105B10541F02AE22A95F1F700C0DB
:101E70000197A109B109E1CF809164030C945B0340
:101E80000F931F93CF93DF93EC010C811D812E8163
:101E90003F8140E052E16AE770E090E004171507E7
:101EA0002607370740F476956795579547959F5FC6
:101EB0009630A1F797E0892F806A9095869591706A
:101EC0000E94D90960E0CE01DF91CF911F910F915F
:101ED0000C94B9090F931F93CF93DF93EC01062F56
:101EE000142F0E94400F802F80620E94D2098887A1
:101EF000812F0E94D209CE01DF91CF911F910F91C6
:101F00000C94CF094091BA0441FD0CC0426040934B
:101F1000BA0460E08BEA94E00E946A0F8BE19EE4D1
:101F20000197F1F70895FF920F931F93CF93DF93DB
:101F3000C82FF62E072F142F8BEA94E00E94400F33
:101F40008C2F80620E94D2098093B304CF2DD02FB2
:101F5000115020F089910E94D209FACF8BEA94E0C7
:101F6000DF91CF911F910F91FF900C94CF098BEAD5
:101F700094E00E94400F80E50E94D2098093B30450
:101F800083E70E94D2098BEA94E00C94CF091F9357
:101F9000CF93DF93EC01162F0E94400F812F8062B8
:101FA0000E94D2098887CE01DF91CF911F910C94B6
:101FB000CF091F93CF93DF93EC01162F0E94400FA0
:101FC000812F0E94D20988878FEF0E94D209182F93
:101FD000CE010E94CF09812FDF91CF911F910895EB
:101FE000CF93DF93EC0166E08BEA94E00E94D90F77
:101FF000877D219701F145E550E060E070E0409376
:10200000C1045093C2046093C3047093C404C0E03D
:10201000C82B4C2F66E08BEA94E00E946A0F66E0C2
:102020008BEA94E00E94D90F91E0C81390E0892FC9
:10203000DF91CF91089541E450E060E070E040937B
:10204000C1045093C2046093C3047093C404C8E0F5
:10205000DFCF9F92AF92BF92CF92DF92EF92FF922B
:102060000F931F93CF93DF9300D000D0CDB7DEB78F
:102070008C016C0182E0C80ED11C9924939467E115
:10208000C6010E94D90F80FD4AC0F80186898111DE
:102090001EC08385E82E873010F096E0E92EF82EDA
:1020A000FE18C6010E94400F81E60E94D209F80185
:1020B0008287CE0101965C01EA949FEFE91659F000
:1020C0008FEF0E94D209F50181935F01F5CFF12CCA
:1020D00086E0E82EE6CFFA94FFEFFF1621F08FEFAF
:1020E0000E94D209F8CFC6010E94CF0940E467E000
:1020F000C6010E946A0F2981F80186A197A1409626
:102100002817190609F0BBCF20A38A8181A38B81F0
:1021100082A38C8183A38E8184A395A2B0CF90E00B
:1021200080E026960FB6F894DEBF0FBECDBFDF91DC
:10213000CF911F910F91FF90EF90DF90CF90BF90C4
:10214000AF909F9008954F925F926F927F928F927F
:102150009F92AF92BF92CF92DF92EF92FF920F9336
:102160001F93CF93DF93CDB7DEB72E970FB6F894BA
:10217000DEBF0FBECDBF9E878D874A015B01280160
:10218000390120E030E84BEB54ECCB01B4010E9464
:102190001B2287FDAAC020E030E84BEB54E4C501C8
:1021A000B4010E942D2518160CF4A7C020E030E8D9
:1021B0004BEB54ECC301B2010E941B2287FDA5C06A
:1021C00020E030E84BEB54E4C301B2010E942D251E
:1021D00018160CF4A2C0A5019401C501B4010E9417
:1021E000812269837A838B839C83A3019201C3013B
:1021F000B2010E9481229B01AC0169817A818B81AD
:102200009C810E9480230E94482569837A838B8366
:102210009C8320E030E044EB52E4C701B6010E9409
:1022200081226B017C01A30192015058C501B401C8
:102230000E94FF234B015C012DE633EB44E85FE392
:102240000E947F230E943A256D837E838F83988727
:102250002BED3FE049E450E4C501B4010E947F2327
:102260000E943A2569877A878B879C872DE633EB16
:1022700044E85FE3C501B4010E9480230E943A252F
:102280002D853E852230310509F44FC023303105BC
:1022900009F454C029813A814B815C816D817E8132
:1022A0008F8198850E948122A70196010E94802338
:1022B00020E030E048EC51E40E945E242E960FB6F8
:1022C000F894DEBF0FBECDBFDF91CF911F910F916C
:1022D000FF90EF90DF90CF90BF90AF909F908F9046
:1022E0007F906F905F904F900895812C30E8932EEF
:1022F0003BEBA32E34ECB32E59CF812C20E8922E49
:102300002BEBA22E24E4B22E51CF412C90E8592E73
:102310009BEB692E94EC792E5ECF412C80E8582EF1
:102320008BEB682E84E4782E56CF29813A814B813D
:102330005C8169857A858B859C85B4CF29813A81BA
:102340004B815C81AFCF1F920F920FB60F92112479
:102350000BB60F922F933F934F935F936F937F939F
:102360008F939F93AF93BF93EF93FF938091B900A7
:10237000887F803609F44DC008F040C0883209F4E7
:10238000A7C028F5803109F49BC0C8F4882309F45C
:10239000F7C0883009F494C0FF91EF91BF91AF91DD
:1023A0009F918F917F916F915F914F913F912F916D
:1023B0000F900BBE0F900FBE0F901F901895883195
:1023C00009F486C0803241F78093610314C08034E1
:1023D00009F49BC040F48033B9F38833E9F6809365
:1023E000610385ECAEC0803509F483C0883509F4FB
:1023F00094C0883489F60E94080FCECF883909F43A
:102400008AC038F5883729F050F4883611F08037C3
:1024100019F683E08093630310921A0355C088383D
:1024200009F479C0803919F0803809F0B5CF80916E
:102430001A03803208F06FC0E0911A0381E08E0F1A
:1024400080931A038091BB00F0E0E650FD4F80833B
:102450003BC0803B39F0D0F4803A09F477C0883A29
:1024600009F09ACF84E0809363031092F9021092EE
:10247000F802F0E0E0E019958091F80281110FC0B8
:1024800081E08093F8021092D80209C0803C09F4E0
:10249000A8CF883C09F4A5CF883B09F07DCFE09117
:1024A000F90281E08E0F8093F902F0E0E852FD4FCF
:1024B00080818093BB009091F9028091F80229C03D
:1024C00080913E038093BB0085EC8093BC0064CF79
:1024D0009091600380915F03981758F5E091600335
:1024E00081E08E0F80936003F0E0E15CFC4F80811F
:1024F000E9CFE091600381E08E0F809360038091CB
:10250000BB00F0E0E15CFC4F808390916003809120
:102510005F039817C8F285E8D8CFE091600381E0A7
:102520008E0F809360038091BB00F0E0E15CFC4F74
:1025300080838091620381115ECF81E080933D03AF
:1025400084EA8093BC001092630326CF85EC8093CD
:10255000BC001092630380911A03803230F4E09142
:102560001A03F0E0E650FD4F108260911A0370E00C
:102570008AEF92E0F0E0E0E0199510921A030CCF98
:102580001092610338CF1F920F920FB60F92112451
:102590002F933F938F939F93AF93BF938091CF02DD
:1025A0009091D002A091D102B091D2023091CE028E
:1025B00023E0230F2D3758F50196A11DB11D20935F
:1025C000CE028093CF029093D002A093D102B09319
:1025D000D2028091D3029091D402A091D502B09101
:1025E000D6020196A11DB11D8093D3029093D4020F
:1025F000A093D502B093D602BF91AF919F918F91D6
:102600003F912F910F900FBE0F901F90189526E8C5
:10261000230F0296A11DB11DD2CF1F920F920FB6AC
:102620000F9211240BB60F922F933F934F935F930A
:102630006F937F938F939F93AF93BF93EF93FF938A
:10264000E0910E02F0910F021995FF91EF91BF9169
:10265000AF919F918F917F916F915F914F913F913A
:102660002F910F900BBE0F900FBE0F901F901895DB
:102670001F920F920FB60F9211240BB60F922F9349
:102680003F934F935F936F937F938F939F93AF93FA
:10269000BF93EF93FF93E0910C02F0910D02199517
:1026A000FF91EF91BF91AF919F918F917F916F912A
:1026B0005F914F913F912F910F900BBE0F900FBEE6
:1026C0000F901F9018951F920F920FB60F92112422
:1026D0000BB60F922F933F934F935F936F937F931C
:1026E0008F939F93AF93BF93EF93FF93E091020279
:1026F000F09103021995FF91EF91BF91AF919F91D6
:102700008F917F916F915F914F913F912F910F909A
:102710000BBE0F900FBE0F901F9018951F920F9237
:102720000FB60F9211240BB60F922F933F934F9336
:102730005F936F937F938F939F93AF93BF93EF9329
:10274000FF93E0910002F09101021995FF91EF9142
:10275000BF91AF919F918F917F916F915F914F91B9
:102760003F912F910F900BBE0F900FBE0F901F90B7
:1027700018951F920F920FB60F9211240BB60F925D
:102780002F933F934F935F936F937F938F939F9379
:10279000AF93BF93EF93FF93E0910A02F0910B0286
:1027A0001995FF91EF91BF91AF919F918F917F917B
:1027B0006F915F914F913F912F910F900BBE0F90B2
:1027C0000FBE0F901F9018951F920F920FB60F9289
:1027D00011240BB60F922F933F934F935F936F93F8
:1027E0007F938F939F93AF93BF93EF93FF93E0916A
:1027F0000802F09109021995FF91EF91BF91AF91F5
:102800009F918F917F916F915F914F913F912F9108
:102810000F900BBE0F900FBE0F901F9018951F9238
:102820000F920FB60F9211240BB60F922F933F9376
:102830004F935F936F937F938F939F93AF93BF93C8
:10284000EF93FF93E0910602F09107021995FF9133
:10285000EF91BF91AF919F918F917F916F915F9118
:102860004F913F912F910F900BBE0F900FBE0F9085
:102870001F9018951F920F920FB60F9211240BB64E
:102880000F922F933F934F935F936F937F938F9309
:102890009F93AF93BF93EF93FF93E0910402F09166
:1028A00005021995FF91EF91BF91AF919F918F9183
:1028B0007F916F915F914F913F912F910F900BBE40
:1028C0000F900FBE0F901F9018951F920F920FB68A
:1028D0000F9211240BB60F922F933F934F935F9358
:1028E0006F937F938F939F93AF93BF93EF93FF93D8
:1028F0008DE893E00E947507FF91EF91BF91AF9132
:102900009F918F917F916F915F914F913F912F9107
:102910000F900BBE0F900FBE0F901F9018951F9237
:102920000F920FB60F9211240BB60F922F938F9325
:102930009F93EF93FF93E0919D03F0919E0380811D
:10294000E091A303F091A40382FD1DC090818091CA
:10295000A6038F5F8F732091A703821741F0E09148
:10296000A603F0E0E357FC4F958F8093A603FF91F9
:10297000EF919F918F912F910F900BBE0F900FBEF3
:102980000F901F9018958081F2CF2F923F924F9217
:102990005F926F927F928F929F92AF92BF92CF92EF
:1029A000DF92EF92FF920F931F93CF93DF93CDB7F8
:1029B000DEB76C970FB6F894DEBF0FBECDBF4C01EB
:1029C00069877A8F4A875B8F2B873C8FE982FA82EF
:1029D0000B831C83AC86BD86CE86DF862AA93BA9E5
:1029E0004CA95DA9288B398B4A8B5B8B4EA95FA9BB
:1029F0005D8B4C8BC8ACD9ACEAACFBAC8CAD9DAD5F
:102A0000AEADBFAD8D839E83AF83B88724962CADCA
:102A10003DAD4EAD5FAD24972E8B3F8B488F598FC8
:102A20008BE292E0D40111969C938E93F401C2AE96
:102A3000D3AEE4AEF5AEFE961082118212821382FE
:102A400087E192E0D9969C938E93D8973C96C28268
:102A5000D382E482F582168217821086118689E677
:102A6000A82E82E0B82EB182A08212861386148628
:102A700015863E9612821382148215821682178260
:102A80001086118605E512E01183008389819A8101
:102A9000AB81BC81B05882879387A487B587298191
:102AA0003A814B815C8126873787408B518B7697A3
:102AB0008D819E81AF81B88580839183A283B3830A
:102AC00014019AE6290E311CD1011296CD92DD92A5
:102AD000ED92FC921597F1011682178210861186ED
:102AE0002FE532E0318320833A96C282D382E4829A
:102AF000F5821682178210861186B182A082128614
:102B00001386148615863E961282138214821582CD
:102B100016821782108611861183008380E09CE361
:102B2000ACE1B6EC82879387A487B587412C9CE300
:102B3000592E9CE1692E96E4792E46865786608A46
:102B4000718AD1019E964D925D926D927C92D19741
:102B5000A701960160E070E080E89FE30E945E2498
:102B6000F10162A773A784A795A7F296C282D382C8
:102B7000E482F58216821782108611862FE532E0F4
:102B800031832083D401AA55BF4F1296CD92DD9296
:102B9000ED92FC92159716961D921D921D921C9215
:102BA00019971196BC92AE921A961D921D921D9283
:102BB0001C921D971E9612961D921D921D921C929C
:102BC000159716961D921D921D921C92199711969B
:102BD0001C930E9320E03CE34CE156EC1A962D93A7
:102BE0003D934D935C931D971E964D925D926D9211
:102BF0007C92519746A657A660AA71AA62A773A7AE
:102C000084A795A7840102531F4FD8011296CD9235
:102C1000DD92ED92FC921597F801168217821086CC
:102C2000118681E292E0918380833A96C282D382B8
:102C3000E482F5821682178210861186B182A08204
:102C40001286138614861586A7019601C701B60160
:102C50000E948023D80158966D937D938D939C9309
:102C60005B9781E05C968C932985F40122833A8DF1
:102C700033834A8544835B8D55838B8582879C8D06
:102C8000938729813A814B815C81D401208B318BE0
:102C9000428B538B2C853D854E855F85248B358BF0
:102CA000468B578B288939894A895B89208F318FD8
:102CB000428F538FEC89FD891F96FC93EE931E97EC
:102CC0005C96CD92DD92ED92FC925F972D813E81D4
:102CD0004F81588590962D933D934D935C93939798
:102CE0002E893F89488D598D94962D933D934D9310
:102CF0005C93979761E089850E949A0361E08A85D9
:102D00000E949A0360E08B856C960FB6F894DEBF44
:102D10000FBECDBFDF91CF911F910F91FF90EF902C
:102D2000DF90CF90BF90AF909F908F907F906F90EB
:102D30005F904F903F902F900C949A032F923F9268
:102D40004F925F926F927F928F929F92AF92BF92BB
:102D5000CF92DF92EF92FF920F931F93CF93DF9367
:102D600010922D0410922C0488EE93E0A0E0B0E0C5
:102D700080932E0490932F04A0933004B0933104D9
:102D800021E332E030932B0420932A041092900325
:102D900010928F038093910390939203A0939303D7
:102DA000B093940383E492E090938E0380938D0319
:102DB00085EC90E090939A038093990384EC90E0E3
:102DC00090939C0380939B0380EC90E090939E03F0
:102DD00080939D0381EC90E09093A00380939F03E8
:102DE00082EC90E09093A2038093A10386EC90E0A4
:102DF0009093A4038093A3031092A6031092A703B9
:102E00001092A8031092A903CBE8D2E0D09319093D
:102E1000C09318098FE090E090931B0980931A09E2
:102E200060E00E949A03D0931109C093100980E1D9
:102E300090E0909313098093120960E00E949A0336
:102E4000D0930909C093080981E190E090930B09A0
:102E500080930A0960E00E949A0387E992E09093C8
:102E6000F8088093F7088EE090E09093FA0880933A
:102E7000F9081092FC081092FD081092FE081092BA
:102E8000FF0880ED97E0A0E0B0E080930009909308
:102E90000109A0930209B093030982E390E0A0E046
:102EA000B0E08093040990930509A0930609B093BC
:102EB000070961E08EE00E949A0385E892E0909312
:102EC000B8088093B7088AE294E09093BA08809398
:102ED000B90886E394E09093BC088093BB0880E532
:102EE0008093BD081092BE0888E68093BF088CE0EE
:102EF00090E09093C1088093C008882483948092C6
:102F0000C2081092C3081092C4081092C50810920B
:102F1000C6081092C7081092C8081092C9081092EB
:102F2000CA081092CB081092CC081092CD081092CB
:102F3000CE081092CF081092D0081092D1081092AB
:102F4000D2081092D3081092D4081092D50810928B
:102F5000D6081092D7081092D8081092D90810926B
:102F6000DA081092DF081092E0081092E10810923F
:102F7000E2081092E3081092E4081092E50810921B
:102F8000E6081092E7081092E8081092E9081092FB
:102F9000EA081092EB081092EC081092ED081092DB
:102FA000EE081092EF081092F0081092F1081092BB
:102FB000F2081092F3081092F4081092F50810929B
:102FC000F60804E4202E2F928AE7382E3F921F92B3
:102FD0001F929FE3992E9F92C3E3CF93CF93CF93FA
:102FE0002BE3422E4F9233EA532E5F9247ED642E2D
:102FF0006F92DAE0DF938F9250E4752E7F929F926A
:1030000087E58F93DF939DE39F93A12CB12C60EF15
:10301000C62E61E4D62E8601750123E030E044E03F
:1030200050E065E070E08CEC97E00E94C5142F92B0
:103030003F921F921F929F92CF93CF93CF934F9225
:103040005F926F92DF938F927F929F92A7E5AF93EB
:10305000DF93BDE3BF9323E130E046E050E067E05B
:1030600070E081EE96E00E94C5148DB79EB78496FD
:103070000FB6F8949EBF0FBE8DBF2F923F921F9246
:103080001F929F92CF93CF93CF934F925F926F9265
:10309000DF938F927F929F9297E59F93DF93ADE3AB
:1030A000AF9325E130E048E050E069E070E086EF62
:1030B00095E00E94C5149F9280E88F931F921F9203
:1030C0009F928F931F921F9291E49F9390E39F93FF
:1030D0001F921F921F928F929F928F931F921F9207
:1030E000A12CB12C70E8C72E7FE3D72E8601750185
:1030F00021E030E041E050E061E070E08BE095E0FD
:103100000E94C5148FE792E09093EA048093E9044B
:10311000EBEFF4E080E1DF011D928A95E9F788E1A9
:1031200090E09093EC048093EB0489E190E090931D
:10313000EE048093ED048AE190E09093F004809394
:10314000EF048BE190E09093F2048093F1048CE122
:1031500090E09093F4048093F3048DE190E09093D9
:10316000F6048093F5048EE190E09093F804809348
:10317000F7048FE190E09093FA048093F904C9EE8C
:10318000D4E00BE015E08DB79EB784960FB6F894A7
:103190009EBF0FBE8DBF22960C171D0729F061E060
:1031A00088810E949A03F7CF81E992E09093DA0434
:1031B0008093D90486E390E09093DC048093DB0451
:1031C00086E696E6A6E4B1E48093DD049093DE04FF
:1031D000A093DF04B093E00480E090E0A8E4BCE3B7
:1031E0008093E5049093E604A093E704B093E80489
:1031F00060E086E30E949A0389E792E09093D2040C
:103200008093D10487E390E09093D4048093D30417
:1032100084E190E09093D8048093D70460E087E342
:103220000E949A0383E792E09093AA048093A904F2
:103230008AE08093AD048BE08093AE0480E896E949
:10324000A8E9B0E08093AF049093B004A093B104D8
:10325000B093B20480E28093B4041092BB04109245
:10326000BC0485E08093BE0481E08093BF0485E0C8
:1032700090E0A0E0B0E08093C5049093C604A093D2
:10328000C704B093C80486E394E09093AC048093A1
:10329000AB041092B50481E090E09093D004809349
:1032A000CF048AE097EDA3EABBE380939D0490935B
:1032B0009E04A0939F04B093A0041092A1041092C6
:1032C000A2041092A3041092A40429E632E03093E1
:1032D0009C0420939B041092A5041092A6041092C3
:1032E000A7041092A80480936B0490936C04A0939D
:1032F0006D04B0936E0410926F04109270041092DB
:10330000710410927204CFE5D2E0D0936A04C093A6
:1033100069048093750490937604A0937704B09326
:1033200078041092790410927A0410927B0410921F
:103330007C04309374042093730410927D041092E3
:103340007E0410927F0410928004109283041092E5
:1033500084041092850410928604109287041092BF
:1033600088041092890410928A04E5E5F2E0F09353
:103370008204E0938104812C40E5942E43ECA42E3A
:1033800048ECB42E80928B0490928C04A0928D0411
:10339000B0928E0440E050E563EC78E440938F04F3
:1033A0005093900460939104709392044093970417
:1033B000509398046093990470939A04412C512C73
:1033C00018E4612E13E4712E4092930450929404F9
:1033D00060929504709296048093390490933A0415
:1033E000A0933B04B0933C0410923D0410923E0421
:1033F00010923F0410924004D0933804C0933704D5
:103400008093430490934404A0934504B0934604EE
:1034100010924704109248041092490410924A04F2
:10342000309342042093410410924B0410924C04B8
:1034300010924D0410924E041092510410925204B6
:103440001092530410925404109255041092560492
:103450001092570410925804F0935004E0934F04D4
:103460008092590490925A04A0925B04B0925C043A
:1034700040935D0450935E0460935F047093600416
:1034800040936504509366046093670470936804E6
:1034900040926104509262046092630470926404EA
:1034A000DF91CF911F910F91FF90EF90DF90CF9020
:1034B000BF90AF909F908F907F906F905F904F9054
:1034C0003F902F900895CF93DF93CDB7DEB7A497A9
:1034D0000FB6F894DEBF0FBECDBF789484B582607E
:1034E00084BD84B5816084BD85B5826085BD85B5A8
:1034F000816085BD80916E00816080936E00109226
:1035000081008091810082608093810080918100A0
:103510008160809381008091800081608093800031
:103520008091B10084608093B1008091B00081608F
:103530008093B0008091910082608093910080918F
:1035400091008160809391008091900081608093D0
:1035500090008091A10082608093A1008091A100E1
:1035600081608093A1008091A00081608093A00081
:1035700080912101826080932101809121018160ED
:1035800080932101809120018160809320018091AE
:103590007A00846080937A0080917A0082608093C0
:1035A0007A0080917A00816080937A0080917A001D
:1035B000806880937A001092C1008091C2088823AD
:1035C00091F061E08091C0080E949A0361E08091CF
:1035D000C0080E942D030E94240A80E58093BD0844
:1035E00081E08093BE0860E88BE60E94DC096AE017
:1035F00070E080E090E00E94A3066AE070E080E066
:1036000090E00E94A30662E087E30E94DC096AE082
:1036100070E080E090E00E94A30685E70E94580ECB
:10362000813709F043C01092C3081092C408109269
:10363000C5081092C6081092C7081092C8081092C8
:10364000C9081092CA081092CB081092CC081092A8
:10365000CD081092CE0881E08093DB081092CF084D
:103660001092D0081092D1081092D2081092D3086C
:103670001092D4081092D5081092D6081092D7084C
:103680001092D8081092D9081092DA088093DC08BA
:1036900088E090E09093DE088093DD088BE60E943E
:1036A000580E682F6F7B8BE60E94DC0968EE73E092
:1036B00080E090E00E94A3068BE10E94580E682FE4
:1036C0006C7F8BE10E94DC098AE10E94580E887FA2
:1036D000682F66608AE10E94DC098BE10E94580E27
:1036E000682F677E8BE10E94DC0911E01093DC08F3
:1036F0008CE10E94580E682F677E8CE10E94DC09E5
:103700001093DB088DE10E94580E682F677F8DE1D2
:103710000E94DC098DE10E94580E887F682F666048
:103720008DE10E94DC0964E670E080E090E00E9498
:10373000A30602E310E0198A1A8A1B8A1C8A1D8AD2
:103740001E8A1F8A188E1D861E861F86188A812C47
:10375000912C54012401350175016401AE014F5FC4
:103760005F4F6BE389EB98E00E94AF0C69817A812F
:10377000762767277627072E000C880B990B0E9467
:103780002222698F7A8F8B8F9C8F6B817C81762729
:1037900067277627072E000C880B990B0E942222A0
:1037A0006D8F7E8F8F8F98A36D817E81762767279F
:1037B0007627072E000C880B990B0E94222269A302
:1037C0007AA38BA39CA3298D3A8D4B8D5C8DC70169
:1037D000B6010E9480236B017C012D8D3E8D4F8DA3
:1037E00058A1C301B2010E9480232B013C0129A1F1
:1037F0003AA14BA15CA1C501B4010E9480234B01F9
:103800005C0169EB78E0CE0101960E94210D2981CF
:103810003A814B815C816D857E858F8598890E9478
:1038200080236D877E878F87988B2D813E814F8186
:1038300058856D897E898F89988D0E9480236D8B34
:103840007E8B8F8B988F29853A854B855C8569891E
:103850007A898B899C890E948023698B7A8B8B8BD8
:103860009C8B61E070E080E090E00E94A306015034
:10387000110909F073CF20E030E048E452E4C701B9
:10388000B6010E945E246093C3087093C4088093BD
:10389000C5089093C60820E030E048E452E4C30134
:1038A000B2010E945E246093C7087093C808809399
:1038B000C9089093CA0820E030E048E452E4C5010A
:1038C000B4010E945E2420E030E040E856E40E940B
:1038D0007F236093CB087093CC088093CD0890939E
:1038E000CE0820E030E048E452E46D857E858F8587
:1038F00098890E945E246093CF087093D0088093CB
:10390000D1089093D20820E030E048E452E46D8979
:103910007E898F89988D0E945E246093D30870936E
:10392000D4088093D5089093D60820E030E048E48E
:1039300052E469897A898B899C890E945E2460930C
:10394000D7087093D8088093D9089093DA0868EC68
:1039500070E080E090E00E94A3060E94240A80911B
:10396000AD048F3F09F4BDC19091AE049F3F09F4AF
:10397000B8C1891741F061E00E949A0361E080912B
:10398000AE040E949A038091AD049091AE04891711
:1039900019F060E00E942D0361E08BEA94E00E9440
:1039A000B90965E070E080E090E00E94A3064FE571
:1039B00064E08BEA94E00E946A0F90E080E00E944D
:1039C000F00F6DE18BEA94E00E94D90F182F0E944E
:1039D000B70F6DE18BEA94E00E94D90F91E01813C4
:1039E00090E09093BB04882351F0181302C00E940A
:1039F000B70F40E06DE18BEA94E00E946A0F1092ED
:103A0000BD0440E06CE18BEA94E00E946A0F1092E2
:103A1000BF044FE361E08BEA94E00E946A0F43E049
:103A200062E08BEA94E00E946A0F80E28093B40423
:103A300011E14091B404612F8BEA94E00E946A0F77
:103A40001F5F1731B1F743E063E08BEA94E00E9417
:103A50006A0F85E08093BE044CE465E08BEA94E055
:103A60000E946A0F40E767E08BEA94E00E946A0FC9
:103A700062EE8BEA94E00E94C70F61EE8BEA94E05D
:103A80000E94C70F4CE060E08BEA94E00E946A0F4E
:103A900060E08BEA94E00E94D90F8093BA040E9400
:103AA000820F8091BA048E3009F01BC181E090E052
:103AB0000E94F00F882309F495C066E08BEA94E039
:103AC0000E94D90F482F476066E08BEA94E00E947D
:103AD0006A0F6DE18BEA94E00E94D90F482F446091
:103AE0006DE18BEA94E00E946A0F6CE18BEA94E04E
:103AF0000E94D90F482F4F636CE18BEA94E00E943B
:103B00006A0F81E08093BF044091BA044C604093F7
:103B1000BA0460E08BEA94E00E946A0F61E08BEAED
:103B200094E00E94D90F482F4D7F61E08BEA94E02A
:103B30000E946A0F41E063E08BEA94E00E946A0F02
:103B400083E08093BE048091100290911102A091B5
:103B5000120289839A83AB83E3E5F2E0849143E028
:103B6000BE016F5F7F4F0E94930F62E08BEA94E08B
:103B70000E94D90FEDE4F2E0E49141E050E001C091
:103B8000440FEA95EAF7482B62E08BEA94E00E9442
:103B90006A0F0E94820F4091BA0441604093BA04B8
:103BA00060E08BEA94E00E946A0F40E767E08BEAEE
:103BB00094E00E946A0F8091AD049091AE04891741
:103BC00019F061E00E942D038091BC04882309F460
:103BD0006FC04091BE0465EB74E08AE00E94930FD1
:103BE0000E94820F90E080E00E943F2390E090933B
:103BF000C9028093C80281E69CE090930102809301
:103C0000000280916A00836080936A00EC9A8DE5DF
:103C10009CE090930B0280930A0280916900806C73
:103C200080936900EB9A89E59CE09093070280936A
:103C30000602809169008C6080936900E99AE091A6
:103C40009D03F0919E0382E08083E0919903F091BF
:103C50009A031082E0919B03F0919C0380E18083A2
:103C60001092A503E091A103F091A20386E0808366
:103C7000E0919F03F091A003808180618083E091B7
:103C80009F03F091A003808188608083E0919F036F
:103C9000F091A003808180688083E0919F03F09180
:103CA000A00380818F7D808381E08093C7022BC039
:103CB00062E08BEA94E00E94D90FECE4F2E0E49138
:103CC00021E030E001C0220FEA95EAF72095422F6B
:103CD000482362E08BEA94E00E946A0F1092BC04D1
:103CE0007FCFE9EEF4E090E080E021E030E0338B3C
:103CF000228B019632968F30910509F094C089EE9F
:103D000094E00E94650C22242394312C0E94BF046D
:103D1000AB01BC018091CA029091CB02A091CC0270
:103D2000B091CD0288579C4EAF4FBF4F48175907EF
:103D30006A077B0758F30E94BF046093CA0270931E
:103D4000CB028093CC029093CD028091C8029091D7
:103D5000C9029093D0048093CF0488E099E00E9438
:103D60007F0C80E199E00E947F0C88E199E00E943D
:103D70007F0C87EB98E00E947F0D89ED94E00E9414
:103D8000A60A81ED94E00E94A20C89EA94E00E94C8
:103D90002910C090EB08D090EC08E090ED08F0906E
:103DA000EE08A7019601C701B6010E948C25882361
:103DB00009F447C089E992E00E94B70E85EA92E0D3
:103DC0000E94B70E80911C09882371F06091C8028F
:103DD0007091C9026F5F7F4F7093C9026093C802F0
:103DE00090E080E00E94472380911409882371F0BD
:103DF0006091C8027091C902615071097093C90243
:103E00006093C80290E080E00E9447230091C802BE
:103E10001091C9020111D3C0E9EEF4E08AEF9FEFDF
:103E2000338A228AA6C0AC01435051094330510560
:103E300008F45DCF8730910509F459CF138A128AAF
:103E400058CF46015701E894B7F82FEF3FEF4FE7FF
:103E50005FE7C501B4010E948C2581110DC02FEFD1
:103E60003FEF4FE75FE7C501B4010E941B22181620
:103E70001CF48DE992E0A0CF2FEF3FEF4FE75FE416
:103E8000C701B6010E942D2518161CF481EA92E0A4
:103E900093CF2FEF3FEF4FE75FECC701B6010E94D2
:103EA0001B2287FDF3CF20E030E0A901C701B60156
:103EB0000E941B2287FF09C06DE28DE893E00E94FB
:103EC0009707F7FAF094F7F8F0942AE037ED43EA11
:103ED0005BE3C701B6010E9480234B015C010E9495
:103EE000D7246B017C010E9420229B01AC01C501FB
:103EF000B4010E947F234B015C014AE0C701B60177
:103F00000E94C40E6EE28DE893E00E94970720E0C5
:103F100030E040E251E4C501B4010E9481224B012E
:103F20005C010E94D7246B01F12CE12C4AE0C7010F
:103F3000B6010E94C40EC701B6010E9420229B0157
:103F4000AC01C501B4010E947F2320E030E040E2D3
:103F500051E40E9481220E94D72490E080E04AE050
:103F60000E94C40E2BCF8230910508F059CF138ADE
:103F7000128A3296019689309105A9F7C090E10422
:103F8000D090E204E090E304F090E4042AE939E9F7
:103F900049E151E4C701B6010E941B2287FF48C1D5
:103FA00088EA92E00E94B70E85EA92E00E94B70E7E
:103FB000E9EEF4E08DEF9FEF138A128AF4C001302E
:103FC00091F4E9EEF4E08FEF9FEF138A128A05C0B7
:103FD00082309105D0F7338A228A329601968E304C
:103FE0009105B1F7CBCF0230B9F4E9EEF4E090E0FF
:103FF00080E09C012D7F2530310519F0823091053C
:1040000041F4138A128A019632968F30910589F70E
:10401000B5CF338A228AF7CF0330C1F4E9EEF4E05A
:1040200090E080E09C01245031092230310518F0E5
:104030008730910541F4138A128A019632968F30A7
:10404000910581F79BCF338A228AF7CF0430C1F4E0
:10405000E9EEF4E090E080E0138A128A019632964D
:104060008F30910509F48ACF9C0123503109223009
:10407000310590F38730910579F3338A228AEECFA8
:104080000530C1F4E9EEF4E090E080E0338A228A62
:104090000BC08730910531F08130910519F08430E3
:1040A0009105A1F7138A128A019632968F309105F5
:1040B00081F764CF0630A9F4E9EEF4E090E080E007
:1040C000338A228A08C08730910519F08130910522
:1040D000B9F7138A128A019632968F30910599F7B3
:1040E0004DCF073091F4E9EEF4E090E080E08330CA
:1040F000910544F4338A228A019632968F309105D5
:10410000B1F73CCF138A128AF7CF0830A1F4E9EE59
:10411000F4E090E080E0338A228A07C0873091057E
:10412000D1F710920A0510920905019632968F3048
:104130009105A1F723CF0930A9F4E9EEF4E090E06E
:1041400080E0338A228A08C08730910519F08430D4
:104150009105B9F7138A128A019632968F3091052C
:1041600099F70CCF0A3008F409CFE9EEF4E08CEFB0
:104170009FEF9C012D5F3F4F2230310518F08330B7
:10418000910540F4338A228A329601968B3091054C
:1041900081F7F4CE138A128AF7CF8330910508F0A5
:1041A0000BCF338A228A329601968C309105A9F77B
:1041B00060E087E10E942D038091C702811111C048
:1041C0000E94D50628EE33E040E050E00E945523DF
:1041D000653F71408105910520F461E087E10E940F
:1041E0002D0387EF98E00E945A0A8CEC97E00E941A
:1041F000120B81EE96E00E94120B86EF95E00E9472
:10420000120B89EE94E00E94650C61E02091D504C8
:104210003091D6048091D7049091D804281739079B
:1042200008F060E086E10E942D030E9404086ECD34
:104230002AE939E941E351E4C701B6010E941B2292
:1042400087FF27C00E94D50628EE33E040E050E00B
:104250000E945523653F714081059105D0F489EB9B
:1042600092E00E94B70E85EA92E00E94B70EE9EE56
:10427000F4E08DEF9FEF138A128A05C08330910519
:10428000D0F7338A228A329601968C309105B1F7A5
:104290008FCF80910C09882319F081E08093FB086F
:1042A0008091CE048111BFC08091C90400511109D1
:1042B0008017110609F0B7C08091CD0486FF03C0B6
:1042C00021E02093FB086091CA04062E000C770BB6
:1042D000880B990B0E94222220E030E040E251E45A
:1042E0000E9481222B013C016091CB04062E000C20
:1042F000770B880B990B0E94222220E030E040E2ED
:1043000051E40E9481224B015C016091CC04062E95
:10431000000C770B880B990B0E9422222AE037EDC4
:1043200043E25DE30E9481226B017C01B301A201A3
:1043300089E694E00E947F096D877E878F87988B3E
:10434000B501A40187E394E00E947F094B015C0161
:104350002091F3083091F4084091F5085091F60847
:10436000C701B6010E94802320919D0430919E04D4
:1043700040919F045091A0040E9481222091A504A5
:104380003091A6044091A7045091A8040E94802374
:104390006093A5047093A6048093A7049093A80447
:1043A0006093A1047093A2048093A3049093A40447
:1043B00020E030E040E051E40E948122A701960114
:1043C0000E9480237C016B01950184014D855E85EF
:1043D0006F85788981E090E00E94A310AB01BC0159
:1043E0008CEC97E00E94C30A95014D855E856F8530
:1043F000788982E090E00E94A310AB01BC0181EEBD
:1044000096E00E94C30A95014D855E856F85788987
:1044100083E090E00E94A310AB01BC0186EF95E021
:104420000E94C30AC5CEC12CD12C7601460157018A
:10443000260137017BCF0E945D2208F481E00895B8
:10444000E89409C097FB3EF490958095709561952E
:104450007F4F8F4F9F4F9923A9F0F92F96E9BB27E4
:104460009395F695879577956795B795F111F8CF60
:10447000FAF4BB0F11F460FF1BC06F5F7F4F8F4FCB
:104480009F4F16C0882311F096E911C0772321F0C1
:104490009EE8872F762F05C0662371F096E8862F59
:1044A00070E060E02AF09A95660F771F881FDAF7B0
:1044B000880F9695879597F90895990F0008550FDD
:1044C000AA0BE0E8FEEF16161706E807F907C0F09A
:1044D00012161306E407F50798F0621B730B840BA2
:1044E000950B39F40A2661F0232B242B252B21F47C
:1044F00008950A2609F4A140A6958FEF811D811D1C
:1045000008950E9494220C9405230E94F72238F00B
:104510000E94FE2220F0952311F00C94EE220C94C0
:10452000F42211240C9439230E94162370F3959FD2
:10453000C1F3950F50E0551F629FF001729FBB279A
:10454000F00DB11D639FAA27F00DB11DAA1F649F36
:104550006627B00DA11D661F829F2227B00DA11DE9
:10456000621F739FB00DA11D621F839FA00D611D6F
:10457000221F749F3327A00D611D231F849F600D90
:10458000211D822F762F6A2F11249F5750409AF0B9
:10459000F1F088234AF0EE0FFF1FBB1F661F771F45
:1045A000881F91505040A9F79E3F510580F00C9410
:1045B000EE220C9439235F3FE4F3983ED4F38695C2
:1045C00077956795B795F795E7959F5FC1F7FE2BB0
:1045D000880F911D9695879597F9089597F99F678C
:1045E00080E870E060E008959FEF80EC089500247B
:1045F0000A941616170618060906089500240A9448
:1046000012161306140605060895092E0394000CCD
:1046100011F4882352F0BB0F40F4BF2B11F460FF5C
:1046200004C06F5F7F4F8F4F9F4F089557FD905885
:10463000440F551F59F05F3F71F04795880F97FB66
:10464000991F61F09F3F79F0879508951216130620
:104650001406551FF2CF4695F1DF08C0161617064F
:104660001806991FF1CF8695710561050894089584
:10467000E894BB2766277727CB0197F90895F99926
:10468000FECF92BD81BDF89A992780B50895262F57
:10469000F999FECF1FBA92BD81BD20BD0FB6F89427
:1046A000FA9AF99A0FBE01960895A1E21A2EAA1B52
:1046B000BB1BFD010DC0AA1FBB1FEE1FFF1FA217D2
:1046C000B307E407F50720F0A21BB30BE40BF50BCF
:1046D000661F771F881F991F1A9469F76095709558
:1046E000809590959B01AC01BD01CF010895EE0F1F
:1046F000FF1F881F8BBF0790F691E02D199450582B
:10470000BB27AA270E9497230C9405230E94F72217
:1047100038F00E94FE2220F039F49F3F19F426F46D
:104720000C94F4220EF4E095E7FB0C94EE22E92FB2
:104730000E94162358F3BA17620773078407950778
:1047400020F079F4A6F50C9438230EF4E0950B2EA6
:10475000BA2FA02D0B01B90190010C01CA01A001D3
:104760001124FF27591B99F0593F50F4503E68F12E
:104770001A16F040A22F232F342F4427585FF3CF6F
:10478000469537952795A795F0405395C9F77EF440
:104790001F16BA0B620B730B840BBAF09150A1F089
:1047A000FF0FBB1F661F771F881FC2F70EC0BA0F0F
:1047B000621F731F841F48F4879577956795B79597
:1047C000F7959E3F08F0B0CF9395880F08F0992792
:1047D000EE0F9795879508950E94F72260F080E884
:1047E00091E009F49EEF0E94FE2228F040E851E09B
:1047F00071F45EEF0CC00C94F4220C943823E92F72
:10480000E0780E94162340F3092E052AB1F32617FB
:1048100037074807590738F00E2E07F8E02569F0EA
:10482000E025E0640AC0EF6307F8009407FADB01B3
:10483000B9019D01DC01CA01AD01EF930E9475240D
:104840000E9405230E942F245F91552339F02BED00
:104850003FE049E450FD49EC0C9480230895DF9338
:10486000DD27B92FBF7740E85FE316161706480724
:104870005B0718F4D92F0E9432259F938F937F9363
:104880006F930E948825E4EEF0E00E9406250E94C6
:1048900005232F913F914F915F910E949422DD2338
:1048A00051F09058A2EA2AED3FE049EC5FE3D0785E
:1048B0005D270E949723DF910C9405230E947224A8
:1048C0000C9405230E94FE2258F00E94F72240F02B
:1048D00029F45F3F29F00C94EE2251110C943923F6
:1048E0000C94F4220E94162368F39923B1F3552304
:1048F00091F3951B550BBB27AA27621773078407F3
:1049000038F09F5F5F4F220F331F441FAA1FA9F388
:1049100035D00E2E3AF0E0E832D091505040E69576
:10492000001CCAF72BD0FE2F29D0660F771F881FD7
:10493000BB1F261737074807AB07B0E809F0BB0BCA
:10494000802DBF01FF2793585F4F3AF09E3F5105DE
:1049500078F00C94EE220C9439235F3FE4F3983EF8
:10496000D4F3869577956795B795F7959F5FC9F7C7
:10497000880F911D9695879597F90895E1E0660F48
:10498000771F881FBB1F621773078407BA0720F0C1
:10499000621B730B840BBA0BEE1F88F7E09508952A
:1049A0000E94D7246894B1110C94392308950E9471
:1049B0001E2388F09F5798F0B92F9927B751B0F070
:1049C000E1F0660F771F881F991F1AF0BA95C9F793
:1049D00014C0B13091F00E943823B1E008950C94D6
:1049E0003823672F782F8827B85F39F0B93FCCF389
:1049F000869577956795B395D9F73EF49095809510
:104A0000709561957F4F8F4F9F4F0895DF93CF93A0
:104A10001F930F93FF92EF92DF927B018C016894BA
:104A200006C0DA2EEF010E949422FE01E894A591BF
:104A30002591359145915591A6F3EF010E94972359
:104A4000FE019701A801DA9469F7DF90EF90FF90DB
:104A50000F911F91CF91DF9108950E945D2208F47C
:104A60008FEF08959B01AC0160E070E080E89FE368
:104A70000C945E249F930E94A8250F9007FCEE5F84
:104A80000C94D12519F416F40C94F4220C9491256D
:104A90000E941E23B8F39923C9F3B6F39F57550B11
:104AA00087FF0E949F250024A0E640EA90018058DD
:104AB0005695979528F4805C660F771F881F20F025
:104AC00026173707480730F4621B730B840B202925
:104AD00031294A2BA69517940794202531254A277A
:104AE00058F7660F771F881F20F0261737074807EB
:104AF00030F4620B730B840B200D311D411DA0950A
:104B000081F7B901842F9158880F9695879508955C
:104B10009B01AC010C9481220E945D22880B990BB1
:104B200008959F3F31F0915020F4879577956795D0
:104B3000B795880F911D9695879597F9089591508F
:104B40005040660F771F881FD2F708950C94F42207
:104B50000E941E23D8F3E894E0E0BB279F57F0F0B3
:104B60002AED3FE049EC06C0EE0FBB0F661F771F32
:104B7000881F28F0B23A62077307840728F0B25AF8
:104B8000620B730B840BE3959A9572F7803830F4BF
:104B90009A95BB0F661F771F881FD2F790480C9419
:104BA0009325EF93E0FF07C0A2EA2AED3FE049EC2E
:104BB0005FEB0E9497230E9405230F90039401FC52
:104BC0009058E1E1F1E00C94E5259F938F937F935A
:104BD0006F93FF93EF939B01AC010E948122EF91B1
:104BE000FF910E9406252F913F914F915F910C9468
:064BF0008122F894FFCFC2
:104BF600FD06FD06FD06FD06FD06FD06FD06FD0697
:104C0600ABADAF0000000017020509B209000000B5
:104C160000B7083F08B20900000000120B000000B0
:104C2600006E0241022B0717023A02270218020001
:104C36000000009707FE062E07E4075F073D0751B1
:104C46000700000000B109CB08B2090000000035DA
:104C5600087F09B20900000000C108E106B2090098
:104C6600000000291000000000A20C0000000065F2
:104C76000C000000007F0D000000007F0C0000000B
:104C860000A60A000000005A0A6E616E00696E6690
:104C9600006F7666000D0A00424154544552592071
:104CA600435249544943414C004241545445525998
:064CB600204C4F570000E6
:00000001FF
